{
	"contracts/TicketToken.sol": {
		"TicketToken": {
			"abi": [
				{
					"inputs": [
						{
							"internalType": "string",
							"name": "_name",
							"type": "string"
						},
						{
							"internalType": "string",
							"name": "_symbol",
							"type": "string"
						},
						{
							"internalType": "uint8",
							"name": "_decimals",
							"type": "uint8"
						},
						{
							"internalType": "uint256",
							"name": "initialSupply",
							"type": "uint256"
						},
						{
							"internalType": "uint256",
							"name": "_ticketPrice",
							"type": "uint256"
						},
						{
							"internalType": "address",
							"name": "_vendor",
							"type": "address"
						}
					],
					"stateMutability": "nonpayable",
					"type": "constructor"
				},
				{
					"anonymous": false,
					"inputs": [
						{
							"indexed": true,
							"internalType": "address",
							"name": "owner",
							"type": "address"
						},
						{
							"indexed": true,
							"internalType": "address",
							"name": "spender",
							"type": "address"
						},
						{
							"indexed": false,
							"internalType": "uint256",
							"name": "value",
							"type": "uint256"
						}
					],
					"name": "Approval",
					"type": "event"
				},
				{
					"anonymous": false,
					"inputs": [
						{
							"indexed": false,
							"internalType": "address",
							"name": "buyer",
							"type": "address"
						},
						{
							"indexed": false,
							"internalType": "uint256",
							"name": "amount",
							"type": "uint256"
						}
					],
					"name": "TicketPurchased",
					"type": "event"
				},
				{
					"anonymous": false,
					"inputs": [
						{
							"indexed": false,
							"internalType": "address",
							"name": "buyer",
							"type": "address"
						},
						{
							"indexed": false,
							"internalType": "uint256",
							"name": "amount",
							"type": "uint256"
						}
					],
					"name": "TicketRefunded",
					"type": "event"
				},
				{
					"anonymous": false,
					"inputs": [
						{
							"indexed": true,
							"internalType": "address",
							"name": "from",
							"type": "address"
						},
						{
							"indexed": true,
							"internalType": "address",
							"name": "to",
							"type": "address"
						},
						{
							"indexed": false,
							"internalType": "uint256",
							"name": "value",
							"type": "uint256"
						}
					],
					"name": "Transfer",
					"type": "event"
				},
				{
					"anonymous": false,
					"inputs": [
						{
							"indexed": false,
							"internalType": "address",
							"name": "oldVendor",
							"type": "address"
						},
						{
							"indexed": false,
							"internalType": "address",
							"name": "newVendor",
							"type": "address"
						}
					],
					"name": "VendorChanged",
					"type": "event"
				},
				{
					"inputs": [
						{
							"internalType": "address",
							"name": "_owner",
							"type": "address"
						},
						{
							"internalType": "address",
							"name": "spender",
							"type": "address"
						}
					],
					"name": "allowance",
					"outputs": [
						{
							"internalType": "uint256",
							"name": "",
							"type": "uint256"
						}
					],
					"stateMutability": "view",
					"type": "function"
				},
				{
					"inputs": [
						{
							"internalType": "address",
							"name": "spender",
							"type": "address"
						},
						{
							"internalType": "uint256",
							"name": "amount",
							"type": "uint256"
						}
					],
					"name": "approve",
					"outputs": [
						{
							"internalType": "bool",
							"name": "",
							"type": "bool"
						}
					],
					"stateMutability": "nonpayable",
					"type": "function"
				},
				{
					"inputs": [
						{
							"internalType": "address",
							"name": "account",
							"type": "address"
						}
					],
					"name": "balanceOf",
					"outputs": [
						{
							"internalType": "uint256",
							"name": "",
							"type": "uint256"
						}
					],
					"stateMutability": "view",
					"type": "function"
				},
				{
					"inputs": [
						{
							"internalType": "address",
							"name": "from",
							"type": "address"
						},
						{
							"internalType": "uint256",
							"name": "amount",
							"type": "uint256"
						}
					],
					"name": "burn",
					"outputs": [],
					"stateMutability": "nonpayable",
					"type": "function"
				},
				{
					"inputs": [
						{
							"internalType": "uint256",
							"name": "amount",
							"type": "uint256"
						}
					],
					"name": "buyTicket",
					"outputs": [],
					"stateMutability": "payable",
					"type": "function"
				},
				{
					"inputs": [],
					"name": "decimals",
					"outputs": [
						{
							"internalType": "uint8",
							"name": "",
							"type": "uint8"
						}
					],
					"stateMutability": "view",
					"type": "function"
				},
				{
					"inputs": [
						{
							"internalType": "address",
							"name": "",
							"type": "address"
						}
					],
					"name": "doormen",
					"outputs": [
						{
							"internalType": "bool",
							"name": "",
							"type": "bool"
						}
					],
					"stateMutability": "view",
					"type": "function"
				},
				{
					"inputs": [
						{
							"internalType": "address",
							"name": "to",
							"type": "address"
						},
						{
							"internalType": "uint256",
							"name": "amount",
							"type": "uint256"
						}
					],
					"name": "mint",
					"outputs": [],
					"stateMutability": "nonpayable",
					"type": "function"
				},
				{
					"inputs": [],
					"name": "name",
					"outputs": [
						{
							"internalType": "string",
							"name": "",
							"type": "string"
						}
					],
					"stateMutability": "view",
					"type": "function"
				},
				{
					"inputs": [],
					"name": "owner",
					"outputs": [
						{
							"internalType": "address",
							"name": "",
							"type": "address"
						}
					],
					"stateMutability": "view",
					"type": "function"
				},
				{
					"inputs": [
						{
							"internalType": "uint256",
							"name": "amount",
							"type": "uint256"
						}
					],
					"name": "refundTicket",
					"outputs": [],
					"stateMutability": "nonpayable",
					"type": "function"
				},
				{
					"inputs": [
						{
							"internalType": "address",
							"name": "user",
							"type": "address"
						},
						{
							"internalType": "bool",
							"name": "status",
							"type": "bool"
						}
					],
					"name": "setDoorman",
					"outputs": [],
					"stateMutability": "nonpayable",
					"type": "function"
				},
				{
					"inputs": [
						{
							"internalType": "uint256",
							"name": "newPrice",
							"type": "uint256"
						}
					],
					"name": "setTicketPrice",
					"outputs": [],
					"stateMutability": "nonpayable",
					"type": "function"
				},
				{
					"inputs": [
						{
							"internalType": "address",
							"name": "newVendor",
							"type": "address"
						}
					],
					"name": "setVendor",
					"outputs": [],
					"stateMutability": "nonpayable",
					"type": "function"
				},
				{
					"inputs": [],
					"name": "symbol",
					"outputs": [
						{
							"internalType": "string",
							"name": "",
							"type": "string"
						}
					],
					"stateMutability": "view",
					"type": "function"
				},
				{
					"inputs": [],
					"name": "ticketPrice",
					"outputs": [
						{
							"internalType": "uint256",
							"name": "",
							"type": "uint256"
						}
					],
					"stateMutability": "view",
					"type": "function"
				},
				{
					"inputs": [],
					"name": "totalSupply",
					"outputs": [
						{
							"internalType": "uint256",
							"name": "",
							"type": "uint256"
						}
					],
					"stateMutability": "view",
					"type": "function"
				},
				{
					"inputs": [
						{
							"internalType": "address",
							"name": "to",
							"type": "address"
						},
						{
							"internalType": "uint256",
							"name": "amount",
							"type": "uint256"
						}
					],
					"name": "transfer",
					"outputs": [
						{
							"internalType": "bool",
							"name": "",
							"type": "bool"
						}
					],
					"stateMutability": "nonpayable",
					"type": "function"
				},
				{
					"inputs": [
						{
							"internalType": "address",
							"name": "from",
							"type": "address"
						},
						{
							"internalType": "address",
							"name": "to",
							"type": "address"
						},
						{
							"internalType": "uint256",
							"name": "amount",
							"type": "uint256"
						}
					],
					"name": "transferFrom",
					"outputs": [
						{
							"internalType": "bool",
							"name": "",
							"type": "bool"
						}
					],
					"stateMutability": "nonpayable",
					"type": "function"
				},
				{
					"inputs": [],
					"name": "vendor",
					"outputs": [
						{
							"internalType": "address",
							"name": "",
							"type": "address"
						}
					],
					"stateMutability": "view",
					"type": "function"
				},
				{
					"inputs": [
						{
							"internalType": "address",
							"name": "",
							"type": "address"
						}
					],
					"name": "vendorBalances",
					"outputs": [
						{
							"internalType": "uint256",
							"name": "",
							"type": "uint256"
						}
					],
					"stateMutability": "view",
					"type": "function"
				},
				{
					"inputs": [],
					"name": "withdraw",
					"outputs": [],
					"stateMutability": "nonpayable",
					"type": "function"
				},
				{
					"inputs": [],
					"name": "withdrawEarnings",
					"outputs": [],
					"stateMutability": "nonpayable",
					"type": "function"
				},
				{
					"stateMutability": "payable",
					"type": "receive"
				}
			],
			"devdoc": {
				"kind": "dev",
				"methods": {},
				"version": 1
			},
			"evm": {
				"assembly": "    /* \"contracts/TicketToken.sol\":95:7958  contract TicketToken is ERC20Interface {... */\n  mstore(0x40, 0x80)\n    /* \"contracts/TicketToken.sol\":1131:1753  constructor(... */\n  callvalue\n  dup1\n  iszero\n  tag_1\n  jumpi\n  0x00\n  dup1\n  revert\ntag_1:\n  pop\n  mload(0x40)\n  sub(codesize, bytecodeSize)\n  dup1\n  bytecodeSize\n  dup4\n  codecopy\n  dup2\n  dup2\n  add\n  0x40\n  mstore\n  dup2\n  add\n  swap1\n  tag_2\n  swap2\n  swap1\n  tag_3\n  jump\t// in\ntag_2:\n    /* \"contracts/TicketToken.sol\":1365:1366  0 */\n  0x00\n    /* \"contracts/TicketToken.sol\":1346:1367  _vendor != address(0) */\n  0xffffffffffffffffffffffffffffffffffffffff\n  and\n    /* \"contracts/TicketToken.sol\":1346:1353  _vendor */\n  dup2\n    /* \"contracts/TicketToken.sol\":1346:1367  _vendor != address(0) */\n  0xffffffffffffffffffffffffffffffffffffffff\n  and\n  sub\n    /* \"contracts/TicketToken.sol\":1338:1401  require(_vendor != address(0), \"Vendor cannot be zero address\") */\n  tag_6\n  jumpi\n  mload(0x40)\n  0x08c379a000000000000000000000000000000000000000000000000000000000\n  dup2\n  mstore\n  0x04\n  add\n  tag_7\n  swap1\n  tag_8\n  jump\t// in\ntag_7:\n  mload(0x40)\n  dup1\n  swap2\n  sub\n  swap1\n  revert\ntag_6:\n    /* \"contracts/TicketToken.sol\":1422:1432  msg.sender */\n  caller\n    /* \"contracts/TicketToken.sol\":1414:1419  owner */\n  0x05\n  0x00\n    /* \"contracts/TicketToken.sol\":1414:1432  owner = msg.sender */\n  0x0100\n  exp\n  dup2\n  sload\n  dup2\n  0xffffffffffffffffffffffffffffffffffffffff\n  mul\n  not\n  and\n  swap1\n  dup4\n  0xffffffffffffffffffffffffffffffffffffffff\n  and\n  mul\n  or\n  swap1\n  sstore\n  pop\n    /* \"contracts/TicketToken.sol\":1452:1459  _vendor */\n  dup1\n    /* \"contracts/TicketToken.sol\":1443:1449  vendor */\n  0x06\n  0x00\n    /* \"contracts/TicketToken.sol\":1443:1459  vendor = _vendor */\n  0x0100\n  exp\n  dup2\n  sload\n  dup2\n  0xffffffffffffffffffffffffffffffffffffffff\n  mul\n  not\n  and\n  swap1\n  dup4\n  0xffffffffffffffffffffffffffffffffffffffff\n  and\n  mul\n  or\n  swap1\n  sstore\n  pop\n    /* \"contracts/TicketToken.sol\":1479:1484  _name */\n  dup6\n    /* \"contracts/TicketToken.sol\":1472:1476  name */\n  0x00\n    /* \"contracts/TicketToken.sol\":1472:1484  name = _name */\n  swap1\n  dup2\n  tag_9\n  swap2\n  swap1\n  tag_10\n  jump\t// in\ntag_9:\n  pop\n    /* \"contracts/TicketToken.sol\":1504:1511  _symbol */\n  dup5\n    /* \"contracts/TicketToken.sol\":1495:1501  symbol */\n  0x01\n    /* \"contracts/TicketToken.sol\":1495:1511  symbol = _symbol */\n  swap1\n  dup2\n  tag_11\n  swap2\n  swap1\n  tag_10\n  jump\t// in\ntag_11:\n  pop\n    /* \"contracts/TicketToken.sol\":1533:1542  _decimals */\n  dup4\n    /* \"contracts/TicketToken.sol\":1522:1530  decimals */\n  0x03\n  0x00\n    /* \"contracts/TicketToken.sol\":1522:1542  decimals = _decimals */\n  0x0100\n  exp\n  dup2\n  sload\n  dup2\n  0xff\n  mul\n  not\n  and\n  swap1\n  dup4\n  0xff\n  and\n  mul\n  or\n  swap1\n  sstore\n  pop\n    /* \"contracts/TicketToken.sol\":1567:1579  _ticketPrice */\n  dup2\n    /* \"contracts/TicketToken.sol\":1553:1564  ticketPrice */\n  0x02\n    /* \"contracts/TicketToken.sol\":1553:1579  ticketPrice = _ticketPrice */\n  dup2\n  swap1\n  sstore\n  pop\n    /* \"contracts/TicketToken.sol\":1636:1644  decimals */\n  0x03\n  0x00\n  swap1\n  sload\n  swap1\n  0x0100\n  exp\n  swap1\n  div\n  0xff\n  and\n    /* \"contracts/TicketToken.sol\":1628:1645  uint256(decimals) */\n  0xff\n  and\n    /* \"contracts/TicketToken.sol\":1622:1624  10 */\n  0x0a\n    /* \"contracts/TicketToken.sol\":1622:1645  10 ** uint256(decimals) */\n  tag_12\n  swap2\n  swap1\n  tag_13\n  jump\t// in\ntag_12:\n    /* \"contracts/TicketToken.sol\":1606:1619  initialSupply */\n  dup4\n    /* \"contracts/TicketToken.sol\":1606:1645  initialSupply * 10 ** uint256(decimals) */\n  tag_14\n  swap2\n  swap1\n  tag_15\n  jump\t// in\ntag_14:\n    /* \"contracts/TicketToken.sol\":1592:1603  totalSupply */\n  0x04\n    /* \"contracts/TicketToken.sol\":1592:1645  totalSupply = initialSupply * 10 ** uint256(decimals) */\n  dup2\n  swap1\n  sstore\n  pop\n    /* \"contracts/TicketToken.sol\":1675:1686  totalSupply */\n  sload(0x04)\n    /* \"contracts/TicketToken.sol\":1656:1664  balances */\n  0x07\n    /* \"contracts/TicketToken.sol\":1656:1672  balances[vendor] */\n  0x00\n    /* \"contracts/TicketToken.sol\":1665:1671  vendor */\n  0x06\n  0x00\n  swap1\n  sload\n  swap1\n  0x0100\n  exp\n  swap1\n  div\n  0xffffffffffffffffffffffffffffffffffffffff\n  and\n    /* \"contracts/TicketToken.sol\":1656:1672  balances[vendor] */\n  0xffffffffffffffffffffffffffffffffffffffff\n  and\n  0xffffffffffffffffffffffffffffffffffffffff\n  and\n  dup2\n  mstore\n  0x20\n  add\n  swap1\n  dup2\n  mstore\n  0x20\n  add\n  0x00\n  keccak256\n    /* \"contracts/TicketToken.sol\":1656:1686  balances[vendor] = totalSupply */\n  dup2\n  swap1\n  sstore\n  pop\n    /* \"contracts/TicketToken.sol\":1725:1731  vendor */\n  0x06\n  0x00\n  swap1\n  sload\n  swap1\n  0x0100\n  exp\n  swap1\n  div\n  0xffffffffffffffffffffffffffffffffffffffff\n  and\n    /* \"contracts/TicketToken.sol\":1704:1745  Transfer(address(0), vendor, totalSupply) */\n  0xffffffffffffffffffffffffffffffffffffffff\n  and\n    /* \"contracts/TicketToken.sol\":1721:1722  0 */\n  0x00\n    /* \"contracts/TicketToken.sol\":1704:1745  Transfer(address(0), vendor, totalSupply) */\n  0xffffffffffffffffffffffffffffffffffffffff\n  and\n  0xddf252ad1be2c89b69c2b068fc378daa952ba7f163c4a11628f55a4df523b3ef\n    /* \"contracts/TicketToken.sol\":1733:1744  totalSupply */\n  sload(0x04)\n    /* \"contracts/TicketToken.sol\":1704:1745  Transfer(address(0), vendor, totalSupply) */\n  mload(0x40)\n  tag_16\n  swap2\n  swap1\n  tag_17\n  jump\t// in\ntag_16:\n  mload(0x40)\n  dup1\n  swap2\n  sub\n  swap1\n  log3\n    /* \"contracts/TicketToken.sol\":1131:1753  constructor(... */\n  pop\n  pop\n  pop\n  pop\n  pop\n  pop\n    /* \"contracts/TicketToken.sol\":95:7958  contract TicketToken is ERC20Interface {... */\n  jump(tag_18)\n    /* \"#utility.yul\":7:82   */\ntag_19:\n    /* \"#utility.yul\":40:46   */\n  0x00\n    /* \"#utility.yul\":73:75   */\n  0x40\n    /* \"#utility.yul\":67:76   */\n  mload\n    /* \"#utility.yul\":57:76   */\n  swap1\n  pop\n    /* \"#utility.yul\":7:82   */\n  swap1\n  jump\t// out\n    /* \"#utility.yul\":88:205   */\ntag_20:\n    /* \"#utility.yul\":197:198   */\n  0x00\n    /* \"#utility.yul\":194:195   */\n  dup1\n    /* \"#utility.yul\":187:199   */\n  revert\n    /* \"#utility.yul\":211:328   */\ntag_21:\n    /* \"#utility.yul\":320:321   */\n  0x00\n    /* \"#utility.yul\":317:318   */\n  dup1\n    /* \"#utility.yul\":310:322   */\n  revert\n    /* \"#utility.yul\":334:451   */\ntag_22:\n    /* \"#utility.yul\":443:444   */\n  0x00\n    /* \"#utility.yul\":440:441   */\n  dup1\n    /* \"#utility.yul\":433:445   */\n  revert\n    /* \"#utility.yul\":457:574   */\ntag_23:\n    /* \"#utility.yul\":566:567   */\n  0x00\n    /* \"#utility.yul\":563:564   */\n  dup1\n    /* \"#utility.yul\":556:568   */\n  revert\n    /* \"#utility.yul\":580:682   */\ntag_24:\n    /* \"#utility.yul\":621:627   */\n  0x00\n    /* \"#utility.yul\":672:674   */\n  0x1f\n    /* \"#utility.yul\":668:675   */\n  not\n    /* \"#utility.yul\":663:665   */\n  0x1f\n    /* \"#utility.yul\":656:661   */\n  dup4\n    /* \"#utility.yul\":652:666   */\n  add\n    /* \"#utility.yul\":648:676   */\n  and\n    /* \"#utility.yul\":638:676   */\n  swap1\n  pop\n    /* \"#utility.yul\":580:682   */\n  swap2\n  swap1\n  pop\n  jump\t// out\n    /* \"#utility.yul\":688:868   */\ntag_25:\n    /* \"#utility.yul\":736:813   */\n  0x4e487b7100000000000000000000000000000000000000000000000000000000\n    /* \"#utility.yul\":733:734   */\n  0x00\n    /* \"#utility.yul\":726:814   */\n  mstore\n    /* \"#utility.yul\":833:837   */\n  0x41\n    /* \"#utility.yul\":830:831   */\n  0x04\n    /* \"#utility.yul\":823:838   */\n  mstore\n    /* \"#utility.yul\":857:861   */\n  0x24\n    /* \"#utility.yul\":854:855   */\n  0x00\n    /* \"#utility.yul\":847:862   */\n  revert\n    /* \"#utility.yul\":874:1155   */\ntag_26:\n    /* \"#utility.yul\":957:984   */\n  tag_77\n    /* \"#utility.yul\":979:983   */\n  dup3\n    /* \"#utility.yul\":957:984   */\n  tag_24\n  jump\t// in\ntag_77:\n    /* \"#utility.yul\":949:955   */\n  dup2\n    /* \"#utility.yul\":945:985   */\n  add\n    /* \"#utility.yul\":1087:1093   */\n  dup2\n    /* \"#utility.yul\":1075:1085   */\n  dup2\n    /* \"#utility.yul\":1072:1094   */\n  lt\n    /* \"#utility.yul\":1051:1069   */\n  0xffffffffffffffff\n    /* \"#utility.yul\":1039:1049   */\n  dup3\n    /* \"#utility.yul\":1036:1070   */\n  gt\n    /* \"#utility.yul\":1033:1095   */\n  or\n    /* \"#utility.yul\":1030:1118   */\n  iszero\n  tag_78\n  jumpi\n    /* \"#utility.yul\":1098:1116   */\n  tag_79\n  tag_25\n  jump\t// in\ntag_79:\n    /* \"#utility.yul\":1030:1118   */\ntag_78:\n    /* \"#utility.yul\":1138:1148   */\n  dup1\n    /* \"#utility.yul\":1134:1136   */\n  0x40\n    /* \"#utility.yul\":1127:1149   */\n  mstore\n    /* \"#utility.yul\":917:1155   */\n  pop\n    /* \"#utility.yul\":874:1155   */\n  pop\n  pop\n  jump\t// out\n    /* \"#utility.yul\":1161:1290   */\ntag_27:\n    /* \"#utility.yul\":1195:1201   */\n  0x00\n    /* \"#utility.yul\":1222:1242   */\n  tag_81\n  tag_19\n  jump\t// in\ntag_81:\n    /* \"#utility.yul\":1212:1242   */\n  swap1\n  pop\n    /* \"#utility.yul\":1251:1284   */\n  tag_82\n    /* \"#utility.yul\":1279:1283   */\n  dup3\n    /* \"#utility.yul\":1271:1277   */\n  dup3\n    /* \"#utility.yul\":1251:1284   */\n  tag_26\n  jump\t// in\ntag_82:\n    /* \"#utility.yul\":1161:1290   */\n  swap2\n  swap1\n  pop\n  jump\t// out\n    /* \"#utility.yul\":1296:1604   */\ntag_28:\n    /* \"#utility.yul\":1358:1362   */\n  0x00\n    /* \"#utility.yul\":1448:1466   */\n  0xffffffffffffffff\n    /* \"#utility.yul\":1440:1446   */\n  dup3\n    /* \"#utility.yul\":1437:1467   */\n  gt\n    /* \"#utility.yul\":1434:1490   */\n  iszero\n  tag_84\n  jumpi\n    /* \"#utility.yul\":1470:1488   */\n  tag_85\n  tag_25\n  jump\t// in\ntag_85:\n    /* \"#utility.yul\":1434:1490   */\ntag_84:\n    /* \"#utility.yul\":1508:1537   */\n  tag_86\n    /* \"#utility.yul\":1530:1536   */\n  dup3\n    /* \"#utility.yul\":1508:1537   */\n  tag_24\n  jump\t// in\ntag_86:\n    /* \"#utility.yul\":1500:1537   */\n  swap1\n  pop\n    /* \"#utility.yul\":1592:1596   */\n  0x20\n    /* \"#utility.yul\":1586:1590   */\n  dup2\n    /* \"#utility.yul\":1582:1597   */\n  add\n    /* \"#utility.yul\":1574:1597   */\n  swap1\n  pop\n    /* \"#utility.yul\":1296:1604   */\n  swap2\n  swap1\n  pop\n  jump\t// out\n    /* \"#utility.yul\":1610:1749   */\ntag_29:\n    /* \"#utility.yul\":1699:1705   */\n  dup3\n    /* \"#utility.yul\":1694:1697   */\n  dup2\n    /* \"#utility.yul\":1689:1692   */\n  dup4\n    /* \"#utility.yul\":1683:1706   */\n  mcopy\n    /* \"#utility.yul\":1740:1741   */\n  0x00\n    /* \"#utility.yul\":1731:1737   */\n  dup4\n    /* \"#utility.yul\":1726:1729   */\n  dup4\n    /* \"#utility.yul\":1722:1738   */\n  add\n    /* \"#utility.yul\":1715:1742   */\n  mstore\n    /* \"#utility.yul\":1610:1749   */\n  pop\n  pop\n  pop\n  jump\t// out\n    /* \"#utility.yul\":1755:2189   */\ntag_30:\n    /* \"#utility.yul\":1844:1849   */\n  0x00\n    /* \"#utility.yul\":1869:1935   */\n  tag_89\n    /* \"#utility.yul\":1885:1934   */\n  tag_90\n    /* \"#utility.yul\":1927:1933   */\n  dup5\n    /* \"#utility.yul\":1885:1934   */\n  tag_28\n  jump\t// in\ntag_90:\n    /* \"#utility.yul\":1869:1935   */\n  tag_27\n  jump\t// in\ntag_89:\n    /* \"#utility.yul\":1860:1935   */\n  swap1\n  pop\n    /* \"#utility.yul\":1958:1964   */\n  dup3\n    /* \"#utility.yul\":1951:1956   */\n  dup2\n    /* \"#utility.yul\":1944:1965   */\n  mstore\n    /* \"#utility.yul\":1996:2000   */\n  0x20\n    /* \"#utility.yul\":1989:1994   */\n  dup2\n    /* \"#utility.yul\":1985:2001   */\n  add\n    /* \"#utility.yul\":2034:2037   */\n  dup5\n    /* \"#utility.yul\":2025:2031   */\n  dup5\n    /* \"#utility.yul\":2020:2023   */\n  dup5\n    /* \"#utility.yul\":2016:2032   */\n  add\n    /* \"#utility.yul\":2013:2038   */\n  gt\n    /* \"#utility.yul\":2010:2122   */\n  iszero\n  tag_91\n  jumpi\n    /* \"#utility.yul\":2041:2120   */\n  tag_92\n  tag_23\n  jump\t// in\ntag_92:\n    /* \"#utility.yul\":2010:2122   */\ntag_91:\n    /* \"#utility.yul\":2131:2183   */\n  tag_93\n    /* \"#utility.yul\":2176:2182   */\n  dup5\n    /* \"#utility.yul\":2171:2174   */\n  dup3\n    /* \"#utility.yul\":2166:2169   */\n  dup6\n    /* \"#utility.yul\":2131:2183   */\n  tag_29\n  jump\t// in\ntag_93:\n    /* \"#utility.yul\":1850:2189   */\n  pop\n    /* \"#utility.yul\":1755:2189   */\n  swap4\n  swap3\n  pop\n  pop\n  pop\n  jump\t// out\n    /* \"#utility.yul\":2209:2564   */\ntag_31:\n    /* \"#utility.yul\":2276:2281   */\n  0x00\n    /* \"#utility.yul\":2325:2328   */\n  dup3\n    /* \"#utility.yul\":2318:2322   */\n  0x1f\n    /* \"#utility.yul\":2310:2316   */\n  dup4\n    /* \"#utility.yul\":2306:2323   */\n  add\n    /* \"#utility.yul\":2302:2329   */\n  slt\n    /* \"#utility.yul\":2292:2414   */\n  tag_95\n  jumpi\n    /* \"#utility.yul\":2333:2412   */\n  tag_96\n  tag_22\n  jump\t// in\ntag_96:\n    /* \"#utility.yul\":2292:2414   */\ntag_95:\n    /* \"#utility.yul\":2443:2449   */\n  dup2\n    /* \"#utility.yul\":2437:2450   */\n  mload\n    /* \"#utility.yul\":2468:2558   */\n  tag_97\n    /* \"#utility.yul\":2554:2557   */\n  dup5\n    /* \"#utility.yul\":2546:2552   */\n  dup3\n    /* \"#utility.yul\":2539:2543   */\n  0x20\n    /* \"#utility.yul\":2531:2537   */\n  dup7\n    /* \"#utility.yul\":2527:2544   */\n  add\n    /* \"#utility.yul\":2468:2558   */\n  tag_30\n  jump\t// in\ntag_97:\n    /* \"#utility.yul\":2459:2558   */\n  swap2\n  pop\n    /* \"#utility.yul\":2282:2564   */\n  pop\n    /* \"#utility.yul\":2209:2564   */\n  swap3\n  swap2\n  pop\n  pop\n  jump\t// out\n    /* \"#utility.yul\":2570:2656   */\ntag_32:\n    /* \"#utility.yul\":2605:2612   */\n  0x00\n    /* \"#utility.yul\":2645:2649   */\n  0xff\n    /* \"#utility.yul\":2638:2643   */\n  dup3\n    /* \"#utility.yul\":2634:2650   */\n  and\n    /* \"#utility.yul\":2623:2650   */\n  swap1\n  pop\n    /* \"#utility.yul\":2570:2656   */\n  swap2\n  swap1\n  pop\n  jump\t// out\n    /* \"#utility.yul\":2662:2780   */\ntag_33:\n    /* \"#utility.yul\":2733:2755   */\n  tag_100\n    /* \"#utility.yul\":2749:2754   */\n  dup2\n    /* \"#utility.yul\":2733:2755   */\n  tag_32\n  jump\t// in\ntag_100:\n    /* \"#utility.yul\":2726:2731   */\n  dup2\n    /* \"#utility.yul\":2723:2756   */\n  eq\n    /* \"#utility.yul\":2713:2774   */\n  tag_101\n  jumpi\n    /* \"#utility.yul\":2770:2771   */\n  0x00\n    /* \"#utility.yul\":2767:2768   */\n  dup1\n    /* \"#utility.yul\":2760:2772   */\n  revert\n    /* \"#utility.yul\":2713:2774   */\ntag_101:\n    /* \"#utility.yul\":2662:2780   */\n  pop\n  jump\t// out\n    /* \"#utility.yul\":2786:2925   */\ntag_34:\n    /* \"#utility.yul\":2841:2846   */\n  0x00\n    /* \"#utility.yul\":2872:2878   */\n  dup2\n    /* \"#utility.yul\":2866:2879   */\n  mload\n    /* \"#utility.yul\":2857:2879   */\n  swap1\n  pop\n    /* \"#utility.yul\":2888:2919   */\n  tag_103\n    /* \"#utility.yul\":2913:2918   */\n  dup2\n    /* \"#utility.yul\":2888:2919   */\n  tag_33\n  jump\t// in\ntag_103:\n    /* \"#utility.yul\":2786:2925   */\n  swap3\n  swap2\n  pop\n  pop\n  jump\t// out\n    /* \"#utility.yul\":2931:3008   */\ntag_35:\n    /* \"#utility.yul\":2968:2975   */\n  0x00\n    /* \"#utility.yul\":2997:3002   */\n  dup2\n    /* \"#utility.yul\":2986:3002   */\n  swap1\n  pop\n    /* \"#utility.yul\":2931:3008   */\n  swap2\n  swap1\n  pop\n  jump\t// out\n    /* \"#utility.yul\":3014:3136   */\ntag_36:\n    /* \"#utility.yul\":3087:3111   */\n  tag_106\n    /* \"#utility.yul\":3105:3110   */\n  dup2\n    /* \"#utility.yul\":3087:3111   */\n  tag_35\n  jump\t// in\ntag_106:\n    /* \"#utility.yul\":3080:3085   */\n  dup2\n    /* \"#utility.yul\":3077:3112   */\n  eq\n    /* \"#utility.yul\":3067:3130   */\n  tag_107\n  jumpi\n    /* \"#utility.yul\":3126:3127   */\n  0x00\n    /* \"#utility.yul\":3123:3124   */\n  dup1\n    /* \"#utility.yul\":3116:3128   */\n  revert\n    /* \"#utility.yul\":3067:3130   */\ntag_107:\n    /* \"#utility.yul\":3014:3136   */\n  pop\n  jump\t// out\n    /* \"#utility.yul\":3142:3285   */\ntag_37:\n    /* \"#utility.yul\":3199:3204   */\n  0x00\n    /* \"#utility.yul\":3230:3236   */\n  dup2\n    /* \"#utility.yul\":3224:3237   */\n  mload\n    /* \"#utility.yul\":3215:3237   */\n  swap1\n  pop\n    /* \"#utility.yul\":3246:3279   */\n  tag_109\n    /* \"#utility.yul\":3273:3278   */\n  dup2\n    /* \"#utility.yul\":3246:3279   */\n  tag_36\n  jump\t// in\ntag_109:\n    /* \"#utility.yul\":3142:3285   */\n  swap3\n  swap2\n  pop\n  pop\n  jump\t// out\n    /* \"#utility.yul\":3291:3417   */\ntag_38:\n    /* \"#utility.yul\":3328:3335   */\n  0x00\n    /* \"#utility.yul\":3368:3410   */\n  0xffffffffffffffffffffffffffffffffffffffff\n    /* \"#utility.yul\":3361:3366   */\n  dup3\n    /* \"#utility.yul\":3357:3411   */\n  and\n    /* \"#utility.yul\":3346:3411   */\n  swap1\n  pop\n    /* \"#utility.yul\":3291:3417   */\n  swap2\n  swap1\n  pop\n  jump\t// out\n    /* \"#utility.yul\":3423:3519   */\ntag_39:\n    /* \"#utility.yul\":3460:3467   */\n  0x00\n    /* \"#utility.yul\":3489:3513   */\n  tag_112\n    /* \"#utility.yul\":3507:3512   */\n  dup3\n    /* \"#utility.yul\":3489:3513   */\n  tag_38\n  jump\t// in\ntag_112:\n    /* \"#utility.yul\":3478:3513   */\n  swap1\n  pop\n    /* \"#utility.yul\":3423:3519   */\n  swap2\n  swap1\n  pop\n  jump\t// out\n    /* \"#utility.yul\":3525:3647   */\ntag_40:\n    /* \"#utility.yul\":3598:3622   */\n  tag_114\n    /* \"#utility.yul\":3616:3621   */\n  dup2\n    /* \"#utility.yul\":3598:3622   */\n  tag_39\n  jump\t// in\ntag_114:\n    /* \"#utility.yul\":3591:3596   */\n  dup2\n    /* \"#utility.yul\":3588:3623   */\n  eq\n    /* \"#utility.yul\":3578:3641   */\n  tag_115\n  jumpi\n    /* \"#utility.yul\":3637:3638   */\n  0x00\n    /* \"#utility.yul\":3634:3635   */\n  dup1\n    /* \"#utility.yul\":3627:3639   */\n  revert\n    /* \"#utility.yul\":3578:3641   */\ntag_115:\n    /* \"#utility.yul\":3525:3647   */\n  pop\n  jump\t// out\n    /* \"#utility.yul\":3653:3796   */\ntag_41:\n    /* \"#utility.yul\":3710:3715   */\n  0x00\n    /* \"#utility.yul\":3741:3747   */\n  dup2\n    /* \"#utility.yul\":3735:3748   */\n  mload\n    /* \"#utility.yul\":3726:3748   */\n  swap1\n  pop\n    /* \"#utility.yul\":3757:3790   */\n  tag_117\n    /* \"#utility.yul\":3784:3789   */\n  dup2\n    /* \"#utility.yul\":3757:3790   */\n  tag_40\n  jump\t// in\ntag_117:\n    /* \"#utility.yul\":3653:3796   */\n  swap3\n  swap2\n  pop\n  pop\n  jump\t// out\n    /* \"#utility.yul\":3802:5278   */\ntag_3:\n    /* \"#utility.yul\":3935:3941   */\n  0x00\n    /* \"#utility.yul\":3943:3949   */\n  dup1\n    /* \"#utility.yul\":3951:3957   */\n  0x00\n    /* \"#utility.yul\":3959:3965   */\n  dup1\n    /* \"#utility.yul\":3967:3973   */\n  0x00\n    /* \"#utility.yul\":3975:3981   */\n  dup1\n    /* \"#utility.yul\":4024:4027   */\n  0xc0\n    /* \"#utility.yul\":4012:4021   */\n  dup8\n    /* \"#utility.yul\":4003:4010   */\n  dup10\n    /* \"#utility.yul\":3999:4022   */\n  sub\n    /* \"#utility.yul\":3995:4028   */\n  slt\n    /* \"#utility.yul\":3992:4112   */\n  iszero\n  tag_119\n  jumpi\n    /* \"#utility.yul\":4031:4110   */\n  tag_120\n  tag_20\n  jump\t// in\ntag_120:\n    /* \"#utility.yul\":3992:4112   */\ntag_119:\n    /* \"#utility.yul\":4172:4173   */\n  0x00\n    /* \"#utility.yul\":4161:4170   */\n  dup8\n    /* \"#utility.yul\":4157:4174   */\n  add\n    /* \"#utility.yul\":4151:4175   */\n  mload\n    /* \"#utility.yul\":4202:4220   */\n  0xffffffffffffffff\n    /* \"#utility.yul\":4194:4200   */\n  dup2\n    /* \"#utility.yul\":4191:4221   */\n  gt\n    /* \"#utility.yul\":4188:4305   */\n  iszero\n  tag_121\n  jumpi\n    /* \"#utility.yul\":4224:4303   */\n  tag_122\n  tag_21\n  jump\t// in\ntag_122:\n    /* \"#utility.yul\":4188:4305   */\ntag_121:\n    /* \"#utility.yul\":4329:4403   */\n  tag_123\n    /* \"#utility.yul\":4395:4402   */\n  dup10\n    /* \"#utility.yul\":4386:4392   */\n  dup3\n    /* \"#utility.yul\":4375:4384   */\n  dup11\n    /* \"#utility.yul\":4371:4393   */\n  add\n    /* \"#utility.yul\":4329:4403   */\n  tag_31\n  jump\t// in\ntag_123:\n    /* \"#utility.yul\":4319:4403   */\n  swap7\n  pop\n    /* \"#utility.yul\":4122:4413   */\n  pop\n    /* \"#utility.yul\":4473:4475   */\n  0x20\n    /* \"#utility.yul\":4462:4471   */\n  dup8\n    /* \"#utility.yul\":4458:4476   */\n  add\n    /* \"#utility.yul\":4452:4477   */\n  mload\n    /* \"#utility.yul\":4504:4522   */\n  0xffffffffffffffff\n    /* \"#utility.yul\":4496:4502   */\n  dup2\n    /* \"#utility.yul\":4493:4523   */\n  gt\n    /* \"#utility.yul\":4490:4607   */\n  iszero\n  tag_124\n  jumpi\n    /* \"#utility.yul\":4526:4605   */\n  tag_125\n  tag_21\n  jump\t// in\ntag_125:\n    /* \"#utility.yul\":4490:4607   */\ntag_124:\n    /* \"#utility.yul\":4631:4705   */\n  tag_126\n    /* \"#utility.yul\":4697:4704   */\n  dup10\n    /* \"#utility.yul\":4688:4694   */\n  dup3\n    /* \"#utility.yul\":4677:4686   */\n  dup11\n    /* \"#utility.yul\":4673:4695   */\n  add\n    /* \"#utility.yul\":4631:4705   */\n  tag_31\n  jump\t// in\ntag_126:\n    /* \"#utility.yul\":4621:4705   */\n  swap6\n  pop\n    /* \"#utility.yul\":4423:4715   */\n  pop\n    /* \"#utility.yul\":4754:4756   */\n  0x40\n    /* \"#utility.yul\":4780:4842   */\n  tag_127\n    /* \"#utility.yul\":4834:4841   */\n  dup10\n    /* \"#utility.yul\":4825:4831   */\n  dup3\n    /* \"#utility.yul\":4814:4823   */\n  dup11\n    /* \"#utility.yul\":4810:4832   */\n  add\n    /* \"#utility.yul\":4780:4842   */\n  tag_34\n  jump\t// in\ntag_127:\n    /* \"#utility.yul\":4770:4842   */\n  swap5\n  pop\n    /* \"#utility.yul\":4725:4852   */\n  pop\n    /* \"#utility.yul\":4891:4893   */\n  0x60\n    /* \"#utility.yul\":4917:4981   */\n  tag_128\n    /* \"#utility.yul\":4973:4980   */\n  dup10\n    /* \"#utility.yul\":4964:4970   */\n  dup3\n    /* \"#utility.yul\":4953:4962   */\n  dup11\n    /* \"#utility.yul\":4949:4971   */\n  add\n    /* \"#utility.yul\":4917:4981   */\n  tag_37\n  jump\t// in\ntag_128:\n    /* \"#utility.yul\":4907:4981   */\n  swap4\n  pop\n    /* \"#utility.yul\":4862:4991   */\n  pop\n    /* \"#utility.yul\":5030:5033   */\n  0x80\n    /* \"#utility.yul\":5057:5121   */\n  tag_129\n    /* \"#utility.yul\":5113:5120   */\n  dup10\n    /* \"#utility.yul\":5104:5110   */\n  dup3\n    /* \"#utility.yul\":5093:5102   */\n  dup11\n    /* \"#utility.yul\":5089:5111   */\n  add\n    /* \"#utility.yul\":5057:5121   */\n  tag_37\n  jump\t// in\ntag_129:\n    /* \"#utility.yul\":5047:5121   */\n  swap3\n  pop\n    /* \"#utility.yul\":5001:5131   */\n  pop\n    /* \"#utility.yul\":5170:5173   */\n  0xa0\n    /* \"#utility.yul\":5197:5261   */\n  tag_130\n    /* \"#utility.yul\":5253:5260   */\n  dup10\n    /* \"#utility.yul\":5244:5250   */\n  dup3\n    /* \"#utility.yul\":5233:5242   */\n  dup11\n    /* \"#utility.yul\":5229:5251   */\n  add\n    /* \"#utility.yul\":5197:5261   */\n  tag_41\n  jump\t// in\ntag_130:\n    /* \"#utility.yul\":5187:5261   */\n  swap2\n  pop\n    /* \"#utility.yul\":5141:5271   */\n  pop\n    /* \"#utility.yul\":3802:5278   */\n  swap3\n  swap6\n  pop\n  swap3\n  swap6\n  pop\n  swap3\n  swap6\n  jump\t// out\n    /* \"#utility.yul\":5284:5453   */\ntag_42:\n    /* \"#utility.yul\":5368:5379   */\n  0x00\n    /* \"#utility.yul\":5402:5408   */\n  dup3\n    /* \"#utility.yul\":5397:5400   */\n  dup3\n    /* \"#utility.yul\":5390:5409   */\n  mstore\n    /* \"#utility.yul\":5442:5446   */\n  0x20\n    /* \"#utility.yul\":5437:5440   */\n  dup3\n    /* \"#utility.yul\":5433:5447   */\n  add\n    /* \"#utility.yul\":5418:5447   */\n  swap1\n  pop\n    /* \"#utility.yul\":5284:5453   */\n  swap3\n  swap2\n  pop\n  pop\n  jump\t// out\n    /* \"#utility.yul\":5459:5638   */\ntag_43:\n    /* \"#utility.yul\":5599:5630   */\n  0x56656e646f722063616e6e6f74206265207a65726f2061646472657373000000\n    /* \"#utility.yul\":5595:5596   */\n  0x00\n    /* \"#utility.yul\":5587:5593   */\n  dup3\n    /* \"#utility.yul\":5583:5597   */\n  add\n    /* \"#utility.yul\":5576:5631   */\n  mstore\n    /* \"#utility.yul\":5459:5638   */\n  pop\n  jump\t// out\n    /* \"#utility.yul\":5644:6010   */\ntag_44:\n    /* \"#utility.yul\":5786:5789   */\n  0x00\n    /* \"#utility.yul\":5807:5874   */\n  tag_134\n    /* \"#utility.yul\":5871:5873   */\n  0x1d\n    /* \"#utility.yul\":5866:5869   */\n  dup4\n    /* \"#utility.yul\":5807:5874   */\n  tag_42\n  jump\t// in\ntag_134:\n    /* \"#utility.yul\":5800:5874   */\n  swap2\n  pop\n    /* \"#utility.yul\":5883:5976   */\n  tag_135\n    /* \"#utility.yul\":5972:5975   */\n  dup3\n    /* \"#utility.yul\":5883:5976   */\n  tag_43\n  jump\t// in\ntag_135:\n    /* \"#utility.yul\":6001:6003   */\n  0x20\n    /* \"#utility.yul\":5996:5999   */\n  dup3\n    /* \"#utility.yul\":5992:6004   */\n  add\n    /* \"#utility.yul\":5985:6004   */\n  swap1\n  pop\n    /* \"#utility.yul\":5644:6010   */\n  swap2\n  swap1\n  pop\n  jump\t// out\n    /* \"#utility.yul\":6016:6435   */\ntag_8:\n    /* \"#utility.yul\":6182:6186   */\n  0x00\n    /* \"#utility.yul\":6220:6222   */\n  0x20\n    /* \"#utility.yul\":6209:6218   */\n  dup3\n    /* \"#utility.yul\":6205:6223   */\n  add\n    /* \"#utility.yul\":6197:6223   */\n  swap1\n  pop\n    /* \"#utility.yul\":6269:6278   */\n  dup2\n    /* \"#utility.yul\":6263:6267   */\n  dup2\n    /* \"#utility.yul\":6259:6279   */\n  sub\n    /* \"#utility.yul\":6255:6256   */\n  0x00\n    /* \"#utility.yul\":6244:6253   */\n  dup4\n    /* \"#utility.yul\":6240:6257   */\n  add\n    /* \"#utility.yul\":6233:6280   */\n  mstore\n    /* \"#utility.yul\":6297:6428   */\n  tag_137\n    /* \"#utility.yul\":6423:6427   */\n  dup2\n    /* \"#utility.yul\":6297:6428   */\n  tag_44\n  jump\t// in\ntag_137:\n    /* \"#utility.yul\":6289:6428   */\n  swap1\n  pop\n    /* \"#utility.yul\":6016:6435   */\n  swap2\n  swap1\n  pop\n  jump\t// out\n    /* \"#utility.yul\":6441:6540   */\ntag_45:\n    /* \"#utility.yul\":6493:6499   */\n  0x00\n    /* \"#utility.yul\":6527:6532   */\n  dup2\n    /* \"#utility.yul\":6521:6533   */\n  mload\n    /* \"#utility.yul\":6511:6533   */\n  swap1\n  pop\n    /* \"#utility.yul\":6441:6540   */\n  swap2\n  swap1\n  pop\n  jump\t// out\n    /* \"#utility.yul\":6546:6726   */\ntag_46:\n    /* \"#utility.yul\":6594:6671   */\n  0x4e487b7100000000000000000000000000000000000000000000000000000000\n    /* \"#utility.yul\":6591:6592   */\n  0x00\n    /* \"#utility.yul\":6584:6672   */\n  mstore\n    /* \"#utility.yul\":6691:6695   */\n  0x22\n    /* \"#utility.yul\":6688:6689   */\n  0x04\n    /* \"#utility.yul\":6681:6696   */\n  mstore\n    /* \"#utility.yul\":6715:6719   */\n  0x24\n    /* \"#utility.yul\":6712:6713   */\n  0x00\n    /* \"#utility.yul\":6705:6720   */\n  revert\n    /* \"#utility.yul\":6732:7052   */\ntag_47:\n    /* \"#utility.yul\":6776:6782   */\n  0x00\n    /* \"#utility.yul\":6813:6814   */\n  0x02\n    /* \"#utility.yul\":6807:6811   */\n  dup3\n    /* \"#utility.yul\":6803:6815   */\n  div\n    /* \"#utility.yul\":6793:6815   */\n  swap1\n  pop\n    /* \"#utility.yul\":6860:6861   */\n  0x01\n    /* \"#utility.yul\":6854:6858   */\n  dup3\n    /* \"#utility.yul\":6850:6862   */\n  and\n    /* \"#utility.yul\":6881:6899   */\n  dup1\n    /* \"#utility.yul\":6871:6952   */\n  tag_141\n  jumpi\n    /* \"#utility.yul\":6937:6941   */\n  0x7f\n    /* \"#utility.yul\":6929:6935   */\n  dup3\n    /* \"#utility.yul\":6925:6942   */\n  and\n    /* \"#utility.yul\":6915:6942   */\n  swap2\n  pop\n    /* \"#utility.yul\":6871:6952   */\ntag_141:\n    /* \"#utility.yul\":6999:7001   */\n  0x20\n    /* \"#utility.yul\":6991:6997   */\n  dup3\n    /* \"#utility.yul\":6988:7002   */\n  lt\n    /* \"#utility.yul\":6968:6986   */\n  dup2\n    /* \"#utility.yul\":6965:7003   */\n  sub\n    /* \"#utility.yul\":6962:7046   */\n  tag_142\n  jumpi\n    /* \"#utility.yul\":7018:7036   */\n  tag_143\n  tag_46\n  jump\t// in\ntag_143:\n    /* \"#utility.yul\":6962:7046   */\ntag_142:\n    /* \"#utility.yul\":6783:7052   */\n  pop\n    /* \"#utility.yul\":6732:7052   */\n  swap2\n  swap1\n  pop\n  jump\t// out\n    /* \"#utility.yul\":7058:7199   */\ntag_48:\n    /* \"#utility.yul\":7107:7111   */\n  0x00\n    /* \"#utility.yul\":7130:7133   */\n  dup2\n    /* \"#utility.yul\":7122:7133   */\n  swap1\n  pop\n    /* \"#utility.yul\":7153:7156   */\n  dup2\n    /* \"#utility.yul\":7150:7151   */\n  0x00\n    /* \"#utility.yul\":7143:7157   */\n  mstore\n    /* \"#utility.yul\":7187:7191   */\n  0x20\n    /* \"#utility.yul\":7184:7185   */\n  0x00\n    /* \"#utility.yul\":7174:7192   */\n  keccak256\n    /* \"#utility.yul\":7166:7192   */\n  swap1\n  pop\n    /* \"#utility.yul\":7058:7199   */\n  swap2\n  swap1\n  pop\n  jump\t// out\n    /* \"#utility.yul\":7205:7298   */\ntag_49:\n    /* \"#utility.yul\":7242:7248   */\n  0x00\n    /* \"#utility.yul\":7289:7291   */\n  0x20\n    /* \"#utility.yul\":7284:7286   */\n  0x1f\n    /* \"#utility.yul\":7277:7282   */\n  dup4\n    /* \"#utility.yul\":7273:7287   */\n  add\n    /* \"#utility.yul\":7269:7292   */\n  div\n    /* \"#utility.yul\":7259:7292   */\n  swap1\n  pop\n    /* \"#utility.yul\":7205:7298   */\n  swap2\n  swap1\n  pop\n  jump\t// out\n    /* \"#utility.yul\":7304:7411   */\ntag_50:\n    /* \"#utility.yul\":7348:7356   */\n  0x00\n    /* \"#utility.yul\":7398:7403   */\n  dup3\n    /* \"#utility.yul\":7392:7396   */\n  dup3\n    /* \"#utility.yul\":7388:7404   */\n  shl\n    /* \"#utility.yul\":7367:7404   */\n  swap1\n  pop\n    /* \"#utility.yul\":7304:7411   */\n  swap3\n  swap2\n  pop\n  pop\n  jump\t// out\n    /* \"#utility.yul\":7417:7810   */\ntag_51:\n    /* \"#utility.yul\":7486:7492   */\n  0x00\n    /* \"#utility.yul\":7536:7537   */\n  0x08\n    /* \"#utility.yul\":7524:7534   */\n  dup4\n    /* \"#utility.yul\":7520:7538   */\n  mul\n    /* \"#utility.yul\":7559:7656   */\n  tag_148\n    /* \"#utility.yul\":7589:7655   */\n  0xffffffffffffffffffffffffffffffffffffffffffffffffffffffffffffffff\n    /* \"#utility.yul\":7578:7587   */\n  dup3\n    /* \"#utility.yul\":7559:7656   */\n  tag_50\n  jump\t// in\ntag_148:\n    /* \"#utility.yul\":7677:7716   */\n  tag_149\n    /* \"#utility.yul\":7707:7715   */\n  dup7\n    /* \"#utility.yul\":7696:7705   */\n  dup4\n    /* \"#utility.yul\":7677:7716   */\n  tag_50\n  jump\t// in\ntag_149:\n    /* \"#utility.yul\":7665:7716   */\n  swap6\n  pop\n    /* \"#utility.yul\":7749:7753   */\n  dup1\n    /* \"#utility.yul\":7745:7754   */\n  not\n    /* \"#utility.yul\":7738:7743   */\n  dup5\n    /* \"#utility.yul\":7734:7755   */\n  and\n    /* \"#utility.yul\":7725:7755   */\n  swap4\n  pop\n    /* \"#utility.yul\":7798:7802   */\n  dup1\n    /* \"#utility.yul\":7788:7796   */\n  dup7\n    /* \"#utility.yul\":7784:7803   */\n  and\n    /* \"#utility.yul\":7777:7782   */\n  dup5\n    /* \"#utility.yul\":7774:7804   */\n  or\n    /* \"#utility.yul\":7764:7804   */\n  swap3\n  pop\n    /* \"#utility.yul\":7493:7810   */\n  pop\n  pop\n    /* \"#utility.yul\":7417:7810   */\n  swap4\n  swap3\n  pop\n  pop\n  pop\n  jump\t// out\n    /* \"#utility.yul\":7816:7876   */\ntag_52:\n    /* \"#utility.yul\":7844:7847   */\n  0x00\n    /* \"#utility.yul\":7865:7870   */\n  dup2\n    /* \"#utility.yul\":7858:7870   */\n  swap1\n  pop\n    /* \"#utility.yul\":7816:7876   */\n  swap2\n  swap1\n  pop\n  jump\t// out\n    /* \"#utility.yul\":7882:8024   */\ntag_53:\n    /* \"#utility.yul\":7932:7941   */\n  0x00\n    /* \"#utility.yul\":7965:8018   */\n  tag_152\n    /* \"#utility.yul\":7983:8017   */\n  tag_153\n    /* \"#utility.yul\":7992:8016   */\n  tag_154\n    /* \"#utility.yul\":8010:8015   */\n  dup5\n    /* \"#utility.yul\":7992:8016   */\n  tag_35\n  jump\t// in\ntag_154:\n    /* \"#utility.yul\":7983:8017   */\n  tag_52\n  jump\t// in\ntag_153:\n    /* \"#utility.yul\":7965:8018   */\n  tag_35\n  jump\t// in\ntag_152:\n    /* \"#utility.yul\":7952:8018   */\n  swap1\n  pop\n    /* \"#utility.yul\":7882:8024   */\n  swap2\n  swap1\n  pop\n  jump\t// out\n    /* \"#utility.yul\":8030:8105   */\ntag_54:\n    /* \"#utility.yul\":8073:8076   */\n  0x00\n    /* \"#utility.yul\":8094:8099   */\n  dup2\n    /* \"#utility.yul\":8087:8099   */\n  swap1\n  pop\n    /* \"#utility.yul\":8030:8105   */\n  swap2\n  swap1\n  pop\n  jump\t// out\n    /* \"#utility.yul\":8111:8380   */\ntag_55:\n    /* \"#utility.yul\":8221:8260   */\n  tag_157\n    /* \"#utility.yul\":8252:8259   */\n  dup4\n    /* \"#utility.yul\":8221:8260   */\n  tag_53\n  jump\t// in\ntag_157:\n    /* \"#utility.yul\":8282:8373   */\n  tag_158\n    /* \"#utility.yul\":8331:8372   */\n  tag_159\n    /* \"#utility.yul\":8355:8371   */\n  dup3\n    /* \"#utility.yul\":8331:8372   */\n  tag_54\n  jump\t// in\ntag_159:\n    /* \"#utility.yul\":8323:8329   */\n  dup5\n    /* \"#utility.yul\":8316:8320   */\n  dup5\n    /* \"#utility.yul\":8310:8321   */\n  sload\n    /* \"#utility.yul\":8282:8373   */\n  tag_51\n  jump\t// in\ntag_158:\n    /* \"#utility.yul\":8276:8280   */\n  dup3\n    /* \"#utility.yul\":8269:8374   */\n  sstore\n    /* \"#utility.yul\":8187:8380   */\n  pop\n    /* \"#utility.yul\":8111:8380   */\n  pop\n  pop\n  pop\n  jump\t// out\n    /* \"#utility.yul\":8386:8459   */\ntag_56:\n    /* \"#utility.yul\":8431:8434   */\n  0x00\n    /* \"#utility.yul\":8386:8459   */\n  swap1\n  jump\t// out\n    /* \"#utility.yul\":8465:8654   */\ntag_57:\n    /* \"#utility.yul\":8542:8574   */\n  tag_162\n  tag_56\n  jump\t// in\ntag_162:\n    /* \"#utility.yul\":8583:8648   */\n  tag_163\n    /* \"#utility.yul\":8641:8647   */\n  dup2\n    /* \"#utility.yul\":8633:8639   */\n  dup5\n    /* \"#utility.yul\":8627:8631   */\n  dup5\n    /* \"#utility.yul\":8583:8648   */\n  tag_55\n  jump\t// in\ntag_163:\n    /* \"#utility.yul\":8518:8654   */\n  pop\n    /* \"#utility.yul\":8465:8654   */\n  pop\n  pop\n  jump\t// out\n    /* \"#utility.yul\":8660:8846   */\ntag_58:\n    /* \"#utility.yul\":8720:8840   */\ntag_165:\n    /* \"#utility.yul\":8737:8740   */\n  dup2\n    /* \"#utility.yul\":8730:8735   */\n  dup2\n    /* \"#utility.yul\":8727:8741   */\n  lt\n    /* \"#utility.yul\":8720:8840   */\n  iszero\n  tag_167\n  jumpi\n    /* \"#utility.yul\":8791:8830   */\n  tag_168\n    /* \"#utility.yul\":8828:8829   */\n  0x00\n    /* \"#utility.yul\":8821:8826   */\n  dup3\n    /* \"#utility.yul\":8791:8830   */\n  tag_57\n  jump\t// in\ntag_168:\n    /* \"#utility.yul\":8764:8765   */\n  0x01\n    /* \"#utility.yul\":8757:8762   */\n  dup2\n    /* \"#utility.yul\":8753:8766   */\n  add\n    /* \"#utility.yul\":8744:8766   */\n  swap1\n  pop\n    /* \"#utility.yul\":8720:8840   */\n  jump(tag_165)\ntag_167:\n    /* \"#utility.yul\":8660:8846   */\n  pop\n  pop\n  jump\t// out\n    /* \"#utility.yul\":8852:9395   */\ntag_59:\n    /* \"#utility.yul\":8953:8955   */\n  0x1f\n    /* \"#utility.yul\":8948:8951   */\n  dup3\n    /* \"#utility.yul\":8945:8956   */\n  gt\n    /* \"#utility.yul\":8942:9388   */\n  iszero\n  tag_170\n  jumpi\n    /* \"#utility.yul\":8987:9025   */\n  tag_171\n    /* \"#utility.yul\":9019:9024   */\n  dup2\n    /* \"#utility.yul\":8987:9025   */\n  tag_48\n  jump\t// in\ntag_171:\n    /* \"#utility.yul\":9071:9100   */\n  tag_172\n    /* \"#utility.yul\":9089:9099   */\n  dup5\n    /* \"#utility.yul\":9071:9100   */\n  tag_49\n  jump\t// in\ntag_172:\n    /* \"#utility.yul\":9061:9069   */\n  dup2\n    /* \"#utility.yul\":9057:9101   */\n  add\n    /* \"#utility.yul\":9254:9256   */\n  0x20\n    /* \"#utility.yul\":9242:9252   */\n  dup6\n    /* \"#utility.yul\":9239:9257   */\n  lt\n    /* \"#utility.yul\":9236:9285   */\n  iszero\n  tag_173\n  jumpi\n    /* \"#utility.yul\":9275:9283   */\n  dup2\n    /* \"#utility.yul\":9260:9283   */\n  swap1\n  pop\n    /* \"#utility.yul\":9236:9285   */\ntag_173:\n    /* \"#utility.yul\":9298:9378   */\n  tag_174\n    /* \"#utility.yul\":9354:9376   */\n  tag_175\n    /* \"#utility.yul\":9372:9375   */\n  dup6\n    /* \"#utility.yul\":9354:9376   */\n  tag_49\n  jump\t// in\ntag_175:\n    /* \"#utility.yul\":9344:9352   */\n  dup4\n    /* \"#utility.yul\":9340:9377   */\n  add\n    /* \"#utility.yul\":9327:9338   */\n  dup3\n    /* \"#utility.yul\":9298:9378   */\n  tag_58\n  jump\t// in\ntag_174:\n    /* \"#utility.yul\":8957:9388   */\n  pop\n  pop\n    /* \"#utility.yul\":8942:9388   */\ntag_170:\n    /* \"#utility.yul\":8852:9395   */\n  pop\n  pop\n  pop\n  jump\t// out\n    /* \"#utility.yul\":9401:9518   */\ntag_60:\n    /* \"#utility.yul\":9455:9463   */\n  0x00\n    /* \"#utility.yul\":9505:9510   */\n  dup3\n    /* \"#utility.yul\":9499:9503   */\n  dup3\n    /* \"#utility.yul\":9495:9511   */\n  shr\n    /* \"#utility.yul\":9474:9511   */\n  swap1\n  pop\n    /* \"#utility.yul\":9401:9518   */\n  swap3\n  swap2\n  pop\n  pop\n  jump\t// out\n    /* \"#utility.yul\":9524:9693   */\ntag_61:\n    /* \"#utility.yul\":9568:9574   */\n  0x00\n    /* \"#utility.yul\":9601:9652   */\n  tag_178\n    /* \"#utility.yul\":9649:9650   */\n  0x00\n    /* \"#utility.yul\":9645:9651   */\n  not\n    /* \"#utility.yul\":9637:9642   */\n  dup5\n    /* \"#utility.yul\":9634:9635   */\n  0x08\n    /* \"#utility.yul\":9630:9643   */\n  mul\n    /* \"#utility.yul\":9601:9652   */\n  tag_60\n  jump\t// in\ntag_178:\n    /* \"#utility.yul\":9597:9653   */\n  not\n    /* \"#utility.yul\":9682:9686   */\n  dup1\n    /* \"#utility.yul\":9676:9680   */\n  dup4\n    /* \"#utility.yul\":9672:9687   */\n  and\n    /* \"#utility.yul\":9662:9687   */\n  swap2\n  pop\n    /* \"#utility.yul\":9575:9693   */\n  pop\n    /* \"#utility.yul\":9524:9693   */\n  swap3\n  swap2\n  pop\n  pop\n  jump\t// out\n    /* \"#utility.yul\":9698:9993   */\ntag_62:\n    /* \"#utility.yul\":9774:9778   */\n  0x00\n    /* \"#utility.yul\":9920:9949   */\n  tag_180\n    /* \"#utility.yul\":9945:9948   */\n  dup4\n    /* \"#utility.yul\":9939:9943   */\n  dup4\n    /* \"#utility.yul\":9920:9949   */\n  tag_61\n  jump\t// in\ntag_180:\n    /* \"#utility.yul\":9912:9949   */\n  swap2\n  pop\n    /* \"#utility.yul\":9982:9985   */\n  dup3\n    /* \"#utility.yul\":9979:9980   */\n  0x02\n    /* \"#utility.yul\":9975:9986   */\n  mul\n    /* \"#utility.yul\":9969:9973   */\n  dup3\n    /* \"#utility.yul\":9966:9987   */\n  or\n    /* \"#utility.yul\":9958:9987   */\n  swap1\n  pop\n    /* \"#utility.yul\":9698:9993   */\n  swap3\n  swap2\n  pop\n  pop\n  jump\t// out\n    /* \"#utility.yul\":9998:11393   */\ntag_10:\n    /* \"#utility.yul\":10115:10152   */\n  tag_182\n    /* \"#utility.yul\":10148:10151   */\n  dup3\n    /* \"#utility.yul\":10115:10152   */\n  tag_45\n  jump\t// in\ntag_182:\n    /* \"#utility.yul\":10217:10235   */\n  0xffffffffffffffff\n    /* \"#utility.yul\":10209:10215   */\n  dup2\n    /* \"#utility.yul\":10206:10236   */\n  gt\n    /* \"#utility.yul\":10203:10259   */\n  iszero\n  tag_183\n  jumpi\n    /* \"#utility.yul\":10239:10257   */\n  tag_184\n  tag_25\n  jump\t// in\ntag_184:\n    /* \"#utility.yul\":10203:10259   */\ntag_183:\n    /* \"#utility.yul\":10283:10321   */\n  tag_185\n    /* \"#utility.yul\":10315:10319   */\n  dup3\n    /* \"#utility.yul\":10309:10320   */\n  sload\n    /* \"#utility.yul\":10283:10321   */\n  tag_47\n  jump\t// in\ntag_185:\n    /* \"#utility.yul\":10368:10435   */\n  tag_186\n    /* \"#utility.yul\":10428:10434   */\n  dup3\n    /* \"#utility.yul\":10420:10426   */\n  dup3\n    /* \"#utility.yul\":10414:10418   */\n  dup6\n    /* \"#utility.yul\":10368:10435   */\n  tag_59\n  jump\t// in\ntag_186:\n    /* \"#utility.yul\":10462:10463   */\n  0x00\n    /* \"#utility.yul\":10486:10490   */\n  0x20\n    /* \"#utility.yul\":10473:10490   */\n  swap1\n  pop\n    /* \"#utility.yul\":10518:10520   */\n  0x1f\n    /* \"#utility.yul\":10510:10516   */\n  dup4\n    /* \"#utility.yul\":10507:10521   */\n  gt\n    /* \"#utility.yul\":10535:10536   */\n  0x01\n    /* \"#utility.yul\":10530:11148   */\n  dup2\n  eq\n  tag_188\n  jumpi\n    /* \"#utility.yul\":11192:11193   */\n  0x00\n    /* \"#utility.yul\":11209:11215   */\n  dup5\n    /* \"#utility.yul\":11206:11283   */\n  iszero\n  tag_189\n  jumpi\n    /* \"#utility.yul\":11258:11267   */\n  dup3\n    /* \"#utility.yul\":11253:11256   */\n  dup8\n    /* \"#utility.yul\":11249:11268   */\n  add\n    /* \"#utility.yul\":11243:11269   */\n  mload\n    /* \"#utility.yul\":11234:11269   */\n  swap1\n  pop\n    /* \"#utility.yul\":11206:11283   */\ntag_189:\n    /* \"#utility.yul\":11309:11376   */\n  tag_190\n    /* \"#utility.yul\":11369:11375   */\n  dup6\n    /* \"#utility.yul\":11362:11367   */\n  dup3\n    /* \"#utility.yul\":11309:11376   */\n  tag_62\n  jump\t// in\ntag_190:\n    /* \"#utility.yul\":11303:11307   */\n  dup7\n    /* \"#utility.yul\":11296:11377   */\n  sstore\n    /* \"#utility.yul\":11165:11387   */\n  pop\n    /* \"#utility.yul\":10500:11387   */\n  jump(tag_187)\n    /* \"#utility.yul\":10530:11148   */\ntag_188:\n    /* \"#utility.yul\":10582:10586   */\n  0x1f\n    /* \"#utility.yul\":10578:10587   */\n  not\n    /* \"#utility.yul\":10570:10576   */\n  dup5\n    /* \"#utility.yul\":10566:10588   */\n  and\n    /* \"#utility.yul\":10616:10653   */\n  tag_191\n    /* \"#utility.yul\":10648:10652   */\n  dup7\n    /* \"#utility.yul\":10616:10653   */\n  tag_48\n  jump\t// in\ntag_191:\n    /* \"#utility.yul\":10675:10676   */\n  0x00\n    /* \"#utility.yul\":10689:10897   */\ntag_192:\n    /* \"#utility.yul\":10703:10710   */\n  dup3\n    /* \"#utility.yul\":10700:10701   */\n  dup2\n    /* \"#utility.yul\":10697:10711   */\n  lt\n    /* \"#utility.yul\":10689:10897   */\n  iszero\n  tag_194\n  jumpi\n    /* \"#utility.yul\":10782:10791   */\n  dup5\n    /* \"#utility.yul\":10777:10780   */\n  dup10\n    /* \"#utility.yul\":10773:10792   */\n  add\n    /* \"#utility.yul\":10767:10793   */\n  mload\n    /* \"#utility.yul\":10759:10765   */\n  dup3\n    /* \"#utility.yul\":10752:10794   */\n  sstore\n    /* \"#utility.yul\":10833:10834   */\n  0x01\n    /* \"#utility.yul\":10825:10831   */\n  dup3\n    /* \"#utility.yul\":10821:10835   */\n  add\n    /* \"#utility.yul\":10811:10835   */\n  swap2\n  pop\n    /* \"#utility.yul\":10880:10882   */\n  0x20\n    /* \"#utility.yul\":10869:10878   */\n  dup6\n    /* \"#utility.yul\":10865:10883   */\n  add\n    /* \"#utility.yul\":10852:10883   */\n  swap5\n  pop\n    /* \"#utility.yul\":10726:10730   */\n  0x20\n    /* \"#utility.yul\":10723:10724   */\n  dup2\n    /* \"#utility.yul\":10719:10731   */\n  add\n    /* \"#utility.yul\":10714:10731   */\n  swap1\n  pop\n    /* \"#utility.yul\":10689:10897   */\n  jump(tag_192)\ntag_194:\n    /* \"#utility.yul\":10925:10931   */\n  dup7\n    /* \"#utility.yul\":10916:10923   */\n  dup4\n    /* \"#utility.yul\":10913:10932   */\n  lt\n    /* \"#utility.yul\":10910:11089   */\n  iszero\n  tag_195\n  jumpi\n    /* \"#utility.yul\":10983:10992   */\n  dup5\n    /* \"#utility.yul\":10978:10981   */\n  dup10\n    /* \"#utility.yul\":10974:10993   */\n  add\n    /* \"#utility.yul\":10968:10994   */\n  mload\n    /* \"#utility.yul\":11026:11074   */\n  tag_196\n    /* \"#utility.yul\":11068:11072   */\n  0x1f\n    /* \"#utility.yul\":11060:11066   */\n  dup10\n    /* \"#utility.yul\":11056:11073   */\n  and\n    /* \"#utility.yul\":11045:11054   */\n  dup3\n    /* \"#utility.yul\":11026:11074   */\n  tag_61\n  jump\t// in\ntag_196:\n    /* \"#utility.yul\":11018:11024   */\n  dup4\n    /* \"#utility.yul\":11011:11075   */\n  sstore\n    /* \"#utility.yul\":10933:11089   */\n  pop\n    /* \"#utility.yul\":10910:11089   */\ntag_195:\n    /* \"#utility.yul\":11135:11136   */\n  0x01\n    /* \"#utility.yul\":11131:11132   */\n  0x02\n    /* \"#utility.yul\":11123:11129   */\n  dup9\n    /* \"#utility.yul\":11119:11133   */\n  mul\n    /* \"#utility.yul\":11115:11137   */\n  add\n    /* \"#utility.yul\":11109:11113   */\n  dup9\n    /* \"#utility.yul\":11102:11138   */\n  sstore\n    /* \"#utility.yul\":10537:11148   */\n  pop\n  pop\n  pop\n    /* \"#utility.yul\":10500:11387   */\ntag_187:\n  pop\n    /* \"#utility.yul\":10090:11393   */\n  pop\n  pop\n  pop\n    /* \"#utility.yul\":9998:11393   */\n  pop\n  pop\n  jump\t// out\n    /* \"#utility.yul\":11399:11579   */\ntag_63:\n    /* \"#utility.yul\":11447:11524   */\n  0x4e487b7100000000000000000000000000000000000000000000000000000000\n    /* \"#utility.yul\":11444:11445   */\n  0x00\n    /* \"#utility.yul\":11437:11525   */\n  mstore\n    /* \"#utility.yul\":11544:11548   */\n  0x11\n    /* \"#utility.yul\":11541:11542   */\n  0x04\n    /* \"#utility.yul\":11534:11549   */\n  mstore\n    /* \"#utility.yul\":11568:11572   */\n  0x24\n    /* \"#utility.yul\":11565:11566   */\n  0x00\n    /* \"#utility.yul\":11558:11573   */\n  revert\n    /* \"#utility.yul\":11585:11687   */\ntag_64:\n    /* \"#utility.yul\":11627:11635   */\n  0x00\n    /* \"#utility.yul\":11674:11679   */\n  dup2\n    /* \"#utility.yul\":11671:11672   */\n  0x01\n    /* \"#utility.yul\":11667:11680   */\n  shr\n    /* \"#utility.yul\":11646:11680   */\n  swap1\n  pop\n    /* \"#utility.yul\":11585:11687   */\n  swap2\n  swap1\n  pop\n  jump\t// out\n    /* \"#utility.yul\":11693:12541   */\ntag_65:\n    /* \"#utility.yul\":11754:11759   */\n  0x00\n    /* \"#utility.yul\":11761:11765   */\n  dup1\n    /* \"#utility.yul\":11785:11791   */\n  dup3\n    /* \"#utility.yul\":11776:11791   */\n  swap2\n  pop\n    /* \"#utility.yul\":11809:11814   */\n  dup4\n    /* \"#utility.yul\":11800:11814   */\n  swap1\n  pop\n    /* \"#utility.yul\":11823:12535   */\ntag_200:\n    /* \"#utility.yul\":11844:11845   */\n  0x01\n    /* \"#utility.yul\":11834:11842   */\n  dup6\n    /* \"#utility.yul\":11831:11846   */\n  gt\n    /* \"#utility.yul\":11823:12535   */\n  iszero\n  tag_202\n  jumpi\n    /* \"#utility.yul\":11939:11943   */\n  dup1\n    /* \"#utility.yul\":11934:11937   */\n  dup7\n    /* \"#utility.yul\":11930:11944   */\n  div\n    /* \"#utility.yul\":11924:11928   */\n  dup2\n    /* \"#utility.yul\":11921:11945   */\n  gt\n    /* \"#utility.yul\":11918:11968   */\n  iszero\n  tag_203\n  jumpi\n    /* \"#utility.yul\":11948:11966   */\n  tag_204\n  tag_63\n  jump\t// in\ntag_204:\n    /* \"#utility.yul\":11918:11968   */\ntag_203:\n    /* \"#utility.yul\":11998:11999   */\n  0x01\n    /* \"#utility.yul\":11988:11996   */\n  dup6\n    /* \"#utility.yul\":11984:12000   */\n  and\n    /* \"#utility.yul\":11981:12432   */\n  iszero\n  tag_205\n  jumpi\n    /* \"#utility.yul\":12413:12417   */\n  dup1\n    /* \"#utility.yul\":12406:12411   */\n  dup3\n    /* \"#utility.yul\":12402:12418   */\n  mul\n    /* \"#utility.yul\":12393:12418   */\n  swap2\n  pop\n    /* \"#utility.yul\":11981:12432   */\ntag_205:\n    /* \"#utility.yul\":12463:12467   */\n  dup1\n    /* \"#utility.yul\":12457:12461   */\n  dup2\n    /* \"#utility.yul\":12453:12468   */\n  mul\n    /* \"#utility.yul\":12445:12468   */\n  swap1\n  pop\n    /* \"#utility.yul\":12493:12525   */\n  tag_206\n    /* \"#utility.yul\":12516:12524   */\n  dup6\n    /* \"#utility.yul\":12493:12525   */\n  tag_64\n  jump\t// in\ntag_206:\n    /* \"#utility.yul\":12481:12525   */\n  swap5\n  pop\n    /* \"#utility.yul\":11823:12535   */\n  jump(tag_200)\ntag_202:\n    /* \"#utility.yul\":11693:12541   */\n  swap5\n  pop\n  swap5\n  swap3\n  pop\n  pop\n  pop\n  jump\t// out\n    /* \"#utility.yul\":12547:13620   */\ntag_66:\n    /* \"#utility.yul\":12601:12606   */\n  0x00\n    /* \"#utility.yul\":12792:12800   */\n  dup3\n    /* \"#utility.yul\":12782:12822   */\n  tag_208\n  jumpi\n    /* \"#utility.yul\":12813:12814   */\n  0x01\n    /* \"#utility.yul\":12804:12814   */\n  swap1\n  pop\n    /* \"#utility.yul\":12815:12820   */\n  jump(tag_207)\n    /* \"#utility.yul\":12782:12822   */\ntag_208:\n    /* \"#utility.yul\":12841:12845   */\n  dup2\n    /* \"#utility.yul\":12831:12867   */\n  tag_209\n  jumpi\n    /* \"#utility.yul\":12858:12859   */\n  0x00\n    /* \"#utility.yul\":12849:12859   */\n  swap1\n  pop\n    /* \"#utility.yul\":12860:12865   */\n  jump(tag_207)\n    /* \"#utility.yul\":12831:12867   */\ntag_209:\n    /* \"#utility.yul\":12927:12931   */\n  dup2\n    /* \"#utility.yul\":12975:12976   */\n  0x01\n    /* \"#utility.yul\":12970:12997   */\n  dup2\n  eq\n  tag_211\n  jumpi\n    /* \"#utility.yul\":13011:13012   */\n  0x02\n    /* \"#utility.yul\":13006:13197   */\n  dup2\n  eq\n  tag_212\n  jumpi\n    /* \"#utility.yul\":12920:13197   */\n  jump(tag_210)\n    /* \"#utility.yul\":12970:12997   */\ntag_211:\n    /* \"#utility.yul\":12988:12989   */\n  0x01\n    /* \"#utility.yul\":12979:12989   */\n  swap2\n  pop\n    /* \"#utility.yul\":12990:12995   */\n  pop\n  jump(tag_207)\n    /* \"#utility.yul\":13006:13197   */\ntag_212:\n    /* \"#utility.yul\":13051:13054   */\n  0xff\n    /* \"#utility.yul\":13041:13049   */\n  dup5\n    /* \"#utility.yul\":13038:13055   */\n  gt\n    /* \"#utility.yul\":13035:13078   */\n  iszero\n  tag_213\n  jumpi\n    /* \"#utility.yul\":13058:13076   */\n  tag_214\n  tag_63\n  jump\t// in\ntag_214:\n    /* \"#utility.yul\":13035:13078   */\ntag_213:\n    /* \"#utility.yul\":13107:13115   */\n  dup4\n    /* \"#utility.yul\":13104:13105   */\n  0x02\n    /* \"#utility.yul\":13100:13116   */\n  exp\n    /* \"#utility.yul\":13091:13116   */\n  swap2\n  pop\n    /* \"#utility.yul\":13142:13145   */\n  dup5\n    /* \"#utility.yul\":13135:13140   */\n  dup3\n    /* \"#utility.yul\":13132:13146   */\n  gt\n    /* \"#utility.yul\":13129:13169   */\n  iszero\n  tag_215\n  jumpi\n    /* \"#utility.yul\":13149:13167   */\n  tag_216\n  tag_63\n  jump\t// in\ntag_216:\n    /* \"#utility.yul\":13129:13169   */\ntag_215:\n    /* \"#utility.yul\":13182:13187   */\n  pop\n  jump(tag_207)\n    /* \"#utility.yul\":12920:13197   */\ntag_210:\n  pop\n    /* \"#utility.yul\":13306:13308   */\n  0x20\n    /* \"#utility.yul\":13296:13304   */\n  dup4\n    /* \"#utility.yul\":13293:13309   */\n  lt\n    /* \"#utility.yul\":13287:13290   */\n  0x0133\n    /* \"#utility.yul\":13281:13285   */\n  dup4\n    /* \"#utility.yul\":13278:13291   */\n  lt\n    /* \"#utility.yul\":13274:13310   */\n  and\n    /* \"#utility.yul\":13256:13258   */\n  0x4e\n    /* \"#utility.yul\":13246:13254   */\n  dup5\n    /* \"#utility.yul\":13243:13259   */\n  lt\n    /* \"#utility.yul\":13238:13240   */\n  0x0b\n    /* \"#utility.yul\":13232:13236   */\n  dup5\n    /* \"#utility.yul\":13229:13241   */\n  lt\n    /* \"#utility.yul\":13225:13260   */\n  and\n    /* \"#utility.yul\":13209:13320   */\n  or\n    /* \"#utility.yul\":13206:13452   */\n  iszero\n  tag_217\n  jumpi\n    /* \"#utility.yul\":13362:13370   */\n  dup3\n    /* \"#utility.yul\":13356:13360   */\n  dup3\n    /* \"#utility.yul\":13352:13371   */\n  exp\n    /* \"#utility.yul\":13343:13371   */\n  swap1\n  pop\n    /* \"#utility.yul\":13397:13400   */\n  dup4\n    /* \"#utility.yul\":13390:13395   */\n  dup2\n    /* \"#utility.yul\":13387:13401   */\n  gt\n    /* \"#utility.yul\":13384:13424   */\n  iszero\n  tag_218\n  jumpi\n    /* \"#utility.yul\":13404:13422   */\n  tag_219\n  tag_63\n  jump\t// in\ntag_219:\n    /* \"#utility.yul\":13384:13424   */\ntag_218:\n    /* \"#utility.yul\":13437:13442   */\n  jump(tag_207)\n    /* \"#utility.yul\":13206:13452   */\ntag_217:\n    /* \"#utility.yul\":13477:13519   */\n  tag_220\n    /* \"#utility.yul\":13515:13518   */\n  dup5\n    /* \"#utility.yul\":13505:13513   */\n  dup5\n    /* \"#utility.yul\":13499:13503   */\n  dup5\n    /* \"#utility.yul\":13496:13497   */\n  0x01\n    /* \"#utility.yul\":13477:13519   */\n  tag_65\n  jump\t// in\ntag_220:\n    /* \"#utility.yul\":13462:13519   */\n  swap3\n  pop\n  swap1\n  pop\n    /* \"#utility.yul\":13551:13555   */\n  dup2\n    /* \"#utility.yul\":13546:13549   */\n  dup5\n    /* \"#utility.yul\":13542:13556   */\n  div\n    /* \"#utility.yul\":13535:13540   */\n  dup2\n    /* \"#utility.yul\":13532:13557   */\n  gt\n    /* \"#utility.yul\":13529:13580   */\n  iszero\n  tag_221\n  jumpi\n    /* \"#utility.yul\":13560:13578   */\n  tag_222\n  tag_63\n  jump\t// in\ntag_222:\n    /* \"#utility.yul\":13529:13580   */\ntag_221:\n    /* \"#utility.yul\":13609:13613   */\n  dup2\n    /* \"#utility.yul\":13602:13607   */\n  dup2\n    /* \"#utility.yul\":13598:13614   */\n  mul\n    /* \"#utility.yul\":13589:13614   */\n  swap1\n  pop\n    /* \"#utility.yul\":12547:13620   */\ntag_207:\n  swap4\n  swap3\n  pop\n  pop\n  pop\n  jump\t// out\n    /* \"#utility.yul\":13626:13911   */\ntag_13:\n    /* \"#utility.yul\":13686:13691   */\n  0x00\n    /* \"#utility.yul\":13710:13733   */\n  tag_224\n    /* \"#utility.yul\":13728:13732   */\n  dup3\n    /* \"#utility.yul\":13710:13733   */\n  tag_35\n  jump\t// in\ntag_224:\n    /* \"#utility.yul\":13702:13733   */\n  swap2\n  pop\n    /* \"#utility.yul\":13754:13781   */\n  tag_225\n    /* \"#utility.yul\":13772:13780   */\n  dup4\n    /* \"#utility.yul\":13754:13781   */\n  tag_35\n  jump\t// in\ntag_225:\n    /* \"#utility.yul\":13742:13781   */\n  swap3\n  pop\n    /* \"#utility.yul\":13800:13904   */\n  tag_226\n    /* \"#utility.yul\":13837:13903   */\n  0xffffffffffffffffffffffffffffffffffffffffffffffffffffffffffffffff\n    /* \"#utility.yul\":13827:13835   */\n  dup5\n    /* \"#utility.yul\":13821:13825   */\n  dup5\n    /* \"#utility.yul\":13800:13904   */\n  tag_66\n  jump\t// in\ntag_226:\n    /* \"#utility.yul\":13791:13904   */\n  swap1\n  pop\n    /* \"#utility.yul\":13626:13911   */\n  swap3\n  swap2\n  pop\n  pop\n  jump\t// out\n    /* \"#utility.yul\":13917:14327   */\ntag_15:\n    /* \"#utility.yul\":13957:13964   */\n  0x00\n    /* \"#utility.yul\":13980:14000   */\n  tag_228\n    /* \"#utility.yul\":13998:13999   */\n  dup3\n    /* \"#utility.yul\":13980:14000   */\n  tag_35\n  jump\t// in\ntag_228:\n    /* \"#utility.yul\":13975:14000   */\n  swap2\n  pop\n    /* \"#utility.yul\":14014:14034   */\n  tag_229\n    /* \"#utility.yul\":14032:14033   */\n  dup4\n    /* \"#utility.yul\":14014:14034   */\n  tag_35\n  jump\t// in\ntag_229:\n    /* \"#utility.yul\":14009:14034   */\n  swap3\n  pop\n    /* \"#utility.yul\":14069:14070   */\n  dup3\n    /* \"#utility.yul\":14066:14067   */\n  dup3\n    /* \"#utility.yul\":14062:14071   */\n  mul\n    /* \"#utility.yul\":14091:14121   */\n  tag_230\n    /* \"#utility.yul\":14109:14120   */\n  dup2\n    /* \"#utility.yul\":14091:14121   */\n  tag_35\n  jump\t// in\ntag_230:\n    /* \"#utility.yul\":14080:14121   */\n  swap2\n  pop\n    /* \"#utility.yul\":14270:14271   */\n  dup3\n    /* \"#utility.yul\":14261:14268   */\n  dup3\n    /* \"#utility.yul\":14257:14272   */\n  div\n    /* \"#utility.yul\":14254:14255   */\n  dup5\n    /* \"#utility.yul\":14251:14273   */\n  eq\n    /* \"#utility.yul\":14231:14232   */\n  dup4\n    /* \"#utility.yul\":14224:14233   */\n  iszero\n    /* \"#utility.yul\":14204:14287   */\n  or\n    /* \"#utility.yul\":14181:14320   */\n  tag_231\n  jumpi\n    /* \"#utility.yul\":14300:14318   */\n  tag_232\n  tag_63\n  jump\t// in\ntag_232:\n    /* \"#utility.yul\":14181:14320   */\ntag_231:\n    /* \"#utility.yul\":13965:14327   */\n  pop\n    /* \"#utility.yul\":13917:14327   */\n  swap3\n  swap2\n  pop\n  pop\n  jump\t// out\n    /* \"#utility.yul\":14333:14451   */\ntag_67:\n    /* \"#utility.yul\":14420:14444   */\n  tag_234\n    /* \"#utility.yul\":14438:14443   */\n  dup2\n    /* \"#utility.yul\":14420:14444   */\n  tag_35\n  jump\t// in\ntag_234:\n    /* \"#utility.yul\":14415:14418   */\n  dup3\n    /* \"#utility.yul\":14408:14445   */\n  mstore\n    /* \"#utility.yul\":14333:14451   */\n  pop\n  pop\n  jump\t// out\n    /* \"#utility.yul\":14457:14679   */\ntag_17:\n    /* \"#utility.yul\":14550:14554   */\n  0x00\n    /* \"#utility.yul\":14588:14590   */\n  0x20\n    /* \"#utility.yul\":14577:14586   */\n  dup3\n    /* \"#utility.yul\":14573:14591   */\n  add\n    /* \"#utility.yul\":14565:14591   */\n  swap1\n  pop\n    /* \"#utility.yul\":14601:14672   */\n  tag_236\n    /* \"#utility.yul\":14669:14670   */\n  0x00\n    /* \"#utility.yul\":14658:14667   */\n  dup4\n    /* \"#utility.yul\":14654:14671   */\n  add\n    /* \"#utility.yul\":14645:14651   */\n  dup5\n    /* \"#utility.yul\":14601:14672   */\n  tag_67\n  jump\t// in\ntag_236:\n    /* \"#utility.yul\":14457:14679   */\n  swap3\n  swap2\n  pop\n  pop\n  jump\t// out\n    /* \"contracts/TicketToken.sol\":95:7958  contract TicketToken is ERC20Interface {... */\ntag_18:\n  dataSize(sub_0)\n  dup1\n  dataOffset(sub_0)\n  0x00\n  codecopy\n  0x00\n  return\nstop\n\nsub_0: assembly {\n        /* \"contracts/TicketToken.sol\":95:7958  contract TicketToken is ERC20Interface {... */\n      mstore(0x40, 0x80)\n      jumpi(tag_1, lt(calldatasize, 0x04))\n      shr(0xe0, calldataload(0x00))\n      dup1\n      0x67dd74ca\n      gt\n      tag_26\n      jumpi\n      dup1\n      0x9dc29fac\n      gt\n      tag_27\n      jumpi\n      dup1\n      0x9dc29fac\n      eq\n      tag_20\n      jumpi\n      dup1\n      0xa76f7561\n      eq\n      tag_21\n      jumpi\n      dup1\n      0xa9059cbb\n      eq\n      tag_22\n      jumpi\n      dup1\n      0xb73c6ce9\n      eq\n      tag_23\n      jumpi\n      dup1\n      0xc04620ed\n      eq\n      tag_24\n      jumpi\n      dup1\n      0xdd62ed3e\n      eq\n      tag_25\n      jumpi\n      jump(tag_2)\n    tag_27:\n      dup1\n      0x67dd74ca\n      eq\n      tag_14\n      jumpi\n      dup1\n      0x70a08231\n      eq\n      tag_15\n      jumpi\n      dup1\n      0x75774100\n      eq\n      tag_16\n      jumpi\n      dup1\n      0x8da5cb5b\n      eq\n      tag_17\n      jumpi\n      dup1\n      0x95d89b41\n      eq\n      tag_18\n      jumpi\n      dup1\n      0x97d93935\n      eq\n      tag_19\n      jumpi\n      jump(tag_2)\n    tag_26:\n      dup1\n      0x18160ddd\n      gt\n      tag_28\n      jumpi\n      dup1\n      0x18160ddd\n      eq\n      tag_8\n      jumpi\n      dup1\n      0x1920d329\n      eq\n      tag_9\n      jumpi\n      dup1\n      0x23b872dd\n      eq\n      tag_10\n      jumpi\n      dup1\n      0x313ce567\n      eq\n      tag_11\n      jumpi\n      dup1\n      0x3ccfd60b\n      eq\n      tag_12\n      jumpi\n      dup1\n      0x40c10f19\n      eq\n      tag_13\n      jumpi\n      jump(tag_2)\n    tag_28:\n      dup1\n      0x06fdde03\n      eq\n      tag_3\n      jumpi\n      dup1\n      0x095ea7b3\n      eq\n      tag_4\n      jumpi\n      dup1\n      0x1209b1f6\n      eq\n      tag_5\n      jumpi\n      dup1\n      0x1385a6f2\n      eq\n      tag_6\n      jumpi\n      dup1\n      0x15981650\n      eq\n      tag_7\n      jumpi\n      jump(tag_2)\n    tag_1:\n      jumpi(tag_2, calldatasize)\n      stop\n    tag_2:\n      0x00\n      dup1\n      revert\n        /* \"contracts/TicketToken.sol\":141:159  string public name */\n    tag_3:\n      callvalue\n      dup1\n      iszero\n      tag_31\n      jumpi\n      0x00\n      dup1\n      revert\n    tag_31:\n      pop\n      tag_32\n      tag_33\n      jump\t// in\n    tag_32:\n      mload(0x40)\n      tag_34\n      swap2\n      swap1\n      tag_35\n      jump\t// in\n    tag_34:\n      mload(0x40)\n      dup1\n      swap2\n      sub\n      swap1\n      return\n        /* \"contracts/TicketToken.sol\":2938:3153  function approve(address spender, uint256 amount) public override returns (bool) {... */\n    tag_4:\n      callvalue\n      dup1\n      iszero\n      tag_36\n      jumpi\n      0x00\n      dup1\n      revert\n    tag_36:\n      pop\n      tag_37\n      0x04\n      dup1\n      calldatasize\n      sub\n      dup2\n      add\n      swap1\n      tag_38\n      swap2\n      swap1\n      tag_39\n      jump\t// in\n    tag_38:\n      tag_40\n      jump\t// in\n    tag_37:\n      mload(0x40)\n      tag_41\n      swap2\n      swap1\n      tag_42\n      jump\t// in\n    tag_41:\n      mload(0x40)\n      dup1\n      swap2\n      sub\n      swap1\n      return\n        /* \"contracts/TicketToken.sol\":193:219  uint256 public ticketPrice */\n    tag_5:\n      callvalue\n      dup1\n      iszero\n      tag_43\n      jumpi\n      0x00\n      dup1\n      revert\n    tag_43:\n      pop\n      tag_44\n      tag_45\n      jump\t// in\n    tag_44:\n      mload(0x40)\n      tag_46\n      swap2\n      swap1\n      tag_47\n      jump\t// in\n    tag_46:\n      mload(0x40)\n      dup1\n      swap2\n      sub\n      swap1\n      return\n        /* \"contracts/TicketToken.sol\":314:335  address public vendor */\n    tag_6:\n      callvalue\n      dup1\n      iszero\n      tag_48\n      jumpi\n      0x00\n      dup1\n      revert\n    tag_48:\n      pop\n      tag_49\n      tag_50\n      jump\t// in\n    tag_49:\n      mload(0x40)\n      tag_51\n      swap2\n      swap1\n      tag_52\n      jump\t// in\n    tag_51:\n      mload(0x40)\n      dup1\n      swap2\n      sub\n      swap1\n      return\n        /* \"contracts/TicketToken.sol\":6297:6399  function setTicketPrice(uint256 newPrice) external onlyOwner {... */\n    tag_7:\n      callvalue\n      dup1\n      iszero\n      tag_53\n      jumpi\n      0x00\n      dup1\n      revert\n    tag_53:\n      pop\n      tag_54\n      0x04\n      dup1\n      calldatasize\n      sub\n      dup2\n      add\n      swap1\n      tag_55\n      swap2\n      swap1\n      tag_56\n      jump\t// in\n    tag_55:\n      tag_57\n      jump\t// in\n    tag_54:\n      stop\n        /* \"contracts/TicketToken.sol\":254:280  uint256 public totalSupply */\n    tag_8:\n      callvalue\n      dup1\n      iszero\n      tag_58\n      jumpi\n      0x00\n      dup1\n      revert\n    tag_58:\n      pop\n      tag_59\n      tag_60\n      jump\t// in\n    tag_59:\n      mload(0x40)\n      tag_61\n      swap2\n      swap1\n      tag_47\n      jump\t// in\n    tag_61:\n      mload(0x40)\n      dup1\n      swap2\n      sub\n      swap1\n      return\n        /* \"contracts/TicketToken.sol\":547:586  mapping(address => bool) public doormen */\n    tag_9:\n      callvalue\n      dup1\n      iszero\n      tag_62\n      jumpi\n      0x00\n      dup1\n      revert\n    tag_62:\n      pop\n      tag_63\n      0x04\n      dup1\n      calldatasize\n      sub\n      dup2\n      add\n      swap1\n      tag_64\n      swap2\n      swap1\n      tag_65\n      jump\t// in\n    tag_64:\n      tag_66\n      jump\t// in\n    tag_63:\n      mload(0x40)\n      tag_67\n      swap2\n      swap1\n      tag_42\n      jump\t// in\n    tag_67:\n      mload(0x40)\n      dup1\n      swap2\n      sub\n      swap1\n      return\n        /* \"contracts/TicketToken.sol\":3161:3764  function transferFrom(address from, address to, uint256 amount) public override returns (bool) {... */\n    tag_10:\n      callvalue\n      dup1\n      iszero\n      tag_68\n      jumpi\n      0x00\n      dup1\n      revert\n    tag_68:\n      pop\n      tag_69\n      0x04\n      dup1\n      calldatasize\n      sub\n      dup2\n      add\n      swap1\n      tag_70\n      swap2\n      swap1\n      tag_71\n      jump\t// in\n    tag_70:\n      tag_72\n      jump\t// in\n    tag_69:\n      mload(0x40)\n      tag_73\n      swap2\n      swap1\n      tag_42\n      jump\t// in\n    tag_73:\n      mload(0x40)\n      dup1\n      swap2\n      sub\n      swap1\n      return\n        /* \"contracts/TicketToken.sol\":226:247  uint8 public decimals */\n    tag_11:\n      callvalue\n      dup1\n      iszero\n      tag_74\n      jumpi\n      0x00\n      dup1\n      revert\n    tag_74:\n      pop\n      tag_75\n      tag_76\n      jump\t// in\n    tag_75:\n      mload(0x40)\n      tag_77\n      swap2\n      swap1\n      tag_78\n      jump\t// in\n    tag_77:\n      mload(0x40)\n      dup1\n      swap2\n      sub\n      swap1\n      return\n        /* \"contracts/TicketToken.sol\":7293:7397  function withdraw() external onlyOwner {... */\n    tag_12:\n      callvalue\n      dup1\n      iszero\n      tag_79\n      jumpi\n      0x00\n      dup1\n      revert\n    tag_79:\n      pop\n      tag_80\n      tag_81\n      jump\t// in\n    tag_80:\n      stop\n        /* \"contracts/TicketToken.sol\":7770:7916  function mint(address to, uint256 amount) public {... */\n    tag_13:\n      callvalue\n      dup1\n      iszero\n      tag_82\n      jumpi\n      0x00\n      dup1\n      revert\n    tag_82:\n      pop\n      tag_83\n      0x04\n      dup1\n      calldatasize\n      sub\n      dup2\n      add\n      swap1\n      tag_84\n      swap2\n      swap1\n      tag_39\n      jump\t// in\n    tag_84:\n      tag_85\n      jump\t// in\n    tag_83:\n      stop\n        /* \"contracts/TicketToken.sol\":4225:4848  function buyTicket(uint256 amount) external payable noReentrancy {... */\n    tag_14:\n      tag_86\n      0x04\n      dup1\n      calldatasize\n      sub\n      dup2\n      add\n      swap1\n      tag_87\n      swap2\n      swap1\n      tag_56\n      jump\t// in\n    tag_87:\n      tag_88\n      jump\t// in\n    tag_86:\n      stop\n        /* \"contracts/TicketToken.sol\":2242:2360  function balanceOf(address account) public view override returns (uint256) {... */\n    tag_15:\n      callvalue\n      dup1\n      iszero\n      tag_89\n      jumpi\n      0x00\n      dup1\n      revert\n    tag_89:\n      pop\n      tag_90\n      0x04\n      dup1\n      calldatasize\n      sub\n      dup2\n      add\n      swap1\n      tag_91\n      swap2\n      swap1\n      tag_65\n      jump\t// in\n    tag_91:\n      tag_92\n      jump\t// in\n    tag_90:\n      mload(0x40)\n      tag_93\n      swap2\n      swap1\n      tag_47\n      jump\t// in\n    tag_93:\n      mload(0x40)\n      dup1\n      swap2\n      sub\n      swap1\n      return\n        /* \"contracts/TicketToken.sol\":5405:6285  function refundTicket(uint256 amount) external noReentrancy {... */\n    tag_16:\n      callvalue\n      dup1\n      iszero\n      tag_94\n      jumpi\n      0x00\n      dup1\n      revert\n    tag_94:\n      pop\n      tag_95\n      0x04\n      dup1\n      calldatasize\n      sub\n      dup2\n      add\n      swap1\n      tag_96\n      swap2\n      swap1\n      tag_56\n      jump\t// in\n    tag_96:\n      tag_97\n      jump\t// in\n    tag_95:\n      stop\n        /* \"contracts/TicketToken.sol\":287:307  address public owner */\n    tag_17:\n      callvalue\n      dup1\n      iszero\n      tag_98\n      jumpi\n      0x00\n      dup1\n      revert\n    tag_98:\n      pop\n      tag_99\n      tag_100\n      jump\t// in\n    tag_99:\n      mload(0x40)\n      tag_101\n      swap2\n      swap1\n      tag_52\n      jump\t// in\n    tag_101:\n      mload(0x40)\n      dup1\n      swap2\n      sub\n      swap1\n      return\n        /* \"contracts/TicketToken.sol\":166:186  string public symbol */\n    tag_18:\n      callvalue\n      dup1\n      iszero\n      tag_102\n      jumpi\n      0x00\n      dup1\n      revert\n    tag_102:\n      pop\n      tag_103\n      tag_104\n      jump\t// in\n    tag_103:\n      mload(0x40)\n      tag_105\n      swap2\n      swap1\n      tag_35\n      jump\t// in\n    tag_105:\n      mload(0x40)\n      dup1\n      swap2\n      sub\n      swap1\n      return\n        /* \"contracts/TicketToken.sol\":6407:6665  function setVendor(address newVendor) external onlyOwner {... */\n    tag_19:\n      callvalue\n      dup1\n      iszero\n      tag_106\n      jumpi\n      0x00\n      dup1\n      revert\n    tag_106:\n      pop\n      tag_107\n      0x04\n      dup1\n      calldatasize\n      sub\n      dup2\n      add\n      swap1\n      tag_108\n      swap2\n      swap1\n      tag_65\n      jump\t// in\n    tag_108:\n      tag_109\n      jump\t// in\n    tag_107:\n      stop\n        /* \"contracts/TicketToken.sol\":6845:7283  function burn(address from, uint256 amount) external onlyDoorman {... */\n    tag_20:\n      callvalue\n      dup1\n      iszero\n      tag_110\n      jumpi\n      0x00\n      dup1\n      revert\n    tag_110:\n      pop\n      tag_111\n      0x04\n      dup1\n      calldatasize\n      sub\n      dup2\n      add\n      swap1\n      tag_112\n      swap2\n      swap1\n      tag_39\n      jump\t// in\n    tag_112:\n      tag_113\n      jump\t// in\n    tag_111:\n      stop\n        /* \"contracts/TicketToken.sol\":593:642  mapping(address => uint256) public vendorBalances */\n    tag_21:\n      callvalue\n      dup1\n      iszero\n      tag_114\n      jumpi\n      0x00\n      dup1\n      revert\n    tag_114:\n      pop\n      tag_115\n      0x04\n      dup1\n      calldatasize\n      sub\n      dup2\n      add\n      swap1\n      tag_116\n      swap2\n      swap1\n      tag_65\n      jump\t// in\n    tag_116:\n      tag_117\n      jump\t// in\n    tag_115:\n      mload(0x40)\n      tag_118\n      swap2\n      swap1\n      tag_47\n      jump\t// in\n    tag_118:\n      mload(0x40)\n      dup1\n      swap2\n      sub\n      swap1\n      return\n        /* \"contracts/TicketToken.sol\":2368:2776  function transfer(address to, uint256 amount) public override returns (bool) {... */\n    tag_22:\n      callvalue\n      dup1\n      iszero\n      tag_119\n      jumpi\n      0x00\n      dup1\n      revert\n    tag_119:\n      pop\n      tag_120\n      0x04\n      dup1\n      calldatasize\n      sub\n      dup2\n      add\n      swap1\n      tag_121\n      swap2\n      swap1\n      tag_39\n      jump\t// in\n    tag_121:\n      tag_122\n      jump\t// in\n    tag_120:\n      mload(0x40)\n      tag_123\n      swap2\n      swap1\n      tag_42\n      jump\t// in\n    tag_123:\n      mload(0x40)\n      dup1\n      swap2\n      sub\n      swap1\n      return\n        /* \"contracts/TicketToken.sol\":7405:7760  function withdrawEarnings() external onlyVendor noReentrancy {... */\n    tag_23:\n      callvalue\n      dup1\n      iszero\n      tag_124\n      jumpi\n      0x00\n      dup1\n      revert\n    tag_124:\n      pop\n      tag_125\n      tag_126\n      jump\t// in\n    tag_125:\n      stop\n        /* \"contracts/TicketToken.sol\":6673:6837  function setDoorman(address user, bool status) external onlyOwner {... */\n    tag_24:\n      callvalue\n      dup1\n      iszero\n      tag_127\n      jumpi\n      0x00\n      dup1\n      revert\n    tag_127:\n      pop\n      tag_128\n      0x04\n      dup1\n      calldatasize\n      sub\n      dup2\n      add\n      swap1\n      tag_129\n      swap2\n      swap1\n      tag_130\n      jump\t// in\n    tag_129:\n      tag_131\n      jump\t// in\n    tag_128:\n      stop\n        /* \"contracts/TicketToken.sol\":2786:2930  function allowance(address _owner, address spender) public view override returns (uint256) {... */\n    tag_25:\n      callvalue\n      dup1\n      iszero\n      tag_132\n      jumpi\n      0x00\n      dup1\n      revert\n    tag_132:\n      pop\n      tag_133\n      0x04\n      dup1\n      calldatasize\n      sub\n      dup2\n      add\n      swap1\n      tag_134\n      swap2\n      swap1\n      tag_135\n      jump\t// in\n    tag_134:\n      tag_136\n      jump\t// in\n    tag_133:\n      mload(0x40)\n      tag_137\n      swap2\n      swap1\n      tag_47\n      jump\t// in\n    tag_137:\n      mload(0x40)\n      dup1\n      swap2\n      sub\n      swap1\n      return\n        /* \"contracts/TicketToken.sol\":141:159  string public name */\n    tag_33:\n      0x00\n      dup1\n      sload\n      tag_138\n      swap1\n      tag_139\n      jump\t// in\n    tag_138:\n      dup1\n      0x1f\n      add\n      0x20\n      dup1\n      swap2\n      div\n      mul\n      0x20\n      add\n      mload(0x40)\n      swap1\n      dup2\n      add\n      0x40\n      mstore\n      dup1\n      swap3\n      swap2\n      swap1\n      dup2\n      dup2\n      mstore\n      0x20\n      add\n      dup3\n      dup1\n      sload\n      tag_140\n      swap1\n      tag_139\n      jump\t// in\n    tag_140:\n      dup1\n      iszero\n      tag_141\n      jumpi\n      dup1\n      0x1f\n      lt\n      tag_142\n      jumpi\n      0x0100\n      dup1\n      dup4\n      sload\n      div\n      mul\n      dup4\n      mstore\n      swap2\n      0x20\n      add\n      swap2\n      jump(tag_141)\n    tag_142:\n      dup3\n      add\n      swap2\n      swap1\n      0x00\n      mstore\n      keccak256(0x00, 0x20)\n      swap1\n    tag_143:\n      dup2\n      sload\n      dup2\n      mstore\n      swap1\n      0x01\n      add\n      swap1\n      0x20\n      add\n      dup1\n      dup4\n      gt\n      tag_143\n      jumpi\n      dup3\n      swap1\n      sub\n      0x1f\n      and\n      dup3\n      add\n      swap2\n    tag_141:\n      pop\n      pop\n      pop\n      pop\n      pop\n      dup2\n      jump\t// out\n        /* \"contracts/TicketToken.sol\":2938:3153  function approve(address spender, uint256 amount) public override returns (bool) {... */\n    tag_40:\n        /* \"contracts/TicketToken.sol\":3013:3017  bool */\n      0x00\n        /* \"contracts/TicketToken.sol\":3064:3070  amount */\n      dup2\n        /* \"contracts/TicketToken.sol\":3030:3040  allowances */\n      0x08\n        /* \"contracts/TicketToken.sol\":3030:3052  allowances[msg.sender] */\n      0x00\n        /* \"contracts/TicketToken.sol\":3041:3051  msg.sender */\n      caller\n        /* \"contracts/TicketToken.sol\":3030:3052  allowances[msg.sender] */\n      0xffffffffffffffffffffffffffffffffffffffff\n      and\n      0xffffffffffffffffffffffffffffffffffffffff\n      and\n      dup2\n      mstore\n      0x20\n      add\n      swap1\n      dup2\n      mstore\n      0x20\n      add\n      0x00\n      keccak256\n        /* \"contracts/TicketToken.sol\":3030:3061  allowances[msg.sender][spender] */\n      0x00\n        /* \"contracts/TicketToken.sol\":3053:3060  spender */\n      dup6\n        /* \"contracts/TicketToken.sol\":3030:3061  allowances[msg.sender][spender] */\n      0xffffffffffffffffffffffffffffffffffffffff\n      and\n      0xffffffffffffffffffffffffffffffffffffffff\n      and\n      dup2\n      mstore\n      0x20\n      add\n      swap1\n      dup2\n      mstore\n      0x20\n      add\n      0x00\n      keccak256\n        /* \"contracts/TicketToken.sol\":3030:3070  allowances[msg.sender][spender] = amount */\n      dup2\n      swap1\n      sstore\n      pop\n        /* \"contracts/TicketToken.sol\":3107:3114  spender */\n      dup3\n        /* \"contracts/TicketToken.sol\":3086:3123  Approval(msg.sender, spender, amount) */\n      0xffffffffffffffffffffffffffffffffffffffff\n      and\n        /* \"contracts/TicketToken.sol\":3095:3105  msg.sender */\n      caller\n        /* \"contracts/TicketToken.sol\":3086:3123  Approval(msg.sender, spender, amount) */\n      0xffffffffffffffffffffffffffffffffffffffff\n      and\n      0x8c5be1e5ebec7d5bd14f71427d1e84f3dd0314c0f7b2291e5b200ac8c7c3b925\n        /* \"contracts/TicketToken.sol\":3116:3122  amount */\n      dup5\n        /* \"contracts/TicketToken.sol\":3086:3123  Approval(msg.sender, spender, amount) */\n      mload(0x40)\n      tag_145\n      swap2\n      swap1\n      tag_47\n      jump\t// in\n    tag_145:\n      mload(0x40)\n      dup1\n      swap2\n      sub\n      swap1\n      log3\n        /* \"contracts/TicketToken.sol\":3141:3145  true */\n      0x01\n        /* \"contracts/TicketToken.sol\":3134:3145  return true */\n      swap1\n      pop\n        /* \"contracts/TicketToken.sol\":2938:3153  function approve(address spender, uint256 amount) public override returns (bool) {... */\n      swap3\n      swap2\n      pop\n      pop\n      jump\t// out\n        /* \"contracts/TicketToken.sol\":193:219  uint256 public ticketPrice */\n    tag_45:\n      sload(0x02)\n      dup2\n      jump\t// out\n        /* \"contracts/TicketToken.sol\":314:335  address public vendor */\n    tag_50:\n      0x06\n      0x00\n      swap1\n      sload\n      swap1\n      0x0100\n      exp\n      swap1\n      div\n      0xffffffffffffffffffffffffffffffffffffffff\n      and\n      dup2\n      jump\t// out\n        /* \"contracts/TicketToken.sol\":6297:6399  function setTicketPrice(uint256 newPrice) external onlyOwner {... */\n    tag_57:\n        /* \"contracts/TicketToken.sol\":1817:1822  owner */\n      0x05\n      0x00\n      swap1\n      sload\n      swap1\n      0x0100\n      exp\n      swap1\n      div\n      0xffffffffffffffffffffffffffffffffffffffff\n      and\n        /* \"contracts/TicketToken.sol\":1803:1822  msg.sender == owner */\n      0xffffffffffffffffffffffffffffffffffffffff\n      and\n        /* \"contracts/TicketToken.sol\":1803:1813  msg.sender */\n      caller\n        /* \"contracts/TicketToken.sol\":1803:1822  msg.sender == owner */\n      0xffffffffffffffffffffffffffffffffffffffff\n      and\n      eq\n        /* \"contracts/TicketToken.sol\":1795:1836  require(msg.sender == owner, \"Not owner\") */\n      tag_147\n      jumpi\n      mload(0x40)\n      0x08c379a000000000000000000000000000000000000000000000000000000000\n      dup2\n      mstore\n      0x04\n      add\n      tag_148\n      swap1\n      tag_149\n      jump\t// in\n    tag_148:\n      mload(0x40)\n      dup1\n      swap2\n      sub\n      swap1\n      revert\n    tag_147:\n        /* \"contracts/TicketToken.sol\":6383:6391  newPrice */\n      dup1\n        /* \"contracts/TicketToken.sol\":6369:6380  ticketPrice */\n      0x02\n        /* \"contracts/TicketToken.sol\":6369:6391  ticketPrice = newPrice */\n      dup2\n      swap1\n      sstore\n      pop\n        /* \"contracts/TicketToken.sol\":6297:6399  function setTicketPrice(uint256 newPrice) external onlyOwner {... */\n      pop\n      jump\t// out\n        /* \"contracts/TicketToken.sol\":254:280  uint256 public totalSupply */\n    tag_60:\n      sload(0x04)\n      dup2\n      jump\t// out\n        /* \"contracts/TicketToken.sol\":547:586  mapping(address => bool) public doormen */\n    tag_66:\n      mstore(0x20, 0x09)\n      dup1\n      0x00\n      mstore\n      keccak256(0x00, 0x40)\n      0x00\n      swap2\n      pop\n      sload\n      swap1\n      0x0100\n      exp\n      swap1\n      div\n      0xff\n      and\n      dup2\n      jump\t// out\n        /* \"contracts/TicketToken.sol\":3161:3764  function transferFrom(address from, address to, uint256 amount) public override returns (bool) {... */\n    tag_72:\n        /* \"contracts/TicketToken.sol\":3250:3254  bool */\n      0x00\n        /* \"contracts/TicketToken.sol\":3267:3286  uint256 fromBalance */\n      dup1\n        /* \"contracts/TicketToken.sol\":3289:3297  balances */\n      0x07\n        /* \"contracts/TicketToken.sol\":3289:3303  balances[from] */\n      0x00\n        /* \"contracts/TicketToken.sol\":3298:3302  from */\n      dup7\n        /* \"contracts/TicketToken.sol\":3289:3303  balances[from] */\n      0xffffffffffffffffffffffffffffffffffffffff\n      and\n      0xffffffffffffffffffffffffffffffffffffffff\n      and\n      dup2\n      mstore\n      0x20\n      add\n      swap1\n      dup2\n      mstore\n      0x20\n      add\n      0x00\n      keccak256\n      sload\n        /* \"contracts/TicketToken.sol\":3267:3303  uint256 fromBalance = balances[from] */\n      swap1\n      pop\n        /* \"contracts/TicketToken.sol\":3314:3338  uint256 currentAllowance */\n      0x00\n        /* \"contracts/TicketToken.sol\":3341:3351  allowances */\n      0x08\n        /* \"contracts/TicketToken.sol\":3341:3357  allowances[from] */\n      0x00\n        /* \"contracts/TicketToken.sol\":3352:3356  from */\n      dup8\n        /* \"contracts/TicketToken.sol\":3341:3357  allowances[from] */\n      0xffffffffffffffffffffffffffffffffffffffff\n      and\n      0xffffffffffffffffffffffffffffffffffffffff\n      and\n      dup2\n      mstore\n      0x20\n      add\n      swap1\n      dup2\n      mstore\n      0x20\n      add\n      0x00\n      keccak256\n        /* \"contracts/TicketToken.sol\":3341:3369  allowances[from][msg.sender] */\n      0x00\n        /* \"contracts/TicketToken.sol\":3358:3368  msg.sender */\n      caller\n        /* \"contracts/TicketToken.sol\":3341:3369  allowances[from][msg.sender] */\n      0xffffffffffffffffffffffffffffffffffffffff\n      and\n      0xffffffffffffffffffffffffffffffffffffffff\n      and\n      dup2\n      mstore\n      0x20\n      add\n      swap1\n      dup2\n      mstore\n      0x20\n      add\n      0x00\n      keccak256\n      sload\n        /* \"contracts/TicketToken.sol\":3314:3369  uint256 currentAllowance = allowances[from][msg.sender] */\n      swap1\n      pop\n        /* \"contracts/TicketToken.sol\":3405:3411  amount */\n      dup4\n        /* \"contracts/TicketToken.sol\":3390:3401  fromBalance */\n      dup3\n        /* \"contracts/TicketToken.sol\":3390:3411  fromBalance >= amount */\n      lt\n      iszero\n        /* \"contracts/TicketToken.sol\":3382:3434  require(fromBalance >= amount, \"Not enough balance\") */\n      tag_152\n      jumpi\n      mload(0x40)\n      0x08c379a000000000000000000000000000000000000000000000000000000000\n      dup2\n      mstore\n      0x04\n      add\n      tag_153\n      swap1\n      tag_154\n      jump\t// in\n    tag_153:\n      mload(0x40)\n      dup1\n      swap2\n      sub\n      swap1\n      revert\n    tag_152:\n        /* \"contracts/TicketToken.sol\":3473:3479  amount */\n      dup4\n        /* \"contracts/TicketToken.sol\":3453:3469  currentAllowance */\n      dup2\n        /* \"contracts/TicketToken.sol\":3453:3479  currentAllowance >= amount */\n      lt\n      iszero\n        /* \"contracts/TicketToken.sol\":3445:3496  require(currentAllowance >= amount, \"Not approved\") */\n      tag_155\n      jumpi\n      mload(0x40)\n      0x08c379a000000000000000000000000000000000000000000000000000000000\n      dup2\n      mstore\n      0x04\n      add\n      tag_156\n      swap1\n      tag_157\n      jump\t// in\n    tag_156:\n      mload(0x40)\n      dup1\n      swap2\n      sub\n      swap1\n      revert\n    tag_155:\n        /* \"contracts/TicketToken.sol\":3565:3571  amount */\n      dup4\n        /* \"contracts/TicketToken.sol\":3551:3562  fromBalance */\n      dup3\n        /* \"contracts/TicketToken.sol\":3551:3571  fromBalance - amount */\n      sub\n        /* \"contracts/TicketToken.sol\":3534:3542  balances */\n      0x07\n        /* \"contracts/TicketToken.sol\":3534:3548  balances[from] */\n      0x00\n        /* \"contracts/TicketToken.sol\":3543:3547  from */\n      dup9\n        /* \"contracts/TicketToken.sol\":3534:3548  balances[from] */\n      0xffffffffffffffffffffffffffffffffffffffff\n      and\n      0xffffffffffffffffffffffffffffffffffffffff\n      and\n      dup2\n      mstore\n      0x20\n      add\n      swap1\n      dup2\n      mstore\n      0x20\n      add\n      0x00\n      keccak256\n        /* \"contracts/TicketToken.sol\":3534:3571  balances[from] = fromBalance - amount */\n      dup2\n      swap1\n      sstore\n      pop\n        /* \"contracts/TicketToken.sol\":3602:3608  amount */\n      dup4\n        /* \"contracts/TicketToken.sol\":3586:3594  balances */\n      0x07\n        /* \"contracts/TicketToken.sol\":3586:3598  balances[to] */\n      0x00\n        /* \"contracts/TicketToken.sol\":3595:3597  to */\n      dup8\n        /* \"contracts/TicketToken.sol\":3586:3598  balances[to] */\n      0xffffffffffffffffffffffffffffffffffffffff\n      and\n      0xffffffffffffffffffffffffffffffffffffffff\n      and\n      dup2\n      mstore\n      0x20\n      add\n      swap1\n      dup2\n      mstore\n      0x20\n      add\n      0x00\n      keccak256\n      0x00\n        /* \"contracts/TicketToken.sol\":3586:3608  balances[to] += amount */\n      dup3\n      dup3\n      sload\n      add\n      swap3\n      pop\n      pop\n      dup2\n      swap1\n      sstore\n      pop\n        /* \"contracts/TicketToken.sol\":3673:3679  amount */\n      dup4\n        /* \"contracts/TicketToken.sol\":3654:3670  currentAllowance */\n      dup2\n        /* \"contracts/TicketToken.sol\":3654:3679  currentAllowance - amount */\n      sub\n        /* \"contracts/TicketToken.sol\":3623:3633  allowances */\n      0x08\n        /* \"contracts/TicketToken.sol\":3623:3639  allowances[from] */\n      0x00\n        /* \"contracts/TicketToken.sol\":3634:3638  from */\n      dup9\n        /* \"contracts/TicketToken.sol\":3623:3639  allowances[from] */\n      0xffffffffffffffffffffffffffffffffffffffff\n      and\n      0xffffffffffffffffffffffffffffffffffffffff\n      and\n      dup2\n      mstore\n      0x20\n      add\n      swap1\n      dup2\n      mstore\n      0x20\n      add\n      0x00\n      keccak256\n        /* \"contracts/TicketToken.sol\":3623:3651  allowances[from][msg.sender] */\n      0x00\n        /* \"contracts/TicketToken.sol\":3640:3650  msg.sender */\n      caller\n        /* \"contracts/TicketToken.sol\":3623:3651  allowances[from][msg.sender] */\n      0xffffffffffffffffffffffffffffffffffffffff\n      and\n      0xffffffffffffffffffffffffffffffffffffffff\n      and\n      dup2\n      mstore\n      0x20\n      add\n      swap1\n      dup2\n      mstore\n      0x20\n      add\n      0x00\n      keccak256\n        /* \"contracts/TicketToken.sol\":3623:3679  allowances[from][msg.sender] = currentAllowance - amount */\n      dup2\n      swap1\n      sstore\n      pop\n        /* \"contracts/TicketToken.sol\":3723:3725  to */\n      dup5\n        /* \"contracts/TicketToken.sol\":3708:3734  Transfer(from, to, amount) */\n      0xffffffffffffffffffffffffffffffffffffffff\n      and\n        /* \"contracts/TicketToken.sol\":3717:3721  from */\n      dup7\n        /* \"contracts/TicketToken.sol\":3708:3734  Transfer(from, to, amount) */\n      0xffffffffffffffffffffffffffffffffffffffff\n      and\n      0xddf252ad1be2c89b69c2b068fc378daa952ba7f163c4a11628f55a4df523b3ef\n        /* \"contracts/TicketToken.sol\":3727:3733  amount */\n      dup7\n        /* \"contracts/TicketToken.sol\":3708:3734  Transfer(from, to, amount) */\n      mload(0x40)\n      tag_158\n      swap2\n      swap1\n      tag_47\n      jump\t// in\n    tag_158:\n      mload(0x40)\n      dup1\n      swap2\n      sub\n      swap1\n      log3\n        /* \"contracts/TicketToken.sol\":3752:3756  true */\n      0x01\n        /* \"contracts/TicketToken.sol\":3745:3756  return true */\n      swap3\n      pop\n      pop\n      pop\n        /* \"contracts/TicketToken.sol\":3161:3764  function transferFrom(address from, address to, uint256 amount) public override returns (bool) {... */\n      swap4\n      swap3\n      pop\n      pop\n      pop\n      jump\t// out\n        /* \"contracts/TicketToken.sol\":226:247  uint8 public decimals */\n    tag_76:\n      0x03\n      0x00\n      swap1\n      sload\n      swap1\n      0x0100\n      exp\n      swap1\n      div\n      0xff\n      and\n      dup2\n      jump\t// out\n        /* \"contracts/TicketToken.sol\":7293:7397  function withdraw() external onlyOwner {... */\n    tag_81:\n        /* \"contracts/TicketToken.sol\":1817:1822  owner */\n      0x05\n      0x00\n      swap1\n      sload\n      swap1\n      0x0100\n      exp\n      swap1\n      div\n      0xffffffffffffffffffffffffffffffffffffffff\n      and\n        /* \"contracts/TicketToken.sol\":1803:1822  msg.sender == owner */\n      0xffffffffffffffffffffffffffffffffffffffff\n      and\n        /* \"contracts/TicketToken.sol\":1803:1813  msg.sender */\n      caller\n        /* \"contracts/TicketToken.sol\":1803:1822  msg.sender == owner */\n      0xffffffffffffffffffffffffffffffffffffffff\n      and\n      eq\n        /* \"contracts/TicketToken.sol\":1795:1836  require(msg.sender == owner, \"Not owner\") */\n      tag_160\n      jumpi\n      mload(0x40)\n      0x08c379a000000000000000000000000000000000000000000000000000000000\n      dup2\n      mstore\n      0x04\n      add\n      tag_161\n      swap1\n      tag_149\n      jump\t// in\n    tag_161:\n      mload(0x40)\n      dup1\n      swap2\n      sub\n      swap1\n      revert\n    tag_160:\n        /* \"contracts/TicketToken.sol\":7351:7356  owner */\n      0x05\n      0x00\n      swap1\n      sload\n      swap1\n      0x0100\n      exp\n      swap1\n      div\n      0xffffffffffffffffffffffffffffffffffffffff\n      and\n        /* \"contracts/TicketToken.sol\":7343:7366  payable(owner).transfer */\n      0xffffffffffffffffffffffffffffffffffffffff\n      and\n        /* \"contracts/TicketToken.sol\":7343:7389  payable(owner).transfer(address(this).balance) */\n      0x08fc\n        /* \"contracts/TicketToken.sol\":7367:7388  address(this).balance */\n      selfbalance\n        /* \"contracts/TicketToken.sol\":7343:7389  payable(owner).transfer(address(this).balance) */\n      swap1\n      dup2\n      iszero\n      mul\n      swap1\n      mload(0x40)\n      0x00\n      mload(0x40)\n      dup1\n      dup4\n      sub\n      dup2\n      dup6\n      dup9\n      dup9\n      call\n      swap4\n      pop\n      pop\n      pop\n      pop\n      iszero\n      dup1\n      iszero\n      tag_164\n      jumpi\n      returndatasize\n      0x00\n      dup1\n      returndatacopy\n      revert(0x00, returndatasize)\n    tag_164:\n      pop\n        /* \"contracts/TicketToken.sol\":7293:7397  function withdraw() external onlyOwner {... */\n      jump\t// out\n        /* \"contracts/TicketToken.sol\":7770:7916  function mint(address to, uint256 amount) public {... */\n    tag_85:\n        /* \"contracts/TicketToken.sol\":7848:7854  vendor */\n      0x06\n      0x00\n      swap1\n      sload\n      swap1\n      0x0100\n      exp\n      swap1\n      div\n      0xffffffffffffffffffffffffffffffffffffffff\n      and\n        /* \"contracts/TicketToken.sol\":7834:7854  msg.sender == vendor */\n      0xffffffffffffffffffffffffffffffffffffffff\n      and\n        /* \"contracts/TicketToken.sol\":7834:7844  msg.sender */\n      caller\n        /* \"contracts/TicketToken.sol\":7834:7854  msg.sender == vendor */\n      0xffffffffffffffffffffffffffffffffffffffff\n      and\n      eq\n        /* \"contracts/TicketToken.sol\":7826:7879  require(msg.sender == vendor, \"Only vendor can mint\") */\n      tag_166\n      jumpi\n      mload(0x40)\n      0x08c379a000000000000000000000000000000000000000000000000000000000\n      dup2\n      mstore\n      0x04\n      add\n      tag_167\n      swap1\n      tag_168\n      jump\t// in\n    tag_167:\n      mload(0x40)\n      dup1\n      swap2\n      sub\n      swap1\n      revert\n    tag_166:\n        /* \"contracts/TicketToken.sol\":7902:7908  amount */\n      dup1\n        /* \"contracts/TicketToken.sol\":7886:7894  balances */\n      0x07\n        /* \"contracts/TicketToken.sol\":7886:7898  balances[to] */\n      0x00\n        /* \"contracts/TicketToken.sol\":7895:7897  to */\n      dup5\n        /* \"contracts/TicketToken.sol\":7886:7898  balances[to] */\n      0xffffffffffffffffffffffffffffffffffffffff\n      and\n      0xffffffffffffffffffffffffffffffffffffffff\n      and\n      dup2\n      mstore\n      0x20\n      add\n      swap1\n      dup2\n      mstore\n      0x20\n      add\n      0x00\n      keccak256\n      0x00\n        /* \"contracts/TicketToken.sol\":7886:7908  balances[to] += amount */\n      dup3\n      dup3\n      sload\n      tag_169\n      swap2\n      swap1\n      tag_170\n      jump\t// in\n    tag_169:\n      swap3\n      pop\n      pop\n      dup2\n      swap1\n      sstore\n      pop\n        /* \"contracts/TicketToken.sol\":7770:7916  function mint(address to, uint256 amount) public {... */\n      pop\n      pop\n      jump\t// out\n        /* \"contracts/TicketToken.sol\":4225:4848  function buyTicket(uint256 amount) external payable noReentrancy {... */\n    tag_88:\n        /* \"contracts/TicketToken.sol\":2141:2147  locked */\n      0x06\n      0x14\n      swap1\n      sload\n      swap1\n      0x0100\n      exp\n      swap1\n      div\n      0xff\n      and\n        /* \"contracts/TicketToken.sol\":2140:2147  !locked */\n      iszero\n        /* \"contracts/TicketToken.sol\":2132:2165  require(!locked, \"No reentrancy\") */\n      tag_172\n      jumpi\n      mload(0x40)\n      0x08c379a000000000000000000000000000000000000000000000000000000000\n      dup2\n      mstore\n      0x04\n      add\n      tag_173\n      swap1\n      tag_174\n      jump\t// in\n    tag_173:\n      mload(0x40)\n      dup1\n      swap2\n      sub\n      swap1\n      revert\n    tag_172:\n        /* \"contracts/TicketToken.sol\":2185:2189  true */\n      0x01\n        /* \"contracts/TicketToken.sol\":2176:2182  locked */\n      0x06\n      0x14\n        /* \"contracts/TicketToken.sol\":2176:2189  locked = true */\n      0x0100\n      exp\n      dup2\n      sload\n      dup2\n      0xff\n      mul\n      not\n      and\n      swap1\n      dup4\n      iszero\n      iszero\n      mul\n      or\n      swap1\n      sstore\n      pop\n        /* \"contracts/TicketToken.sol\":4301:4313  uint256 cost */\n      0x00\n        /* \"contracts/TicketToken.sol\":4330:4336  amount */\n      dup2\n        /* \"contracts/TicketToken.sol\":4316:4327  ticketPrice */\n      sload(0x02)\n        /* \"contracts/TicketToken.sol\":4316:4336  ticketPrice * amount */\n      tag_176\n      swap2\n      swap1\n      tag_177\n      jump\t// in\n    tag_176:\n        /* \"contracts/TicketToken.sol\":4301:4336  uint256 cost = ticketPrice * amount */\n      swap1\n      pop\n        /* \"contracts/TicketToken.sol\":4366:4367  0 */\n      0x00\n        /* \"contracts/TicketToken.sol\":4357:4363  amount */\n      dup3\n        /* \"contracts/TicketToken.sol\":4357:4367  amount > 0 */\n      gt\n        /* \"contracts/TicketToken.sol\":4349:4404  require(amount > 0, \"Amount must be greater than zero\") */\n      tag_178\n      jumpi\n      mload(0x40)\n      0x08c379a000000000000000000000000000000000000000000000000000000000\n      dup2\n      mstore\n      0x04\n      add\n      tag_179\n      swap1\n      tag_180\n      jump\t// in\n    tag_179:\n      mload(0x40)\n      dup1\n      swap2\n      sub\n      swap1\n      revert\n    tag_178:\n        /* \"contracts/TicketToken.sol\":4436:4440  cost */\n      dup1\n        /* \"contracts/TicketToken.sol\":4423:4432  msg.value */\n      callvalue\n        /* \"contracts/TicketToken.sol\":4423:4440  msg.value == cost */\n      eq\n        /* \"contracts/TicketToken.sol\":4415:4465  require(msg.value == cost, \"Incorrect ETH amount\") */\n      tag_181\n      jumpi\n      mload(0x40)\n      0x08c379a000000000000000000000000000000000000000000000000000000000\n      dup2\n      mstore\n      0x04\n      add\n      tag_182\n      swap1\n      tag_183\n      jump\t// in\n    tag_182:\n      mload(0x40)\n      dup1\n      swap2\n      sub\n      swap1\n      revert\n    tag_181:\n        /* \"contracts/TicketToken.sol\":4504:4510  amount */\n      dup2\n        /* \"contracts/TicketToken.sol\":4484:4492  balances */\n      0x07\n        /* \"contracts/TicketToken.sol\":4484:4500  balances[vendor] */\n      0x00\n        /* \"contracts/TicketToken.sol\":4493:4499  vendor */\n      0x06\n      0x00\n      swap1\n      sload\n      swap1\n      0x0100\n      exp\n      swap1\n      div\n      0xffffffffffffffffffffffffffffffffffffffff\n      and\n        /* \"contracts/TicketToken.sol\":4484:4500  balances[vendor] */\n      0xffffffffffffffffffffffffffffffffffffffff\n      and\n      0xffffffffffffffffffffffffffffffffffffffff\n      and\n      dup2\n      mstore\n      0x20\n      add\n      swap1\n      dup2\n      mstore\n      0x20\n      add\n      0x00\n      keccak256\n      sload\n        /* \"contracts/TicketToken.sol\":4484:4510  balances[vendor] >= amount */\n      lt\n      iszero\n        /* \"contracts/TicketToken.sol\":4476:4533  require(balances[vendor] >= amount, \"Not enough tickets\") */\n      tag_184\n      jumpi\n      mload(0x40)\n      0x08c379a000000000000000000000000000000000000000000000000000000000\n      dup2\n      mstore\n      0x04\n      add\n      tag_185\n      swap1\n      tag_186\n      jump\t// in\n    tag_185:\n      mload(0x40)\n      dup1\n      swap2\n      sub\n      swap1\n      revert\n    tag_184:\n        /* \"contracts/TicketToken.sol\":4594:4600  amount */\n      dup2\n        /* \"contracts/TicketToken.sol\":4574:4582  balances */\n      0x07\n        /* \"contracts/TicketToken.sol\":4574:4590  balances[vendor] */\n      0x00\n        /* \"contracts/TicketToken.sol\":4583:4589  vendor */\n      0x06\n      0x00\n      swap1\n      sload\n      swap1\n      0x0100\n      exp\n      swap1\n      div\n      0xffffffffffffffffffffffffffffffffffffffff\n      and\n        /* \"contracts/TicketToken.sol\":4574:4590  balances[vendor] */\n      0xffffffffffffffffffffffffffffffffffffffff\n      and\n      0xffffffffffffffffffffffffffffffffffffffff\n      and\n      dup2\n      mstore\n      0x20\n      add\n      swap1\n      dup2\n      mstore\n      0x20\n      add\n      0x00\n      keccak256\n      0x00\n        /* \"contracts/TicketToken.sol\":4574:4600  balances[vendor] -= amount */\n      dup3\n      dup3\n      sload\n      tag_187\n      swap2\n      swap1\n      tag_188\n      jump\t// in\n    tag_187:\n      swap3\n      pop\n      pop\n      dup2\n      swap1\n      sstore\n      pop\n        /* \"contracts/TicketToken.sol\":4635:4641  amount */\n      dup2\n        /* \"contracts/TicketToken.sol\":4611:4619  balances */\n      0x07\n        /* \"contracts/TicketToken.sol\":4611:4631  balances[msg.sender] */\n      0x00\n        /* \"contracts/TicketToken.sol\":4620:4630  msg.sender */\n      caller\n        /* \"contracts/TicketToken.sol\":4611:4631  balances[msg.sender] */\n      0xffffffffffffffffffffffffffffffffffffffff\n      and\n      0xffffffffffffffffffffffffffffffffffffffff\n      and\n      dup2\n      mstore\n      0x20\n      add\n      swap1\n      dup2\n      mstore\n      0x20\n      add\n      0x00\n      keccak256\n      0x00\n        /* \"contracts/TicketToken.sol\":4611:4641  balances[msg.sender] += amount */\n      dup3\n      dup3\n      sload\n      tag_189\n      swap2\n      swap1\n      tag_170\n      jump\t// in\n    tag_189:\n      swap3\n      pop\n      pop\n      dup2\n      swap1\n      sstore\n      pop\n        /* \"contracts/TicketToken.sol\":4726:4735  msg.value */\n      callvalue\n        /* \"contracts/TicketToken.sol\":4700:4714  vendorBalances */\n      0x0a\n        /* \"contracts/TicketToken.sol\":4700:4722  vendorBalances[vendor] */\n      0x00\n        /* \"contracts/TicketToken.sol\":4715:4721  vendor */\n      0x06\n      0x00\n      swap1\n      sload\n      swap1\n      0x0100\n      exp\n      swap1\n      div\n      0xffffffffffffffffffffffffffffffffffffffff\n      and\n        /* \"contracts/TicketToken.sol\":4700:4722  vendorBalances[vendor] */\n      0xffffffffffffffffffffffffffffffffffffffff\n      and\n      0xffffffffffffffffffffffffffffffffffffffff\n      and\n      dup2\n      mstore\n      0x20\n      add\n      swap1\n      dup2\n      mstore\n      0x20\n      add\n      0x00\n      keccak256\n      0x00\n        /* \"contracts/TicketToken.sol\":4700:4735  vendorBalances[vendor] += msg.value */\n      dup3\n      dup3\n      sload\n      tag_190\n      swap2\n      swap1\n      tag_170\n      jump\t// in\n    tag_190:\n      swap3\n      pop\n      pop\n      dup2\n      swap1\n      sstore\n      pop\n        /* \"contracts/TicketToken.sol\":4770:4780  msg.sender */\n      caller\n        /* \"contracts/TicketToken.sol\":4753:4789  Transfer(vendor, msg.sender, amount) */\n      0xffffffffffffffffffffffffffffffffffffffff\n      and\n        /* \"contracts/TicketToken.sol\":4762:4768  vendor */\n      0x06\n      0x00\n      swap1\n      sload\n      swap1\n      0x0100\n      exp\n      swap1\n      div\n      0xffffffffffffffffffffffffffffffffffffffff\n      and\n        /* \"contracts/TicketToken.sol\":4753:4789  Transfer(vendor, msg.sender, amount) */\n      0xffffffffffffffffffffffffffffffffffffffff\n      and\n      0xddf252ad1be2c89b69c2b068fc378daa952ba7f163c4a11628f55a4df523b3ef\n        /* \"contracts/TicketToken.sol\":4782:4788  amount */\n      dup5\n        /* \"contracts/TicketToken.sol\":4753:4789  Transfer(vendor, msg.sender, amount) */\n      mload(0x40)\n      tag_191\n      swap2\n      swap1\n      tag_47\n      jump\t// in\n    tag_191:\n      mload(0x40)\n      dup1\n      swap2\n      sub\n      swap1\n      log3\n        /* \"contracts/TicketToken.sol\":4805:4840  TicketPurchased(msg.sender, amount) */\n      0x0668f5b446eb814fe35b3206f43f14bd8567ba04ddaf7a3ee56516929ab22ccb\n        /* \"contracts/TicketToken.sol\":4821:4831  msg.sender */\n      caller\n        /* \"contracts/TicketToken.sol\":4833:4839  amount */\n      dup4\n        /* \"contracts/TicketToken.sol\":4805:4840  TicketPurchased(msg.sender, amount) */\n      mload(0x40)\n      tag_192\n      swap3\n      swap2\n      swap1\n      tag_193\n      jump\t// in\n    tag_192:\n      mload(0x40)\n      dup1\n      swap2\n      sub\n      swap1\n      log1\n        /* \"contracts/TicketToken.sol\":4290:4848  {... */\n      pop\n        /* \"contracts/TicketToken.sol\":2221:2226  false */\n      0x00\n        /* \"contracts/TicketToken.sol\":2212:2218  locked */\n      0x06\n      0x14\n        /* \"contracts/TicketToken.sol\":2212:2226  locked = false */\n      0x0100\n      exp\n      dup2\n      sload\n      dup2\n      0xff\n      mul\n      not\n      and\n      swap1\n      dup4\n      iszero\n      iszero\n      mul\n      or\n      swap1\n      sstore\n      pop\n        /* \"contracts/TicketToken.sol\":4225:4848  function buyTicket(uint256 amount) external payable noReentrancy {... */\n      pop\n      jump\t// out\n        /* \"contracts/TicketToken.sol\":2242:2360  function balanceOf(address account) public view override returns (uint256) {... */\n    tag_92:\n        /* \"contracts/TicketToken.sol\":2308:2315  uint256 */\n      0x00\n        /* \"contracts/TicketToken.sol\":2335:2343  balances */\n      0x07\n        /* \"contracts/TicketToken.sol\":2335:2352  balances[account] */\n      0x00\n        /* \"contracts/TicketToken.sol\":2344:2351  account */\n      dup4\n        /* \"contracts/TicketToken.sol\":2335:2352  balances[account] */\n      0xffffffffffffffffffffffffffffffffffffffff\n      and\n      0xffffffffffffffffffffffffffffffffffffffff\n      and\n      dup2\n      mstore\n      0x20\n      add\n      swap1\n      dup2\n      mstore\n      0x20\n      add\n      0x00\n      keccak256\n      sload\n        /* \"contracts/TicketToken.sol\":2328:2352  return balances[account] */\n      swap1\n      pop\n        /* \"contracts/TicketToken.sol\":2242:2360  function balanceOf(address account) public view override returns (uint256) {... */\n      swap2\n      swap1\n      pop\n      jump\t// out\n        /* \"contracts/TicketToken.sol\":5405:6285  function refundTicket(uint256 amount) external noReentrancy {... */\n    tag_97:\n        /* \"contracts/TicketToken.sol\":2141:2147  locked */\n      0x06\n      0x14\n      swap1\n      sload\n      swap1\n      0x0100\n      exp\n      swap1\n      div\n      0xff\n      and\n        /* \"contracts/TicketToken.sol\":2140:2147  !locked */\n      iszero\n        /* \"contracts/TicketToken.sol\":2132:2165  require(!locked, \"No reentrancy\") */\n      tag_196\n      jumpi\n      mload(0x40)\n      0x08c379a000000000000000000000000000000000000000000000000000000000\n      dup2\n      mstore\n      0x04\n      add\n      tag_197\n      swap1\n      tag_174\n      jump\t// in\n    tag_197:\n      mload(0x40)\n      dup1\n      swap2\n      sub\n      swap1\n      revert\n    tag_196:\n        /* \"contracts/TicketToken.sol\":2185:2189  true */\n      0x01\n        /* \"contracts/TicketToken.sol\":2176:2182  locked */\n      0x06\n      0x14\n        /* \"contracts/TicketToken.sol\":2176:2189  locked = true */\n      0x0100\n      exp\n      dup2\n      sload\n      dup2\n      0xff\n      mul\n      not\n      and\n      swap1\n      dup4\n      iszero\n      iszero\n      mul\n      or\n      swap1\n      sstore\n      pop\n        /* \"contracts/TicketToken.sol\":5493:5494  0 */\n      0x00\n        /* \"contracts/TicketToken.sol\":5484:5490  amount */\n      dup2\n        /* \"contracts/TicketToken.sol\":5484:5494  amount > 0 */\n      gt\n        /* \"contracts/TicketToken.sol\":5476:5530  require(amount > 0, \"Must refund at least one ticket\") */\n      tag_199\n      jumpi\n      mload(0x40)\n      0x08c379a000000000000000000000000000000000000000000000000000000000\n      dup2\n      mstore\n      0x04\n      add\n      tag_200\n      swap1\n      tag_201\n      jump\t// in\n    tag_200:\n      mload(0x40)\n      dup1\n      swap2\n      sub\n      swap1\n      revert\n    tag_199:\n        /* \"contracts/TicketToken.sol\":5543:5562  uint256 userBalance */\n      0x00\n        /* \"contracts/TicketToken.sol\":5565:5573  balances */\n      0x07\n        /* \"contracts/TicketToken.sol\":5565:5585  balances[msg.sender] */\n      0x00\n        /* \"contracts/TicketToken.sol\":5574:5584  msg.sender */\n      caller\n        /* \"contracts/TicketToken.sol\":5565:5585  balances[msg.sender] */\n      0xffffffffffffffffffffffffffffffffffffffff\n      and\n      0xffffffffffffffffffffffffffffffffffffffff\n      and\n      dup2\n      mstore\n      0x20\n      add\n      swap1\n      dup2\n      mstore\n      0x20\n      add\n      0x00\n      keccak256\n      sload\n        /* \"contracts/TicketToken.sol\":5543:5585  uint256 userBalance = balances[msg.sender] */\n      swap1\n      pop\n        /* \"contracts/TicketToken.sol\":5619:5625  amount */\n      dup2\n        /* \"contracts/TicketToken.sol\":5604:5615  userBalance */\n      dup2\n        /* \"contracts/TicketToken.sol\":5604:5625  userBalance >= amount */\n      lt\n      iszero\n        /* \"contracts/TicketToken.sol\":5596:5668  require(userBalance >= amount, \"Insufficient ticket balance for refund\") */\n      tag_202\n      jumpi\n      mload(0x40)\n      0x08c379a000000000000000000000000000000000000000000000000000000000\n      dup2\n      mstore\n      0x04\n      add\n      tag_203\n      swap1\n      tag_204\n      jump\t// in\n    tag_203:\n      mload(0x40)\n      dup1\n      swap2\n      sub\n      swap1\n      revert\n    tag_202:\n        /* \"contracts/TicketToken.sol\":5681:5701  uint256 refundAmount */\n      0x00\n        /* \"contracts/TicketToken.sol\":5718:5724  amount */\n      dup3\n        /* \"contracts/TicketToken.sol\":5704:5715  ticketPrice */\n      sload(0x02)\n        /* \"contracts/TicketToken.sol\":5704:5724  ticketPrice * amount */\n      tag_205\n      swap2\n      swap1\n      tag_177\n      jump\t// in\n    tag_205:\n        /* \"contracts/TicketToken.sol\":5681:5724  uint256 refundAmount = ticketPrice * amount */\n      swap1\n      pop\n        /* \"contracts/TicketToken.sol\":5769:5781  refundAmount */\n      dup1\n        /* \"contracts/TicketToken.sol\":5743:5757  vendorBalances */\n      0x0a\n        /* \"contracts/TicketToken.sol\":5743:5765  vendorBalances[vendor] */\n      0x00\n        /* \"contracts/TicketToken.sol\":5758:5764  vendor */\n      0x06\n      0x00\n      swap1\n      sload\n      swap1\n      0x0100\n      exp\n      swap1\n      div\n      0xffffffffffffffffffffffffffffffffffffffff\n      and\n        /* \"contracts/TicketToken.sol\":5743:5765  vendorBalances[vendor] */\n      0xffffffffffffffffffffffffffffffffffffffff\n      and\n      0xffffffffffffffffffffffffffffffffffffffff\n      and\n      dup2\n      mstore\n      0x20\n      add\n      swap1\n      dup2\n      mstore\n      0x20\n      add\n      0x00\n      keccak256\n      sload\n        /* \"contracts/TicketToken.sol\":5743:5781  vendorBalances[vendor] >= refundAmount */\n      lt\n      iszero\n        /* \"contracts/TicketToken.sol\":5735:5826  require(vendorBalances[vendor] >= refundAmount, \"Vendor has insufficient funds for refund\") */\n      tag_206\n      jumpi\n      mload(0x40)\n      0x08c379a000000000000000000000000000000000000000000000000000000000\n      dup2\n      mstore\n      0x04\n      add\n      tag_207\n      swap1\n      tag_208\n      jump\t// in\n    tag_207:\n      mload(0x40)\n      dup1\n      swap2\n      sub\n      swap1\n      revert\n    tag_206:\n        /* \"contracts/TicketToken.sol\":5928:5934  amount */\n      dup3\n        /* \"contracts/TicketToken.sol\":5914:5925  userBalance */\n      dup3\n        /* \"contracts/TicketToken.sol\":5914:5934  userBalance - amount */\n      tag_209\n      swap2\n      swap1\n      tag_188\n      jump\t// in\n    tag_209:\n        /* \"contracts/TicketToken.sol\":5891:5899  balances */\n      0x07\n        /* \"contracts/TicketToken.sol\":5891:5911  balances[msg.sender] */\n      0x00\n        /* \"contracts/TicketToken.sol\":5900:5910  msg.sender */\n      caller\n        /* \"contracts/TicketToken.sol\":5891:5911  balances[msg.sender] */\n      0xffffffffffffffffffffffffffffffffffffffff\n      and\n      0xffffffffffffffffffffffffffffffffffffffff\n      and\n      dup2\n      mstore\n      0x20\n      add\n      swap1\n      dup2\n      mstore\n      0x20\n      add\n      0x00\n      keccak256\n        /* \"contracts/TicketToken.sol\":5891:5934  balances[msg.sender] = userBalance - amount */\n      dup2\n      swap1\n      sstore\n      pop\n        /* \"contracts/TicketToken.sol\":5965:5971  amount */\n      dup3\n        /* \"contracts/TicketToken.sol\":5945:5953  balances */\n      0x07\n        /* \"contracts/TicketToken.sol\":5945:5961  balances[vendor] */\n      0x00\n        /* \"contracts/TicketToken.sol\":5954:5960  vendor */\n      0x06\n      0x00\n      swap1\n      sload\n      swap1\n      0x0100\n      exp\n      swap1\n      div\n      0xffffffffffffffffffffffffffffffffffffffff\n      and\n        /* \"contracts/TicketToken.sol\":5945:5961  balances[vendor] */\n      0xffffffffffffffffffffffffffffffffffffffff\n      and\n      0xffffffffffffffffffffffffffffffffffffffff\n      and\n      dup2\n      mstore\n      0x20\n      add\n      swap1\n      dup2\n      mstore\n      0x20\n      add\n      0x00\n      keccak256\n      0x00\n        /* \"contracts/TicketToken.sol\":5945:5971  balances[vendor] += amount */\n      dup3\n      dup3\n      sload\n      tag_210\n      swap2\n      swap1\n      tag_170\n      jump\t// in\n    tag_210:\n      swap3\n      pop\n      pop\n      dup2\n      swap1\n      sstore\n      pop\n        /* \"contracts/TicketToken.sol\":6010:6022  refundAmount */\n      dup1\n        /* \"contracts/TicketToken.sol\":5984:5998  vendorBalances */\n      0x0a\n        /* \"contracts/TicketToken.sol\":5984:6006  vendorBalances[vendor] */\n      0x00\n        /* \"contracts/TicketToken.sol\":5999:6005  vendor */\n      0x06\n      0x00\n      swap1\n      sload\n      swap1\n      0x0100\n      exp\n      swap1\n      div\n      0xffffffffffffffffffffffffffffffffffffffff\n      and\n        /* \"contracts/TicketToken.sol\":5984:6006  vendorBalances[vendor] */\n      0xffffffffffffffffffffffffffffffffffffffff\n      and\n      0xffffffffffffffffffffffffffffffffffffffff\n      and\n      dup2\n      mstore\n      0x20\n      add\n      swap1\n      dup2\n      mstore\n      0x20\n      add\n      0x00\n      keccak256\n      0x00\n        /* \"contracts/TicketToken.sol\":5984:6022  vendorBalances[vendor] -= refundAmount */\n      dup3\n      dup3\n      sload\n      tag_211\n      swap2\n      swap1\n      tag_188\n      jump\t// in\n    tag_211:\n      swap3\n      pop\n      pop\n      dup2\n      swap1\n      sstore\n      pop\n        /* \"contracts/TicketToken.sol\":6068:6077  bool sent */\n      0x00\n        /* \"contracts/TicketToken.sol\":6091:6101  msg.sender */\n      caller\n        /* \"contracts/TicketToken.sol\":6083:6107  payable(msg.sender).call */\n      0xffffffffffffffffffffffffffffffffffffffff\n      and\n        /* \"contracts/TicketToken.sol\":6115:6127  refundAmount */\n      dup3\n        /* \"contracts/TicketToken.sol\":6083:6132  payable(msg.sender).call{value: refundAmount}(\"\") */\n      mload(0x40)\n      tag_212\n      swap1\n      tag_213\n      jump\t// in\n    tag_212:\n      0x00\n      mload(0x40)\n      dup1\n      dup4\n      sub\n      dup2\n      dup6\n      dup8\n      gas\n      call\n      swap3\n      pop\n      pop\n      pop\n      returndatasize\n      dup1\n      0x00\n      dup2\n      eq\n      tag_216\n      jumpi\n      mload(0x40)\n      swap2\n      pop\n      and(add(returndatasize, 0x3f), not(0x1f))\n      dup3\n      add\n      0x40\n      mstore\n      returndatasize\n      dup3\n      mstore\n      returndatasize\n      0x00\n      0x20\n      dup5\n      add\n      returndatacopy\n      jump(tag_215)\n    tag_216:\n      0x60\n      swap2\n      pop\n    tag_215:\n      pop\n        /* \"contracts/TicketToken.sol\":6067:6132  (bool sent, ) = payable(msg.sender).call{value: refundAmount}(\"\") */\n      pop\n      swap1\n      pop\n        /* \"contracts/TicketToken.sol\":6151:6155  sent */\n      dup1\n        /* \"contracts/TicketToken.sol\":6143:6173  require(sent, \"Refund failed\") */\n      tag_217\n      jumpi\n      mload(0x40)\n      0x08c379a000000000000000000000000000000000000000000000000000000000\n      dup2\n      mstore\n      0x04\n      add\n      tag_218\n      swap1\n      tag_219\n      jump\t// in\n    tag_218:\n      mload(0x40)\n      dup1\n      swap2\n      sub\n      swap1\n      revert\n    tag_217:\n        /* \"contracts/TicketToken.sol\":6212:6218  vendor */\n      0x06\n      0x00\n      swap1\n      sload\n      swap1\n      0x0100\n      exp\n      swap1\n      div\n      0xffffffffffffffffffffffffffffffffffffffff\n      and\n        /* \"contracts/TicketToken.sol\":6191:6227  Transfer(msg.sender, vendor, amount) */\n      0xffffffffffffffffffffffffffffffffffffffff\n      and\n        /* \"contracts/TicketToken.sol\":6200:6210  msg.sender */\n      caller\n        /* \"contracts/TicketToken.sol\":6191:6227  Transfer(msg.sender, vendor, amount) */\n      0xffffffffffffffffffffffffffffffffffffffff\n      and\n      0xddf252ad1be2c89b69c2b068fc378daa952ba7f163c4a11628f55a4df523b3ef\n        /* \"contracts/TicketToken.sol\":6220:6226  amount */\n      dup7\n        /* \"contracts/TicketToken.sol\":6191:6227  Transfer(msg.sender, vendor, amount) */\n      mload(0x40)\n      tag_220\n      swap2\n      swap1\n      tag_47\n      jump\t// in\n    tag_220:\n      mload(0x40)\n      dup1\n      swap2\n      sub\n      swap1\n      log3\n        /* \"contracts/TicketToken.sol\":6243:6277  TicketRefunded(msg.sender, amount) */\n      0xd2888df1f37c007dfb366793b698e4cc1ad930d5790ea0a3e1764d18f366afce\n        /* \"contracts/TicketToken.sol\":6258:6268  msg.sender */\n      caller\n        /* \"contracts/TicketToken.sol\":6270:6276  amount */\n      dup6\n        /* \"contracts/TicketToken.sol\":6243:6277  TicketRefunded(msg.sender, amount) */\n      mload(0x40)\n      tag_221\n      swap3\n      swap2\n      swap1\n      tag_193\n      jump\t// in\n    tag_221:\n      mload(0x40)\n      dup1\n      swap2\n      sub\n      swap1\n      log1\n        /* \"contracts/TicketToken.sol\":5465:6285  {... */\n      pop\n      pop\n      pop\n        /* \"contracts/TicketToken.sol\":2221:2226  false */\n      0x00\n        /* \"contracts/TicketToken.sol\":2212:2218  locked */\n      0x06\n      0x14\n        /* \"contracts/TicketToken.sol\":2212:2226  locked = false */\n      0x0100\n      exp\n      dup2\n      sload\n      dup2\n      0xff\n      mul\n      not\n      and\n      swap1\n      dup4\n      iszero\n      iszero\n      mul\n      or\n      swap1\n      sstore\n      pop\n        /* \"contracts/TicketToken.sol\":5405:6285  function refundTicket(uint256 amount) external noReentrancy {... */\n      pop\n      jump\t// out\n        /* \"contracts/TicketToken.sol\":287:307  address public owner */\n    tag_100:\n      0x05\n      0x00\n      swap1\n      sload\n      swap1\n      0x0100\n      exp\n      swap1\n      div\n      0xffffffffffffffffffffffffffffffffffffffff\n      and\n      dup2\n      jump\t// out\n        /* \"contracts/TicketToken.sol\":166:186  string public symbol */\n    tag_104:\n      0x01\n      dup1\n      sload\n      tag_222\n      swap1\n      tag_139\n      jump\t// in\n    tag_222:\n      dup1\n      0x1f\n      add\n      0x20\n      dup1\n      swap2\n      div\n      mul\n      0x20\n      add\n      mload(0x40)\n      swap1\n      dup2\n      add\n      0x40\n      mstore\n      dup1\n      swap3\n      swap2\n      swap1\n      dup2\n      dup2\n      mstore\n      0x20\n      add\n      dup3\n      dup1\n      sload\n      tag_223\n      swap1\n      tag_139\n      jump\t// in\n    tag_223:\n      dup1\n      iszero\n      tag_224\n      jumpi\n      dup1\n      0x1f\n      lt\n      tag_225\n      jumpi\n      0x0100\n      dup1\n      dup4\n      sload\n      div\n      mul\n      dup4\n      mstore\n      swap2\n      0x20\n      add\n      swap2\n      jump(tag_224)\n    tag_225:\n      dup3\n      add\n      swap2\n      swap1\n      0x00\n      mstore\n      keccak256(0x00, 0x20)\n      swap1\n    tag_226:\n      dup2\n      sload\n      dup2\n      mstore\n      swap1\n      0x01\n      add\n      swap1\n      0x20\n      add\n      dup1\n      dup4\n      gt\n      tag_226\n      jumpi\n      dup3\n      swap1\n      sub\n      0x1f\n      and\n      dup3\n      add\n      swap2\n    tag_224:\n      pop\n      pop\n      pop\n      pop\n      pop\n      dup2\n      jump\t// out\n        /* \"contracts/TicketToken.sol\":6407:6665  function setVendor(address newVendor) external onlyOwner {... */\n    tag_109:\n        /* \"contracts/TicketToken.sol\":1817:1822  owner */\n      0x05\n      0x00\n      swap1\n      sload\n      swap1\n      0x0100\n      exp\n      swap1\n      div\n      0xffffffffffffffffffffffffffffffffffffffff\n      and\n        /* \"contracts/TicketToken.sol\":1803:1822  msg.sender == owner */\n      0xffffffffffffffffffffffffffffffffffffffff\n      and\n        /* \"contracts/TicketToken.sol\":1803:1813  msg.sender */\n      caller\n        /* \"contracts/TicketToken.sol\":1803:1822  msg.sender == owner */\n      0xffffffffffffffffffffffffffffffffffffffff\n      and\n      eq\n        /* \"contracts/TicketToken.sol\":1795:1836  require(msg.sender == owner, \"Not owner\") */\n      tag_228\n      jumpi\n      mload(0x40)\n      0x08c379a000000000000000000000000000000000000000000000000000000000\n      dup2\n      mstore\n      0x04\n      add\n      tag_229\n      swap1\n      tag_149\n      jump\t// in\n    tag_229:\n      mload(0x40)\n      dup1\n      swap2\n      sub\n      swap1\n      revert\n    tag_228:\n        /* \"contracts/TicketToken.sol\":6504:6505  0 */\n      0x00\n        /* \"contracts/TicketToken.sol\":6483:6506  newVendor != address(0) */\n      0xffffffffffffffffffffffffffffffffffffffff\n      and\n        /* \"contracts/TicketToken.sol\":6483:6492  newVendor */\n      dup2\n        /* \"contracts/TicketToken.sol\":6483:6506  newVendor != address(0) */\n      0xffffffffffffffffffffffffffffffffffffffff\n      and\n      sub\n        /* \"contracts/TicketToken.sol\":6475:6540  require(newVendor != address(0), \"Vendor cannot be zero address\") */\n      tag_231\n      jumpi\n      mload(0x40)\n      0x08c379a000000000000000000000000000000000000000000000000000000000\n      dup2\n      mstore\n      0x04\n      add\n      tag_232\n      swap1\n      tag_233\n      jump\t// in\n    tag_232:\n      mload(0x40)\n      dup1\n      swap2\n      sub\n      swap1\n      revert\n    tag_231:\n        /* \"contracts/TicketToken.sol\":6551:6568  address oldVendor */\n      0x00\n        /* \"contracts/TicketToken.sol\":6571:6577  vendor */\n      0x06\n      0x00\n      swap1\n      sload\n      swap1\n      0x0100\n      exp\n      swap1\n      div\n      0xffffffffffffffffffffffffffffffffffffffff\n      and\n        /* \"contracts/TicketToken.sol\":6551:6577  address oldVendor = vendor */\n      swap1\n      pop\n        /* \"contracts/TicketToken.sol\":6597:6606  newVendor */\n      dup2\n        /* \"contracts/TicketToken.sol\":6588:6594  vendor */\n      0x06\n      0x00\n        /* \"contracts/TicketToken.sol\":6588:6606  vendor = newVendor */\n      0x0100\n      exp\n      dup2\n      sload\n      dup2\n      0xffffffffffffffffffffffffffffffffffffffff\n      mul\n      not\n      and\n      swap1\n      dup4\n      0xffffffffffffffffffffffffffffffffffffffff\n      and\n      mul\n      or\n      swap1\n      sstore\n      pop\n        /* \"contracts/TicketToken.sol\":6622:6657  VendorChanged(oldVendor, newVendor) */\n      0xb53081a400c13f0baf735171b97c9af581c4a047b9895726bb1adff5a874ba4c\n        /* \"contracts/TicketToken.sol\":6636:6645  oldVendor */\n      dup2\n        /* \"contracts/TicketToken.sol\":6647:6656  newVendor */\n      dup4\n        /* \"contracts/TicketToken.sol\":6622:6657  VendorChanged(oldVendor, newVendor) */\n      mload(0x40)\n      tag_234\n      swap3\n      swap2\n      swap1\n      tag_235\n      jump\t// in\n    tag_234:\n      mload(0x40)\n      dup1\n      swap2\n      sub\n      swap1\n      log1\n        /* \"contracts/TicketToken.sol\":6464:6665  {... */\n      pop\n        /* \"contracts/TicketToken.sol\":6407:6665  function setVendor(address newVendor) external onlyOwner {... */\n      pop\n      jump\t// out\n        /* \"contracts/TicketToken.sol\":6845:7283  function burn(address from, uint256 amount) external onlyDoorman {... */\n    tag_113:\n        /* \"contracts/TicketToken.sol\":1908:1915  doormen */\n      0x09\n        /* \"contracts/TicketToken.sol\":1908:1927  doormen[msg.sender] */\n      0x00\n        /* \"contracts/TicketToken.sol\":1916:1926  msg.sender */\n      caller\n        /* \"contracts/TicketToken.sol\":1908:1927  doormen[msg.sender] */\n      0xffffffffffffffffffffffffffffffffffffffff\n      and\n      0xffffffffffffffffffffffffffffffffffffffff\n      and\n      dup2\n      mstore\n      0x20\n      add\n      swap1\n      dup2\n      mstore\n      0x20\n      add\n      0x00\n      keccak256\n      0x00\n      swap1\n      sload\n      swap1\n      0x0100\n      exp\n      swap1\n      div\n      0xff\n      and\n        /* \"contracts/TicketToken.sol\":1900:1961  require(doormen[msg.sender], \"Not authorized: Not a doorman\") */\n      tag_237\n      jumpi\n      mload(0x40)\n      0x08c379a000000000000000000000000000000000000000000000000000000000\n      dup2\n      mstore\n      0x04\n      add\n      tag_238\n      swap1\n      tag_239\n      jump\t// in\n    tag_238:\n      mload(0x40)\n      dup1\n      swap2\n      sub\n      swap1\n      revert\n    tag_237:\n        /* \"contracts/TicketToken.sol\":6945:6946  0 */\n      0x00\n        /* \"contracts/TicketToken.sol\":6929:6947  from != address(0) */\n      0xffffffffffffffffffffffffffffffffffffffff\n      and\n        /* \"contracts/TicketToken.sol\":6929:6933  from */\n      dup3\n        /* \"contracts/TicketToken.sol\":6929:6947  from != address(0) */\n      0xffffffffffffffffffffffffffffffffffffffff\n      and\n      sub\n        /* \"contracts/TicketToken.sol\":6921:6981  require(from != address(0), \"Cannot burn from zero address\") */\n      tag_241\n      jumpi\n      mload(0x40)\n      0x08c379a000000000000000000000000000000000000000000000000000000000\n      dup2\n      mstore\n      0x04\n      add\n      tag_242\n      swap1\n      tag_243\n      jump\t// in\n    tag_242:\n      mload(0x40)\n      dup1\n      swap2\n      sub\n      swap1\n      revert\n    tag_241:\n        /* \"contracts/TicketToken.sol\":6992:7011  uint256 fromBalance */\n      0x00\n        /* \"contracts/TicketToken.sol\":7014:7022  balances */\n      0x07\n        /* \"contracts/TicketToken.sol\":7014:7028  balances[from] */\n      0x00\n        /* \"contracts/TicketToken.sol\":7023:7027  from */\n      dup5\n        /* \"contracts/TicketToken.sol\":7014:7028  balances[from] */\n      0xffffffffffffffffffffffffffffffffffffffff\n      and\n      0xffffffffffffffffffffffffffffffffffffffff\n      and\n      dup2\n      mstore\n      0x20\n      add\n      swap1\n      dup2\n      mstore\n      0x20\n      add\n      0x00\n      keccak256\n      sload\n        /* \"contracts/TicketToken.sol\":6992:7028  uint256 fromBalance = balances[from] */\n      swap1\n      pop\n        /* \"contracts/TicketToken.sol\":7062:7068  amount */\n      dup2\n        /* \"contracts/TicketToken.sol\":7047:7058  fromBalance */\n      dup2\n        /* \"contracts/TicketToken.sol\":7047:7068  fromBalance >= amount */\n      lt\n      iszero\n        /* \"contracts/TicketToken.sol\":7039:7101  require(fromBalance >= amount, \"Insufficient balance to burn\") */\n      tag_244\n      jumpi\n      mload(0x40)\n      0x08c379a000000000000000000000000000000000000000000000000000000000\n      dup2\n      mstore\n      0x04\n      add\n      tag_245\n      swap1\n      tag_246\n      jump\t// in\n    tag_245:\n      mload(0x40)\n      dup1\n      swap2\n      sub\n      swap1\n      revert\n    tag_244:\n        /* \"contracts/TicketToken.sol\":7170:7176  amount */\n      dup2\n        /* \"contracts/TicketToken.sol\":7156:7167  fromBalance */\n      dup2\n        /* \"contracts/TicketToken.sol\":7156:7176  fromBalance - amount */\n      sub\n        /* \"contracts/TicketToken.sol\":7139:7147  balances */\n      0x07\n        /* \"contracts/TicketToken.sol\":7139:7153  balances[from] */\n      0x00\n        /* \"contracts/TicketToken.sol\":7148:7152  from */\n      dup6\n        /* \"contracts/TicketToken.sol\":7139:7153  balances[from] */\n      0xffffffffffffffffffffffffffffffffffffffff\n      and\n      0xffffffffffffffffffffffffffffffffffffffff\n      and\n      dup2\n      mstore\n      0x20\n      add\n      swap1\n      dup2\n      mstore\n      0x20\n      add\n      0x00\n      keccak256\n        /* \"contracts/TicketToken.sol\":7139:7176  balances[from] = fromBalance - amount */\n      dup2\n      swap1\n      sstore\n      pop\n        /* \"contracts/TicketToken.sol\":7206:7212  amount */\n      dup2\n        /* \"contracts/TicketToken.sol\":7191:7202  totalSupply */\n      0x04\n      0x00\n        /* \"contracts/TicketToken.sol\":7191:7212  totalSupply -= amount */\n      dup3\n      dup3\n      sload\n      sub\n      swap3\n      pop\n      pop\n      dup2\n      swap1\n      sstore\n      pop\n        /* \"contracts/TicketToken.sol\":7264:7265  0 */\n      0x00\n        /* \"contracts/TicketToken.sol\":7241:7275  Transfer(from, address(0), amount) */\n      0xffffffffffffffffffffffffffffffffffffffff\n      and\n        /* \"contracts/TicketToken.sol\":7250:7254  from */\n      dup4\n        /* \"contracts/TicketToken.sol\":7241:7275  Transfer(from, address(0), amount) */\n      0xffffffffffffffffffffffffffffffffffffffff\n      and\n      0xddf252ad1be2c89b69c2b068fc378daa952ba7f163c4a11628f55a4df523b3ef\n        /* \"contracts/TicketToken.sol\":7268:7274  amount */\n      dup5\n        /* \"contracts/TicketToken.sol\":7241:7275  Transfer(from, address(0), amount) */\n      mload(0x40)\n      tag_247\n      swap2\n      swap1\n      tag_47\n      jump\t// in\n    tag_247:\n      mload(0x40)\n      dup1\n      swap2\n      sub\n      swap1\n      log3\n        /* \"contracts/TicketToken.sol\":6910:7283  {... */\n      pop\n        /* \"contracts/TicketToken.sol\":6845:7283  function burn(address from, uint256 amount) external onlyDoorman {... */\n      pop\n      pop\n      jump\t// out\n        /* \"contracts/TicketToken.sol\":593:642  mapping(address => uint256) public vendorBalances */\n    tag_117:\n      mstore(0x20, 0x0a)\n      dup1\n      0x00\n      mstore\n      keccak256(0x00, 0x40)\n      0x00\n      swap2\n      pop\n      swap1\n      pop\n      sload\n      dup2\n      jump\t// out\n        /* \"contracts/TicketToken.sol\":2368:2776  function transfer(address to, uint256 amount) public override returns (bool) {... */\n    tag_122:\n        /* \"contracts/TicketToken.sol\":2439:2443  bool */\n      0x00\n        /* \"contracts/TicketToken.sol\":2456:2477  uint256 senderBalance */\n      dup1\n        /* \"contracts/TicketToken.sol\":2480:2488  balances */\n      0x07\n        /* \"contracts/TicketToken.sol\":2480:2500  balances[msg.sender] */\n      0x00\n        /* \"contracts/TicketToken.sol\":2489:2499  msg.sender */\n      caller\n        /* \"contracts/TicketToken.sol\":2480:2500  balances[msg.sender] */\n      0xffffffffffffffffffffffffffffffffffffffff\n      and\n      0xffffffffffffffffffffffffffffffffffffffff\n      and\n      dup2\n      mstore\n      0x20\n      add\n      swap1\n      dup2\n      mstore\n      0x20\n      add\n      0x00\n      keccak256\n      sload\n        /* \"contracts/TicketToken.sol\":2456:2500  uint256 senderBalance = balances[msg.sender] */\n      swap1\n      pop\n        /* \"contracts/TicketToken.sol\":2536:2542  amount */\n      dup3\n        /* \"contracts/TicketToken.sol\":2519:2532  senderBalance */\n      dup2\n        /* \"contracts/TicketToken.sol\":2519:2542  senderBalance >= amount */\n      lt\n      iszero\n        /* \"contracts/TicketToken.sol\":2511:2565  require(senderBalance >= amount, \"Not enough balance\") */\n      tag_249\n      jumpi\n      mload(0x40)\n      0x08c379a000000000000000000000000000000000000000000000000000000000\n      dup2\n      mstore\n      0x04\n      add\n      tag_250\n      swap1\n      tag_154\n      jump\t// in\n    tag_250:\n      mload(0x40)\n      dup1\n      swap2\n      sub\n      swap1\n      revert\n    tag_249:\n        /* \"contracts/TicketToken.sol\":2642:2648  amount */\n      dup3\n        /* \"contracts/TicketToken.sol\":2626:2639  senderBalance */\n      dup2\n        /* \"contracts/TicketToken.sol\":2626:2648  senderBalance - amount */\n      sub\n        /* \"contracts/TicketToken.sol\":2603:2611  balances */\n      0x07\n        /* \"contracts/TicketToken.sol\":2603:2623  balances[msg.sender] */\n      0x00\n        /* \"contracts/TicketToken.sol\":2612:2622  msg.sender */\n      caller\n        /* \"contracts/TicketToken.sol\":2603:2623  balances[msg.sender] */\n      0xffffffffffffffffffffffffffffffffffffffff\n      and\n      0xffffffffffffffffffffffffffffffffffffffff\n      and\n      dup2\n      mstore\n      0x20\n      add\n      swap1\n      dup2\n      mstore\n      0x20\n      add\n      0x00\n      keccak256\n        /* \"contracts/TicketToken.sol\":2603:2648  balances[msg.sender] = senderBalance - amount */\n      dup2\n      swap1\n      sstore\n      pop\n        /* \"contracts/TicketToken.sol\":2679:2685  amount */\n      dup3\n        /* \"contracts/TicketToken.sol\":2663:2671  balances */\n      0x07\n        /* \"contracts/TicketToken.sol\":2663:2675  balances[to] */\n      0x00\n        /* \"contracts/TicketToken.sol\":2672:2674  to */\n      dup7\n        /* \"contracts/TicketToken.sol\":2663:2675  balances[to] */\n      0xffffffffffffffffffffffffffffffffffffffff\n      and\n      0xffffffffffffffffffffffffffffffffffffffff\n      and\n      dup2\n      mstore\n      0x20\n      add\n      swap1\n      dup2\n      mstore\n      0x20\n      add\n      0x00\n      keccak256\n      0x00\n        /* \"contracts/TicketToken.sol\":2663:2685  balances[to] += amount */\n      dup3\n      dup3\n      sload\n      add\n      swap3\n      pop\n      pop\n      dup2\n      swap1\n      sstore\n      pop\n        /* \"contracts/TicketToken.sol\":2735:2737  to */\n      dup4\n        /* \"contracts/TicketToken.sol\":2714:2746  Transfer(msg.sender, to, amount) */\n      0xffffffffffffffffffffffffffffffffffffffff\n      and\n        /* \"contracts/TicketToken.sol\":2723:2733  msg.sender */\n      caller\n        /* \"contracts/TicketToken.sol\":2714:2746  Transfer(msg.sender, to, amount) */\n      0xffffffffffffffffffffffffffffffffffffffff\n      and\n      0xddf252ad1be2c89b69c2b068fc378daa952ba7f163c4a11628f55a4df523b3ef\n        /* \"contracts/TicketToken.sol\":2739:2745  amount */\n      dup6\n        /* \"contracts/TicketToken.sol\":2714:2746  Transfer(msg.sender, to, amount) */\n      mload(0x40)\n      tag_251\n      swap2\n      swap1\n      tag_47\n      jump\t// in\n    tag_251:\n      mload(0x40)\n      dup1\n      swap2\n      sub\n      swap1\n      log3\n        /* \"contracts/TicketToken.sol\":2764:2768  true */\n      0x01\n        /* \"contracts/TicketToken.sol\":2757:2768  return true */\n      swap2\n      pop\n      pop\n        /* \"contracts/TicketToken.sol\":2368:2776  function transfer(address to, uint256 amount) public override returns (bool) {... */\n      swap3\n      swap2\n      pop\n      pop\n      jump\t// out\n        /* \"contracts/TicketToken.sol\":7405:7760  function withdrawEarnings() external onlyVendor noReentrancy {... */\n    tag_126:\n        /* \"contracts/TicketToken.sol\":2044:2050  vendor */\n      0x06\n      0x00\n      swap1\n      sload\n      swap1\n      0x0100\n      exp\n      swap1\n      div\n      0xffffffffffffffffffffffffffffffffffffffff\n      and\n        /* \"contracts/TicketToken.sol\":2030:2050  msg.sender == vendor */\n      0xffffffffffffffffffffffffffffffffffffffff\n      and\n        /* \"contracts/TicketToken.sol\":2030:2040  msg.sender */\n      caller\n        /* \"contracts/TicketToken.sol\":2030:2050  msg.sender == vendor */\n      0xffffffffffffffffffffffffffffffffffffffff\n      and\n      eq\n        /* \"contracts/TicketToken.sol\":2022:2065  require(msg.sender == vendor, \"Not vendor\") */\n      tag_253\n      jumpi\n      mload(0x40)\n      0x08c379a000000000000000000000000000000000000000000000000000000000\n      dup2\n      mstore\n      0x04\n      add\n      tag_254\n      swap1\n      tag_255\n      jump\t// in\n    tag_254:\n      mload(0x40)\n      dup1\n      swap2\n      sub\n      swap1\n      revert\n    tag_253:\n        /* \"contracts/TicketToken.sol\":2141:2147  locked */\n      0x06\n      0x14\n      swap1\n      sload\n      swap1\n      0x0100\n      exp\n      swap1\n      div\n      0xff\n      and\n        /* \"contracts/TicketToken.sol\":2140:2147  !locked */\n      iszero\n        /* \"contracts/TicketToken.sol\":2132:2165  require(!locked, \"No reentrancy\") */\n      tag_257\n      jumpi\n      mload(0x40)\n      0x08c379a000000000000000000000000000000000000000000000000000000000\n      dup2\n      mstore\n      0x04\n      add\n      tag_258\n      swap1\n      tag_174\n      jump\t// in\n    tag_258:\n      mload(0x40)\n      dup1\n      swap2\n      sub\n      swap1\n      revert\n    tag_257:\n        /* \"contracts/TicketToken.sol\":2185:2189  true */\n      0x01\n        /* \"contracts/TicketToken.sol\":2176:2182  locked */\n      0x06\n      0x14\n        /* \"contracts/TicketToken.sol\":2176:2189  locked = true */\n      0x0100\n      exp\n      dup2\n      sload\n      dup2\n      0xff\n      mul\n      not\n      and\n      swap1\n      dup4\n      iszero\n      iszero\n      mul\n      or\n      swap1\n      sstore\n      pop\n        /* \"contracts/TicketToken.sol\":7477:7491  uint256 amount */\n      0x00\n        /* \"contracts/TicketToken.sol\":7494:7508  vendorBalances */\n      0x0a\n        /* \"contracts/TicketToken.sol\":7494:7520  vendorBalances[msg.sender] */\n      0x00\n        /* \"contracts/TicketToken.sol\":7509:7519  msg.sender */\n      caller\n        /* \"contracts/TicketToken.sol\":7494:7520  vendorBalances[msg.sender] */\n      0xffffffffffffffffffffffffffffffffffffffff\n      and\n      0xffffffffffffffffffffffffffffffffffffffff\n      and\n      dup2\n      mstore\n      0x20\n      add\n      swap1\n      dup2\n      mstore\n      0x20\n      add\n      0x00\n      keccak256\n      sload\n        /* \"contracts/TicketToken.sol\":7477:7520  uint256 amount = vendorBalances[msg.sender] */\n      swap1\n      pop\n        /* \"contracts/TicketToken.sol\":7548:7549  0 */\n      0x00\n        /* \"contracts/TicketToken.sol\":7539:7545  amount */\n      dup2\n        /* \"contracts/TicketToken.sol\":7539:7549  amount > 0 */\n      gt\n        /* \"contracts/TicketToken.sol\":7531:7574  require(amount > 0, \"No funds to withdraw\") */\n      tag_260\n      jumpi\n      mload(0x40)\n      0x08c379a000000000000000000000000000000000000000000000000000000000\n      dup2\n      mstore\n      0x04\n      add\n      tag_261\n      swap1\n      tag_262\n      jump\t// in\n    tag_261:\n      mload(0x40)\n      dup1\n      swap2\n      sub\n      swap1\n      revert\n    tag_260:\n        /* \"contracts/TicketToken.sol\":7616:7617  0 */\n      0x00\n        /* \"contracts/TicketToken.sol\":7587:7601  vendorBalances */\n      0x0a\n        /* \"contracts/TicketToken.sol\":7587:7613  vendorBalances[msg.sender] */\n      0x00\n        /* \"contracts/TicketToken.sol\":7602:7612  msg.sender */\n      caller\n        /* \"contracts/TicketToken.sol\":7587:7613  vendorBalances[msg.sender] */\n      0xffffffffffffffffffffffffffffffffffffffff\n      and\n      0xffffffffffffffffffffffffffffffffffffffff\n      and\n      dup2\n      mstore\n      0x20\n      add\n      swap1\n      dup2\n      mstore\n      0x20\n      add\n      0x00\n      keccak256\n        /* \"contracts/TicketToken.sol\":7587:7617  vendorBalances[msg.sender] = 0 */\n      dup2\n      swap1\n      sstore\n      pop\n        /* \"contracts/TicketToken.sol\":7649:7658  bool sent */\n      0x00\n        /* \"contracts/TicketToken.sol\":7672:7682  msg.sender */\n      caller\n        /* \"contracts/TicketToken.sol\":7664:7688  payable(msg.sender).call */\n      0xffffffffffffffffffffffffffffffffffffffff\n      and\n        /* \"contracts/TicketToken.sol\":7696:7702  amount */\n      dup3\n        /* \"contracts/TicketToken.sol\":7664:7707  payable(msg.sender).call{value: amount}(\"\") */\n      mload(0x40)\n      tag_263\n      swap1\n      tag_213\n      jump\t// in\n    tag_263:\n      0x00\n      mload(0x40)\n      dup1\n      dup4\n      sub\n      dup2\n      dup6\n      dup8\n      gas\n      call\n      swap3\n      pop\n      pop\n      pop\n      returndatasize\n      dup1\n      0x00\n      dup2\n      eq\n      tag_266\n      jumpi\n      mload(0x40)\n      swap2\n      pop\n      and(add(returndatasize, 0x3f), not(0x1f))\n      dup3\n      add\n      0x40\n      mstore\n      returndatasize\n      dup3\n      mstore\n      returndatasize\n      0x00\n      0x20\n      dup5\n      add\n      returndatacopy\n      jump(tag_265)\n    tag_266:\n      0x60\n      swap2\n      pop\n    tag_265:\n      pop\n        /* \"contracts/TicketToken.sol\":7648:7707  (bool sent, ) = payable(msg.sender).call{value: amount}(\"\") */\n      pop\n      swap1\n      pop\n        /* \"contracts/TicketToken.sol\":7726:7730  sent */\n      dup1\n        /* \"contracts/TicketToken.sol\":7718:7752  require(sent, \"Withdrawal failed\") */\n      tag_267\n      jumpi\n      mload(0x40)\n      0x08c379a000000000000000000000000000000000000000000000000000000000\n      dup2\n      mstore\n      0x04\n      add\n      tag_268\n      swap1\n      tag_269\n      jump\t// in\n    tag_268:\n      mload(0x40)\n      dup1\n      swap2\n      sub\n      swap1\n      revert\n    tag_267:\n        /* \"contracts/TicketToken.sol\":7466:7760  {... */\n      pop\n      pop\n        /* \"contracts/TicketToken.sol\":2221:2226  false */\n      0x00\n        /* \"contracts/TicketToken.sol\":2212:2218  locked */\n      0x06\n      0x14\n        /* \"contracts/TicketToken.sol\":2212:2226  locked = false */\n      0x0100\n      exp\n      dup2\n      sload\n      dup2\n      0xff\n      mul\n      not\n      and\n      swap1\n      dup4\n      iszero\n      iszero\n      mul\n      or\n      swap1\n      sstore\n      pop\n        /* \"contracts/TicketToken.sol\":7405:7760  function withdrawEarnings() external onlyVendor noReentrancy {... */\n      jump\t// out\n        /* \"contracts/TicketToken.sol\":6673:6837  function setDoorman(address user, bool status) external onlyOwner {... */\n    tag_131:\n        /* \"contracts/TicketToken.sol\":1817:1822  owner */\n      0x05\n      0x00\n      swap1\n      sload\n      swap1\n      0x0100\n      exp\n      swap1\n      div\n      0xffffffffffffffffffffffffffffffffffffffff\n      and\n        /* \"contracts/TicketToken.sol\":1803:1822  msg.sender == owner */\n      0xffffffffffffffffffffffffffffffffffffffff\n      and\n        /* \"contracts/TicketToken.sol\":1803:1813  msg.sender */\n      caller\n        /* \"contracts/TicketToken.sol\":1803:1822  msg.sender == owner */\n      0xffffffffffffffffffffffffffffffffffffffff\n      and\n      eq\n        /* \"contracts/TicketToken.sol\":1795:1836  require(msg.sender == owner, \"Not owner\") */\n      tag_271\n      jumpi\n      mload(0x40)\n      0x08c379a000000000000000000000000000000000000000000000000000000000\n      dup2\n      mstore\n      0x04\n      add\n      tag_272\n      swap1\n      tag_149\n      jump\t// in\n    tag_272:\n      mload(0x40)\n      dup1\n      swap2\n      sub\n      swap1\n      revert\n    tag_271:\n        /* \"contracts/TicketToken.sol\":6774:6775  0 */\n      0x00\n        /* \"contracts/TicketToken.sol\":6758:6776  user != address(0) */\n      0xffffffffffffffffffffffffffffffffffffffff\n      and\n        /* \"contracts/TicketToken.sol\":6758:6762  user */\n      dup3\n        /* \"contracts/TicketToken.sol\":6758:6776  user != address(0) */\n      0xffffffffffffffffffffffffffffffffffffffff\n      and\n      sub\n        /* \"contracts/TicketToken.sol\":6750:6796  require(user != address(0), \"Invalid address\") */\n      tag_274\n      jumpi\n      mload(0x40)\n      0x08c379a000000000000000000000000000000000000000000000000000000000\n      dup2\n      mstore\n      0x04\n      add\n      tag_275\n      swap1\n      tag_276\n      jump\t// in\n    tag_275:\n      mload(0x40)\n      dup1\n      swap2\n      sub\n      swap1\n      revert\n    tag_274:\n        /* \"contracts/TicketToken.sol\":6823:6829  status */\n      dup1\n        /* \"contracts/TicketToken.sol\":6807:6814  doormen */\n      0x09\n        /* \"contracts/TicketToken.sol\":6807:6820  doormen[user] */\n      0x00\n        /* \"contracts/TicketToken.sol\":6815:6819  user */\n      dup5\n        /* \"contracts/TicketToken.sol\":6807:6820  doormen[user] */\n      0xffffffffffffffffffffffffffffffffffffffff\n      and\n      0xffffffffffffffffffffffffffffffffffffffff\n      and\n      dup2\n      mstore\n      0x20\n      add\n      swap1\n      dup2\n      mstore\n      0x20\n      add\n      0x00\n      keccak256\n      0x00\n        /* \"contracts/TicketToken.sol\":6807:6829  doormen[user] = status */\n      0x0100\n      exp\n      dup2\n      sload\n      dup2\n      0xff\n      mul\n      not\n      and\n      swap1\n      dup4\n      iszero\n      iszero\n      mul\n      or\n      swap1\n      sstore\n      pop\n        /* \"contracts/TicketToken.sol\":6673:6837  function setDoorman(address user, bool status) external onlyOwner {... */\n      pop\n      pop\n      jump\t// out\n        /* \"contracts/TicketToken.sol\":2786:2930  function allowance(address _owner, address spender) public view override returns (uint256) {... */\n    tag_136:\n        /* \"contracts/TicketToken.sol\":2868:2875  uint256 */\n      0x00\n        /* \"contracts/TicketToken.sol\":2895:2905  allowances */\n      0x08\n        /* \"contracts/TicketToken.sol\":2895:2913  allowances[_owner] */\n      0x00\n        /* \"contracts/TicketToken.sol\":2906:2912  _owner */\n      dup5\n        /* \"contracts/TicketToken.sol\":2895:2913  allowances[_owner] */\n      0xffffffffffffffffffffffffffffffffffffffff\n      and\n      0xffffffffffffffffffffffffffffffffffffffff\n      and\n      dup2\n      mstore\n      0x20\n      add\n      swap1\n      dup2\n      mstore\n      0x20\n      add\n      0x00\n      keccak256\n        /* \"contracts/TicketToken.sol\":2895:2922  allowances[_owner][spender] */\n      0x00\n        /* \"contracts/TicketToken.sol\":2914:2921  spender */\n      dup4\n        /* \"contracts/TicketToken.sol\":2895:2922  allowances[_owner][spender] */\n      0xffffffffffffffffffffffffffffffffffffffff\n      and\n      0xffffffffffffffffffffffffffffffffffffffff\n      and\n      dup2\n      mstore\n      0x20\n      add\n      swap1\n      dup2\n      mstore\n      0x20\n      add\n      0x00\n      keccak256\n      sload\n        /* \"contracts/TicketToken.sol\":2888:2922  return allowances[_owner][spender] */\n      swap1\n      pop\n        /* \"contracts/TicketToken.sol\":2786:2930  function allowance(address _owner, address spender) public view override returns (uint256) {... */\n      swap3\n      swap2\n      pop\n      pop\n      jump\t// out\n        /* \"#utility.yul\":7:106   */\n    tag_278:\n        /* \"#utility.yul\":59:65   */\n      0x00\n        /* \"#utility.yul\":93:98   */\n      dup2\n        /* \"#utility.yul\":87:99   */\n      mload\n        /* \"#utility.yul\":77:99   */\n      swap1\n      pop\n        /* \"#utility.yul\":7:106   */\n      swap2\n      swap1\n      pop\n      jump\t// out\n        /* \"#utility.yul\":112:281   */\n    tag_279:\n        /* \"#utility.yul\":196:207   */\n      0x00\n        /* \"#utility.yul\":230:236   */\n      dup3\n        /* \"#utility.yul\":225:228   */\n      dup3\n        /* \"#utility.yul\":218:237   */\n      mstore\n        /* \"#utility.yul\":270:274   */\n      0x20\n        /* \"#utility.yul\":265:268   */\n      dup3\n        /* \"#utility.yul\":261:275   */\n      add\n        /* \"#utility.yul\":246:275   */\n      swap1\n      pop\n        /* \"#utility.yul\":112:281   */\n      swap3\n      swap2\n      pop\n      pop\n      jump\t// out\n        /* \"#utility.yul\":287:426   */\n    tag_280:\n        /* \"#utility.yul\":376:382   */\n      dup3\n        /* \"#utility.yul\":371:374   */\n      dup2\n        /* \"#utility.yul\":366:369   */\n      dup4\n        /* \"#utility.yul\":360:383   */\n      mcopy\n        /* \"#utility.yul\":417:418   */\n      0x00\n        /* \"#utility.yul\":408:414   */\n      dup4\n        /* \"#utility.yul\":403:406   */\n      dup4\n        /* \"#utility.yul\":399:415   */\n      add\n        /* \"#utility.yul\":392:419   */\n      mstore\n        /* \"#utility.yul\":287:426   */\n      pop\n      pop\n      pop\n      jump\t// out\n        /* \"#utility.yul\":432:534   */\n    tag_281:\n        /* \"#utility.yul\":473:479   */\n      0x00\n        /* \"#utility.yul\":524:526   */\n      0x1f\n        /* \"#utility.yul\":520:527   */\n      not\n        /* \"#utility.yul\":515:517   */\n      0x1f\n        /* \"#utility.yul\":508:513   */\n      dup4\n        /* \"#utility.yul\":504:518   */\n      add\n        /* \"#utility.yul\":500:528   */\n      and\n        /* \"#utility.yul\":490:528   */\n      swap1\n      pop\n        /* \"#utility.yul\":432:534   */\n      swap2\n      swap1\n      pop\n      jump\t// out\n        /* \"#utility.yul\":540:917   */\n    tag_282:\n        /* \"#utility.yul\":628:631   */\n      0x00\n        /* \"#utility.yul\":656:695   */\n      tag_352\n        /* \"#utility.yul\":689:694   */\n      dup3\n        /* \"#utility.yul\":656:695   */\n      tag_278\n      jump\t// in\n    tag_352:\n        /* \"#utility.yul\":711:782   */\n      tag_353\n        /* \"#utility.yul\":775:781   */\n      dup2\n        /* \"#utility.yul\":770:773   */\n      dup6\n        /* \"#utility.yul\":711:782   */\n      tag_279\n      jump\t// in\n    tag_353:\n        /* \"#utility.yul\":704:782   */\n      swap4\n      pop\n        /* \"#utility.yul\":791:856   */\n      tag_354\n        /* \"#utility.yul\":849:855   */\n      dup2\n        /* \"#utility.yul\":844:847   */\n      dup6\n        /* \"#utility.yul\":837:841   */\n      0x20\n        /* \"#utility.yul\":830:835   */\n      dup7\n        /* \"#utility.yul\":826:842   */\n      add\n        /* \"#utility.yul\":791:856   */\n      tag_280\n      jump\t// in\n    tag_354:\n        /* \"#utility.yul\":881:910   */\n      tag_355\n        /* \"#utility.yul\":903:909   */\n      dup2\n        /* \"#utility.yul\":881:910   */\n      tag_281\n      jump\t// in\n    tag_355:\n        /* \"#utility.yul\":876:879   */\n      dup5\n        /* \"#utility.yul\":872:911   */\n      add\n        /* \"#utility.yul\":865:911   */\n      swap2\n      pop\n        /* \"#utility.yul\":632:917   */\n      pop\n        /* \"#utility.yul\":540:917   */\n      swap3\n      swap2\n      pop\n      pop\n      jump\t// out\n        /* \"#utility.yul\":923:1236   */\n    tag_35:\n        /* \"#utility.yul\":1036:1040   */\n      0x00\n        /* \"#utility.yul\":1074:1076   */\n      0x20\n        /* \"#utility.yul\":1063:1072   */\n      dup3\n        /* \"#utility.yul\":1059:1077   */\n      add\n        /* \"#utility.yul\":1051:1077   */\n      swap1\n      pop\n        /* \"#utility.yul\":1123:1132   */\n      dup2\n        /* \"#utility.yul\":1117:1121   */\n      dup2\n        /* \"#utility.yul\":1113:1133   */\n      sub\n        /* \"#utility.yul\":1109:1110   */\n      0x00\n        /* \"#utility.yul\":1098:1107   */\n      dup4\n        /* \"#utility.yul\":1094:1111   */\n      add\n        /* \"#utility.yul\":1087:1134   */\n      mstore\n        /* \"#utility.yul\":1151:1229   */\n      tag_357\n        /* \"#utility.yul\":1224:1228   */\n      dup2\n        /* \"#utility.yul\":1215:1221   */\n      dup5\n        /* \"#utility.yul\":1151:1229   */\n      tag_282\n      jump\t// in\n    tag_357:\n        /* \"#utility.yul\":1143:1229   */\n      swap1\n      pop\n        /* \"#utility.yul\":923:1236   */\n      swap3\n      swap2\n      pop\n      pop\n      jump\t// out\n        /* \"#utility.yul\":1323:1440   */\n    tag_284:\n        /* \"#utility.yul\":1432:1433   */\n      0x00\n        /* \"#utility.yul\":1429:1430   */\n      dup1\n        /* \"#utility.yul\":1422:1434   */\n      revert\n        /* \"#utility.yul\":1569:1695   */\n    tag_286:\n        /* \"#utility.yul\":1606:1613   */\n      0x00\n        /* \"#utility.yul\":1646:1688   */\n      0xffffffffffffffffffffffffffffffffffffffff\n        /* \"#utility.yul\":1639:1644   */\n      dup3\n        /* \"#utility.yul\":1635:1689   */\n      and\n        /* \"#utility.yul\":1624:1689   */\n      swap1\n      pop\n        /* \"#utility.yul\":1569:1695   */\n      swap2\n      swap1\n      pop\n      jump\t// out\n        /* \"#utility.yul\":1701:1797   */\n    tag_287:\n        /* \"#utility.yul\":1738:1745   */\n      0x00\n        /* \"#utility.yul\":1767:1791   */\n      tag_363\n        /* \"#utility.yul\":1785:1790   */\n      dup3\n        /* \"#utility.yul\":1767:1791   */\n      tag_286\n      jump\t// in\n    tag_363:\n        /* \"#utility.yul\":1756:1791   */\n      swap1\n      pop\n        /* \"#utility.yul\":1701:1797   */\n      swap2\n      swap1\n      pop\n      jump\t// out\n        /* \"#utility.yul\":1803:1925   */\n    tag_288:\n        /* \"#utility.yul\":1876:1900   */\n      tag_365\n        /* \"#utility.yul\":1894:1899   */\n      dup2\n        /* \"#utility.yul\":1876:1900   */\n      tag_287\n      jump\t// in\n    tag_365:\n        /* \"#utility.yul\":1869:1874   */\n      dup2\n        /* \"#utility.yul\":1866:1901   */\n      eq\n        /* \"#utility.yul\":1856:1919   */\n      tag_366\n      jumpi\n        /* \"#utility.yul\":1915:1916   */\n      0x00\n        /* \"#utility.yul\":1912:1913   */\n      dup1\n        /* \"#utility.yul\":1905:1917   */\n      revert\n        /* \"#utility.yul\":1856:1919   */\n    tag_366:\n        /* \"#utility.yul\":1803:1925   */\n      pop\n      jump\t// out\n        /* \"#utility.yul\":1931:2070   */\n    tag_289:\n        /* \"#utility.yul\":1977:1982   */\n      0x00\n        /* \"#utility.yul\":2015:2021   */\n      dup2\n        /* \"#utility.yul\":2002:2022   */\n      calldataload\n        /* \"#utility.yul\":1993:2022   */\n      swap1\n      pop\n        /* \"#utility.yul\":2031:2064   */\n      tag_368\n        /* \"#utility.yul\":2058:2063   */\n      dup2\n        /* \"#utility.yul\":2031:2064   */\n      tag_288\n      jump\t// in\n    tag_368:\n        /* \"#utility.yul\":1931:2070   */\n      swap3\n      swap2\n      pop\n      pop\n      jump\t// out\n        /* \"#utility.yul\":2076:2153   */\n    tag_290:\n        /* \"#utility.yul\":2113:2120   */\n      0x00\n        /* \"#utility.yul\":2142:2147   */\n      dup2\n        /* \"#utility.yul\":2131:2147   */\n      swap1\n      pop\n        /* \"#utility.yul\":2076:2153   */\n      swap2\n      swap1\n      pop\n      jump\t// out\n        /* \"#utility.yul\":2159:2281   */\n    tag_291:\n        /* \"#utility.yul\":2232:2256   */\n      tag_371\n        /* \"#utility.yul\":2250:2255   */\n      dup2\n        /* \"#utility.yul\":2232:2256   */\n      tag_290\n      jump\t// in\n    tag_371:\n        /* \"#utility.yul\":2225:2230   */\n      dup2\n        /* \"#utility.yul\":2222:2257   */\n      eq\n        /* \"#utility.yul\":2212:2275   */\n      tag_372\n      jumpi\n        /* \"#utility.yul\":2271:2272   */\n      0x00\n        /* \"#utility.yul\":2268:2269   */\n      dup1\n        /* \"#utility.yul\":2261:2273   */\n      revert\n        /* \"#utility.yul\":2212:2275   */\n    tag_372:\n        /* \"#utility.yul\":2159:2281   */\n      pop\n      jump\t// out\n        /* \"#utility.yul\":2287:2426   */\n    tag_292:\n        /* \"#utility.yul\":2333:2338   */\n      0x00\n        /* \"#utility.yul\":2371:2377   */\n      dup2\n        /* \"#utility.yul\":2358:2378   */\n      calldataload\n        /* \"#utility.yul\":2349:2378   */\n      swap1\n      pop\n        /* \"#utility.yul\":2387:2420   */\n      tag_374\n        /* \"#utility.yul\":2414:2419   */\n      dup2\n        /* \"#utility.yul\":2387:2420   */\n      tag_291\n      jump\t// in\n    tag_374:\n        /* \"#utility.yul\":2287:2426   */\n      swap3\n      swap2\n      pop\n      pop\n      jump\t// out\n        /* \"#utility.yul\":2432:2906   */\n    tag_39:\n        /* \"#utility.yul\":2500:2506   */\n      0x00\n        /* \"#utility.yul\":2508:2514   */\n      dup1\n        /* \"#utility.yul\":2557:2559   */\n      0x40\n        /* \"#utility.yul\":2545:2554   */\n      dup4\n        /* \"#utility.yul\":2536:2543   */\n      dup6\n        /* \"#utility.yul\":2532:2555   */\n      sub\n        /* \"#utility.yul\":2528:2560   */\n      slt\n        /* \"#utility.yul\":2525:2644   */\n      iszero\n      tag_376\n      jumpi\n        /* \"#utility.yul\":2563:2642   */\n      tag_377\n      tag_284\n      jump\t// in\n    tag_377:\n        /* \"#utility.yul\":2525:2644   */\n    tag_376:\n        /* \"#utility.yul\":2683:2684   */\n      0x00\n        /* \"#utility.yul\":2708:2761   */\n      tag_378\n        /* \"#utility.yul\":2753:2760   */\n      dup6\n        /* \"#utility.yul\":2744:2750   */\n      dup3\n        /* \"#utility.yul\":2733:2742   */\n      dup7\n        /* \"#utility.yul\":2729:2751   */\n      add\n        /* \"#utility.yul\":2708:2761   */\n      tag_289\n      jump\t// in\n    tag_378:\n        /* \"#utility.yul\":2698:2761   */\n      swap3\n      pop\n        /* \"#utility.yul\":2654:2771   */\n      pop\n        /* \"#utility.yul\":2810:2812   */\n      0x20\n        /* \"#utility.yul\":2836:2889   */\n      tag_379\n        /* \"#utility.yul\":2881:2888   */\n      dup6\n        /* \"#utility.yul\":2872:2878   */\n      dup3\n        /* \"#utility.yul\":2861:2870   */\n      dup7\n        /* \"#utility.yul\":2857:2879   */\n      add\n        /* \"#utility.yul\":2836:2889   */\n      tag_292\n      jump\t// in\n    tag_379:\n        /* \"#utility.yul\":2826:2889   */\n      swap2\n      pop\n        /* \"#utility.yul\":2781:2899   */\n      pop\n        /* \"#utility.yul\":2432:2906   */\n      swap3\n      pop\n      swap3\n      swap1\n      pop\n      jump\t// out\n        /* \"#utility.yul\":2912:3002   */\n    tag_293:\n        /* \"#utility.yul\":2946:2953   */\n      0x00\n        /* \"#utility.yul\":2989:2994   */\n      dup2\n        /* \"#utility.yul\":2982:2995   */\n      iszero\n        /* \"#utility.yul\":2975:2996   */\n      iszero\n        /* \"#utility.yul\":2964:2996   */\n      swap1\n      pop\n        /* \"#utility.yul\":2912:3002   */\n      swap2\n      swap1\n      pop\n      jump\t// out\n        /* \"#utility.yul\":3008:3117   */\n    tag_294:\n        /* \"#utility.yul\":3089:3110   */\n      tag_382\n        /* \"#utility.yul\":3104:3109   */\n      dup2\n        /* \"#utility.yul\":3089:3110   */\n      tag_293\n      jump\t// in\n    tag_382:\n        /* \"#utility.yul\":3084:3087   */\n      dup3\n        /* \"#utility.yul\":3077:3111   */\n      mstore\n        /* \"#utility.yul\":3008:3117   */\n      pop\n      pop\n      jump\t// out\n        /* \"#utility.yul\":3123:3333   */\n    tag_42:\n        /* \"#utility.yul\":3210:3214   */\n      0x00\n        /* \"#utility.yul\":3248:3250   */\n      0x20\n        /* \"#utility.yul\":3237:3246   */\n      dup3\n        /* \"#utility.yul\":3233:3251   */\n      add\n        /* \"#utility.yul\":3225:3251   */\n      swap1\n      pop\n        /* \"#utility.yul\":3261:3326   */\n      tag_384\n        /* \"#utility.yul\":3323:3324   */\n      0x00\n        /* \"#utility.yul\":3312:3321   */\n      dup4\n        /* \"#utility.yul\":3308:3325   */\n      add\n        /* \"#utility.yul\":3299:3305   */\n      dup5\n        /* \"#utility.yul\":3261:3326   */\n      tag_294\n      jump\t// in\n    tag_384:\n        /* \"#utility.yul\":3123:3333   */\n      swap3\n      swap2\n      pop\n      pop\n      jump\t// out\n        /* \"#utility.yul\":3339:3457   */\n    tag_295:\n        /* \"#utility.yul\":3426:3450   */\n      tag_386\n        /* \"#utility.yul\":3444:3449   */\n      dup2\n        /* \"#utility.yul\":3426:3450   */\n      tag_290\n      jump\t// in\n    tag_386:\n        /* \"#utility.yul\":3421:3424   */\n      dup3\n        /* \"#utility.yul\":3414:3451   */\n      mstore\n        /* \"#utility.yul\":3339:3457   */\n      pop\n      pop\n      jump\t// out\n        /* \"#utility.yul\":3463:3685   */\n    tag_47:\n        /* \"#utility.yul\":3556:3560   */\n      0x00\n        /* \"#utility.yul\":3594:3596   */\n      0x20\n        /* \"#utility.yul\":3583:3592   */\n      dup3\n        /* \"#utility.yul\":3579:3597   */\n      add\n        /* \"#utility.yul\":3571:3597   */\n      swap1\n      pop\n        /* \"#utility.yul\":3607:3678   */\n      tag_388\n        /* \"#utility.yul\":3675:3676   */\n      0x00\n        /* \"#utility.yul\":3664:3673   */\n      dup4\n        /* \"#utility.yul\":3660:3677   */\n      add\n        /* \"#utility.yul\":3651:3657   */\n      dup5\n        /* \"#utility.yul\":3607:3678   */\n      tag_295\n      jump\t// in\n    tag_388:\n        /* \"#utility.yul\":3463:3685   */\n      swap3\n      swap2\n      pop\n      pop\n      jump\t// out\n        /* \"#utility.yul\":3691:3809   */\n    tag_296:\n        /* \"#utility.yul\":3778:3802   */\n      tag_390\n        /* \"#utility.yul\":3796:3801   */\n      dup2\n        /* \"#utility.yul\":3778:3802   */\n      tag_287\n      jump\t// in\n    tag_390:\n        /* \"#utility.yul\":3773:3776   */\n      dup3\n        /* \"#utility.yul\":3766:3803   */\n      mstore\n        /* \"#utility.yul\":3691:3809   */\n      pop\n      pop\n      jump\t// out\n        /* \"#utility.yul\":3815:4037   */\n    tag_52:\n        /* \"#utility.yul\":3908:3912   */\n      0x00\n        /* \"#utility.yul\":3946:3948   */\n      0x20\n        /* \"#utility.yul\":3935:3944   */\n      dup3\n        /* \"#utility.yul\":3931:3949   */\n      add\n        /* \"#utility.yul\":3923:3949   */\n      swap1\n      pop\n        /* \"#utility.yul\":3959:4030   */\n      tag_392\n        /* \"#utility.yul\":4027:4028   */\n      0x00\n        /* \"#utility.yul\":4016:4025   */\n      dup4\n        /* \"#utility.yul\":4012:4029   */\n      add\n        /* \"#utility.yul\":4003:4009   */\n      dup5\n        /* \"#utility.yul\":3959:4030   */\n      tag_296\n      jump\t// in\n    tag_392:\n        /* \"#utility.yul\":3815:4037   */\n      swap3\n      swap2\n      pop\n      pop\n      jump\t// out\n        /* \"#utility.yul\":4043:4372   */\n    tag_56:\n        /* \"#utility.yul\":4102:4108   */\n      0x00\n        /* \"#utility.yul\":4151:4153   */\n      0x20\n        /* \"#utility.yul\":4139:4148   */\n      dup3\n        /* \"#utility.yul\":4130:4137   */\n      dup5\n        /* \"#utility.yul\":4126:4149   */\n      sub\n        /* \"#utility.yul\":4122:4154   */\n      slt\n        /* \"#utility.yul\":4119:4238   */\n      iszero\n      tag_394\n      jumpi\n        /* \"#utility.yul\":4157:4236   */\n      tag_395\n      tag_284\n      jump\t// in\n    tag_395:\n        /* \"#utility.yul\":4119:4238   */\n    tag_394:\n        /* \"#utility.yul\":4277:4278   */\n      0x00\n        /* \"#utility.yul\":4302:4355   */\n      tag_396\n        /* \"#utility.yul\":4347:4354   */\n      dup5\n        /* \"#utility.yul\":4338:4344   */\n      dup3\n        /* \"#utility.yul\":4327:4336   */\n      dup6\n        /* \"#utility.yul\":4323:4345   */\n      add\n        /* \"#utility.yul\":4302:4355   */\n      tag_292\n      jump\t// in\n    tag_396:\n        /* \"#utility.yul\":4292:4355   */\n      swap2\n      pop\n        /* \"#utility.yul\":4248:4365   */\n      pop\n        /* \"#utility.yul\":4043:4372   */\n      swap3\n      swap2\n      pop\n      pop\n      jump\t// out\n        /* \"#utility.yul\":4378:4707   */\n    tag_65:\n        /* \"#utility.yul\":4437:4443   */\n      0x00\n        /* \"#utility.yul\":4486:4488   */\n      0x20\n        /* \"#utility.yul\":4474:4483   */\n      dup3\n        /* \"#utility.yul\":4465:4472   */\n      dup5\n        /* \"#utility.yul\":4461:4484   */\n      sub\n        /* \"#utility.yul\":4457:4489   */\n      slt\n        /* \"#utility.yul\":4454:4573   */\n      iszero\n      tag_398\n      jumpi\n        /* \"#utility.yul\":4492:4571   */\n      tag_399\n      tag_284\n      jump\t// in\n    tag_399:\n        /* \"#utility.yul\":4454:4573   */\n    tag_398:\n        /* \"#utility.yul\":4612:4613   */\n      0x00\n        /* \"#utility.yul\":4637:4690   */\n      tag_400\n        /* \"#utility.yul\":4682:4689   */\n      dup5\n        /* \"#utility.yul\":4673:4679   */\n      dup3\n        /* \"#utility.yul\":4662:4671   */\n      dup6\n        /* \"#utility.yul\":4658:4680   */\n      add\n        /* \"#utility.yul\":4637:4690   */\n      tag_289\n      jump\t// in\n    tag_400:\n        /* \"#utility.yul\":4627:4690   */\n      swap2\n      pop\n        /* \"#utility.yul\":4583:4700   */\n      pop\n        /* \"#utility.yul\":4378:4707   */\n      swap3\n      swap2\n      pop\n      pop\n      jump\t// out\n        /* \"#utility.yul\":4713:5332   */\n    tag_71:\n        /* \"#utility.yul\":4790:4796   */\n      0x00\n        /* \"#utility.yul\":4798:4804   */\n      dup1\n        /* \"#utility.yul\":4806:4812   */\n      0x00\n        /* \"#utility.yul\":4855:4857   */\n      0x60\n        /* \"#utility.yul\":4843:4852   */\n      dup5\n        /* \"#utility.yul\":4834:4841   */\n      dup7\n        /* \"#utility.yul\":4830:4853   */\n      sub\n        /* \"#utility.yul\":4826:4858   */\n      slt\n        /* \"#utility.yul\":4823:4942   */\n      iszero\n      tag_402\n      jumpi\n        /* \"#utility.yul\":4861:4940   */\n      tag_403\n      tag_284\n      jump\t// in\n    tag_403:\n        /* \"#utility.yul\":4823:4942   */\n    tag_402:\n        /* \"#utility.yul\":4981:4982   */\n      0x00\n        /* \"#utility.yul\":5006:5059   */\n      tag_404\n        /* \"#utility.yul\":5051:5058   */\n      dup7\n        /* \"#utility.yul\":5042:5048   */\n      dup3\n        /* \"#utility.yul\":5031:5040   */\n      dup8\n        /* \"#utility.yul\":5027:5049   */\n      add\n        /* \"#utility.yul\":5006:5059   */\n      tag_289\n      jump\t// in\n    tag_404:\n        /* \"#utility.yul\":4996:5059   */\n      swap4\n      pop\n        /* \"#utility.yul\":4952:5069   */\n      pop\n        /* \"#utility.yul\":5108:5110   */\n      0x20\n        /* \"#utility.yul\":5134:5187   */\n      tag_405\n        /* \"#utility.yul\":5179:5186   */\n      dup7\n        /* \"#utility.yul\":5170:5176   */\n      dup3\n        /* \"#utility.yul\":5159:5168   */\n      dup8\n        /* \"#utility.yul\":5155:5177   */\n      add\n        /* \"#utility.yul\":5134:5187   */\n      tag_289\n      jump\t// in\n    tag_405:\n        /* \"#utility.yul\":5124:5187   */\n      swap3\n      pop\n        /* \"#utility.yul\":5079:5197   */\n      pop\n        /* \"#utility.yul\":5236:5238   */\n      0x40\n        /* \"#utility.yul\":5262:5315   */\n      tag_406\n        /* \"#utility.yul\":5307:5314   */\n      dup7\n        /* \"#utility.yul\":5298:5304   */\n      dup3\n        /* \"#utility.yul\":5287:5296   */\n      dup8\n        /* \"#utility.yul\":5283:5305   */\n      add\n        /* \"#utility.yul\":5262:5315   */\n      tag_292\n      jump\t// in\n    tag_406:\n        /* \"#utility.yul\":5252:5315   */\n      swap2\n      pop\n        /* \"#utility.yul\":5207:5325   */\n      pop\n        /* \"#utility.yul\":4713:5332   */\n      swap3\n      pop\n      swap3\n      pop\n      swap3\n      jump\t// out\n        /* \"#utility.yul\":5338:5424   */\n    tag_297:\n        /* \"#utility.yul\":5373:5380   */\n      0x00\n        /* \"#utility.yul\":5413:5417   */\n      0xff\n        /* \"#utility.yul\":5406:5411   */\n      dup3\n        /* \"#utility.yul\":5402:5418   */\n      and\n        /* \"#utility.yul\":5391:5418   */\n      swap1\n      pop\n        /* \"#utility.yul\":5338:5424   */\n      swap2\n      swap1\n      pop\n      jump\t// out\n        /* \"#utility.yul\":5430:5542   */\n    tag_298:\n        /* \"#utility.yul\":5513:5535   */\n      tag_409\n        /* \"#utility.yul\":5529:5534   */\n      dup2\n        /* \"#utility.yul\":5513:5535   */\n      tag_297\n      jump\t// in\n    tag_409:\n        /* \"#utility.yul\":5508:5511   */\n      dup3\n        /* \"#utility.yul\":5501:5536   */\n      mstore\n        /* \"#utility.yul\":5430:5542   */\n      pop\n      pop\n      jump\t// out\n        /* \"#utility.yul\":5548:5762   */\n    tag_78:\n        /* \"#utility.yul\":5637:5641   */\n      0x00\n        /* \"#utility.yul\":5675:5677   */\n      0x20\n        /* \"#utility.yul\":5664:5673   */\n      dup3\n        /* \"#utility.yul\":5660:5678   */\n      add\n        /* \"#utility.yul\":5652:5678   */\n      swap1\n      pop\n        /* \"#utility.yul\":5688:5755   */\n      tag_411\n        /* \"#utility.yul\":5752:5753   */\n      0x00\n        /* \"#utility.yul\":5741:5750   */\n      dup4\n        /* \"#utility.yul\":5737:5754   */\n      add\n        /* \"#utility.yul\":5728:5734   */\n      dup5\n        /* \"#utility.yul\":5688:5755   */\n      tag_298\n      jump\t// in\n    tag_411:\n        /* \"#utility.yul\":5548:5762   */\n      swap3\n      swap2\n      pop\n      pop\n      jump\t// out\n        /* \"#utility.yul\":5768:5884   */\n    tag_299:\n        /* \"#utility.yul\":5838:5859   */\n      tag_413\n        /* \"#utility.yul\":5853:5858   */\n      dup2\n        /* \"#utility.yul\":5838:5859   */\n      tag_293\n      jump\t// in\n    tag_413:\n        /* \"#utility.yul\":5831:5836   */\n      dup2\n        /* \"#utility.yul\":5828:5860   */\n      eq\n        /* \"#utility.yul\":5818:5878   */\n      tag_414\n      jumpi\n        /* \"#utility.yul\":5874:5875   */\n      0x00\n        /* \"#utility.yul\":5871:5872   */\n      dup1\n        /* \"#utility.yul\":5864:5876   */\n      revert\n        /* \"#utility.yul\":5818:5878   */\n    tag_414:\n        /* \"#utility.yul\":5768:5884   */\n      pop\n      jump\t// out\n        /* \"#utility.yul\":5890:6023   */\n    tag_300:\n        /* \"#utility.yul\":5933:5938   */\n      0x00\n        /* \"#utility.yul\":5971:5977   */\n      dup2\n        /* \"#utility.yul\":5958:5978   */\n      calldataload\n        /* \"#utility.yul\":5949:5978   */\n      swap1\n      pop\n        /* \"#utility.yul\":5987:6017   */\n      tag_416\n        /* \"#utility.yul\":6011:6016   */\n      dup2\n        /* \"#utility.yul\":5987:6017   */\n      tag_299\n      jump\t// in\n    tag_416:\n        /* \"#utility.yul\":5890:6023   */\n      swap3\n      swap2\n      pop\n      pop\n      jump\t// out\n        /* \"#utility.yul\":6029:6497   */\n    tag_130:\n        /* \"#utility.yul\":6094:6100   */\n      0x00\n        /* \"#utility.yul\":6102:6108   */\n      dup1\n        /* \"#utility.yul\":6151:6153   */\n      0x40\n        /* \"#utility.yul\":6139:6148   */\n      dup4\n        /* \"#utility.yul\":6130:6137   */\n      dup6\n        /* \"#utility.yul\":6126:6149   */\n      sub\n        /* \"#utility.yul\":6122:6154   */\n      slt\n        /* \"#utility.yul\":6119:6238   */\n      iszero\n      tag_418\n      jumpi\n        /* \"#utility.yul\":6157:6236   */\n      tag_419\n      tag_284\n      jump\t// in\n    tag_419:\n        /* \"#utility.yul\":6119:6238   */\n    tag_418:\n        /* \"#utility.yul\":6277:6278   */\n      0x00\n        /* \"#utility.yul\":6302:6355   */\n      tag_420\n        /* \"#utility.yul\":6347:6354   */\n      dup6\n        /* \"#utility.yul\":6338:6344   */\n      dup3\n        /* \"#utility.yul\":6327:6336   */\n      dup7\n        /* \"#utility.yul\":6323:6345   */\n      add\n        /* \"#utility.yul\":6302:6355   */\n      tag_289\n      jump\t// in\n    tag_420:\n        /* \"#utility.yul\":6292:6355   */\n      swap3\n      pop\n        /* \"#utility.yul\":6248:6365   */\n      pop\n        /* \"#utility.yul\":6404:6406   */\n      0x20\n        /* \"#utility.yul\":6430:6480   */\n      tag_421\n        /* \"#utility.yul\":6472:6479   */\n      dup6\n        /* \"#utility.yul\":6463:6469   */\n      dup3\n        /* \"#utility.yul\":6452:6461   */\n      dup7\n        /* \"#utility.yul\":6448:6470   */\n      add\n        /* \"#utility.yul\":6430:6480   */\n      tag_300\n      jump\t// in\n    tag_421:\n        /* \"#utility.yul\":6420:6480   */\n      swap2\n      pop\n        /* \"#utility.yul\":6375:6490   */\n      pop\n        /* \"#utility.yul\":6029:6497   */\n      swap3\n      pop\n      swap3\n      swap1\n      pop\n      jump\t// out\n        /* \"#utility.yul\":6503:6977   */\n    tag_135:\n        /* \"#utility.yul\":6571:6577   */\n      0x00\n        /* \"#utility.yul\":6579:6585   */\n      dup1\n        /* \"#utility.yul\":6628:6630   */\n      0x40\n        /* \"#utility.yul\":6616:6625   */\n      dup4\n        /* \"#utility.yul\":6607:6614   */\n      dup6\n        /* \"#utility.yul\":6603:6626   */\n      sub\n        /* \"#utility.yul\":6599:6631   */\n      slt\n        /* \"#utility.yul\":6596:6715   */\n      iszero\n      tag_423\n      jumpi\n        /* \"#utility.yul\":6634:6713   */\n      tag_424\n      tag_284\n      jump\t// in\n    tag_424:\n        /* \"#utility.yul\":6596:6715   */\n    tag_423:\n        /* \"#utility.yul\":6754:6755   */\n      0x00\n        /* \"#utility.yul\":6779:6832   */\n      tag_425\n        /* \"#utility.yul\":6824:6831   */\n      dup6\n        /* \"#utility.yul\":6815:6821   */\n      dup3\n        /* \"#utility.yul\":6804:6813   */\n      dup7\n        /* \"#utility.yul\":6800:6822   */\n      add\n        /* \"#utility.yul\":6779:6832   */\n      tag_289\n      jump\t// in\n    tag_425:\n        /* \"#utility.yul\":6769:6832   */\n      swap3\n      pop\n        /* \"#utility.yul\":6725:6842   */\n      pop\n        /* \"#utility.yul\":6881:6883   */\n      0x20\n        /* \"#utility.yul\":6907:6960   */\n      tag_426\n        /* \"#utility.yul\":6952:6959   */\n      dup6\n        /* \"#utility.yul\":6943:6949   */\n      dup3\n        /* \"#utility.yul\":6932:6941   */\n      dup7\n        /* \"#utility.yul\":6928:6950   */\n      add\n        /* \"#utility.yul\":6907:6960   */\n      tag_289\n      jump\t// in\n    tag_426:\n        /* \"#utility.yul\":6897:6960   */\n      swap2\n      pop\n        /* \"#utility.yul\":6852:6970   */\n      pop\n        /* \"#utility.yul\":6503:6977   */\n      swap3\n      pop\n      swap3\n      swap1\n      pop\n      jump\t// out\n        /* \"#utility.yul\":6983:7163   */\n    tag_301:\n        /* \"#utility.yul\":7031:7108   */\n      0x4e487b7100000000000000000000000000000000000000000000000000000000\n        /* \"#utility.yul\":7028:7029   */\n      0x00\n        /* \"#utility.yul\":7021:7109   */\n      mstore\n        /* \"#utility.yul\":7128:7132   */\n      0x22\n        /* \"#utility.yul\":7125:7126   */\n      0x04\n        /* \"#utility.yul\":7118:7133   */\n      mstore\n        /* \"#utility.yul\":7152:7156   */\n      0x24\n        /* \"#utility.yul\":7149:7150   */\n      0x00\n        /* \"#utility.yul\":7142:7157   */\n      revert\n        /* \"#utility.yul\":7169:7489   */\n    tag_139:\n        /* \"#utility.yul\":7213:7219   */\n      0x00\n        /* \"#utility.yul\":7250:7251   */\n      0x02\n        /* \"#utility.yul\":7244:7248   */\n      dup3\n        /* \"#utility.yul\":7240:7252   */\n      div\n        /* \"#utility.yul\":7230:7252   */\n      swap1\n      pop\n        /* \"#utility.yul\":7297:7298   */\n      0x01\n        /* \"#utility.yul\":7291:7295   */\n      dup3\n        /* \"#utility.yul\":7287:7299   */\n      and\n        /* \"#utility.yul\":7318:7336   */\n      dup1\n        /* \"#utility.yul\":7308:7389   */\n      tag_429\n      jumpi\n        /* \"#utility.yul\":7374:7378   */\n      0x7f\n        /* \"#utility.yul\":7366:7372   */\n      dup3\n        /* \"#utility.yul\":7362:7379   */\n      and\n        /* \"#utility.yul\":7352:7379   */\n      swap2\n      pop\n        /* \"#utility.yul\":7308:7389   */\n    tag_429:\n        /* \"#utility.yul\":7436:7438   */\n      0x20\n        /* \"#utility.yul\":7428:7434   */\n      dup3\n        /* \"#utility.yul\":7425:7439   */\n      lt\n        /* \"#utility.yul\":7405:7423   */\n      dup2\n        /* \"#utility.yul\":7402:7440   */\n      sub\n        /* \"#utility.yul\":7399:7483   */\n      tag_430\n      jumpi\n        /* \"#utility.yul\":7455:7473   */\n      tag_431\n      tag_301\n      jump\t// in\n    tag_431:\n        /* \"#utility.yul\":7399:7483   */\n    tag_430:\n        /* \"#utility.yul\":7220:7489   */\n      pop\n        /* \"#utility.yul\":7169:7489   */\n      swap2\n      swap1\n      pop\n      jump\t// out\n        /* \"#utility.yul\":7495:7654   */\n    tag_302:\n        /* \"#utility.yul\":7635:7646   */\n      0x4e6f74206f776e65720000000000000000000000000000000000000000000000\n        /* \"#utility.yul\":7631:7632   */\n      0x00\n        /* \"#utility.yul\":7623:7629   */\n      dup3\n        /* \"#utility.yul\":7619:7633   */\n      add\n        /* \"#utility.yul\":7612:7647   */\n      mstore\n        /* \"#utility.yul\":7495:7654   */\n      pop\n      jump\t// out\n        /* \"#utility.yul\":7660:8025   */\n    tag_303:\n        /* \"#utility.yul\":7802:7805   */\n      0x00\n        /* \"#utility.yul\":7823:7889   */\n      tag_434\n        /* \"#utility.yul\":7887:7888   */\n      0x09\n        /* \"#utility.yul\":7882:7885   */\n      dup4\n        /* \"#utility.yul\":7823:7889   */\n      tag_279\n      jump\t// in\n    tag_434:\n        /* \"#utility.yul\":7816:7889   */\n      swap2\n      pop\n        /* \"#utility.yul\":7898:7991   */\n      tag_435\n        /* \"#utility.yul\":7987:7990   */\n      dup3\n        /* \"#utility.yul\":7898:7991   */\n      tag_302\n      jump\t// in\n    tag_435:\n        /* \"#utility.yul\":8016:8018   */\n      0x20\n        /* \"#utility.yul\":8011:8014   */\n      dup3\n        /* \"#utility.yul\":8007:8019   */\n      add\n        /* \"#utility.yul\":8000:8019   */\n      swap1\n      pop\n        /* \"#utility.yul\":7660:8025   */\n      swap2\n      swap1\n      pop\n      jump\t// out\n        /* \"#utility.yul\":8031:8450   */\n    tag_149:\n        /* \"#utility.yul\":8197:8201   */\n      0x00\n        /* \"#utility.yul\":8235:8237   */\n      0x20\n        /* \"#utility.yul\":8224:8233   */\n      dup3\n        /* \"#utility.yul\":8220:8238   */\n      add\n        /* \"#utility.yul\":8212:8238   */\n      swap1\n      pop\n        /* \"#utility.yul\":8284:8293   */\n      dup2\n        /* \"#utility.yul\":8278:8282   */\n      dup2\n        /* \"#utility.yul\":8274:8294   */\n      sub\n        /* \"#utility.yul\":8270:8271   */\n      0x00\n        /* \"#utility.yul\":8259:8268   */\n      dup4\n        /* \"#utility.yul\":8255:8272   */\n      add\n        /* \"#utility.yul\":8248:8295   */\n      mstore\n        /* \"#utility.yul\":8312:8443   */\n      tag_437\n        /* \"#utility.yul\":8438:8442   */\n      dup2\n        /* \"#utility.yul\":8312:8443   */\n      tag_303\n      jump\t// in\n    tag_437:\n        /* \"#utility.yul\":8304:8443   */\n      swap1\n      pop\n        /* \"#utility.yul\":8031:8450   */\n      swap2\n      swap1\n      pop\n      jump\t// out\n        /* \"#utility.yul\":8456:8624   */\n    tag_304:\n        /* \"#utility.yul\":8596:8616   */\n      0x4e6f7420656e6f7567682062616c616e63650000000000000000000000000000\n        /* \"#utility.yul\":8592:8593   */\n      0x00\n        /* \"#utility.yul\":8584:8590   */\n      dup3\n        /* \"#utility.yul\":8580:8594   */\n      add\n        /* \"#utility.yul\":8573:8617   */\n      mstore\n        /* \"#utility.yul\":8456:8624   */\n      pop\n      jump\t// out\n        /* \"#utility.yul\":8630:8996   */\n    tag_305:\n        /* \"#utility.yul\":8772:8775   */\n      0x00\n        /* \"#utility.yul\":8793:8860   */\n      tag_440\n        /* \"#utility.yul\":8857:8859   */\n      0x12\n        /* \"#utility.yul\":8852:8855   */\n      dup4\n        /* \"#utility.yul\":8793:8860   */\n      tag_279\n      jump\t// in\n    tag_440:\n        /* \"#utility.yul\":8786:8860   */\n      swap2\n      pop\n        /* \"#utility.yul\":8869:8962   */\n      tag_441\n        /* \"#utility.yul\":8958:8961   */\n      dup3\n        /* \"#utility.yul\":8869:8962   */\n      tag_304\n      jump\t// in\n    tag_441:\n        /* \"#utility.yul\":8987:8989   */\n      0x20\n        /* \"#utility.yul\":8982:8985   */\n      dup3\n        /* \"#utility.yul\":8978:8990   */\n      add\n        /* \"#utility.yul\":8971:8990   */\n      swap1\n      pop\n        /* \"#utility.yul\":8630:8996   */\n      swap2\n      swap1\n      pop\n      jump\t// out\n        /* \"#utility.yul\":9002:9421   */\n    tag_154:\n        /* \"#utility.yul\":9168:9172   */\n      0x00\n        /* \"#utility.yul\":9206:9208   */\n      0x20\n        /* \"#utility.yul\":9195:9204   */\n      dup3\n        /* \"#utility.yul\":9191:9209   */\n      add\n        /* \"#utility.yul\":9183:9209   */\n      swap1\n      pop\n        /* \"#utility.yul\":9255:9264   */\n      dup2\n        /* \"#utility.yul\":9249:9253   */\n      dup2\n        /* \"#utility.yul\":9245:9265   */\n      sub\n        /* \"#utility.yul\":9241:9242   */\n      0x00\n        /* \"#utility.yul\":9230:9239   */\n      dup4\n        /* \"#utility.yul\":9226:9243   */\n      add\n        /* \"#utility.yul\":9219:9266   */\n      mstore\n        /* \"#utility.yul\":9283:9414   */\n      tag_443\n        /* \"#utility.yul\":9409:9413   */\n      dup2\n        /* \"#utility.yul\":9283:9414   */\n      tag_305\n      jump\t// in\n    tag_443:\n        /* \"#utility.yul\":9275:9414   */\n      swap1\n      pop\n        /* \"#utility.yul\":9002:9421   */\n      swap2\n      swap1\n      pop\n      jump\t// out\n        /* \"#utility.yul\":9427:9589   */\n    tag_306:\n        /* \"#utility.yul\":9567:9581   */\n      0x4e6f7420617070726f7665640000000000000000000000000000000000000000\n        /* \"#utility.yul\":9563:9564   */\n      0x00\n        /* \"#utility.yul\":9555:9561   */\n      dup3\n        /* \"#utility.yul\":9551:9565   */\n      add\n        /* \"#utility.yul\":9544:9582   */\n      mstore\n        /* \"#utility.yul\":9427:9589   */\n      pop\n      jump\t// out\n        /* \"#utility.yul\":9595:9961   */\n    tag_307:\n        /* \"#utility.yul\":9737:9740   */\n      0x00\n        /* \"#utility.yul\":9758:9825   */\n      tag_446\n        /* \"#utility.yul\":9822:9824   */\n      0x0c\n        /* \"#utility.yul\":9817:9820   */\n      dup4\n        /* \"#utility.yul\":9758:9825   */\n      tag_279\n      jump\t// in\n    tag_446:\n        /* \"#utility.yul\":9751:9825   */\n      swap2\n      pop\n        /* \"#utility.yul\":9834:9927   */\n      tag_447\n        /* \"#utility.yul\":9923:9926   */\n      dup3\n        /* \"#utility.yul\":9834:9927   */\n      tag_306\n      jump\t// in\n    tag_447:\n        /* \"#utility.yul\":9952:9954   */\n      0x20\n        /* \"#utility.yul\":9947:9950   */\n      dup3\n        /* \"#utility.yul\":9943:9955   */\n      add\n        /* \"#utility.yul\":9936:9955   */\n      swap1\n      pop\n        /* \"#utility.yul\":9595:9961   */\n      swap2\n      swap1\n      pop\n      jump\t// out\n        /* \"#utility.yul\":9967:10386   */\n    tag_157:\n        /* \"#utility.yul\":10133:10137   */\n      0x00\n        /* \"#utility.yul\":10171:10173   */\n      0x20\n        /* \"#utility.yul\":10160:10169   */\n      dup3\n        /* \"#utility.yul\":10156:10174   */\n      add\n        /* \"#utility.yul\":10148:10174   */\n      swap1\n      pop\n        /* \"#utility.yul\":10220:10229   */\n      dup2\n        /* \"#utility.yul\":10214:10218   */\n      dup2\n        /* \"#utility.yul\":10210:10230   */\n      sub\n        /* \"#utility.yul\":10206:10207   */\n      0x00\n        /* \"#utility.yul\":10195:10204   */\n      dup4\n        /* \"#utility.yul\":10191:10208   */\n      add\n        /* \"#utility.yul\":10184:10231   */\n      mstore\n        /* \"#utility.yul\":10248:10379   */\n      tag_449\n        /* \"#utility.yul\":10374:10378   */\n      dup2\n        /* \"#utility.yul\":10248:10379   */\n      tag_307\n      jump\t// in\n    tag_449:\n        /* \"#utility.yul\":10240:10379   */\n      swap1\n      pop\n        /* \"#utility.yul\":9967:10386   */\n      swap2\n      swap1\n      pop\n      jump\t// out\n        /* \"#utility.yul\":10392:10562   */\n    tag_308:\n        /* \"#utility.yul\":10532:10554   */\n      0x4f6e6c792076656e646f722063616e206d696e74000000000000000000000000\n        /* \"#utility.yul\":10528:10529   */\n      0x00\n        /* \"#utility.yul\":10520:10526   */\n      dup3\n        /* \"#utility.yul\":10516:10530   */\n      add\n        /* \"#utility.yul\":10509:10555   */\n      mstore\n        /* \"#utility.yul\":10392:10562   */\n      pop\n      jump\t// out\n        /* \"#utility.yul\":10568:10934   */\n    tag_309:\n        /* \"#utility.yul\":10710:10713   */\n      0x00\n        /* \"#utility.yul\":10731:10798   */\n      tag_452\n        /* \"#utility.yul\":10795:10797   */\n      0x14\n        /* \"#utility.yul\":10790:10793   */\n      dup4\n        /* \"#utility.yul\":10731:10798   */\n      tag_279\n      jump\t// in\n    tag_452:\n        /* \"#utility.yul\":10724:10798   */\n      swap2\n      pop\n        /* \"#utility.yul\":10807:10900   */\n      tag_453\n        /* \"#utility.yul\":10896:10899   */\n      dup3\n        /* \"#utility.yul\":10807:10900   */\n      tag_308\n      jump\t// in\n    tag_453:\n        /* \"#utility.yul\":10925:10927   */\n      0x20\n        /* \"#utility.yul\":10920:10923   */\n      dup3\n        /* \"#utility.yul\":10916:10928   */\n      add\n        /* \"#utility.yul\":10909:10928   */\n      swap1\n      pop\n        /* \"#utility.yul\":10568:10934   */\n      swap2\n      swap1\n      pop\n      jump\t// out\n        /* \"#utility.yul\":10940:11359   */\n    tag_168:\n        /* \"#utility.yul\":11106:11110   */\n      0x00\n        /* \"#utility.yul\":11144:11146   */\n      0x20\n        /* \"#utility.yul\":11133:11142   */\n      dup3\n        /* \"#utility.yul\":11129:11147   */\n      add\n        /* \"#utility.yul\":11121:11147   */\n      swap1\n      pop\n        /* \"#utility.yul\":11193:11202   */\n      dup2\n        /* \"#utility.yul\":11187:11191   */\n      dup2\n        /* \"#utility.yul\":11183:11203   */\n      sub\n        /* \"#utility.yul\":11179:11180   */\n      0x00\n        /* \"#utility.yul\":11168:11177   */\n      dup4\n        /* \"#utility.yul\":11164:11181   */\n      add\n        /* \"#utility.yul\":11157:11204   */\n      mstore\n        /* \"#utility.yul\":11221:11352   */\n      tag_455\n        /* \"#utility.yul\":11347:11351   */\n      dup2\n        /* \"#utility.yul\":11221:11352   */\n      tag_309\n      jump\t// in\n    tag_455:\n        /* \"#utility.yul\":11213:11352   */\n      swap1\n      pop\n        /* \"#utility.yul\":10940:11359   */\n      swap2\n      swap1\n      pop\n      jump\t// out\n        /* \"#utility.yul\":11365:11545   */\n    tag_310:\n        /* \"#utility.yul\":11413:11490   */\n      0x4e487b7100000000000000000000000000000000000000000000000000000000\n        /* \"#utility.yul\":11410:11411   */\n      0x00\n        /* \"#utility.yul\":11403:11491   */\n      mstore\n        /* \"#utility.yul\":11510:11514   */\n      0x11\n        /* \"#utility.yul\":11507:11508   */\n      0x04\n        /* \"#utility.yul\":11500:11515   */\n      mstore\n        /* \"#utility.yul\":11534:11538   */\n      0x24\n        /* \"#utility.yul\":11531:11532   */\n      0x00\n        /* \"#utility.yul\":11524:11539   */\n      revert\n        /* \"#utility.yul\":11551:11742   */\n    tag_170:\n        /* \"#utility.yul\":11591:11594   */\n      0x00\n        /* \"#utility.yul\":11610:11630   */\n      tag_458\n        /* \"#utility.yul\":11628:11629   */\n      dup3\n        /* \"#utility.yul\":11610:11630   */\n      tag_290\n      jump\t// in\n    tag_458:\n        /* \"#utility.yul\":11605:11630   */\n      swap2\n      pop\n        /* \"#utility.yul\":11644:11664   */\n      tag_459\n        /* \"#utility.yul\":11662:11663   */\n      dup4\n        /* \"#utility.yul\":11644:11664   */\n      tag_290\n      jump\t// in\n    tag_459:\n        /* \"#utility.yul\":11639:11664   */\n      swap3\n      pop\n        /* \"#utility.yul\":11687:11688   */\n      dup3\n        /* \"#utility.yul\":11684:11685   */\n      dup3\n        /* \"#utility.yul\":11680:11689   */\n      add\n        /* \"#utility.yul\":11673:11689   */\n      swap1\n      pop\n        /* \"#utility.yul\":11708:11711   */\n      dup1\n        /* \"#utility.yul\":11705:11706   */\n      dup3\n        /* \"#utility.yul\":11702:11712   */\n      gt\n        /* \"#utility.yul\":11699:11735   */\n      iszero\n      tag_460\n      jumpi\n        /* \"#utility.yul\":11715:11733   */\n      tag_461\n      tag_310\n      jump\t// in\n    tag_461:\n        /* \"#utility.yul\":11699:11735   */\n    tag_460:\n        /* \"#utility.yul\":11551:11742   */\n      swap3\n      swap2\n      pop\n      pop\n      jump\t// out\n        /* \"#utility.yul\":11748:11911   */\n    tag_311:\n        /* \"#utility.yul\":11888:11903   */\n      0x4e6f207265656e7472616e637900000000000000000000000000000000000000\n        /* \"#utility.yul\":11884:11885   */\n      0x00\n        /* \"#utility.yul\":11876:11882   */\n      dup3\n        /* \"#utility.yul\":11872:11886   */\n      add\n        /* \"#utility.yul\":11865:11904   */\n      mstore\n        /* \"#utility.yul\":11748:11911   */\n      pop\n      jump\t// out\n        /* \"#utility.yul\":11917:12283   */\n    tag_312:\n        /* \"#utility.yul\":12059:12062   */\n      0x00\n        /* \"#utility.yul\":12080:12147   */\n      tag_464\n        /* \"#utility.yul\":12144:12146   */\n      0x0d\n        /* \"#utility.yul\":12139:12142   */\n      dup4\n        /* \"#utility.yul\":12080:12147   */\n      tag_279\n      jump\t// in\n    tag_464:\n        /* \"#utility.yul\":12073:12147   */\n      swap2\n      pop\n        /* \"#utility.yul\":12156:12249   */\n      tag_465\n        /* \"#utility.yul\":12245:12248   */\n      dup3\n        /* \"#utility.yul\":12156:12249   */\n      tag_311\n      jump\t// in\n    tag_465:\n        /* \"#utility.yul\":12274:12276   */\n      0x20\n        /* \"#utility.yul\":12269:12272   */\n      dup3\n        /* \"#utility.yul\":12265:12277   */\n      add\n        /* \"#utility.yul\":12258:12277   */\n      swap1\n      pop\n        /* \"#utility.yul\":11917:12283   */\n      swap2\n      swap1\n      pop\n      jump\t// out\n        /* \"#utility.yul\":12289:12708   */\n    tag_174:\n        /* \"#utility.yul\":12455:12459   */\n      0x00\n        /* \"#utility.yul\":12493:12495   */\n      0x20\n        /* \"#utility.yul\":12482:12491   */\n      dup3\n        /* \"#utility.yul\":12478:12496   */\n      add\n        /* \"#utility.yul\":12470:12496   */\n      swap1\n      pop\n        /* \"#utility.yul\":12542:12551   */\n      dup2\n        /* \"#utility.yul\":12536:12540   */\n      dup2\n        /* \"#utility.yul\":12532:12552   */\n      sub\n        /* \"#utility.yul\":12528:12529   */\n      0x00\n        /* \"#utility.yul\":12517:12526   */\n      dup4\n        /* \"#utility.yul\":12513:12530   */\n      add\n        /* \"#utility.yul\":12506:12553   */\n      mstore\n        /* \"#utility.yul\":12570:12701   */\n      tag_467\n        /* \"#utility.yul\":12696:12700   */\n      dup2\n        /* \"#utility.yul\":12570:12701   */\n      tag_312\n      jump\t// in\n    tag_467:\n        /* \"#utility.yul\":12562:12701   */\n      swap1\n      pop\n        /* \"#utility.yul\":12289:12708   */\n      swap2\n      swap1\n      pop\n      jump\t// out\n        /* \"#utility.yul\":12714:13124   */\n    tag_177:\n        /* \"#utility.yul\":12754:12761   */\n      0x00\n        /* \"#utility.yul\":12777:12797   */\n      tag_469\n        /* \"#utility.yul\":12795:12796   */\n      dup3\n        /* \"#utility.yul\":12777:12797   */\n      tag_290\n      jump\t// in\n    tag_469:\n        /* \"#utility.yul\":12772:12797   */\n      swap2\n      pop\n        /* \"#utility.yul\":12811:12831   */\n      tag_470\n        /* \"#utility.yul\":12829:12830   */\n      dup4\n        /* \"#utility.yul\":12811:12831   */\n      tag_290\n      jump\t// in\n    tag_470:\n        /* \"#utility.yul\":12806:12831   */\n      swap3\n      pop\n        /* \"#utility.yul\":12866:12867   */\n      dup3\n        /* \"#utility.yul\":12863:12864   */\n      dup3\n        /* \"#utility.yul\":12859:12868   */\n      mul\n        /* \"#utility.yul\":12888:12918   */\n      tag_471\n        /* \"#utility.yul\":12906:12917   */\n      dup2\n        /* \"#utility.yul\":12888:12918   */\n      tag_290\n      jump\t// in\n    tag_471:\n        /* \"#utility.yul\":12877:12918   */\n      swap2\n      pop\n        /* \"#utility.yul\":13067:13068   */\n      dup3\n        /* \"#utility.yul\":13058:13065   */\n      dup3\n        /* \"#utility.yul\":13054:13069   */\n      div\n        /* \"#utility.yul\":13051:13052   */\n      dup5\n        /* \"#utility.yul\":13048:13070   */\n      eq\n        /* \"#utility.yul\":13028:13029   */\n      dup4\n        /* \"#utility.yul\":13021:13030   */\n      iszero\n        /* \"#utility.yul\":13001:13084   */\n      or\n        /* \"#utility.yul\":12978:13117   */\n      tag_472\n      jumpi\n        /* \"#utility.yul\":13097:13115   */\n      tag_473\n      tag_310\n      jump\t// in\n    tag_473:\n        /* \"#utility.yul\":12978:13117   */\n    tag_472:\n        /* \"#utility.yul\":12762:13124   */\n      pop\n        /* \"#utility.yul\":12714:13124   */\n      swap3\n      swap2\n      pop\n      pop\n      jump\t// out\n        /* \"#utility.yul\":13130:13312   */\n    tag_313:\n        /* \"#utility.yul\":13270:13304   */\n      0x416d6f756e74206d7573742062652067726561746572207468616e207a65726f\n        /* \"#utility.yul\":13266:13267   */\n      0x00\n        /* \"#utility.yul\":13258:13264   */\n      dup3\n        /* \"#utility.yul\":13254:13268   */\n      add\n        /* \"#utility.yul\":13247:13305   */\n      mstore\n        /* \"#utility.yul\":13130:13312   */\n      pop\n      jump\t// out\n        /* \"#utility.yul\":13318:13684   */\n    tag_314:\n        /* \"#utility.yul\":13460:13463   */\n      0x00\n        /* \"#utility.yul\":13481:13548   */\n      tag_476\n        /* \"#utility.yul\":13545:13547   */\n      0x20\n        /* \"#utility.yul\":13540:13543   */\n      dup4\n        /* \"#utility.yul\":13481:13548   */\n      tag_279\n      jump\t// in\n    tag_476:\n        /* \"#utility.yul\":13474:13548   */\n      swap2\n      pop\n        /* \"#utility.yul\":13557:13650   */\n      tag_477\n        /* \"#utility.yul\":13646:13649   */\n      dup3\n        /* \"#utility.yul\":13557:13650   */\n      tag_313\n      jump\t// in\n    tag_477:\n        /* \"#utility.yul\":13675:13677   */\n      0x20\n        /* \"#utility.yul\":13670:13673   */\n      dup3\n        /* \"#utility.yul\":13666:13678   */\n      add\n        /* \"#utility.yul\":13659:13678   */\n      swap1\n      pop\n        /* \"#utility.yul\":13318:13684   */\n      swap2\n      swap1\n      pop\n      jump\t// out\n        /* \"#utility.yul\":13690:14109   */\n    tag_180:\n        /* \"#utility.yul\":13856:13860   */\n      0x00\n        /* \"#utility.yul\":13894:13896   */\n      0x20\n        /* \"#utility.yul\":13883:13892   */\n      dup3\n        /* \"#utility.yul\":13879:13897   */\n      add\n        /* \"#utility.yul\":13871:13897   */\n      swap1\n      pop\n        /* \"#utility.yul\":13943:13952   */\n      dup2\n        /* \"#utility.yul\":13937:13941   */\n      dup2\n        /* \"#utility.yul\":13933:13953   */\n      sub\n        /* \"#utility.yul\":13929:13930   */\n      0x00\n        /* \"#utility.yul\":13918:13927   */\n      dup4\n        /* \"#utility.yul\":13914:13931   */\n      add\n        /* \"#utility.yul\":13907:13954   */\n      mstore\n        /* \"#utility.yul\":13971:14102   */\n      tag_479\n        /* \"#utility.yul\":14097:14101   */\n      dup2\n        /* \"#utility.yul\":13971:14102   */\n      tag_314\n      jump\t// in\n    tag_479:\n        /* \"#utility.yul\":13963:14102   */\n      swap1\n      pop\n        /* \"#utility.yul\":13690:14109   */\n      swap2\n      swap1\n      pop\n      jump\t// out\n        /* \"#utility.yul\":14115:14285   */\n    tag_315:\n        /* \"#utility.yul\":14255:14277   */\n      0x496e636f72726563742045544820616d6f756e74000000000000000000000000\n        /* \"#utility.yul\":14251:14252   */\n      0x00\n        /* \"#utility.yul\":14243:14249   */\n      dup3\n        /* \"#utility.yul\":14239:14253   */\n      add\n        /* \"#utility.yul\":14232:14278   */\n      mstore\n        /* \"#utility.yul\":14115:14285   */\n      pop\n      jump\t// out\n        /* \"#utility.yul\":14291:14657   */\n    tag_316:\n        /* \"#utility.yul\":14433:14436   */\n      0x00\n        /* \"#utility.yul\":14454:14521   */\n      tag_482\n        /* \"#utility.yul\":14518:14520   */\n      0x14\n        /* \"#utility.yul\":14513:14516   */\n      dup4\n        /* \"#utility.yul\":14454:14521   */\n      tag_279\n      jump\t// in\n    tag_482:\n        /* \"#utility.yul\":14447:14521   */\n      swap2\n      pop\n        /* \"#utility.yul\":14530:14623   */\n      tag_483\n        /* \"#utility.yul\":14619:14622   */\n      dup3\n        /* \"#utility.yul\":14530:14623   */\n      tag_315\n      jump\t// in\n    tag_483:\n        /* \"#utility.yul\":14648:14650   */\n      0x20\n        /* \"#utility.yul\":14643:14646   */\n      dup3\n        /* \"#utility.yul\":14639:14651   */\n      add\n        /* \"#utility.yul\":14632:14651   */\n      swap1\n      pop\n        /* \"#utility.yul\":14291:14657   */\n      swap2\n      swap1\n      pop\n      jump\t// out\n        /* \"#utility.yul\":14663:15082   */\n    tag_183:\n        /* \"#utility.yul\":14829:14833   */\n      0x00\n        /* \"#utility.yul\":14867:14869   */\n      0x20\n        /* \"#utility.yul\":14856:14865   */\n      dup3\n        /* \"#utility.yul\":14852:14870   */\n      add\n        /* \"#utility.yul\":14844:14870   */\n      swap1\n      pop\n        /* \"#utility.yul\":14916:14925   */\n      dup2\n        /* \"#utility.yul\":14910:14914   */\n      dup2\n        /* \"#utility.yul\":14906:14926   */\n      sub\n        /* \"#utility.yul\":14902:14903   */\n      0x00\n        /* \"#utility.yul\":14891:14900   */\n      dup4\n        /* \"#utility.yul\":14887:14904   */\n      add\n        /* \"#utility.yul\":14880:14927   */\n      mstore\n        /* \"#utility.yul\":14944:15075   */\n      tag_485\n        /* \"#utility.yul\":15070:15074   */\n      dup2\n        /* \"#utility.yul\":14944:15075   */\n      tag_316\n      jump\t// in\n    tag_485:\n        /* \"#utility.yul\":14936:15075   */\n      swap1\n      pop\n        /* \"#utility.yul\":14663:15082   */\n      swap2\n      swap1\n      pop\n      jump\t// out\n        /* \"#utility.yul\":15088:15256   */\n    tag_317:\n        /* \"#utility.yul\":15228:15248   */\n      0x4e6f7420656e6f756768207469636b6574730000000000000000000000000000\n        /* \"#utility.yul\":15224:15225   */\n      0x00\n        /* \"#utility.yul\":15216:15222   */\n      dup3\n        /* \"#utility.yul\":15212:15226   */\n      add\n        /* \"#utility.yul\":15205:15249   */\n      mstore\n        /* \"#utility.yul\":15088:15256   */\n      pop\n      jump\t// out\n        /* \"#utility.yul\":15262:15628   */\n    tag_318:\n        /* \"#utility.yul\":15404:15407   */\n      0x00\n        /* \"#utility.yul\":15425:15492   */\n      tag_488\n        /* \"#utility.yul\":15489:15491   */\n      0x12\n        /* \"#utility.yul\":15484:15487   */\n      dup4\n        /* \"#utility.yul\":15425:15492   */\n      tag_279\n      jump\t// in\n    tag_488:\n        /* \"#utility.yul\":15418:15492   */\n      swap2\n      pop\n        /* \"#utility.yul\":15501:15594   */\n      tag_489\n        /* \"#utility.yul\":15590:15593   */\n      dup3\n        /* \"#utility.yul\":15501:15594   */\n      tag_317\n      jump\t// in\n    tag_489:\n        /* \"#utility.yul\":15619:15621   */\n      0x20\n        /* \"#utility.yul\":15614:15617   */\n      dup3\n        /* \"#utility.yul\":15610:15622   */\n      add\n        /* \"#utility.yul\":15603:15622   */\n      swap1\n      pop\n        /* \"#utility.yul\":15262:15628   */\n      swap2\n      swap1\n      pop\n      jump\t// out\n        /* \"#utility.yul\":15634:16053   */\n    tag_186:\n        /* \"#utility.yul\":15800:15804   */\n      0x00\n        /* \"#utility.yul\":15838:15840   */\n      0x20\n        /* \"#utility.yul\":15827:15836   */\n      dup3\n        /* \"#utility.yul\":15823:15841   */\n      add\n        /* \"#utility.yul\":15815:15841   */\n      swap1\n      pop\n        /* \"#utility.yul\":15887:15896   */\n      dup2\n        /* \"#utility.yul\":15881:15885   */\n      dup2\n        /* \"#utility.yul\":15877:15897   */\n      sub\n        /* \"#utility.yul\":15873:15874   */\n      0x00\n        /* \"#utility.yul\":15862:15871   */\n      dup4\n        /* \"#utility.yul\":15858:15875   */\n      add\n        /* \"#utility.yul\":15851:15898   */\n      mstore\n        /* \"#utility.yul\":15915:16046   */\n      tag_491\n        /* \"#utility.yul\":16041:16045   */\n      dup2\n        /* \"#utility.yul\":15915:16046   */\n      tag_318\n      jump\t// in\n    tag_491:\n        /* \"#utility.yul\":15907:16046   */\n      swap1\n      pop\n        /* \"#utility.yul\":15634:16053   */\n      swap2\n      swap1\n      pop\n      jump\t// out\n        /* \"#utility.yul\":16059:16253   */\n    tag_188:\n        /* \"#utility.yul\":16099:16103   */\n      0x00\n        /* \"#utility.yul\":16119:16139   */\n      tag_493\n        /* \"#utility.yul\":16137:16138   */\n      dup3\n        /* \"#utility.yul\":16119:16139   */\n      tag_290\n      jump\t// in\n    tag_493:\n        /* \"#utility.yul\":16114:16139   */\n      swap2\n      pop\n        /* \"#utility.yul\":16153:16173   */\n      tag_494\n        /* \"#utility.yul\":16171:16172   */\n      dup4\n        /* \"#utility.yul\":16153:16173   */\n      tag_290\n      jump\t// in\n    tag_494:\n        /* \"#utility.yul\":16148:16173   */\n      swap3\n      pop\n        /* \"#utility.yul\":16197:16198   */\n      dup3\n        /* \"#utility.yul\":16194:16195   */\n      dup3\n        /* \"#utility.yul\":16190:16199   */\n      sub\n        /* \"#utility.yul\":16182:16199   */\n      swap1\n      pop\n        /* \"#utility.yul\":16221:16222   */\n      dup2\n        /* \"#utility.yul\":16215:16219   */\n      dup2\n        /* \"#utility.yul\":16212:16223   */\n      gt\n        /* \"#utility.yul\":16209:16246   */\n      iszero\n      tag_495\n      jumpi\n        /* \"#utility.yul\":16226:16244   */\n      tag_496\n      tag_310\n      jump\t// in\n    tag_496:\n        /* \"#utility.yul\":16209:16246   */\n    tag_495:\n        /* \"#utility.yul\":16059:16253   */\n      swap3\n      swap2\n      pop\n      pop\n      jump\t// out\n        /* \"#utility.yul\":16259:16591   */\n    tag_193:\n        /* \"#utility.yul\":16380:16384   */\n      0x00\n        /* \"#utility.yul\":16418:16420   */\n      0x40\n        /* \"#utility.yul\":16407:16416   */\n      dup3\n        /* \"#utility.yul\":16403:16421   */\n      add\n        /* \"#utility.yul\":16395:16421   */\n      swap1\n      pop\n        /* \"#utility.yul\":16431:16502   */\n      tag_498\n        /* \"#utility.yul\":16499:16500   */\n      0x00\n        /* \"#utility.yul\":16488:16497   */\n      dup4\n        /* \"#utility.yul\":16484:16501   */\n      add\n        /* \"#utility.yul\":16475:16481   */\n      dup6\n        /* \"#utility.yul\":16431:16502   */\n      tag_296\n      jump\t// in\n    tag_498:\n        /* \"#utility.yul\":16512:16584   */\n      tag_499\n        /* \"#utility.yul\":16580:16582   */\n      0x20\n        /* \"#utility.yul\":16569:16578   */\n      dup4\n        /* \"#utility.yul\":16565:16583   */\n      add\n        /* \"#utility.yul\":16556:16562   */\n      dup5\n        /* \"#utility.yul\":16512:16584   */\n      tag_295\n      jump\t// in\n    tag_499:\n        /* \"#utility.yul\":16259:16591   */\n      swap4\n      swap3\n      pop\n      pop\n      pop\n      jump\t// out\n        /* \"#utility.yul\":16597:16778   */\n    tag_319:\n        /* \"#utility.yul\":16737:16770   */\n      0x4d75737420726566756e64206174206c65617374206f6e65207469636b657400\n        /* \"#utility.yul\":16733:16734   */\n      0x00\n        /* \"#utility.yul\":16725:16731   */\n      dup3\n        /* \"#utility.yul\":16721:16735   */\n      add\n        /* \"#utility.yul\":16714:16771   */\n      mstore\n        /* \"#utility.yul\":16597:16778   */\n      pop\n      jump\t// out\n        /* \"#utility.yul\":16784:17150   */\n    tag_320:\n        /* \"#utility.yul\":16926:16929   */\n      0x00\n        /* \"#utility.yul\":16947:17014   */\n      tag_502\n        /* \"#utility.yul\":17011:17013   */\n      0x1f\n        /* \"#utility.yul\":17006:17009   */\n      dup4\n        /* \"#utility.yul\":16947:17014   */\n      tag_279\n      jump\t// in\n    tag_502:\n        /* \"#utility.yul\":16940:17014   */\n      swap2\n      pop\n        /* \"#utility.yul\":17023:17116   */\n      tag_503\n        /* \"#utility.yul\":17112:17115   */\n      dup3\n        /* \"#utility.yul\":17023:17116   */\n      tag_319\n      jump\t// in\n    tag_503:\n        /* \"#utility.yul\":17141:17143   */\n      0x20\n        /* \"#utility.yul\":17136:17139   */\n      dup3\n        /* \"#utility.yul\":17132:17144   */\n      add\n        /* \"#utility.yul\":17125:17144   */\n      swap1\n      pop\n        /* \"#utility.yul\":16784:17150   */\n      swap2\n      swap1\n      pop\n      jump\t// out\n        /* \"#utility.yul\":17156:17575   */\n    tag_201:\n        /* \"#utility.yul\":17322:17326   */\n      0x00\n        /* \"#utility.yul\":17360:17362   */\n      0x20\n        /* \"#utility.yul\":17349:17358   */\n      dup3\n        /* \"#utility.yul\":17345:17363   */\n      add\n        /* \"#utility.yul\":17337:17363   */\n      swap1\n      pop\n        /* \"#utility.yul\":17409:17418   */\n      dup2\n        /* \"#utility.yul\":17403:17407   */\n      dup2\n        /* \"#utility.yul\":17399:17419   */\n      sub\n        /* \"#utility.yul\":17395:17396   */\n      0x00\n        /* \"#utility.yul\":17384:17393   */\n      dup4\n        /* \"#utility.yul\":17380:17397   */\n      add\n        /* \"#utility.yul\":17373:17420   */\n      mstore\n        /* \"#utility.yul\":17437:17568   */\n      tag_505\n        /* \"#utility.yul\":17563:17567   */\n      dup2\n        /* \"#utility.yul\":17437:17568   */\n      tag_320\n      jump\t// in\n    tag_505:\n        /* \"#utility.yul\":17429:17568   */\n      swap1\n      pop\n        /* \"#utility.yul\":17156:17575   */\n      swap2\n      swap1\n      pop\n      jump\t// out\n        /* \"#utility.yul\":17581:17806   */\n    tag_321:\n        /* \"#utility.yul\":17721:17755   */\n      0x496e73756666696369656e74207469636b65742062616c616e636520666f7220\n        /* \"#utility.yul\":17717:17718   */\n      0x00\n        /* \"#utility.yul\":17709:17715   */\n      dup3\n        /* \"#utility.yul\":17705:17719   */\n      add\n        /* \"#utility.yul\":17698:17756   */\n      mstore\n        /* \"#utility.yul\":17790:17798   */\n      0x726566756e640000000000000000000000000000000000000000000000000000\n        /* \"#utility.yul\":17785:17787   */\n      0x20\n        /* \"#utility.yul\":17777:17783   */\n      dup3\n        /* \"#utility.yul\":17773:17788   */\n      add\n        /* \"#utility.yul\":17766:17799   */\n      mstore\n        /* \"#utility.yul\":17581:17806   */\n      pop\n      jump\t// out\n        /* \"#utility.yul\":17812:18178   */\n    tag_322:\n        /* \"#utility.yul\":17954:17957   */\n      0x00\n        /* \"#utility.yul\":17975:18042   */\n      tag_508\n        /* \"#utility.yul\":18039:18041   */\n      0x26\n        /* \"#utility.yul\":18034:18037   */\n      dup4\n        /* \"#utility.yul\":17975:18042   */\n      tag_279\n      jump\t// in\n    tag_508:\n        /* \"#utility.yul\":17968:18042   */\n      swap2\n      pop\n        /* \"#utility.yul\":18051:18144   */\n      tag_509\n        /* \"#utility.yul\":18140:18143   */\n      dup3\n        /* \"#utility.yul\":18051:18144   */\n      tag_321\n      jump\t// in\n    tag_509:\n        /* \"#utility.yul\":18169:18171   */\n      0x40\n        /* \"#utility.yul\":18164:18167   */\n      dup3\n        /* \"#utility.yul\":18160:18172   */\n      add\n        /* \"#utility.yul\":18153:18172   */\n      swap1\n      pop\n        /* \"#utility.yul\":17812:18178   */\n      swap2\n      swap1\n      pop\n      jump\t// out\n        /* \"#utility.yul\":18184:18603   */\n    tag_204:\n        /* \"#utility.yul\":18350:18354   */\n      0x00\n        /* \"#utility.yul\":18388:18390   */\n      0x20\n        /* \"#utility.yul\":18377:18386   */\n      dup3\n        /* \"#utility.yul\":18373:18391   */\n      add\n        /* \"#utility.yul\":18365:18391   */\n      swap1\n      pop\n        /* \"#utility.yul\":18437:18446   */\n      dup2\n        /* \"#utility.yul\":18431:18435   */\n      dup2\n        /* \"#utility.yul\":18427:18447   */\n      sub\n        /* \"#utility.yul\":18423:18424   */\n      0x00\n        /* \"#utility.yul\":18412:18421   */\n      dup4\n        /* \"#utility.yul\":18408:18425   */\n      add\n        /* \"#utility.yul\":18401:18448   */\n      mstore\n        /* \"#utility.yul\":18465:18596   */\n      tag_511\n        /* \"#utility.yul\":18591:18595   */\n      dup2\n        /* \"#utility.yul\":18465:18596   */\n      tag_322\n      jump\t// in\n    tag_511:\n        /* \"#utility.yul\":18457:18596   */\n      swap1\n      pop\n        /* \"#utility.yul\":18184:18603   */\n      swap2\n      swap1\n      pop\n      jump\t// out\n        /* \"#utility.yul\":18609:18836   */\n    tag_323:\n        /* \"#utility.yul\":18749:18783   */\n      0x56656e646f722068617320696e73756666696369656e742066756e647320666f\n        /* \"#utility.yul\":18745:18746   */\n      0x00\n        /* \"#utility.yul\":18737:18743   */\n      dup3\n        /* \"#utility.yul\":18733:18747   */\n      add\n        /* \"#utility.yul\":18726:18784   */\n      mstore\n        /* \"#utility.yul\":18818:18828   */\n      0x7220726566756e64000000000000000000000000000000000000000000000000\n        /* \"#utility.yul\":18813:18815   */\n      0x20\n        /* \"#utility.yul\":18805:18811   */\n      dup3\n        /* \"#utility.yul\":18801:18816   */\n      add\n        /* \"#utility.yul\":18794:18829   */\n      mstore\n        /* \"#utility.yul\":18609:18836   */\n      pop\n      jump\t// out\n        /* \"#utility.yul\":18842:19208   */\n    tag_324:\n        /* \"#utility.yul\":18984:18987   */\n      0x00\n        /* \"#utility.yul\":19005:19072   */\n      tag_514\n        /* \"#utility.yul\":19069:19071   */\n      0x28\n        /* \"#utility.yul\":19064:19067   */\n      dup4\n        /* \"#utility.yul\":19005:19072   */\n      tag_279\n      jump\t// in\n    tag_514:\n        /* \"#utility.yul\":18998:19072   */\n      swap2\n      pop\n        /* \"#utility.yul\":19081:19174   */\n      tag_515\n        /* \"#utility.yul\":19170:19173   */\n      dup3\n        /* \"#utility.yul\":19081:19174   */\n      tag_323\n      jump\t// in\n    tag_515:\n        /* \"#utility.yul\":19199:19201   */\n      0x40\n        /* \"#utility.yul\":19194:19197   */\n      dup3\n        /* \"#utility.yul\":19190:19202   */\n      add\n        /* \"#utility.yul\":19183:19202   */\n      swap1\n      pop\n        /* \"#utility.yul\":18842:19208   */\n      swap2\n      swap1\n      pop\n      jump\t// out\n        /* \"#utility.yul\":19214:19633   */\n    tag_208:\n        /* \"#utility.yul\":19380:19384   */\n      0x00\n        /* \"#utility.yul\":19418:19420   */\n      0x20\n        /* \"#utility.yul\":19407:19416   */\n      dup3\n        /* \"#utility.yul\":19403:19421   */\n      add\n        /* \"#utility.yul\":19395:19421   */\n      swap1\n      pop\n        /* \"#utility.yul\":19467:19476   */\n      dup2\n        /* \"#utility.yul\":19461:19465   */\n      dup2\n        /* \"#utility.yul\":19457:19477   */\n      sub\n        /* \"#utility.yul\":19453:19454   */\n      0x00\n        /* \"#utility.yul\":19442:19451   */\n      dup4\n        /* \"#utility.yul\":19438:19455   */\n      add\n        /* \"#utility.yul\":19431:19478   */\n      mstore\n        /* \"#utility.yul\":19495:19626   */\n      tag_517\n        /* \"#utility.yul\":19621:19625   */\n      dup2\n        /* \"#utility.yul\":19495:19626   */\n      tag_324\n      jump\t// in\n    tag_517:\n        /* \"#utility.yul\":19487:19626   */\n      swap1\n      pop\n        /* \"#utility.yul\":19214:19633   */\n      swap2\n      swap1\n      pop\n      jump\t// out\n        /* \"#utility.yul\":19639:19786   */\n    tag_325:\n        /* \"#utility.yul\":19740:19751   */\n      0x00\n        /* \"#utility.yul\":19777:19780   */\n      dup2\n        /* \"#utility.yul\":19762:19780   */\n      swap1\n      pop\n        /* \"#utility.yul\":19639:19786   */\n      swap3\n      swap2\n      pop\n      pop\n      jump\t// out\n        /* \"#utility.yul\":19792:19906   */\n    tag_326:\n      pop\n      jump\t// out\n        /* \"#utility.yul\":19912:20310   */\n    tag_327:\n        /* \"#utility.yul\":20071:20074   */\n      0x00\n        /* \"#utility.yul\":20092:20175   */\n      tag_521\n        /* \"#utility.yul\":20173:20174   */\n      0x00\n        /* \"#utility.yul\":20168:20171   */\n      dup4\n        /* \"#utility.yul\":20092:20175   */\n      tag_325\n      jump\t// in\n    tag_521:\n        /* \"#utility.yul\":20085:20175   */\n      swap2\n      pop\n        /* \"#utility.yul\":20184:20277   */\n      tag_522\n        /* \"#utility.yul\":20273:20276   */\n      dup3\n        /* \"#utility.yul\":20184:20277   */\n      tag_326\n      jump\t// in\n    tag_522:\n        /* \"#utility.yul\":20302:20303   */\n      0x00\n        /* \"#utility.yul\":20297:20300   */\n      dup3\n        /* \"#utility.yul\":20293:20304   */\n      add\n        /* \"#utility.yul\":20286:20304   */\n      swap1\n      pop\n        /* \"#utility.yul\":19912:20310   */\n      swap2\n      swap1\n      pop\n      jump\t// out\n        /* \"#utility.yul\":20316:20695   */\n    tag_213:\n        /* \"#utility.yul\":20500:20503   */\n      0x00\n        /* \"#utility.yul\":20522:20669   */\n      tag_524\n        /* \"#utility.yul\":20665:20668   */\n      dup3\n        /* \"#utility.yul\":20522:20669   */\n      tag_327\n      jump\t// in\n    tag_524:\n        /* \"#utility.yul\":20515:20669   */\n      swap2\n      pop\n        /* \"#utility.yul\":20686:20689   */\n      dup2\n        /* \"#utility.yul\":20679:20689   */\n      swap1\n      pop\n        /* \"#utility.yul\":20316:20695   */\n      swap2\n      swap1\n      pop\n      jump\t// out\n        /* \"#utility.yul\":20701:20864   */\n    tag_328:\n        /* \"#utility.yul\":20841:20856   */\n      0x526566756e64206661696c656400000000000000000000000000000000000000\n        /* \"#utility.yul\":20837:20838   */\n      0x00\n        /* \"#utility.yul\":20829:20835   */\n      dup3\n        /* \"#utility.yul\":20825:20839   */\n      add\n        /* \"#utility.yul\":20818:20857   */\n      mstore\n        /* \"#utility.yul\":20701:20864   */\n      pop\n      jump\t// out\n        /* \"#utility.yul\":20870:21236   */\n    tag_329:\n        /* \"#utility.yul\":21012:21015   */\n      0x00\n        /* \"#utility.yul\":21033:21100   */\n      tag_527\n        /* \"#utility.yul\":21097:21099   */\n      0x0d\n        /* \"#utility.yul\":21092:21095   */\n      dup4\n        /* \"#utility.yul\":21033:21100   */\n      tag_279\n      jump\t// in\n    tag_527:\n        /* \"#utility.yul\":21026:21100   */\n      swap2\n      pop\n        /* \"#utility.yul\":21109:21202   */\n      tag_528\n        /* \"#utility.yul\":21198:21201   */\n      dup3\n        /* \"#utility.yul\":21109:21202   */\n      tag_328\n      jump\t// in\n    tag_528:\n        /* \"#utility.yul\":21227:21229   */\n      0x20\n        /* \"#utility.yul\":21222:21225   */\n      dup3\n        /* \"#utility.yul\":21218:21230   */\n      add\n        /* \"#utility.yul\":21211:21230   */\n      swap1\n      pop\n        /* \"#utility.yul\":20870:21236   */\n      swap2\n      swap1\n      pop\n      jump\t// out\n        /* \"#utility.yul\":21242:21661   */\n    tag_219:\n        /* \"#utility.yul\":21408:21412   */\n      0x00\n        /* \"#utility.yul\":21446:21448   */\n      0x20\n        /* \"#utility.yul\":21435:21444   */\n      dup3\n        /* \"#utility.yul\":21431:21449   */\n      add\n        /* \"#utility.yul\":21423:21449   */\n      swap1\n      pop\n        /* \"#utility.yul\":21495:21504   */\n      dup2\n        /* \"#utility.yul\":21489:21493   */\n      dup2\n        /* \"#utility.yul\":21485:21505   */\n      sub\n        /* \"#utility.yul\":21481:21482   */\n      0x00\n        /* \"#utility.yul\":21470:21479   */\n      dup4\n        /* \"#utility.yul\":21466:21483   */\n      add\n        /* \"#utility.yul\":21459:21506   */\n      mstore\n        /* \"#utility.yul\":21523:21654   */\n      tag_530\n        /* \"#utility.yul\":21649:21653   */\n      dup2\n        /* \"#utility.yul\":21523:21654   */\n      tag_329\n      jump\t// in\n    tag_530:\n        /* \"#utility.yul\":21515:21654   */\n      swap1\n      pop\n        /* \"#utility.yul\":21242:21661   */\n      swap2\n      swap1\n      pop\n      jump\t// out\n        /* \"#utility.yul\":21667:21846   */\n    tag_330:\n        /* \"#utility.yul\":21807:21838   */\n      0x56656e646f722063616e6e6f74206265207a65726f2061646472657373000000\n        /* \"#utility.yul\":21803:21804   */\n      0x00\n        /* \"#utility.yul\":21795:21801   */\n      dup3\n        /* \"#utility.yul\":21791:21805   */\n      add\n        /* \"#utility.yul\":21784:21839   */\n      mstore\n        /* \"#utility.yul\":21667:21846   */\n      pop\n      jump\t// out\n        /* \"#utility.yul\":21852:22218   */\n    tag_331:\n        /* \"#utility.yul\":21994:21997   */\n      0x00\n        /* \"#utility.yul\":22015:22082   */\n      tag_533\n        /* \"#utility.yul\":22079:22081   */\n      0x1d\n        /* \"#utility.yul\":22074:22077   */\n      dup4\n        /* \"#utility.yul\":22015:22082   */\n      tag_279\n      jump\t// in\n    tag_533:\n        /* \"#utility.yul\":22008:22082   */\n      swap2\n      pop\n        /* \"#utility.yul\":22091:22184   */\n      tag_534\n        /* \"#utility.yul\":22180:22183   */\n      dup3\n        /* \"#utility.yul\":22091:22184   */\n      tag_330\n      jump\t// in\n    tag_534:\n        /* \"#utility.yul\":22209:22211   */\n      0x20\n        /* \"#utility.yul\":22204:22207   */\n      dup3\n        /* \"#utility.yul\":22200:22212   */\n      add\n        /* \"#utility.yul\":22193:22212   */\n      swap1\n      pop\n        /* \"#utility.yul\":21852:22218   */\n      swap2\n      swap1\n      pop\n      jump\t// out\n        /* \"#utility.yul\":22224:22643   */\n    tag_233:\n        /* \"#utility.yul\":22390:22394   */\n      0x00\n        /* \"#utility.yul\":22428:22430   */\n      0x20\n        /* \"#utility.yul\":22417:22426   */\n      dup3\n        /* \"#utility.yul\":22413:22431   */\n      add\n        /* \"#utility.yul\":22405:22431   */\n      swap1\n      pop\n        /* \"#utility.yul\":22477:22486   */\n      dup2\n        /* \"#utility.yul\":22471:22475   */\n      dup2\n        /* \"#utility.yul\":22467:22487   */\n      sub\n        /* \"#utility.yul\":22463:22464   */\n      0x00\n        /* \"#utility.yul\":22452:22461   */\n      dup4\n        /* \"#utility.yul\":22448:22465   */\n      add\n        /* \"#utility.yul\":22441:22488   */\n      mstore\n        /* \"#utility.yul\":22505:22636   */\n      tag_536\n        /* \"#utility.yul\":22631:22635   */\n      dup2\n        /* \"#utility.yul\":22505:22636   */\n      tag_331\n      jump\t// in\n    tag_536:\n        /* \"#utility.yul\":22497:22636   */\n      swap1\n      pop\n        /* \"#utility.yul\":22224:22643   */\n      swap2\n      swap1\n      pop\n      jump\t// out\n        /* \"#utility.yul\":22649:22981   */\n    tag_235:\n        /* \"#utility.yul\":22770:22774   */\n      0x00\n        /* \"#utility.yul\":22808:22810   */\n      0x40\n        /* \"#utility.yul\":22797:22806   */\n      dup3\n        /* \"#utility.yul\":22793:22811   */\n      add\n        /* \"#utility.yul\":22785:22811   */\n      swap1\n      pop\n        /* \"#utility.yul\":22821:22892   */\n      tag_538\n        /* \"#utility.yul\":22889:22890   */\n      0x00\n        /* \"#utility.yul\":22878:22887   */\n      dup4\n        /* \"#utility.yul\":22874:22891   */\n      add\n        /* \"#utility.yul\":22865:22871   */\n      dup6\n        /* \"#utility.yul\":22821:22892   */\n      tag_296\n      jump\t// in\n    tag_538:\n        /* \"#utility.yul\":22902:22974   */\n      tag_539\n        /* \"#utility.yul\":22970:22972   */\n      0x20\n        /* \"#utility.yul\":22959:22968   */\n      dup4\n        /* \"#utility.yul\":22955:22973   */\n      add\n        /* \"#utility.yul\":22946:22952   */\n      dup5\n        /* \"#utility.yul\":22902:22974   */\n      tag_296\n      jump\t// in\n    tag_539:\n        /* \"#utility.yul\":22649:22981   */\n      swap4\n      swap3\n      pop\n      pop\n      pop\n      jump\t// out\n        /* \"#utility.yul\":22987:23166   */\n    tag_332:\n        /* \"#utility.yul\":23127:23158   */\n      0x4e6f7420617574686f72697a65643a204e6f74206120646f6f726d616e000000\n        /* \"#utility.yul\":23123:23124   */\n      0x00\n        /* \"#utility.yul\":23115:23121   */\n      dup3\n        /* \"#utility.yul\":23111:23125   */\n      add\n        /* \"#utility.yul\":23104:23159   */\n      mstore\n        /* \"#utility.yul\":22987:23166   */\n      pop\n      jump\t// out\n        /* \"#utility.yul\":23172:23538   */\n    tag_333:\n        /* \"#utility.yul\":23314:23317   */\n      0x00\n        /* \"#utility.yul\":23335:23402   */\n      tag_542\n        /* \"#utility.yul\":23399:23401   */\n      0x1d\n        /* \"#utility.yul\":23394:23397   */\n      dup4\n        /* \"#utility.yul\":23335:23402   */\n      tag_279\n      jump\t// in\n    tag_542:\n        /* \"#utility.yul\":23328:23402   */\n      swap2\n      pop\n        /* \"#utility.yul\":23411:23504   */\n      tag_543\n        /* \"#utility.yul\":23500:23503   */\n      dup3\n        /* \"#utility.yul\":23411:23504   */\n      tag_332\n      jump\t// in\n    tag_543:\n        /* \"#utility.yul\":23529:23531   */\n      0x20\n        /* \"#utility.yul\":23524:23527   */\n      dup3\n        /* \"#utility.yul\":23520:23532   */\n      add\n        /* \"#utility.yul\":23513:23532   */\n      swap1\n      pop\n        /* \"#utility.yul\":23172:23538   */\n      swap2\n      swap1\n      pop\n      jump\t// out\n        /* \"#utility.yul\":23544:23963   */\n    tag_239:\n        /* \"#utility.yul\":23710:23714   */\n      0x00\n        /* \"#utility.yul\":23748:23750   */\n      0x20\n        /* \"#utility.yul\":23737:23746   */\n      dup3\n        /* \"#utility.yul\":23733:23751   */\n      add\n        /* \"#utility.yul\":23725:23751   */\n      swap1\n      pop\n        /* \"#utility.yul\":23797:23806   */\n      dup2\n        /* \"#utility.yul\":23791:23795   */\n      dup2\n        /* \"#utility.yul\":23787:23807   */\n      sub\n        /* \"#utility.yul\":23783:23784   */\n      0x00\n        /* \"#utility.yul\":23772:23781   */\n      dup4\n        /* \"#utility.yul\":23768:23785   */\n      add\n        /* \"#utility.yul\":23761:23808   */\n      mstore\n        /* \"#utility.yul\":23825:23956   */\n      tag_545\n        /* \"#utility.yul\":23951:23955   */\n      dup2\n        /* \"#utility.yul\":23825:23956   */\n      tag_333\n      jump\t// in\n    tag_545:\n        /* \"#utility.yul\":23817:23956   */\n      swap1\n      pop\n        /* \"#utility.yul\":23544:23963   */\n      swap2\n      swap1\n      pop\n      jump\t// out\n        /* \"#utility.yul\":23969:24148   */\n    tag_334:\n        /* \"#utility.yul\":24109:24140   */\n      0x43616e6e6f74206275726e2066726f6d207a65726f2061646472657373000000\n        /* \"#utility.yul\":24105:24106   */\n      0x00\n        /* \"#utility.yul\":24097:24103   */\n      dup3\n        /* \"#utility.yul\":24093:24107   */\n      add\n        /* \"#utility.yul\":24086:24141   */\n      mstore\n        /* \"#utility.yul\":23969:24148   */\n      pop\n      jump\t// out\n        /* \"#utility.yul\":24154:24520   */\n    tag_335:\n        /* \"#utility.yul\":24296:24299   */\n      0x00\n        /* \"#utility.yul\":24317:24384   */\n      tag_548\n        /* \"#utility.yul\":24381:24383   */\n      0x1d\n        /* \"#utility.yul\":24376:24379   */\n      dup4\n        /* \"#utility.yul\":24317:24384   */\n      tag_279\n      jump\t// in\n    tag_548:\n        /* \"#utility.yul\":24310:24384   */\n      swap2\n      pop\n        /* \"#utility.yul\":24393:24486   */\n      tag_549\n        /* \"#utility.yul\":24482:24485   */\n      dup3\n        /* \"#utility.yul\":24393:24486   */\n      tag_334\n      jump\t// in\n    tag_549:\n        /* \"#utility.yul\":24511:24513   */\n      0x20\n        /* \"#utility.yul\":24506:24509   */\n      dup3\n        /* \"#utility.yul\":24502:24514   */\n      add\n        /* \"#utility.yul\":24495:24514   */\n      swap1\n      pop\n        /* \"#utility.yul\":24154:24520   */\n      swap2\n      swap1\n      pop\n      jump\t// out\n        /* \"#utility.yul\":24526:24945   */\n    tag_243:\n        /* \"#utility.yul\":24692:24696   */\n      0x00\n        /* \"#utility.yul\":24730:24732   */\n      0x20\n        /* \"#utility.yul\":24719:24728   */\n      dup3\n        /* \"#utility.yul\":24715:24733   */\n      add\n        /* \"#utility.yul\":24707:24733   */\n      swap1\n      pop\n        /* \"#utility.yul\":24779:24788   */\n      dup2\n        /* \"#utility.yul\":24773:24777   */\n      dup2\n        /* \"#utility.yul\":24769:24789   */\n      sub\n        /* \"#utility.yul\":24765:24766   */\n      0x00\n        /* \"#utility.yul\":24754:24763   */\n      dup4\n        /* \"#utility.yul\":24750:24767   */\n      add\n        /* \"#utility.yul\":24743:24790   */\n      mstore\n        /* \"#utility.yul\":24807:24938   */\n      tag_551\n        /* \"#utility.yul\":24933:24937   */\n      dup2\n        /* \"#utility.yul\":24807:24938   */\n      tag_335\n      jump\t// in\n    tag_551:\n        /* \"#utility.yul\":24799:24938   */\n      swap1\n      pop\n        /* \"#utility.yul\":24526:24945   */\n      swap2\n      swap1\n      pop\n      jump\t// out\n        /* \"#utility.yul\":24951:25129   */\n    tag_336:\n        /* \"#utility.yul\":25091:25121   */\n      0x496e73756666696369656e742062616c616e636520746f206275726e00000000\n        /* \"#utility.yul\":25087:25088   */\n      0x00\n        /* \"#utility.yul\":25079:25085   */\n      dup3\n        /* \"#utility.yul\":25075:25089   */\n      add\n        /* \"#utility.yul\":25068:25122   */\n      mstore\n        /* \"#utility.yul\":24951:25129   */\n      pop\n      jump\t// out\n        /* \"#utility.yul\":25135:25501   */\n    tag_337:\n        /* \"#utility.yul\":25277:25280   */\n      0x00\n        /* \"#utility.yul\":25298:25365   */\n      tag_554\n        /* \"#utility.yul\":25362:25364   */\n      0x1c\n        /* \"#utility.yul\":25357:25360   */\n      dup4\n        /* \"#utility.yul\":25298:25365   */\n      tag_279\n      jump\t// in\n    tag_554:\n        /* \"#utility.yul\":25291:25365   */\n      swap2\n      pop\n        /* \"#utility.yul\":25374:25467   */\n      tag_555\n        /* \"#utility.yul\":25463:25466   */\n      dup3\n        /* \"#utility.yul\":25374:25467   */\n      tag_336\n      jump\t// in\n    tag_555:\n        /* \"#utility.yul\":25492:25494   */\n      0x20\n        /* \"#utility.yul\":25487:25490   */\n      dup3\n        /* \"#utility.yul\":25483:25495   */\n      add\n        /* \"#utility.yul\":25476:25495   */\n      swap1\n      pop\n        /* \"#utility.yul\":25135:25501   */\n      swap2\n      swap1\n      pop\n      jump\t// out\n        /* \"#utility.yul\":25507:25926   */\n    tag_246:\n        /* \"#utility.yul\":25673:25677   */\n      0x00\n        /* \"#utility.yul\":25711:25713   */\n      0x20\n        /* \"#utility.yul\":25700:25709   */\n      dup3\n        /* \"#utility.yul\":25696:25714   */\n      add\n        /* \"#utility.yul\":25688:25714   */\n      swap1\n      pop\n        /* \"#utility.yul\":25760:25769   */\n      dup2\n        /* \"#utility.yul\":25754:25758   */\n      dup2\n        /* \"#utility.yul\":25750:25770   */\n      sub\n        /* \"#utility.yul\":25746:25747   */\n      0x00\n        /* \"#utility.yul\":25735:25744   */\n      dup4\n        /* \"#utility.yul\":25731:25748   */\n      add\n        /* \"#utility.yul\":25724:25771   */\n      mstore\n        /* \"#utility.yul\":25788:25919   */\n      tag_557\n        /* \"#utility.yul\":25914:25918   */\n      dup2\n        /* \"#utility.yul\":25788:25919   */\n      tag_337\n      jump\t// in\n    tag_557:\n        /* \"#utility.yul\":25780:25919   */\n      swap1\n      pop\n        /* \"#utility.yul\":25507:25926   */\n      swap2\n      swap1\n      pop\n      jump\t// out\n        /* \"#utility.yul\":25932:26092   */\n    tag_338:\n        /* \"#utility.yul\":26072:26084   */\n      0x4e6f742076656e646f7200000000000000000000000000000000000000000000\n        /* \"#utility.yul\":26068:26069   */\n      0x00\n        /* \"#utility.yul\":26060:26066   */\n      dup3\n        /* \"#utility.yul\":26056:26070   */\n      add\n        /* \"#utility.yul\":26049:26085   */\n      mstore\n        /* \"#utility.yul\":25932:26092   */\n      pop\n      jump\t// out\n        /* \"#utility.yul\":26098:26464   */\n    tag_339:\n        /* \"#utility.yul\":26240:26243   */\n      0x00\n        /* \"#utility.yul\":26261:26328   */\n      tag_560\n        /* \"#utility.yul\":26325:26327   */\n      0x0a\n        /* \"#utility.yul\":26320:26323   */\n      dup4\n        /* \"#utility.yul\":26261:26328   */\n      tag_279\n      jump\t// in\n    tag_560:\n        /* \"#utility.yul\":26254:26328   */\n      swap2\n      pop\n        /* \"#utility.yul\":26337:26430   */\n      tag_561\n        /* \"#utility.yul\":26426:26429   */\n      dup3\n        /* \"#utility.yul\":26337:26430   */\n      tag_338\n      jump\t// in\n    tag_561:\n        /* \"#utility.yul\":26455:26457   */\n      0x20\n        /* \"#utility.yul\":26450:26453   */\n      dup3\n        /* \"#utility.yul\":26446:26458   */\n      add\n        /* \"#utility.yul\":26439:26458   */\n      swap1\n      pop\n        /* \"#utility.yul\":26098:26464   */\n      swap2\n      swap1\n      pop\n      jump\t// out\n        /* \"#utility.yul\":26470:26889   */\n    tag_255:\n        /* \"#utility.yul\":26636:26640   */\n      0x00\n        /* \"#utility.yul\":26674:26676   */\n      0x20\n        /* \"#utility.yul\":26663:26672   */\n      dup3\n        /* \"#utility.yul\":26659:26677   */\n      add\n        /* \"#utility.yul\":26651:26677   */\n      swap1\n      pop\n        /* \"#utility.yul\":26723:26732   */\n      dup2\n        /* \"#utility.yul\":26717:26721   */\n      dup2\n        /* \"#utility.yul\":26713:26733   */\n      sub\n        /* \"#utility.yul\":26709:26710   */\n      0x00\n        /* \"#utility.yul\":26698:26707   */\n      dup4\n        /* \"#utility.yul\":26694:26711   */\n      add\n        /* \"#utility.yul\":26687:26734   */\n      mstore\n        /* \"#utility.yul\":26751:26882   */\n      tag_563\n        /* \"#utility.yul\":26877:26881   */\n      dup2\n        /* \"#utility.yul\":26751:26882   */\n      tag_339\n      jump\t// in\n    tag_563:\n        /* \"#utility.yul\":26743:26882   */\n      swap1\n      pop\n        /* \"#utility.yul\":26470:26889   */\n      swap2\n      swap1\n      pop\n      jump\t// out\n        /* \"#utility.yul\":26895:27065   */\n    tag_340:\n        /* \"#utility.yul\":27035:27057   */\n      0x4e6f2066756e647320746f207769746864726177000000000000000000000000\n        /* \"#utility.yul\":27031:27032   */\n      0x00\n        /* \"#utility.yul\":27023:27029   */\n      dup3\n        /* \"#utility.yul\":27019:27033   */\n      add\n        /* \"#utility.yul\":27012:27058   */\n      mstore\n        /* \"#utility.yul\":26895:27065   */\n      pop\n      jump\t// out\n        /* \"#utility.yul\":27071:27437   */\n    tag_341:\n        /* \"#utility.yul\":27213:27216   */\n      0x00\n        /* \"#utility.yul\":27234:27301   */\n      tag_566\n        /* \"#utility.yul\":27298:27300   */\n      0x14\n        /* \"#utility.yul\":27293:27296   */\n      dup4\n        /* \"#utility.yul\":27234:27301   */\n      tag_279\n      jump\t// in\n    tag_566:\n        /* \"#utility.yul\":27227:27301   */\n      swap2\n      pop\n        /* \"#utility.yul\":27310:27403   */\n      tag_567\n        /* \"#utility.yul\":27399:27402   */\n      dup3\n        /* \"#utility.yul\":27310:27403   */\n      tag_340\n      jump\t// in\n    tag_567:\n        /* \"#utility.yul\":27428:27430   */\n      0x20\n        /* \"#utility.yul\":27423:27426   */\n      dup3\n        /* \"#utility.yul\":27419:27431   */\n      add\n        /* \"#utility.yul\":27412:27431   */\n      swap1\n      pop\n        /* \"#utility.yul\":27071:27437   */\n      swap2\n      swap1\n      pop\n      jump\t// out\n        /* \"#utility.yul\":27443:27862   */\n    tag_262:\n        /* \"#utility.yul\":27609:27613   */\n      0x00\n        /* \"#utility.yul\":27647:27649   */\n      0x20\n        /* \"#utility.yul\":27636:27645   */\n      dup3\n        /* \"#utility.yul\":27632:27650   */\n      add\n        /* \"#utility.yul\":27624:27650   */\n      swap1\n      pop\n        /* \"#utility.yul\":27696:27705   */\n      dup2\n        /* \"#utility.yul\":27690:27694   */\n      dup2\n        /* \"#utility.yul\":27686:27706   */\n      sub\n        /* \"#utility.yul\":27682:27683   */\n      0x00\n        /* \"#utility.yul\":27671:27680   */\n      dup4\n        /* \"#utility.yul\":27667:27684   */\n      add\n        /* \"#utility.yul\":27660:27707   */\n      mstore\n        /* \"#utility.yul\":27724:27855   */\n      tag_569\n        /* \"#utility.yul\":27850:27854   */\n      dup2\n        /* \"#utility.yul\":27724:27855   */\n      tag_341\n      jump\t// in\n    tag_569:\n        /* \"#utility.yul\":27716:27855   */\n      swap1\n      pop\n        /* \"#utility.yul\":27443:27862   */\n      swap2\n      swap1\n      pop\n      jump\t// out\n        /* \"#utility.yul\":27868:28035   */\n    tag_342:\n        /* \"#utility.yul\":28008:28027   */\n      0x5769746864726177616c206661696c6564000000000000000000000000000000\n        /* \"#utility.yul\":28004:28005   */\n      0x00\n        /* \"#utility.yul\":27996:28002   */\n      dup3\n        /* \"#utility.yul\":27992:28006   */\n      add\n        /* \"#utility.yul\":27985:28028   */\n      mstore\n        /* \"#utility.yul\":27868:28035   */\n      pop\n      jump\t// out\n        /* \"#utility.yul\":28041:28407   */\n    tag_343:\n        /* \"#utility.yul\":28183:28186   */\n      0x00\n        /* \"#utility.yul\":28204:28271   */\n      tag_572\n        /* \"#utility.yul\":28268:28270   */\n      0x11\n        /* \"#utility.yul\":28263:28266   */\n      dup4\n        /* \"#utility.yul\":28204:28271   */\n      tag_279\n      jump\t// in\n    tag_572:\n        /* \"#utility.yul\":28197:28271   */\n      swap2\n      pop\n        /* \"#utility.yul\":28280:28373   */\n      tag_573\n        /* \"#utility.yul\":28369:28372   */\n      dup3\n        /* \"#utility.yul\":28280:28373   */\n      tag_342\n      jump\t// in\n    tag_573:\n        /* \"#utility.yul\":28398:28400   */\n      0x20\n        /* \"#utility.yul\":28393:28396   */\n      dup3\n        /* \"#utility.yul\":28389:28401   */\n      add\n        /* \"#utility.yul\":28382:28401   */\n      swap1\n      pop\n        /* \"#utility.yul\":28041:28407   */\n      swap2\n      swap1\n      pop\n      jump\t// out\n        /* \"#utility.yul\":28413:28832   */\n    tag_269:\n        /* \"#utility.yul\":28579:28583   */\n      0x00\n        /* \"#utility.yul\":28617:28619   */\n      0x20\n        /* \"#utility.yul\":28606:28615   */\n      dup3\n        /* \"#utility.yul\":28602:28620   */\n      add\n        /* \"#utility.yul\":28594:28620   */\n      swap1\n      pop\n        /* \"#utility.yul\":28666:28675   */\n      dup2\n        /* \"#utility.yul\":28660:28664   */\n      dup2\n        /* \"#utility.yul\":28656:28676   */\n      sub\n        /* \"#utility.yul\":28652:28653   */\n      0x00\n        /* \"#utility.yul\":28641:28650   */\n      dup4\n        /* \"#utility.yul\":28637:28654   */\n      add\n        /* \"#utility.yul\":28630:28677   */\n      mstore\n        /* \"#utility.yul\":28694:28825   */\n      tag_575\n        /* \"#utility.yul\":28820:28824   */\n      dup2\n        /* \"#utility.yul\":28694:28825   */\n      tag_343\n      jump\t// in\n    tag_575:\n        /* \"#utility.yul\":28686:28825   */\n      swap1\n      pop\n        /* \"#utility.yul\":28413:28832   */\n      swap2\n      swap1\n      pop\n      jump\t// out\n        /* \"#utility.yul\":28838:29003   */\n    tag_344:\n        /* \"#utility.yul\":28978:28995   */\n      0x496e76616c696420616464726573730000000000000000000000000000000000\n        /* \"#utility.yul\":28974:28975   */\n      0x00\n        /* \"#utility.yul\":28966:28972   */\n      dup3\n        /* \"#utility.yul\":28962:28976   */\n      add\n        /* \"#utility.yul\":28955:28996   */\n      mstore\n        /* \"#utility.yul\":28838:29003   */\n      pop\n      jump\t// out\n        /* \"#utility.yul\":29009:29375   */\n    tag_345:\n        /* \"#utility.yul\":29151:29154   */\n      0x00\n        /* \"#utility.yul\":29172:29239   */\n      tag_578\n        /* \"#utility.yul\":29236:29238   */\n      0x0f\n        /* \"#utility.yul\":29231:29234   */\n      dup4\n        /* \"#utility.yul\":29172:29239   */\n      tag_279\n      jump\t// in\n    tag_578:\n        /* \"#utility.yul\":29165:29239   */\n      swap2\n      pop\n        /* \"#utility.yul\":29248:29341   */\n      tag_579\n        /* \"#utility.yul\":29337:29340   */\n      dup3\n        /* \"#utility.yul\":29248:29341   */\n      tag_344\n      jump\t// in\n    tag_579:\n        /* \"#utility.yul\":29366:29368   */\n      0x20\n        /* \"#utility.yul\":29361:29364   */\n      dup3\n        /* \"#utility.yul\":29357:29369   */\n      add\n        /* \"#utility.yul\":29350:29369   */\n      swap1\n      pop\n        /* \"#utility.yul\":29009:29375   */\n      swap2\n      swap1\n      pop\n      jump\t// out\n        /* \"#utility.yul\":29381:29800   */\n    tag_276:\n        /* \"#utility.yul\":29547:29551   */\n      0x00\n        /* \"#utility.yul\":29585:29587   */\n      0x20\n        /* \"#utility.yul\":29574:29583   */\n      dup3\n        /* \"#utility.yul\":29570:29588   */\n      add\n        /* \"#utility.yul\":29562:29588   */\n      swap1\n      pop\n        /* \"#utility.yul\":29634:29643   */\n      dup2\n        /* \"#utility.yul\":29628:29632   */\n      dup2\n        /* \"#utility.yul\":29624:29644   */\n      sub\n        /* \"#utility.yul\":29620:29621   */\n      0x00\n        /* \"#utility.yul\":29609:29618   */\n      dup4\n        /* \"#utility.yul\":29605:29622   */\n      add\n        /* \"#utility.yul\":29598:29645   */\n      mstore\n        /* \"#utility.yul\":29662:29793   */\n      tag_581\n        /* \"#utility.yul\":29788:29792   */\n      dup2\n        /* \"#utility.yul\":29662:29793   */\n      tag_345\n      jump\t// in\n    tag_581:\n        /* \"#utility.yul\":29654:29793   */\n      swap1\n      pop\n        /* \"#utility.yul\":29381:29800   */\n      swap2\n      swap1\n      pop\n      jump\t// out\n\n    auxdata: 0xa2646970667358221220527912b7e316cb589583e1f3aca80ac2e22576b7f6ff1d2275e59911901d215064736f6c634300081a0033\n}\n",
				"bytecode": {
					"linkReferences": {},
					"object": "608060405234801561000f575f80fd5b506040516137fc3803806137fc83398181016040528101906100319190610496565b5f73ffffffffffffffffffffffffffffffffffffffff168173ffffffffffffffffffffffffffffffffffffffff160361009f576040517f08c379a0000000000000000000000000000000000000000000000000000000008152600401610096906105b1565b60405180910390fd5b3360055f6101000a81548173ffffffffffffffffffffffffffffffffffffffff021916908373ffffffffffffffffffffffffffffffffffffffff1602179055508060065f6101000a81548173ffffffffffffffffffffffffffffffffffffffff021916908373ffffffffffffffffffffffffffffffffffffffff160217905550855f908161012d91906107d3565b50846001908161013d91906107d3565b508360035f6101000a81548160ff021916908360ff1602179055508160028190555060035f9054906101000a900460ff1660ff16600a61017d91906109fe565b836101889190610a48565b60048190555060045460075f60065f9054906101000a900473ffffffffffffffffffffffffffffffffffffffff1673ffffffffffffffffffffffffffffffffffffffff1673ffffffffffffffffffffffffffffffffffffffff1681526020019081526020015f208190555060065f9054906101000a900473ffffffffffffffffffffffffffffffffffffffff1673ffffffffffffffffffffffffffffffffffffffff165f73ffffffffffffffffffffffffffffffffffffffff167fddf252ad1be2c89b69c2b068fc378daa952ba7f163c4a11628f55a4df523b3ef6004546040516102739190610a98565b60405180910390a3505050505050610ab1565b5f604051905090565b5f80fd5b5f80fd5b5f80fd5b5f80fd5b5f601f19601f8301169050919050565b7f4e487b71000000000000000000000000000000000000000000000000000000005f52604160045260245ffd5b6102e58261029f565b810181811067ffffffffffffffff82111715610304576103036102af565b5b80604052505050565b5f610316610286565b905061032282826102dc565b919050565b5f67ffffffffffffffff821115610341576103406102af565b5b61034a8261029f565b9050602081019050919050565b8281835e5f83830152505050565b5f61037761037284610327565b61030d565b9050828152602081018484840111156103935761039261029b565b5b61039e848285610357565b509392505050565b5f82601f8301126103ba576103b9610297565b5b81516103ca848260208601610365565b91505092915050565b5f60ff82169050919050565b6103e8816103d3565b81146103f2575f80fd5b50565b5f81519050610403816103df565b92915050565b5f819050919050565b61041b81610409565b8114610425575f80fd5b50565b5f8151905061043681610412565b92915050565b5f73ffffffffffffffffffffffffffffffffffffffff82169050919050565b5f6104658261043c565b9050919050565b6104758161045b565b811461047f575f80fd5b50565b5f815190506104908161046c565b92915050565b5f805f805f8060c087890312156104b0576104af61028f565b5b5f87015167ffffffffffffffff8111156104cd576104cc610293565b5b6104d989828a016103a6565b965050602087015167ffffffffffffffff8111156104fa576104f9610293565b5b61050689828a016103a6565b955050604061051789828a016103f5565b945050606061052889828a01610428565b935050608061053989828a01610428565b92505060a061054a89828a01610482565b9150509295509295509295565b5f82825260208201905092915050565b7f56656e646f722063616e6e6f74206265207a65726f20616464726573730000005f82015250565b5f61059b601d83610557565b91506105a682610567565b602082019050919050565b5f6020820190508181035f8301526105c88161058f565b9050919050565b5f81519050919050565b7f4e487b71000000000000000000000000000000000000000000000000000000005f52602260045260245ffd5b5f600282049050600182168061061d57607f821691505b6020821081036106305761062f6105d9565b5b50919050565b5f819050815f5260205f209050919050565b5f6020601f8301049050919050565b5f82821b905092915050565b5f600883026106927fffffffffffffffffffffffffffffffffffffffffffffffffffffffffffffffff82610657565b61069c8683610657565b95508019841693508086168417925050509392505050565b5f819050919050565b5f6106d76106d26106cd84610409565b6106b4565b610409565b9050919050565b5f819050919050565b6106f0836106bd565b6107046106fc826106de565b848454610663565b825550505050565b5f90565b61071861070c565b6107238184846106e7565b505050565b5b818110156107465761073b5f82610710565b600181019050610729565b5050565b601f82111561078b5761075c81610636565b61076584610648565b81016020851015610774578190505b61078861078085610648565b830182610728565b50505b505050565b5f82821c905092915050565b5f6107ab5f1984600802610790565b1980831691505092915050565b5f6107c3838361079c565b9150826002028217905092915050565b6107dc826105cf565b67ffffffffffffffff8111156107f5576107f46102af565b5b6107ff8254610606565b61080a82828561074a565b5f60209050601f83116001811461083b575f8415610829578287015190505b61083385826107b8565b86555061089a565b601f19841661084986610636565b5f5b828110156108705784890151825560018201915060208501945060208101905061084b565b8683101561088d5784890151610889601f89168261079c565b8355505b6001600288020188555050505b505050505050565b7f4e487b71000000000000000000000000000000000000000000000000000000005f52601160045260245ffd5b5f8160011c9050919050565b5f808291508390505b600185111561092457808604811115610900576108ff6108a2565b5b600185161561090f5780820291505b808102905061091d856108cf565b94506108e4565b94509492505050565b5f8261093c57600190506109f7565b81610949575f90506109f7565b816001811461095f576002811461096957610998565b60019150506109f7565b60ff84111561097b5761097a6108a2565b5b8360020a915084821115610992576109916108a2565b5b506109f7565b5060208310610133831016604e8410600b84101617156109cd5782820a9050838111156109c8576109c76108a2565b5b6109f7565b6109da84848460016108db565b925090508184048111156109f1576109f06108a2565b5b81810290505b9392505050565b5f610a0882610409565b9150610a1383610409565b9250610a407fffffffffffffffffffffffffffffffffffffffffffffffffffffffffffffffff848461092d565b905092915050565b5f610a5282610409565b9150610a5d83610409565b9250828202610a6b81610409565b91508282048414831517610a8257610a816108a2565b5b5092915050565b610a9281610409565b82525050565b5f602082019050610aab5f830184610a89565b92915050565b612d3e80610abe5f395ff3fe608060405260043610610143575f3560e01c806367dd74ca116100b55780639dc29fac1161006e5780639dc29fac14610436578063a76f75611461045e578063a9059cbb1461049a578063b73c6ce9146104d6578063c04620ed146104ec578063dd62ed3e146105145761014a565b806367dd74ca1461033a57806370a082311461035657806375774100146103925780638da5cb5b146103ba57806395d89b41146103e457806397d939351461040e5761014a565b806318160ddd1161010757806318160ddd146102305780631920d3291461025a57806323b872dd14610296578063313ce567146102d25780633ccfd60b146102fc57806340c10f19146103125761014a565b806306fdde031461014e578063095ea7b3146101785780631209b1f6146101b45780631385a6f2146101de57806315981650146102085761014a565b3661014a57005b5f80fd5b348015610159575f80fd5b50610162610550565b60405161016f9190611fea565b60405180910390f35b348015610183575f80fd5b5061019e6004803603810190610199919061209b565b6105db565b6040516101ab91906120f3565b60405180910390f35b3480156101bf575f80fd5b506101c86106c8565b6040516101d5919061211b565b60405180910390f35b3480156101e9575f80fd5b506101f26106ce565b6040516101ff9190612143565b60405180910390f35b348015610213575f80fd5b5061022e6004803603810190610229919061215c565b6106f3565b005b34801561023b575f80fd5b5061024461078c565b604051610251919061211b565b60405180910390f35b348015610265575f80fd5b50610280600480360381019061027b9190612187565b610792565b60405161028d91906120f3565b60405180910390f35b3480156102a1575f80fd5b506102bc60048036038101906102b791906121b2565b6107af565b6040516102c991906120f3565b60405180910390f35b3480156102dd575f80fd5b506102e6610a72565b6040516102f3919061221d565b60405180910390f35b348015610307575f80fd5b50610310610a84565b005b34801561031d575f80fd5b506103386004803603810190610333919061209b565b610b7a565b005b610354600480360381019061034f919061215c565b610c60565b005b348015610361575f80fd5b5061037c60048036038101906103779190612187565b611019565b604051610389919061211b565b60405180910390f35b34801561039d575f80fd5b506103b860048036038101906103b3919061215c565b61105f565b005b3480156103c5575f80fd5b506103ce6114fe565b6040516103db9190612143565b60405180910390f35b3480156103ef575f80fd5b506103f8611523565b6040516104059190611fea565b60405180910390f35b348015610419575f80fd5b50610434600480360381019061042f9190612187565b6115af565b005b348015610441575f80fd5b5061045c6004803603810190610457919061209b565b61174e565b005b348015610469575f80fd5b50610484600480360381019061047f9190612187565b611986565b604051610491919061211b565b60405180910390f35b3480156104a5575f80fd5b506104c060048036038101906104bb919061209b565b61199b565b6040516104cd91906120f3565b60405180910390f35b3480156104e1575f80fd5b506104ea611b1e565b005b3480156104f7575f80fd5b50610512600480360381019061050d9190612260565b611da3565b005b34801561051f575f80fd5b5061053a6004803603810190610535919061229e565b611ef8565b604051610547919061211b565b60405180910390f35b5f805461055c90612309565b80601f016020809104026020016040519081016040528092919081815260200182805461058890612309565b80156105d35780601f106105aa576101008083540402835291602001916105d3565b820191905f5260205f20905b8154815290600101906020018083116105b657829003601f168201915b505050505081565b5f8160085f3373ffffffffffffffffffffffffffffffffffffffff1673ffffffffffffffffffffffffffffffffffffffff1681526020019081526020015f205f8573ffffffffffffffffffffffffffffffffffffffff1673ffffffffffffffffffffffffffffffffffffffff1681526020019081526020015f20819055508273ffffffffffffffffffffffffffffffffffffffff163373ffffffffffffffffffffffffffffffffffffffff167f8c5be1e5ebec7d5bd14f71427d1e84f3dd0314c0f7b2291e5b200ac8c7c3b925846040516106b6919061211b565b60405180910390a36001905092915050565b60025481565b60065f9054906101000a900473ffffffffffffffffffffffffffffffffffffffff1681565b60055f9054906101000a900473ffffffffffffffffffffffffffffffffffffffff1673ffffffffffffffffffffffffffffffffffffffff163373ffffffffffffffffffffffffffffffffffffffff1614610782576040517f08c379a000000000000000000000000000000000000000000000000000000000815260040161077990612383565b60405180910390fd5b8060028190555050565b60045481565b6009602052805f5260405f205f915054906101000a900460ff1681565b5f8060075f8673ffffffffffffffffffffffffffffffffffffffff1673ffffffffffffffffffffffffffffffffffffffff1681526020019081526020015f205490505f60085f8773ffffffffffffffffffffffffffffffffffffffff1673ffffffffffffffffffffffffffffffffffffffff1681526020019081526020015f205f3373ffffffffffffffffffffffffffffffffffffffff1673ffffffffffffffffffffffffffffffffffffffff1681526020019081526020015f20549050838210156108b0576040517f08c379a00000000000000000000000000000000000000000000000000000000081526004016108a7906123eb565b60405180910390fd5b838110156108f3576040517f08c379a00000000000000000000000000000000000000000000000000000000081526004016108ea90612453565b60405180910390fd5b83820360075f8873ffffffffffffffffffffffffffffffffffffffff1673ffffffffffffffffffffffffffffffffffffffff1681526020019081526020015f20819055508360075f8773ffffffffffffffffffffffffffffffffffffffff1673ffffffffffffffffffffffffffffffffffffffff1681526020019081526020015f205f828254019250508190555083810360085f8873ffffffffffffffffffffffffffffffffffffffff1673ffffffffffffffffffffffffffffffffffffffff1681526020019081526020015f205f3373ffffffffffffffffffffffffffffffffffffffff1673ffffffffffffffffffffffffffffffffffffffff1681526020019081526020015f20819055508473ffffffffffffffffffffffffffffffffffffffff168673ffffffffffffffffffffffffffffffffffffffff167fddf252ad1be2c89b69c2b068fc378daa952ba7f163c4a11628f55a4df523b3ef86604051610a5d919061211b565b60405180910390a36001925050509392505050565b60035f9054906101000a900460ff1681565b60055f9054906101000a900473ffffffffffffffffffffffffffffffffffffffff1673ffffffffffffffffffffffffffffffffffffffff163373ffffffffffffffffffffffffffffffffffffffff1614610b13576040517f08c379a0000000000000000000000000000000000000000000000000000000008152600401610b0a90612383565b60405180910390fd5b60055f9054906101000a900473ffffffffffffffffffffffffffffffffffffffff1673ffffffffffffffffffffffffffffffffffffffff166108fc4790811502906040515f60405180830381858888f19350505050158015610b77573d5f803e3d5ffd5b50565b60065f9054906101000a900473ffffffffffffffffffffffffffffffffffffffff1673ffffffffffffffffffffffffffffffffffffffff163373ffffffffffffffffffffffffffffffffffffffff1614610c09576040517f08c379a0000000000000000000000000000000000000000000000000000000008152600401610c00906124bb565b60405180910390fd5b8060075f8473ffffffffffffffffffffffffffffffffffffffff1673ffffffffffffffffffffffffffffffffffffffff1681526020019081526020015f205f828254610c559190612506565b925050819055505050565b600660149054906101000a900460ff1615610cb0576040517f08c379a0000000000000000000000000000000000000000000000000000000008152600401610ca790612583565b60405180910390fd5b6001600660146101000a81548160ff0219169083151502179055505f81600254610cda91906125a1565b90505f8211610d1e576040517f08c379a0000000000000000000000000000000000000000000000000000000008152600401610d159061262c565b60405180910390fd5b803414610d60576040517f08c379a0000000000000000000000000000000000000000000000000000000008152600401610d5790612694565b60405180910390fd5b8160075f60065f9054906101000a900473ffffffffffffffffffffffffffffffffffffffff1673ffffffffffffffffffffffffffffffffffffffff1673ffffffffffffffffffffffffffffffffffffffff1681526020019081526020015f20541015610e01576040517f08c379a0000000000000000000000000000000000000000000000000000000008152600401610df8906126fc565b60405180910390fd5b8160075f60065f9054906101000a900473ffffffffffffffffffffffffffffffffffffffff1673ffffffffffffffffffffffffffffffffffffffff1673ffffffffffffffffffffffffffffffffffffffff1681526020019081526020015f205f828254610e6e919061271a565b925050819055508160075f3373ffffffffffffffffffffffffffffffffffffffff1673ffffffffffffffffffffffffffffffffffffffff1681526020019081526020015f205f828254610ec19190612506565b9250508190555034600a5f60065f9054906101000a900473ffffffffffffffffffffffffffffffffffffffff1673ffffffffffffffffffffffffffffffffffffffff1673ffffffffffffffffffffffffffffffffffffffff1681526020019081526020015f205f828254610f359190612506565b925050819055503373ffffffffffffffffffffffffffffffffffffffff1660065f9054906101000a900473ffffffffffffffffffffffffffffffffffffffff1673ffffffffffffffffffffffffffffffffffffffff167fddf252ad1be2c89b69c2b068fc378daa952ba7f163c4a11628f55a4df523b3ef84604051610fba919061211b565b60405180910390a37f0668f5b446eb814fe35b3206f43f14bd8567ba04ddaf7a3ee56516929ab22ccb3383604051610ff392919061274d565b60405180910390a1505f600660146101000a81548160ff02191690831515021790555050565b5f60075f8373ffffffffffffffffffffffffffffffffffffffff1673ffffffffffffffffffffffffffffffffffffffff1681526020019081526020015f20549050919050565b600660149054906101000a900460ff16156110af576040517f08c379a00000000000000000000000000000000000000000000000000000000081526004016110a690612583565b60405180910390fd5b6001600660146101000a81548160ff0219169083151502179055505f811161110c576040517f08c379a0000000000000000000000000000000000000000000000000000000008152600401611103906127be565b60405180910390fd5b5f60075f3373ffffffffffffffffffffffffffffffffffffffff1673ffffffffffffffffffffffffffffffffffffffff1681526020019081526020015f2054905081811015611190576040517f08c379a00000000000000000000000000000000000000000000000000000000081526004016111879061284c565b60405180910390fd5b5f8260025461119f91906125a1565b905080600a5f60065f9054906101000a900473ffffffffffffffffffffffffffffffffffffffff1673ffffffffffffffffffffffffffffffffffffffff1673ffffffffffffffffffffffffffffffffffffffff1681526020019081526020015f20541015611242576040517f08c379a0000000000000000000000000000000000000000000000000000000008152600401611239906128da565b60405180910390fd5b828261124e919061271a565b60075f3373ffffffffffffffffffffffffffffffffffffffff1673ffffffffffffffffffffffffffffffffffffffff1681526020019081526020015f20819055508260075f60065f9054906101000a900473ffffffffffffffffffffffffffffffffffffffff1673ffffffffffffffffffffffffffffffffffffffff1673ffffffffffffffffffffffffffffffffffffffff1681526020019081526020015f205f8282546112fc9190612506565b9250508190555080600a5f60065f9054906101000a900473ffffffffffffffffffffffffffffffffffffffff1673ffffffffffffffffffffffffffffffffffffffff1673ffffffffffffffffffffffffffffffffffffffff1681526020019081526020015f205f828254611370919061271a565b925050819055505f3373ffffffffffffffffffffffffffffffffffffffff168260405161139c90612925565b5f6040518083038185875af1925050503d805f81146113d6576040519150601f19603f3d011682016040523d82523d5f602084013e6113db565b606091505b505090508061141f576040517f08c379a000000000000000000000000000000000000000000000000000000000815260040161141690612983565b60405180910390fd5b60065f9054906101000a900473ffffffffffffffffffffffffffffffffffffffff1673ffffffffffffffffffffffffffffffffffffffff163373ffffffffffffffffffffffffffffffffffffffff167fddf252ad1be2c89b69c2b068fc378daa952ba7f163c4a11628f55a4df523b3ef8660405161149d919061211b565b60405180910390a37fd2888df1f37c007dfb366793b698e4cc1ad930d5790ea0a3e1764d18f366afce33856040516114d692919061274d565b60405180910390a15050505f600660146101000a81548160ff02191690831515021790555050565b60055f9054906101000a900473ffffffffffffffffffffffffffffffffffffffff1681565b6001805461153090612309565b80601f016020809104026020016040519081016040528092919081815260200182805461155c90612309565b80156115a75780601f1061157e576101008083540402835291602001916115a7565b820191905f5260205f20905b81548152906001019060200180831161158a57829003601f168201915b505050505081565b60055f9054906101000a900473ffffffffffffffffffffffffffffffffffffffff1673ffffffffffffffffffffffffffffffffffffffff163373ffffffffffffffffffffffffffffffffffffffff161461163e576040517f08c379a000000000000000000000000000000000000000000000000000000000815260040161163590612383565b60405180910390fd5b5f73ffffffffffffffffffffffffffffffffffffffff168173ffffffffffffffffffffffffffffffffffffffff16036116ac576040517f08c379a00000000000000000000000000000000000000000000000000000000081526004016116a3906129eb565b60405180910390fd5b5f60065f9054906101000a900473ffffffffffffffffffffffffffffffffffffffff1690508160065f6101000a81548173ffffffffffffffffffffffffffffffffffffffff021916908373ffffffffffffffffffffffffffffffffffffffff1602179055507fb53081a400c13f0baf735171b97c9af581c4a047b9895726bb1adff5a874ba4c8183604051611742929190612a09565b60405180910390a15050565b60095f3373ffffffffffffffffffffffffffffffffffffffff1673ffffffffffffffffffffffffffffffffffffffff1681526020019081526020015f205f9054906101000a900460ff166117d7576040517f08c379a00000000000000000000000000000000000000000000000000000000081526004016117ce90612a7a565b60405180910390fd5b5f73ffffffffffffffffffffffffffffffffffffffff168273ffffffffffffffffffffffffffffffffffffffff1603611845576040517f08c379a000000000000000000000000000000000000000000000000000000000815260040161183c90612ae2565b60405180910390fd5b5f60075f8473ffffffffffffffffffffffffffffffffffffffff1673ffffffffffffffffffffffffffffffffffffffff1681526020019081526020015f20549050818110156118c9576040517f08c379a00000000000000000000000000000000000000000000000000000000081526004016118c090612b4a565b60405180910390fd5b81810360075f8573ffffffffffffffffffffffffffffffffffffffff1673ffffffffffffffffffffffffffffffffffffffff1681526020019081526020015f20819055508160045f82825403925050819055505f73ffffffffffffffffffffffffffffffffffffffff168373ffffffffffffffffffffffffffffffffffffffff167fddf252ad1be2c89b69c2b068fc378daa952ba7f163c4a11628f55a4df523b3ef84604051611979919061211b565b60405180910390a3505050565b600a602052805f5260405f205f915090505481565b5f8060075f3373ffffffffffffffffffffffffffffffffffffffff1673ffffffffffffffffffffffffffffffffffffffff1681526020019081526020015f2054905082811015611a20576040517f08c379a0000000000000000000000000000000000000000000000000000000008152600401611a17906123eb565b60405180910390fd5b82810360075f3373ffffffffffffffffffffffffffffffffffffffff1673ffffffffffffffffffffffffffffffffffffffff1681526020019081526020015f20819055508260075f8673ffffffffffffffffffffffffffffffffffffffff1673ffffffffffffffffffffffffffffffffffffffff1681526020019081526020015f205f82825401925050819055508373ffffffffffffffffffffffffffffffffffffffff163373ffffffffffffffffffffffffffffffffffffffff167fddf252ad1be2c89b69c2b068fc378daa952ba7f163c4a11628f55a4df523b3ef85604051611b0b919061211b565b60405180910390a3600191505092915050565b60065f9054906101000a900473ffffffffffffffffffffffffffffffffffffffff1673ffffffffffffffffffffffffffffffffffffffff163373ffffffffffffffffffffffffffffffffffffffff1614611bad576040517f08c379a0000000000000000000000000000000000000000000000000000000008152600401611ba490612bb2565b60405180910390fd5b600660149054906101000a900460ff1615611bfd576040517f08c379a0000000000000000000000000000000000000000000000000000000008152600401611bf490612583565b60405180910390fd5b6001600660146101000a81548160ff0219169083151502179055505f600a5f3373ffffffffffffffffffffffffffffffffffffffff1673ffffffffffffffffffffffffffffffffffffffff1681526020019081526020015f205490505f8111611c9b576040517f08c379a0000000000000000000000000000000000000000000000000000000008152600401611c9290612c1a565b60405180910390fd5b5f600a5f3373ffffffffffffffffffffffffffffffffffffffff1673ffffffffffffffffffffffffffffffffffffffff1681526020019081526020015f20819055505f3373ffffffffffffffffffffffffffffffffffffffff1682604051611d0290612925565b5f6040518083038185875af1925050503d805f8114611d3c576040519150601f19603f3d011682016040523d82523d5f602084013e611d41565b606091505b5050905080611d85576040517f08c379a0000000000000000000000000000000000000000000000000000000008152600401611d7c90612c82565b60405180910390fd5b50505f600660146101000a81548160ff021916908315150217905550565b60055f9054906101000a900473ffffffffffffffffffffffffffffffffffffffff1673ffffffffffffffffffffffffffffffffffffffff163373ffffffffffffffffffffffffffffffffffffffff1614611e32576040517f08c379a0000000000000000000000000000000000000000000000000000000008152600401611e2990612383565b60405180910390fd5b5f73ffffffffffffffffffffffffffffffffffffffff168273ffffffffffffffffffffffffffffffffffffffff1603611ea0576040517f08c379a0000000000000000000000000000000000000000000000000000000008152600401611e9790612cea565b60405180910390fd5b8060095f8473ffffffffffffffffffffffffffffffffffffffff1673ffffffffffffffffffffffffffffffffffffffff1681526020019081526020015f205f6101000a81548160ff0219169083151502179055505050565b5f60085f8473ffffffffffffffffffffffffffffffffffffffff1673ffffffffffffffffffffffffffffffffffffffff1681526020019081526020015f205f8373ffffffffffffffffffffffffffffffffffffffff1673ffffffffffffffffffffffffffffffffffffffff1681526020019081526020015f2054905092915050565b5f81519050919050565b5f82825260208201905092915050565b8281835e5f83830152505050565b5f601f19601f8301169050919050565b5f611fbc82611f7a565b611fc68185611f84565b9350611fd6818560208601611f94565b611fdf81611fa2565b840191505092915050565b5f6020820190508181035f8301526120028184611fb2565b905092915050565b5f80fd5b5f73ffffffffffffffffffffffffffffffffffffffff82169050919050565b5f6120378261200e565b9050919050565b6120478161202d565b8114612051575f80fd5b50565b5f813590506120628161203e565b92915050565b5f819050919050565b61207a81612068565b8114612084575f80fd5b50565b5f8135905061209581612071565b92915050565b5f80604083850312156120b1576120b061200a565b5b5f6120be85828601612054565b92505060206120cf85828601612087565b9150509250929050565b5f8115159050919050565b6120ed816120d9565b82525050565b5f6020820190506121065f8301846120e4565b92915050565b61211581612068565b82525050565b5f60208201905061212e5f83018461210c565b92915050565b61213d8161202d565b82525050565b5f6020820190506121565f830184612134565b92915050565b5f602082840312156121715761217061200a565b5b5f61217e84828501612087565b91505092915050565b5f6020828403121561219c5761219b61200a565b5b5f6121a984828501612054565b91505092915050565b5f805f606084860312156121c9576121c861200a565b5b5f6121d686828701612054565b93505060206121e786828701612054565b92505060406121f886828701612087565b9150509250925092565b5f60ff82169050919050565b61221781612202565b82525050565b5f6020820190506122305f83018461220e565b92915050565b61223f816120d9565b8114612249575f80fd5b50565b5f8135905061225a81612236565b92915050565b5f80604083850312156122765761227561200a565b5b5f61228385828601612054565b92505060206122948582860161224c565b9150509250929050565b5f80604083850312156122b4576122b361200a565b5b5f6122c185828601612054565b92505060206122d285828601612054565b9150509250929050565b7f4e487b71000000000000000000000000000000000000000000000000000000005f52602260045260245ffd5b5f600282049050600182168061232057607f821691505b602082108103612333576123326122dc565b5b50919050565b7f4e6f74206f776e657200000000000000000000000000000000000000000000005f82015250565b5f61236d600983611f84565b915061237882612339565b602082019050919050565b5f6020820190508181035f83015261239a81612361565b9050919050565b7f4e6f7420656e6f7567682062616c616e636500000000000000000000000000005f82015250565b5f6123d5601283611f84565b91506123e0826123a1565b602082019050919050565b5f6020820190508181035f830152612402816123c9565b9050919050565b7f4e6f7420617070726f76656400000000000000000000000000000000000000005f82015250565b5f61243d600c83611f84565b915061244882612409565b602082019050919050565b5f6020820190508181035f83015261246a81612431565b9050919050565b7f4f6e6c792076656e646f722063616e206d696e740000000000000000000000005f82015250565b5f6124a5601483611f84565b91506124b082612471565b602082019050919050565b5f6020820190508181035f8301526124d281612499565b9050919050565b7f4e487b71000000000000000000000000000000000000000000000000000000005f52601160045260245ffd5b5f61251082612068565b915061251b83612068565b9250828201905080821115612533576125326124d9565b5b92915050565b7f4e6f207265656e7472616e6379000000000000000000000000000000000000005f82015250565b5f61256d600d83611f84565b915061257882612539565b602082019050919050565b5f6020820190508181035f83015261259a81612561565b9050919050565b5f6125ab82612068565b91506125b683612068565b92508282026125c481612068565b915082820484148315176125db576125da6124d9565b5b5092915050565b7f416d6f756e74206d7573742062652067726561746572207468616e207a65726f5f82015250565b5f612616602083611f84565b9150612621826125e2565b602082019050919050565b5f6020820190508181035f8301526126438161260a565b9050919050565b7f496e636f72726563742045544820616d6f756e740000000000000000000000005f82015250565b5f61267e601483611f84565b91506126898261264a565b602082019050919050565b5f6020820190508181035f8301526126ab81612672565b9050919050565b7f4e6f7420656e6f756768207469636b65747300000000000000000000000000005f82015250565b5f6126e6601283611f84565b91506126f1826126b2565b602082019050919050565b5f6020820190508181035f830152612713816126da565b9050919050565b5f61272482612068565b915061272f83612068565b9250828203905081811115612747576127466124d9565b5b92915050565b5f6040820190506127605f830185612134565b61276d602083018461210c565b9392505050565b7f4d75737420726566756e64206174206c65617374206f6e65207469636b6574005f82015250565b5f6127a8601f83611f84565b91506127b382612774565b602082019050919050565b5f6020820190508181035f8301526127d58161279c565b9050919050565b7f496e73756666696369656e74207469636b65742062616c616e636520666f72205f8201527f726566756e640000000000000000000000000000000000000000000000000000602082015250565b5f612836602683611f84565b9150612841826127dc565b604082019050919050565b5f6020820190508181035f8301526128638161282a565b9050919050565b7f56656e646f722068617320696e73756666696369656e742066756e647320666f5f8201527f7220726566756e64000000000000000000000000000000000000000000000000602082015250565b5f6128c4602883611f84565b91506128cf8261286a565b604082019050919050565b5f6020820190508181035f8301526128f1816128b8565b9050919050565b5f81905092915050565b50565b5f6129105f836128f8565b915061291b82612902565b5f82019050919050565b5f61292f82612905565b9150819050919050565b7f526566756e64206661696c6564000000000000000000000000000000000000005f82015250565b5f61296d600d83611f84565b915061297882612939565b602082019050919050565b5f6020820190508181035f83015261299a81612961565b9050919050565b7f56656e646f722063616e6e6f74206265207a65726f20616464726573730000005f82015250565b5f6129d5601d83611f84565b91506129e0826129a1565b602082019050919050565b5f6020820190508181035f830152612a02816129c9565b9050919050565b5f604082019050612a1c5f830185612134565b612a296020830184612134565b9392505050565b7f4e6f7420617574686f72697a65643a204e6f74206120646f6f726d616e0000005f82015250565b5f612a64601d83611f84565b9150612a6f82612a30565b602082019050919050565b5f6020820190508181035f830152612a9181612a58565b9050919050565b7f43616e6e6f74206275726e2066726f6d207a65726f20616464726573730000005f82015250565b5f612acc601d83611f84565b9150612ad782612a98565b602082019050919050565b5f6020820190508181035f830152612af981612ac0565b9050919050565b7f496e73756666696369656e742062616c616e636520746f206275726e000000005f82015250565b5f612b34601c83611f84565b9150612b3f82612b00565b602082019050919050565b5f6020820190508181035f830152612b6181612b28565b9050919050565b7f4e6f742076656e646f72000000000000000000000000000000000000000000005f82015250565b5f612b9c600a83611f84565b9150612ba782612b68565b602082019050919050565b5f6020820190508181035f830152612bc981612b90565b9050919050565b7f4e6f2066756e647320746f2077697468647261770000000000000000000000005f82015250565b5f612c04601483611f84565b9150612c0f82612bd0565b602082019050919050565b5f6020820190508181035f830152612c3181612bf8565b9050919050565b7f5769746864726177616c206661696c65640000000000000000000000000000005f82015250565b5f612c6c601183611f84565b9150612c7782612c38565b602082019050919050565b5f6020820190508181035f830152612c9981612c60565b9050919050565b7f496e76616c6964206164647265737300000000000000000000000000000000005f82015250565b5f612cd4600f83611f84565b9150612cdf82612ca0565b602082019050919050565b5f6020820190508181035f830152612d0181612cc8565b905091905056fea2646970667358221220527912b7e316cb589583e1f3aca80ac2e22576b7f6ff1d2275e59911901d215064736f6c634300081a0033",
					"opcodes": "PUSH1 0x80 PUSH1 0x40 MSTORE CALLVALUE DUP1 ISZERO PUSH2 0xF JUMPI PUSH0 DUP1 REVERT JUMPDEST POP PUSH1 0x40 MLOAD PUSH2 0x37FC CODESIZE SUB DUP1 PUSH2 0x37FC DUP4 CODECOPY DUP2 DUP2 ADD PUSH1 0x40 MSTORE DUP2 ADD SWAP1 PUSH2 0x31 SWAP2 SWAP1 PUSH2 0x496 JUMP JUMPDEST PUSH0 PUSH20 0xFFFFFFFFFFFFFFFFFFFFFFFFFFFFFFFFFFFFFFFF AND DUP2 PUSH20 0xFFFFFFFFFFFFFFFFFFFFFFFFFFFFFFFFFFFFFFFF AND SUB PUSH2 0x9F JUMPI PUSH1 0x40 MLOAD PUSH32 0x8C379A000000000000000000000000000000000000000000000000000000000 DUP2 MSTORE PUSH1 0x4 ADD PUSH2 0x96 SWAP1 PUSH2 0x5B1 JUMP JUMPDEST PUSH1 0x40 MLOAD DUP1 SWAP2 SUB SWAP1 REVERT JUMPDEST CALLER PUSH1 0x5 PUSH0 PUSH2 0x100 EXP DUP2 SLOAD DUP2 PUSH20 0xFFFFFFFFFFFFFFFFFFFFFFFFFFFFFFFFFFFFFFFF MUL NOT AND SWAP1 DUP4 PUSH20 0xFFFFFFFFFFFFFFFFFFFFFFFFFFFFFFFFFFFFFFFF AND MUL OR SWAP1 SSTORE POP DUP1 PUSH1 0x6 PUSH0 PUSH2 0x100 EXP DUP2 SLOAD DUP2 PUSH20 0xFFFFFFFFFFFFFFFFFFFFFFFFFFFFFFFFFFFFFFFF MUL NOT AND SWAP1 DUP4 PUSH20 0xFFFFFFFFFFFFFFFFFFFFFFFFFFFFFFFFFFFFFFFF AND MUL OR SWAP1 SSTORE POP DUP6 PUSH0 SWAP1 DUP2 PUSH2 0x12D SWAP2 SWAP1 PUSH2 0x7D3 JUMP JUMPDEST POP DUP5 PUSH1 0x1 SWAP1 DUP2 PUSH2 0x13D SWAP2 SWAP1 PUSH2 0x7D3 JUMP JUMPDEST POP DUP4 PUSH1 0x3 PUSH0 PUSH2 0x100 EXP DUP2 SLOAD DUP2 PUSH1 0xFF MUL NOT AND SWAP1 DUP4 PUSH1 0xFF AND MUL OR SWAP1 SSTORE POP DUP2 PUSH1 0x2 DUP2 SWAP1 SSTORE POP PUSH1 0x3 PUSH0 SWAP1 SLOAD SWAP1 PUSH2 0x100 EXP SWAP1 DIV PUSH1 0xFF AND PUSH1 0xFF AND PUSH1 0xA PUSH2 0x17D SWAP2 SWAP1 PUSH2 0x9FE JUMP JUMPDEST DUP4 PUSH2 0x188 SWAP2 SWAP1 PUSH2 0xA48 JUMP JUMPDEST PUSH1 0x4 DUP2 SWAP1 SSTORE POP PUSH1 0x4 SLOAD PUSH1 0x7 PUSH0 PUSH1 0x6 PUSH0 SWAP1 SLOAD SWAP1 PUSH2 0x100 EXP SWAP1 DIV PUSH20 0xFFFFFFFFFFFFFFFFFFFFFFFFFFFFFFFFFFFFFFFF AND PUSH20 0xFFFFFFFFFFFFFFFFFFFFFFFFFFFFFFFFFFFFFFFF AND PUSH20 0xFFFFFFFFFFFFFFFFFFFFFFFFFFFFFFFFFFFFFFFF AND DUP2 MSTORE PUSH1 0x20 ADD SWAP1 DUP2 MSTORE PUSH1 0x20 ADD PUSH0 KECCAK256 DUP2 SWAP1 SSTORE POP PUSH1 0x6 PUSH0 SWAP1 SLOAD SWAP1 PUSH2 0x100 EXP SWAP1 DIV PUSH20 0xFFFFFFFFFFFFFFFFFFFFFFFFFFFFFFFFFFFFFFFF AND PUSH20 0xFFFFFFFFFFFFFFFFFFFFFFFFFFFFFFFFFFFFFFFF AND PUSH0 PUSH20 0xFFFFFFFFFFFFFFFFFFFFFFFFFFFFFFFFFFFFFFFF AND PUSH32 0xDDF252AD1BE2C89B69C2B068FC378DAA952BA7F163C4A11628F55A4DF523B3EF PUSH1 0x4 SLOAD PUSH1 0x40 MLOAD PUSH2 0x273 SWAP2 SWAP1 PUSH2 0xA98 JUMP JUMPDEST PUSH1 0x40 MLOAD DUP1 SWAP2 SUB SWAP1 LOG3 POP POP POP POP POP POP PUSH2 0xAB1 JUMP JUMPDEST PUSH0 PUSH1 0x40 MLOAD SWAP1 POP SWAP1 JUMP JUMPDEST PUSH0 DUP1 REVERT JUMPDEST PUSH0 DUP1 REVERT JUMPDEST PUSH0 DUP1 REVERT JUMPDEST PUSH0 DUP1 REVERT JUMPDEST PUSH0 PUSH1 0x1F NOT PUSH1 0x1F DUP4 ADD AND SWAP1 POP SWAP2 SWAP1 POP JUMP JUMPDEST PUSH32 0x4E487B7100000000000000000000000000000000000000000000000000000000 PUSH0 MSTORE PUSH1 0x41 PUSH1 0x4 MSTORE PUSH1 0x24 PUSH0 REVERT JUMPDEST PUSH2 0x2E5 DUP3 PUSH2 0x29F JUMP JUMPDEST DUP2 ADD DUP2 DUP2 LT PUSH8 0xFFFFFFFFFFFFFFFF DUP3 GT OR ISZERO PUSH2 0x304 JUMPI PUSH2 0x303 PUSH2 0x2AF JUMP JUMPDEST JUMPDEST DUP1 PUSH1 0x40 MSTORE POP POP POP JUMP JUMPDEST PUSH0 PUSH2 0x316 PUSH2 0x286 JUMP JUMPDEST SWAP1 POP PUSH2 0x322 DUP3 DUP3 PUSH2 0x2DC JUMP JUMPDEST SWAP2 SWAP1 POP JUMP JUMPDEST PUSH0 PUSH8 0xFFFFFFFFFFFFFFFF DUP3 GT ISZERO PUSH2 0x341 JUMPI PUSH2 0x340 PUSH2 0x2AF JUMP JUMPDEST JUMPDEST PUSH2 0x34A DUP3 PUSH2 0x29F JUMP JUMPDEST SWAP1 POP PUSH1 0x20 DUP2 ADD SWAP1 POP SWAP2 SWAP1 POP JUMP JUMPDEST DUP3 DUP2 DUP4 MCOPY PUSH0 DUP4 DUP4 ADD MSTORE POP POP POP JUMP JUMPDEST PUSH0 PUSH2 0x377 PUSH2 0x372 DUP5 PUSH2 0x327 JUMP JUMPDEST PUSH2 0x30D JUMP JUMPDEST SWAP1 POP DUP3 DUP2 MSTORE PUSH1 0x20 DUP2 ADD DUP5 DUP5 DUP5 ADD GT ISZERO PUSH2 0x393 JUMPI PUSH2 0x392 PUSH2 0x29B JUMP JUMPDEST JUMPDEST PUSH2 0x39E DUP5 DUP3 DUP6 PUSH2 0x357 JUMP JUMPDEST POP SWAP4 SWAP3 POP POP POP JUMP JUMPDEST PUSH0 DUP3 PUSH1 0x1F DUP4 ADD SLT PUSH2 0x3BA JUMPI PUSH2 0x3B9 PUSH2 0x297 JUMP JUMPDEST JUMPDEST DUP2 MLOAD PUSH2 0x3CA DUP5 DUP3 PUSH1 0x20 DUP7 ADD PUSH2 0x365 JUMP JUMPDEST SWAP2 POP POP SWAP3 SWAP2 POP POP JUMP JUMPDEST PUSH0 PUSH1 0xFF DUP3 AND SWAP1 POP SWAP2 SWAP1 POP JUMP JUMPDEST PUSH2 0x3E8 DUP2 PUSH2 0x3D3 JUMP JUMPDEST DUP2 EQ PUSH2 0x3F2 JUMPI PUSH0 DUP1 REVERT JUMPDEST POP JUMP JUMPDEST PUSH0 DUP2 MLOAD SWAP1 POP PUSH2 0x403 DUP2 PUSH2 0x3DF JUMP JUMPDEST SWAP3 SWAP2 POP POP JUMP JUMPDEST PUSH0 DUP2 SWAP1 POP SWAP2 SWAP1 POP JUMP JUMPDEST PUSH2 0x41B DUP2 PUSH2 0x409 JUMP JUMPDEST DUP2 EQ PUSH2 0x425 JUMPI PUSH0 DUP1 REVERT JUMPDEST POP JUMP JUMPDEST PUSH0 DUP2 MLOAD SWAP1 POP PUSH2 0x436 DUP2 PUSH2 0x412 JUMP JUMPDEST SWAP3 SWAP2 POP POP JUMP JUMPDEST PUSH0 PUSH20 0xFFFFFFFFFFFFFFFFFFFFFFFFFFFFFFFFFFFFFFFF DUP3 AND SWAP1 POP SWAP2 SWAP1 POP JUMP JUMPDEST PUSH0 PUSH2 0x465 DUP3 PUSH2 0x43C JUMP JUMPDEST SWAP1 POP SWAP2 SWAP1 POP JUMP JUMPDEST PUSH2 0x475 DUP2 PUSH2 0x45B JUMP JUMPDEST DUP2 EQ PUSH2 0x47F JUMPI PUSH0 DUP1 REVERT JUMPDEST POP JUMP JUMPDEST PUSH0 DUP2 MLOAD SWAP1 POP PUSH2 0x490 DUP2 PUSH2 0x46C JUMP JUMPDEST SWAP3 SWAP2 POP POP JUMP JUMPDEST PUSH0 DUP1 PUSH0 DUP1 PUSH0 DUP1 PUSH1 0xC0 DUP8 DUP10 SUB SLT ISZERO PUSH2 0x4B0 JUMPI PUSH2 0x4AF PUSH2 0x28F JUMP JUMPDEST JUMPDEST PUSH0 DUP8 ADD MLOAD PUSH8 0xFFFFFFFFFFFFFFFF DUP2 GT ISZERO PUSH2 0x4CD JUMPI PUSH2 0x4CC PUSH2 0x293 JUMP JUMPDEST JUMPDEST PUSH2 0x4D9 DUP10 DUP3 DUP11 ADD PUSH2 0x3A6 JUMP JUMPDEST SWAP7 POP POP PUSH1 0x20 DUP8 ADD MLOAD PUSH8 0xFFFFFFFFFFFFFFFF DUP2 GT ISZERO PUSH2 0x4FA JUMPI PUSH2 0x4F9 PUSH2 0x293 JUMP JUMPDEST JUMPDEST PUSH2 0x506 DUP10 DUP3 DUP11 ADD PUSH2 0x3A6 JUMP JUMPDEST SWAP6 POP POP PUSH1 0x40 PUSH2 0x517 DUP10 DUP3 DUP11 ADD PUSH2 0x3F5 JUMP JUMPDEST SWAP5 POP POP PUSH1 0x60 PUSH2 0x528 DUP10 DUP3 DUP11 ADD PUSH2 0x428 JUMP JUMPDEST SWAP4 POP POP PUSH1 0x80 PUSH2 0x539 DUP10 DUP3 DUP11 ADD PUSH2 0x428 JUMP JUMPDEST SWAP3 POP POP PUSH1 0xA0 PUSH2 0x54A DUP10 DUP3 DUP11 ADD PUSH2 0x482 JUMP JUMPDEST SWAP2 POP POP SWAP3 SWAP6 POP SWAP3 SWAP6 POP SWAP3 SWAP6 JUMP JUMPDEST PUSH0 DUP3 DUP3 MSTORE PUSH1 0x20 DUP3 ADD SWAP1 POP SWAP3 SWAP2 POP POP JUMP JUMPDEST PUSH32 0x56656E646F722063616E6E6F74206265207A65726F2061646472657373000000 PUSH0 DUP3 ADD MSTORE POP JUMP JUMPDEST PUSH0 PUSH2 0x59B PUSH1 0x1D DUP4 PUSH2 0x557 JUMP JUMPDEST SWAP2 POP PUSH2 0x5A6 DUP3 PUSH2 0x567 JUMP JUMPDEST PUSH1 0x20 DUP3 ADD SWAP1 POP SWAP2 SWAP1 POP JUMP JUMPDEST PUSH0 PUSH1 0x20 DUP3 ADD SWAP1 POP DUP2 DUP2 SUB PUSH0 DUP4 ADD MSTORE PUSH2 0x5C8 DUP2 PUSH2 0x58F JUMP JUMPDEST SWAP1 POP SWAP2 SWAP1 POP JUMP JUMPDEST PUSH0 DUP2 MLOAD SWAP1 POP SWAP2 SWAP1 POP JUMP JUMPDEST PUSH32 0x4E487B7100000000000000000000000000000000000000000000000000000000 PUSH0 MSTORE PUSH1 0x22 PUSH1 0x4 MSTORE PUSH1 0x24 PUSH0 REVERT JUMPDEST PUSH0 PUSH1 0x2 DUP3 DIV SWAP1 POP PUSH1 0x1 DUP3 AND DUP1 PUSH2 0x61D JUMPI PUSH1 0x7F DUP3 AND SWAP2 POP JUMPDEST PUSH1 0x20 DUP3 LT DUP2 SUB PUSH2 0x630 JUMPI PUSH2 0x62F PUSH2 0x5D9 JUMP JUMPDEST JUMPDEST POP SWAP2 SWAP1 POP JUMP JUMPDEST PUSH0 DUP2 SWAP1 POP DUP2 PUSH0 MSTORE PUSH1 0x20 PUSH0 KECCAK256 SWAP1 POP SWAP2 SWAP1 POP JUMP JUMPDEST PUSH0 PUSH1 0x20 PUSH1 0x1F DUP4 ADD DIV SWAP1 POP SWAP2 SWAP1 POP JUMP JUMPDEST PUSH0 DUP3 DUP3 SHL SWAP1 POP SWAP3 SWAP2 POP POP JUMP JUMPDEST PUSH0 PUSH1 0x8 DUP4 MUL PUSH2 0x692 PUSH32 0xFFFFFFFFFFFFFFFFFFFFFFFFFFFFFFFFFFFFFFFFFFFFFFFFFFFFFFFFFFFFFFFF DUP3 PUSH2 0x657 JUMP JUMPDEST PUSH2 0x69C DUP7 DUP4 PUSH2 0x657 JUMP JUMPDEST SWAP6 POP DUP1 NOT DUP5 AND SWAP4 POP DUP1 DUP7 AND DUP5 OR SWAP3 POP POP POP SWAP4 SWAP3 POP POP POP JUMP JUMPDEST PUSH0 DUP2 SWAP1 POP SWAP2 SWAP1 POP JUMP JUMPDEST PUSH0 PUSH2 0x6D7 PUSH2 0x6D2 PUSH2 0x6CD DUP5 PUSH2 0x409 JUMP JUMPDEST PUSH2 0x6B4 JUMP JUMPDEST PUSH2 0x409 JUMP JUMPDEST SWAP1 POP SWAP2 SWAP1 POP JUMP JUMPDEST PUSH0 DUP2 SWAP1 POP SWAP2 SWAP1 POP JUMP JUMPDEST PUSH2 0x6F0 DUP4 PUSH2 0x6BD JUMP JUMPDEST PUSH2 0x704 PUSH2 0x6FC DUP3 PUSH2 0x6DE JUMP JUMPDEST DUP5 DUP5 SLOAD PUSH2 0x663 JUMP JUMPDEST DUP3 SSTORE POP POP POP POP JUMP JUMPDEST PUSH0 SWAP1 JUMP JUMPDEST PUSH2 0x718 PUSH2 0x70C JUMP JUMPDEST PUSH2 0x723 DUP2 DUP5 DUP5 PUSH2 0x6E7 JUMP JUMPDEST POP POP POP JUMP JUMPDEST JUMPDEST DUP2 DUP2 LT ISZERO PUSH2 0x746 JUMPI PUSH2 0x73B PUSH0 DUP3 PUSH2 0x710 JUMP JUMPDEST PUSH1 0x1 DUP2 ADD SWAP1 POP PUSH2 0x729 JUMP JUMPDEST POP POP JUMP JUMPDEST PUSH1 0x1F DUP3 GT ISZERO PUSH2 0x78B JUMPI PUSH2 0x75C DUP2 PUSH2 0x636 JUMP JUMPDEST PUSH2 0x765 DUP5 PUSH2 0x648 JUMP JUMPDEST DUP2 ADD PUSH1 0x20 DUP6 LT ISZERO PUSH2 0x774 JUMPI DUP2 SWAP1 POP JUMPDEST PUSH2 0x788 PUSH2 0x780 DUP6 PUSH2 0x648 JUMP JUMPDEST DUP4 ADD DUP3 PUSH2 0x728 JUMP JUMPDEST POP POP JUMPDEST POP POP POP JUMP JUMPDEST PUSH0 DUP3 DUP3 SHR SWAP1 POP SWAP3 SWAP2 POP POP JUMP JUMPDEST PUSH0 PUSH2 0x7AB PUSH0 NOT DUP5 PUSH1 0x8 MUL PUSH2 0x790 JUMP JUMPDEST NOT DUP1 DUP4 AND SWAP2 POP POP SWAP3 SWAP2 POP POP JUMP JUMPDEST PUSH0 PUSH2 0x7C3 DUP4 DUP4 PUSH2 0x79C JUMP JUMPDEST SWAP2 POP DUP3 PUSH1 0x2 MUL DUP3 OR SWAP1 POP SWAP3 SWAP2 POP POP JUMP JUMPDEST PUSH2 0x7DC DUP3 PUSH2 0x5CF JUMP JUMPDEST PUSH8 0xFFFFFFFFFFFFFFFF DUP2 GT ISZERO PUSH2 0x7F5 JUMPI PUSH2 0x7F4 PUSH2 0x2AF JUMP JUMPDEST JUMPDEST PUSH2 0x7FF DUP3 SLOAD PUSH2 0x606 JUMP JUMPDEST PUSH2 0x80A DUP3 DUP3 DUP6 PUSH2 0x74A JUMP JUMPDEST PUSH0 PUSH1 0x20 SWAP1 POP PUSH1 0x1F DUP4 GT PUSH1 0x1 DUP2 EQ PUSH2 0x83B JUMPI PUSH0 DUP5 ISZERO PUSH2 0x829 JUMPI DUP3 DUP8 ADD MLOAD SWAP1 POP JUMPDEST PUSH2 0x833 DUP6 DUP3 PUSH2 0x7B8 JUMP JUMPDEST DUP7 SSTORE POP PUSH2 0x89A JUMP JUMPDEST PUSH1 0x1F NOT DUP5 AND PUSH2 0x849 DUP7 PUSH2 0x636 JUMP JUMPDEST PUSH0 JUMPDEST DUP3 DUP2 LT ISZERO PUSH2 0x870 JUMPI DUP5 DUP10 ADD MLOAD DUP3 SSTORE PUSH1 0x1 DUP3 ADD SWAP2 POP PUSH1 0x20 DUP6 ADD SWAP5 POP PUSH1 0x20 DUP2 ADD SWAP1 POP PUSH2 0x84B JUMP JUMPDEST DUP7 DUP4 LT ISZERO PUSH2 0x88D JUMPI DUP5 DUP10 ADD MLOAD PUSH2 0x889 PUSH1 0x1F DUP10 AND DUP3 PUSH2 0x79C JUMP JUMPDEST DUP4 SSTORE POP JUMPDEST PUSH1 0x1 PUSH1 0x2 DUP9 MUL ADD DUP9 SSTORE POP POP POP JUMPDEST POP POP POP POP POP POP JUMP JUMPDEST PUSH32 0x4E487B7100000000000000000000000000000000000000000000000000000000 PUSH0 MSTORE PUSH1 0x11 PUSH1 0x4 MSTORE PUSH1 0x24 PUSH0 REVERT JUMPDEST PUSH0 DUP2 PUSH1 0x1 SHR SWAP1 POP SWAP2 SWAP1 POP JUMP JUMPDEST PUSH0 DUP1 DUP3 SWAP2 POP DUP4 SWAP1 POP JUMPDEST PUSH1 0x1 DUP6 GT ISZERO PUSH2 0x924 JUMPI DUP1 DUP7 DIV DUP2 GT ISZERO PUSH2 0x900 JUMPI PUSH2 0x8FF PUSH2 0x8A2 JUMP JUMPDEST JUMPDEST PUSH1 0x1 DUP6 AND ISZERO PUSH2 0x90F JUMPI DUP1 DUP3 MUL SWAP2 POP JUMPDEST DUP1 DUP2 MUL SWAP1 POP PUSH2 0x91D DUP6 PUSH2 0x8CF JUMP JUMPDEST SWAP5 POP PUSH2 0x8E4 JUMP JUMPDEST SWAP5 POP SWAP5 SWAP3 POP POP POP JUMP JUMPDEST PUSH0 DUP3 PUSH2 0x93C JUMPI PUSH1 0x1 SWAP1 POP PUSH2 0x9F7 JUMP JUMPDEST DUP2 PUSH2 0x949 JUMPI PUSH0 SWAP1 POP PUSH2 0x9F7 JUMP JUMPDEST DUP2 PUSH1 0x1 DUP2 EQ PUSH2 0x95F JUMPI PUSH1 0x2 DUP2 EQ PUSH2 0x969 JUMPI PUSH2 0x998 JUMP JUMPDEST PUSH1 0x1 SWAP2 POP POP PUSH2 0x9F7 JUMP JUMPDEST PUSH1 0xFF DUP5 GT ISZERO PUSH2 0x97B JUMPI PUSH2 0x97A PUSH2 0x8A2 JUMP JUMPDEST JUMPDEST DUP4 PUSH1 0x2 EXP SWAP2 POP DUP5 DUP3 GT ISZERO PUSH2 0x992 JUMPI PUSH2 0x991 PUSH2 0x8A2 JUMP JUMPDEST JUMPDEST POP PUSH2 0x9F7 JUMP JUMPDEST POP PUSH1 0x20 DUP4 LT PUSH2 0x133 DUP4 LT AND PUSH1 0x4E DUP5 LT PUSH1 0xB DUP5 LT AND OR ISZERO PUSH2 0x9CD JUMPI DUP3 DUP3 EXP SWAP1 POP DUP4 DUP2 GT ISZERO PUSH2 0x9C8 JUMPI PUSH2 0x9C7 PUSH2 0x8A2 JUMP JUMPDEST JUMPDEST PUSH2 0x9F7 JUMP JUMPDEST PUSH2 0x9DA DUP5 DUP5 DUP5 PUSH1 0x1 PUSH2 0x8DB JUMP JUMPDEST SWAP3 POP SWAP1 POP DUP2 DUP5 DIV DUP2 GT ISZERO PUSH2 0x9F1 JUMPI PUSH2 0x9F0 PUSH2 0x8A2 JUMP JUMPDEST JUMPDEST DUP2 DUP2 MUL SWAP1 POP JUMPDEST SWAP4 SWAP3 POP POP POP JUMP JUMPDEST PUSH0 PUSH2 0xA08 DUP3 PUSH2 0x409 JUMP JUMPDEST SWAP2 POP PUSH2 0xA13 DUP4 PUSH2 0x409 JUMP JUMPDEST SWAP3 POP PUSH2 0xA40 PUSH32 0xFFFFFFFFFFFFFFFFFFFFFFFFFFFFFFFFFFFFFFFFFFFFFFFFFFFFFFFFFFFFFFFF DUP5 DUP5 PUSH2 0x92D JUMP JUMPDEST SWAP1 POP SWAP3 SWAP2 POP POP JUMP JUMPDEST PUSH0 PUSH2 0xA52 DUP3 PUSH2 0x409 JUMP JUMPDEST SWAP2 POP PUSH2 0xA5D DUP4 PUSH2 0x409 JUMP JUMPDEST SWAP3 POP DUP3 DUP3 MUL PUSH2 0xA6B DUP2 PUSH2 0x409 JUMP JUMPDEST SWAP2 POP DUP3 DUP3 DIV DUP5 EQ DUP4 ISZERO OR PUSH2 0xA82 JUMPI PUSH2 0xA81 PUSH2 0x8A2 JUMP JUMPDEST JUMPDEST POP SWAP3 SWAP2 POP POP JUMP JUMPDEST PUSH2 0xA92 DUP2 PUSH2 0x409 JUMP JUMPDEST DUP3 MSTORE POP POP JUMP JUMPDEST PUSH0 PUSH1 0x20 DUP3 ADD SWAP1 POP PUSH2 0xAAB PUSH0 DUP4 ADD DUP5 PUSH2 0xA89 JUMP JUMPDEST SWAP3 SWAP2 POP POP JUMP JUMPDEST PUSH2 0x2D3E DUP1 PUSH2 0xABE PUSH0 CODECOPY PUSH0 RETURN INVALID PUSH1 0x80 PUSH1 0x40 MSTORE PUSH1 0x4 CALLDATASIZE LT PUSH2 0x143 JUMPI PUSH0 CALLDATALOAD PUSH1 0xE0 SHR DUP1 PUSH4 0x67DD74CA GT PUSH2 0xB5 JUMPI DUP1 PUSH4 0x9DC29FAC GT PUSH2 0x6E JUMPI DUP1 PUSH4 0x9DC29FAC EQ PUSH2 0x436 JUMPI DUP1 PUSH4 0xA76F7561 EQ PUSH2 0x45E JUMPI DUP1 PUSH4 0xA9059CBB EQ PUSH2 0x49A JUMPI DUP1 PUSH4 0xB73C6CE9 EQ PUSH2 0x4D6 JUMPI DUP1 PUSH4 0xC04620ED EQ PUSH2 0x4EC JUMPI DUP1 PUSH4 0xDD62ED3E EQ PUSH2 0x514 JUMPI PUSH2 0x14A JUMP JUMPDEST DUP1 PUSH4 0x67DD74CA EQ PUSH2 0x33A JUMPI DUP1 PUSH4 0x70A08231 EQ PUSH2 0x356 JUMPI DUP1 PUSH4 0x75774100 EQ PUSH2 0x392 JUMPI DUP1 PUSH4 0x8DA5CB5B EQ PUSH2 0x3BA JUMPI DUP1 PUSH4 0x95D89B41 EQ PUSH2 0x3E4 JUMPI DUP1 PUSH4 0x97D93935 EQ PUSH2 0x40E JUMPI PUSH2 0x14A JUMP JUMPDEST DUP1 PUSH4 0x18160DDD GT PUSH2 0x107 JUMPI DUP1 PUSH4 0x18160DDD EQ PUSH2 0x230 JUMPI DUP1 PUSH4 0x1920D329 EQ PUSH2 0x25A JUMPI DUP1 PUSH4 0x23B872DD EQ PUSH2 0x296 JUMPI DUP1 PUSH4 0x313CE567 EQ PUSH2 0x2D2 JUMPI DUP1 PUSH4 0x3CCFD60B EQ PUSH2 0x2FC JUMPI DUP1 PUSH4 0x40C10F19 EQ PUSH2 0x312 JUMPI PUSH2 0x14A JUMP JUMPDEST DUP1 PUSH4 0x6FDDE03 EQ PUSH2 0x14E JUMPI DUP1 PUSH4 0x95EA7B3 EQ PUSH2 0x178 JUMPI DUP1 PUSH4 0x1209B1F6 EQ PUSH2 0x1B4 JUMPI DUP1 PUSH4 0x1385A6F2 EQ PUSH2 0x1DE JUMPI DUP1 PUSH4 0x15981650 EQ PUSH2 0x208 JUMPI PUSH2 0x14A JUMP JUMPDEST CALLDATASIZE PUSH2 0x14A JUMPI STOP JUMPDEST PUSH0 DUP1 REVERT JUMPDEST CALLVALUE DUP1 ISZERO PUSH2 0x159 JUMPI PUSH0 DUP1 REVERT JUMPDEST POP PUSH2 0x162 PUSH2 0x550 JUMP JUMPDEST PUSH1 0x40 MLOAD PUSH2 0x16F SWAP2 SWAP1 PUSH2 0x1FEA JUMP JUMPDEST PUSH1 0x40 MLOAD DUP1 SWAP2 SUB SWAP1 RETURN JUMPDEST CALLVALUE DUP1 ISZERO PUSH2 0x183 JUMPI PUSH0 DUP1 REVERT JUMPDEST POP PUSH2 0x19E PUSH1 0x4 DUP1 CALLDATASIZE SUB DUP2 ADD SWAP1 PUSH2 0x199 SWAP2 SWAP1 PUSH2 0x209B JUMP JUMPDEST PUSH2 0x5DB JUMP JUMPDEST PUSH1 0x40 MLOAD PUSH2 0x1AB SWAP2 SWAP1 PUSH2 0x20F3 JUMP JUMPDEST PUSH1 0x40 MLOAD DUP1 SWAP2 SUB SWAP1 RETURN JUMPDEST CALLVALUE DUP1 ISZERO PUSH2 0x1BF JUMPI PUSH0 DUP1 REVERT JUMPDEST POP PUSH2 0x1C8 PUSH2 0x6C8 JUMP JUMPDEST PUSH1 0x40 MLOAD PUSH2 0x1D5 SWAP2 SWAP1 PUSH2 0x211B JUMP JUMPDEST PUSH1 0x40 MLOAD DUP1 SWAP2 SUB SWAP1 RETURN JUMPDEST CALLVALUE DUP1 ISZERO PUSH2 0x1E9 JUMPI PUSH0 DUP1 REVERT JUMPDEST POP PUSH2 0x1F2 PUSH2 0x6CE JUMP JUMPDEST PUSH1 0x40 MLOAD PUSH2 0x1FF SWAP2 SWAP1 PUSH2 0x2143 JUMP JUMPDEST PUSH1 0x40 MLOAD DUP1 SWAP2 SUB SWAP1 RETURN JUMPDEST CALLVALUE DUP1 ISZERO PUSH2 0x213 JUMPI PUSH0 DUP1 REVERT JUMPDEST POP PUSH2 0x22E PUSH1 0x4 DUP1 CALLDATASIZE SUB DUP2 ADD SWAP1 PUSH2 0x229 SWAP2 SWAP1 PUSH2 0x215C JUMP JUMPDEST PUSH2 0x6F3 JUMP JUMPDEST STOP JUMPDEST CALLVALUE DUP1 ISZERO PUSH2 0x23B JUMPI PUSH0 DUP1 REVERT JUMPDEST POP PUSH2 0x244 PUSH2 0x78C JUMP JUMPDEST PUSH1 0x40 MLOAD PUSH2 0x251 SWAP2 SWAP1 PUSH2 0x211B JUMP JUMPDEST PUSH1 0x40 MLOAD DUP1 SWAP2 SUB SWAP1 RETURN JUMPDEST CALLVALUE DUP1 ISZERO PUSH2 0x265 JUMPI PUSH0 DUP1 REVERT JUMPDEST POP PUSH2 0x280 PUSH1 0x4 DUP1 CALLDATASIZE SUB DUP2 ADD SWAP1 PUSH2 0x27B SWAP2 SWAP1 PUSH2 0x2187 JUMP JUMPDEST PUSH2 0x792 JUMP JUMPDEST PUSH1 0x40 MLOAD PUSH2 0x28D SWAP2 SWAP1 PUSH2 0x20F3 JUMP JUMPDEST PUSH1 0x40 MLOAD DUP1 SWAP2 SUB SWAP1 RETURN JUMPDEST CALLVALUE DUP1 ISZERO PUSH2 0x2A1 JUMPI PUSH0 DUP1 REVERT JUMPDEST POP PUSH2 0x2BC PUSH1 0x4 DUP1 CALLDATASIZE SUB DUP2 ADD SWAP1 PUSH2 0x2B7 SWAP2 SWAP1 PUSH2 0x21B2 JUMP JUMPDEST PUSH2 0x7AF JUMP JUMPDEST PUSH1 0x40 MLOAD PUSH2 0x2C9 SWAP2 SWAP1 PUSH2 0x20F3 JUMP JUMPDEST PUSH1 0x40 MLOAD DUP1 SWAP2 SUB SWAP1 RETURN JUMPDEST CALLVALUE DUP1 ISZERO PUSH2 0x2DD JUMPI PUSH0 DUP1 REVERT JUMPDEST POP PUSH2 0x2E6 PUSH2 0xA72 JUMP JUMPDEST PUSH1 0x40 MLOAD PUSH2 0x2F3 SWAP2 SWAP1 PUSH2 0x221D JUMP JUMPDEST PUSH1 0x40 MLOAD DUP1 SWAP2 SUB SWAP1 RETURN JUMPDEST CALLVALUE DUP1 ISZERO PUSH2 0x307 JUMPI PUSH0 DUP1 REVERT JUMPDEST POP PUSH2 0x310 PUSH2 0xA84 JUMP JUMPDEST STOP JUMPDEST CALLVALUE DUP1 ISZERO PUSH2 0x31D JUMPI PUSH0 DUP1 REVERT JUMPDEST POP PUSH2 0x338 PUSH1 0x4 DUP1 CALLDATASIZE SUB DUP2 ADD SWAP1 PUSH2 0x333 SWAP2 SWAP1 PUSH2 0x209B JUMP JUMPDEST PUSH2 0xB7A JUMP JUMPDEST STOP JUMPDEST PUSH2 0x354 PUSH1 0x4 DUP1 CALLDATASIZE SUB DUP2 ADD SWAP1 PUSH2 0x34F SWAP2 SWAP1 PUSH2 0x215C JUMP JUMPDEST PUSH2 0xC60 JUMP JUMPDEST STOP JUMPDEST CALLVALUE DUP1 ISZERO PUSH2 0x361 JUMPI PUSH0 DUP1 REVERT JUMPDEST POP PUSH2 0x37C PUSH1 0x4 DUP1 CALLDATASIZE SUB DUP2 ADD SWAP1 PUSH2 0x377 SWAP2 SWAP1 PUSH2 0x2187 JUMP JUMPDEST PUSH2 0x1019 JUMP JUMPDEST PUSH1 0x40 MLOAD PUSH2 0x389 SWAP2 SWAP1 PUSH2 0x211B JUMP JUMPDEST PUSH1 0x40 MLOAD DUP1 SWAP2 SUB SWAP1 RETURN JUMPDEST CALLVALUE DUP1 ISZERO PUSH2 0x39D JUMPI PUSH0 DUP1 REVERT JUMPDEST POP PUSH2 0x3B8 PUSH1 0x4 DUP1 CALLDATASIZE SUB DUP2 ADD SWAP1 PUSH2 0x3B3 SWAP2 SWAP1 PUSH2 0x215C JUMP JUMPDEST PUSH2 0x105F JUMP JUMPDEST STOP JUMPDEST CALLVALUE DUP1 ISZERO PUSH2 0x3C5 JUMPI PUSH0 DUP1 REVERT JUMPDEST POP PUSH2 0x3CE PUSH2 0x14FE JUMP JUMPDEST PUSH1 0x40 MLOAD PUSH2 0x3DB SWAP2 SWAP1 PUSH2 0x2143 JUMP JUMPDEST PUSH1 0x40 MLOAD DUP1 SWAP2 SUB SWAP1 RETURN JUMPDEST CALLVALUE DUP1 ISZERO PUSH2 0x3EF JUMPI PUSH0 DUP1 REVERT JUMPDEST POP PUSH2 0x3F8 PUSH2 0x1523 JUMP JUMPDEST PUSH1 0x40 MLOAD PUSH2 0x405 SWAP2 SWAP1 PUSH2 0x1FEA JUMP JUMPDEST PUSH1 0x40 MLOAD DUP1 SWAP2 SUB SWAP1 RETURN JUMPDEST CALLVALUE DUP1 ISZERO PUSH2 0x419 JUMPI PUSH0 DUP1 REVERT JUMPDEST POP PUSH2 0x434 PUSH1 0x4 DUP1 CALLDATASIZE SUB DUP2 ADD SWAP1 PUSH2 0x42F SWAP2 SWAP1 PUSH2 0x2187 JUMP JUMPDEST PUSH2 0x15AF JUMP JUMPDEST STOP JUMPDEST CALLVALUE DUP1 ISZERO PUSH2 0x441 JUMPI PUSH0 DUP1 REVERT JUMPDEST POP PUSH2 0x45C PUSH1 0x4 DUP1 CALLDATASIZE SUB DUP2 ADD SWAP1 PUSH2 0x457 SWAP2 SWAP1 PUSH2 0x209B JUMP JUMPDEST PUSH2 0x174E JUMP JUMPDEST STOP JUMPDEST CALLVALUE DUP1 ISZERO PUSH2 0x469 JUMPI PUSH0 DUP1 REVERT JUMPDEST POP PUSH2 0x484 PUSH1 0x4 DUP1 CALLDATASIZE SUB DUP2 ADD SWAP1 PUSH2 0x47F SWAP2 SWAP1 PUSH2 0x2187 JUMP JUMPDEST PUSH2 0x1986 JUMP JUMPDEST PUSH1 0x40 MLOAD PUSH2 0x491 SWAP2 SWAP1 PUSH2 0x211B JUMP JUMPDEST PUSH1 0x40 MLOAD DUP1 SWAP2 SUB SWAP1 RETURN JUMPDEST CALLVALUE DUP1 ISZERO PUSH2 0x4A5 JUMPI PUSH0 DUP1 REVERT JUMPDEST POP PUSH2 0x4C0 PUSH1 0x4 DUP1 CALLDATASIZE SUB DUP2 ADD SWAP1 PUSH2 0x4BB SWAP2 SWAP1 PUSH2 0x209B JUMP JUMPDEST PUSH2 0x199B JUMP JUMPDEST PUSH1 0x40 MLOAD PUSH2 0x4CD SWAP2 SWAP1 PUSH2 0x20F3 JUMP JUMPDEST PUSH1 0x40 MLOAD DUP1 SWAP2 SUB SWAP1 RETURN JUMPDEST CALLVALUE DUP1 ISZERO PUSH2 0x4E1 JUMPI PUSH0 DUP1 REVERT JUMPDEST POP PUSH2 0x4EA PUSH2 0x1B1E JUMP JUMPDEST STOP JUMPDEST CALLVALUE DUP1 ISZERO PUSH2 0x4F7 JUMPI PUSH0 DUP1 REVERT JUMPDEST POP PUSH2 0x512 PUSH1 0x4 DUP1 CALLDATASIZE SUB DUP2 ADD SWAP1 PUSH2 0x50D SWAP2 SWAP1 PUSH2 0x2260 JUMP JUMPDEST PUSH2 0x1DA3 JUMP JUMPDEST STOP JUMPDEST CALLVALUE DUP1 ISZERO PUSH2 0x51F JUMPI PUSH0 DUP1 REVERT JUMPDEST POP PUSH2 0x53A PUSH1 0x4 DUP1 CALLDATASIZE SUB DUP2 ADD SWAP1 PUSH2 0x535 SWAP2 SWAP1 PUSH2 0x229E JUMP JUMPDEST PUSH2 0x1EF8 JUMP JUMPDEST PUSH1 0x40 MLOAD PUSH2 0x547 SWAP2 SWAP1 PUSH2 0x211B JUMP JUMPDEST PUSH1 0x40 MLOAD DUP1 SWAP2 SUB SWAP1 RETURN JUMPDEST PUSH0 DUP1 SLOAD PUSH2 0x55C SWAP1 PUSH2 0x2309 JUMP JUMPDEST DUP1 PUSH1 0x1F ADD PUSH1 0x20 DUP1 SWAP2 DIV MUL PUSH1 0x20 ADD PUSH1 0x40 MLOAD SWAP1 DUP2 ADD PUSH1 0x40 MSTORE DUP1 SWAP3 SWAP2 SWAP1 DUP2 DUP2 MSTORE PUSH1 0x20 ADD DUP3 DUP1 SLOAD PUSH2 0x588 SWAP1 PUSH2 0x2309 JUMP JUMPDEST DUP1 ISZERO PUSH2 0x5D3 JUMPI DUP1 PUSH1 0x1F LT PUSH2 0x5AA JUMPI PUSH2 0x100 DUP1 DUP4 SLOAD DIV MUL DUP4 MSTORE SWAP2 PUSH1 0x20 ADD SWAP2 PUSH2 0x5D3 JUMP JUMPDEST DUP3 ADD SWAP2 SWAP1 PUSH0 MSTORE PUSH1 0x20 PUSH0 KECCAK256 SWAP1 JUMPDEST DUP2 SLOAD DUP2 MSTORE SWAP1 PUSH1 0x1 ADD SWAP1 PUSH1 0x20 ADD DUP1 DUP4 GT PUSH2 0x5B6 JUMPI DUP3 SWAP1 SUB PUSH1 0x1F AND DUP3 ADD SWAP2 JUMPDEST POP POP POP POP POP DUP2 JUMP JUMPDEST PUSH0 DUP2 PUSH1 0x8 PUSH0 CALLER PUSH20 0xFFFFFFFFFFFFFFFFFFFFFFFFFFFFFFFFFFFFFFFF AND PUSH20 0xFFFFFFFFFFFFFFFFFFFFFFFFFFFFFFFFFFFFFFFF AND DUP2 MSTORE PUSH1 0x20 ADD SWAP1 DUP2 MSTORE PUSH1 0x20 ADD PUSH0 KECCAK256 PUSH0 DUP6 PUSH20 0xFFFFFFFFFFFFFFFFFFFFFFFFFFFFFFFFFFFFFFFF AND PUSH20 0xFFFFFFFFFFFFFFFFFFFFFFFFFFFFFFFFFFFFFFFF AND DUP2 MSTORE PUSH1 0x20 ADD SWAP1 DUP2 MSTORE PUSH1 0x20 ADD PUSH0 KECCAK256 DUP2 SWAP1 SSTORE POP DUP3 PUSH20 0xFFFFFFFFFFFFFFFFFFFFFFFFFFFFFFFFFFFFFFFF AND CALLER PUSH20 0xFFFFFFFFFFFFFFFFFFFFFFFFFFFFFFFFFFFFFFFF AND PUSH32 0x8C5BE1E5EBEC7D5BD14F71427D1E84F3DD0314C0F7B2291E5B200AC8C7C3B925 DUP5 PUSH1 0x40 MLOAD PUSH2 0x6B6 SWAP2 SWAP1 PUSH2 0x211B JUMP JUMPDEST PUSH1 0x40 MLOAD DUP1 SWAP2 SUB SWAP1 LOG3 PUSH1 0x1 SWAP1 POP SWAP3 SWAP2 POP POP JUMP JUMPDEST PUSH1 0x2 SLOAD DUP2 JUMP JUMPDEST PUSH1 0x6 PUSH0 SWAP1 SLOAD SWAP1 PUSH2 0x100 EXP SWAP1 DIV PUSH20 0xFFFFFFFFFFFFFFFFFFFFFFFFFFFFFFFFFFFFFFFF AND DUP2 JUMP JUMPDEST PUSH1 0x5 PUSH0 SWAP1 SLOAD SWAP1 PUSH2 0x100 EXP SWAP1 DIV PUSH20 0xFFFFFFFFFFFFFFFFFFFFFFFFFFFFFFFFFFFFFFFF AND PUSH20 0xFFFFFFFFFFFFFFFFFFFFFFFFFFFFFFFFFFFFFFFF AND CALLER PUSH20 0xFFFFFFFFFFFFFFFFFFFFFFFFFFFFFFFFFFFFFFFF AND EQ PUSH2 0x782 JUMPI PUSH1 0x40 MLOAD PUSH32 0x8C379A000000000000000000000000000000000000000000000000000000000 DUP2 MSTORE PUSH1 0x4 ADD PUSH2 0x779 SWAP1 PUSH2 0x2383 JUMP JUMPDEST PUSH1 0x40 MLOAD DUP1 SWAP2 SUB SWAP1 REVERT JUMPDEST DUP1 PUSH1 0x2 DUP2 SWAP1 SSTORE POP POP JUMP JUMPDEST PUSH1 0x4 SLOAD DUP2 JUMP JUMPDEST PUSH1 0x9 PUSH1 0x20 MSTORE DUP1 PUSH0 MSTORE PUSH1 0x40 PUSH0 KECCAK256 PUSH0 SWAP2 POP SLOAD SWAP1 PUSH2 0x100 EXP SWAP1 DIV PUSH1 0xFF AND DUP2 JUMP JUMPDEST PUSH0 DUP1 PUSH1 0x7 PUSH0 DUP7 PUSH20 0xFFFFFFFFFFFFFFFFFFFFFFFFFFFFFFFFFFFFFFFF AND PUSH20 0xFFFFFFFFFFFFFFFFFFFFFFFFFFFFFFFFFFFFFFFF AND DUP2 MSTORE PUSH1 0x20 ADD SWAP1 DUP2 MSTORE PUSH1 0x20 ADD PUSH0 KECCAK256 SLOAD SWAP1 POP PUSH0 PUSH1 0x8 PUSH0 DUP8 PUSH20 0xFFFFFFFFFFFFFFFFFFFFFFFFFFFFFFFFFFFFFFFF AND PUSH20 0xFFFFFFFFFFFFFFFFFFFFFFFFFFFFFFFFFFFFFFFF AND DUP2 MSTORE PUSH1 0x20 ADD SWAP1 DUP2 MSTORE PUSH1 0x20 ADD PUSH0 KECCAK256 PUSH0 CALLER PUSH20 0xFFFFFFFFFFFFFFFFFFFFFFFFFFFFFFFFFFFFFFFF AND PUSH20 0xFFFFFFFFFFFFFFFFFFFFFFFFFFFFFFFFFFFFFFFF AND DUP2 MSTORE PUSH1 0x20 ADD SWAP1 DUP2 MSTORE PUSH1 0x20 ADD PUSH0 KECCAK256 SLOAD SWAP1 POP DUP4 DUP3 LT ISZERO PUSH2 0x8B0 JUMPI PUSH1 0x40 MLOAD PUSH32 0x8C379A000000000000000000000000000000000000000000000000000000000 DUP2 MSTORE PUSH1 0x4 ADD PUSH2 0x8A7 SWAP1 PUSH2 0x23EB JUMP JUMPDEST PUSH1 0x40 MLOAD DUP1 SWAP2 SUB SWAP1 REVERT JUMPDEST DUP4 DUP2 LT ISZERO PUSH2 0x8F3 JUMPI PUSH1 0x40 MLOAD PUSH32 0x8C379A000000000000000000000000000000000000000000000000000000000 DUP2 MSTORE PUSH1 0x4 ADD PUSH2 0x8EA SWAP1 PUSH2 0x2453 JUMP JUMPDEST PUSH1 0x40 MLOAD DUP1 SWAP2 SUB SWAP1 REVERT JUMPDEST DUP4 DUP3 SUB PUSH1 0x7 PUSH0 DUP9 PUSH20 0xFFFFFFFFFFFFFFFFFFFFFFFFFFFFFFFFFFFFFFFF AND PUSH20 0xFFFFFFFFFFFFFFFFFFFFFFFFFFFFFFFFFFFFFFFF AND DUP2 MSTORE PUSH1 0x20 ADD SWAP1 DUP2 MSTORE PUSH1 0x20 ADD PUSH0 KECCAK256 DUP2 SWAP1 SSTORE POP DUP4 PUSH1 0x7 PUSH0 DUP8 PUSH20 0xFFFFFFFFFFFFFFFFFFFFFFFFFFFFFFFFFFFFFFFF AND PUSH20 0xFFFFFFFFFFFFFFFFFFFFFFFFFFFFFFFFFFFFFFFF AND DUP2 MSTORE PUSH1 0x20 ADD SWAP1 DUP2 MSTORE PUSH1 0x20 ADD PUSH0 KECCAK256 PUSH0 DUP3 DUP3 SLOAD ADD SWAP3 POP POP DUP2 SWAP1 SSTORE POP DUP4 DUP2 SUB PUSH1 0x8 PUSH0 DUP9 PUSH20 0xFFFFFFFFFFFFFFFFFFFFFFFFFFFFFFFFFFFFFFFF AND PUSH20 0xFFFFFFFFFFFFFFFFFFFFFFFFFFFFFFFFFFFFFFFF AND DUP2 MSTORE PUSH1 0x20 ADD SWAP1 DUP2 MSTORE PUSH1 0x20 ADD PUSH0 KECCAK256 PUSH0 CALLER PUSH20 0xFFFFFFFFFFFFFFFFFFFFFFFFFFFFFFFFFFFFFFFF AND PUSH20 0xFFFFFFFFFFFFFFFFFFFFFFFFFFFFFFFFFFFFFFFF AND DUP2 MSTORE PUSH1 0x20 ADD SWAP1 DUP2 MSTORE PUSH1 0x20 ADD PUSH0 KECCAK256 DUP2 SWAP1 SSTORE POP DUP5 PUSH20 0xFFFFFFFFFFFFFFFFFFFFFFFFFFFFFFFFFFFFFFFF AND DUP7 PUSH20 0xFFFFFFFFFFFFFFFFFFFFFFFFFFFFFFFFFFFFFFFF AND PUSH32 0xDDF252AD1BE2C89B69C2B068FC378DAA952BA7F163C4A11628F55A4DF523B3EF DUP7 PUSH1 0x40 MLOAD PUSH2 0xA5D SWAP2 SWAP1 PUSH2 0x211B JUMP JUMPDEST PUSH1 0x40 MLOAD DUP1 SWAP2 SUB SWAP1 LOG3 PUSH1 0x1 SWAP3 POP POP POP SWAP4 SWAP3 POP POP POP JUMP JUMPDEST PUSH1 0x3 PUSH0 SWAP1 SLOAD SWAP1 PUSH2 0x100 EXP SWAP1 DIV PUSH1 0xFF AND DUP2 JUMP JUMPDEST PUSH1 0x5 PUSH0 SWAP1 SLOAD SWAP1 PUSH2 0x100 EXP SWAP1 DIV PUSH20 0xFFFFFFFFFFFFFFFFFFFFFFFFFFFFFFFFFFFFFFFF AND PUSH20 0xFFFFFFFFFFFFFFFFFFFFFFFFFFFFFFFFFFFFFFFF AND CALLER PUSH20 0xFFFFFFFFFFFFFFFFFFFFFFFFFFFFFFFFFFFFFFFF AND EQ PUSH2 0xB13 JUMPI PUSH1 0x40 MLOAD PUSH32 0x8C379A000000000000000000000000000000000000000000000000000000000 DUP2 MSTORE PUSH1 0x4 ADD PUSH2 0xB0A SWAP1 PUSH2 0x2383 JUMP JUMPDEST PUSH1 0x40 MLOAD DUP1 SWAP2 SUB SWAP1 REVERT JUMPDEST PUSH1 0x5 PUSH0 SWAP1 SLOAD SWAP1 PUSH2 0x100 EXP SWAP1 DIV PUSH20 0xFFFFFFFFFFFFFFFFFFFFFFFFFFFFFFFFFFFFFFFF AND PUSH20 0xFFFFFFFFFFFFFFFFFFFFFFFFFFFFFFFFFFFFFFFF AND PUSH2 0x8FC SELFBALANCE SWAP1 DUP2 ISZERO MUL SWAP1 PUSH1 0x40 MLOAD PUSH0 PUSH1 0x40 MLOAD DUP1 DUP4 SUB DUP2 DUP6 DUP9 DUP9 CALL SWAP4 POP POP POP POP ISZERO DUP1 ISZERO PUSH2 0xB77 JUMPI RETURNDATASIZE PUSH0 DUP1 RETURNDATACOPY RETURNDATASIZE PUSH0 REVERT JUMPDEST POP JUMP JUMPDEST PUSH1 0x6 PUSH0 SWAP1 SLOAD SWAP1 PUSH2 0x100 EXP SWAP1 DIV PUSH20 0xFFFFFFFFFFFFFFFFFFFFFFFFFFFFFFFFFFFFFFFF AND PUSH20 0xFFFFFFFFFFFFFFFFFFFFFFFFFFFFFFFFFFFFFFFF AND CALLER PUSH20 0xFFFFFFFFFFFFFFFFFFFFFFFFFFFFFFFFFFFFFFFF AND EQ PUSH2 0xC09 JUMPI PUSH1 0x40 MLOAD PUSH32 0x8C379A000000000000000000000000000000000000000000000000000000000 DUP2 MSTORE PUSH1 0x4 ADD PUSH2 0xC00 SWAP1 PUSH2 0x24BB JUMP JUMPDEST PUSH1 0x40 MLOAD DUP1 SWAP2 SUB SWAP1 REVERT JUMPDEST DUP1 PUSH1 0x7 PUSH0 DUP5 PUSH20 0xFFFFFFFFFFFFFFFFFFFFFFFFFFFFFFFFFFFFFFFF AND PUSH20 0xFFFFFFFFFFFFFFFFFFFFFFFFFFFFFFFFFFFFFFFF AND DUP2 MSTORE PUSH1 0x20 ADD SWAP1 DUP2 MSTORE PUSH1 0x20 ADD PUSH0 KECCAK256 PUSH0 DUP3 DUP3 SLOAD PUSH2 0xC55 SWAP2 SWAP1 PUSH2 0x2506 JUMP JUMPDEST SWAP3 POP POP DUP2 SWAP1 SSTORE POP POP POP JUMP JUMPDEST PUSH1 0x6 PUSH1 0x14 SWAP1 SLOAD SWAP1 PUSH2 0x100 EXP SWAP1 DIV PUSH1 0xFF AND ISZERO PUSH2 0xCB0 JUMPI PUSH1 0x40 MLOAD PUSH32 0x8C379A000000000000000000000000000000000000000000000000000000000 DUP2 MSTORE PUSH1 0x4 ADD PUSH2 0xCA7 SWAP1 PUSH2 0x2583 JUMP JUMPDEST PUSH1 0x40 MLOAD DUP1 SWAP2 SUB SWAP1 REVERT JUMPDEST PUSH1 0x1 PUSH1 0x6 PUSH1 0x14 PUSH2 0x100 EXP DUP2 SLOAD DUP2 PUSH1 0xFF MUL NOT AND SWAP1 DUP4 ISZERO ISZERO MUL OR SWAP1 SSTORE POP PUSH0 DUP2 PUSH1 0x2 SLOAD PUSH2 0xCDA SWAP2 SWAP1 PUSH2 0x25A1 JUMP JUMPDEST SWAP1 POP PUSH0 DUP3 GT PUSH2 0xD1E JUMPI PUSH1 0x40 MLOAD PUSH32 0x8C379A000000000000000000000000000000000000000000000000000000000 DUP2 MSTORE PUSH1 0x4 ADD PUSH2 0xD15 SWAP1 PUSH2 0x262C JUMP JUMPDEST PUSH1 0x40 MLOAD DUP1 SWAP2 SUB SWAP1 REVERT JUMPDEST DUP1 CALLVALUE EQ PUSH2 0xD60 JUMPI PUSH1 0x40 MLOAD PUSH32 0x8C379A000000000000000000000000000000000000000000000000000000000 DUP2 MSTORE PUSH1 0x4 ADD PUSH2 0xD57 SWAP1 PUSH2 0x2694 JUMP JUMPDEST PUSH1 0x40 MLOAD DUP1 SWAP2 SUB SWAP1 REVERT JUMPDEST DUP2 PUSH1 0x7 PUSH0 PUSH1 0x6 PUSH0 SWAP1 SLOAD SWAP1 PUSH2 0x100 EXP SWAP1 DIV PUSH20 0xFFFFFFFFFFFFFFFFFFFFFFFFFFFFFFFFFFFFFFFF AND PUSH20 0xFFFFFFFFFFFFFFFFFFFFFFFFFFFFFFFFFFFFFFFF AND PUSH20 0xFFFFFFFFFFFFFFFFFFFFFFFFFFFFFFFFFFFFFFFF AND DUP2 MSTORE PUSH1 0x20 ADD SWAP1 DUP2 MSTORE PUSH1 0x20 ADD PUSH0 KECCAK256 SLOAD LT ISZERO PUSH2 0xE01 JUMPI PUSH1 0x40 MLOAD PUSH32 0x8C379A000000000000000000000000000000000000000000000000000000000 DUP2 MSTORE PUSH1 0x4 ADD PUSH2 0xDF8 SWAP1 PUSH2 0x26FC JUMP JUMPDEST PUSH1 0x40 MLOAD DUP1 SWAP2 SUB SWAP1 REVERT JUMPDEST DUP2 PUSH1 0x7 PUSH0 PUSH1 0x6 PUSH0 SWAP1 SLOAD SWAP1 PUSH2 0x100 EXP SWAP1 DIV PUSH20 0xFFFFFFFFFFFFFFFFFFFFFFFFFFFFFFFFFFFFFFFF AND PUSH20 0xFFFFFFFFFFFFFFFFFFFFFFFFFFFFFFFFFFFFFFFF AND PUSH20 0xFFFFFFFFFFFFFFFFFFFFFFFFFFFFFFFFFFFFFFFF AND DUP2 MSTORE PUSH1 0x20 ADD SWAP1 DUP2 MSTORE PUSH1 0x20 ADD PUSH0 KECCAK256 PUSH0 DUP3 DUP3 SLOAD PUSH2 0xE6E SWAP2 SWAP1 PUSH2 0x271A JUMP JUMPDEST SWAP3 POP POP DUP2 SWAP1 SSTORE POP DUP2 PUSH1 0x7 PUSH0 CALLER PUSH20 0xFFFFFFFFFFFFFFFFFFFFFFFFFFFFFFFFFFFFFFFF AND PUSH20 0xFFFFFFFFFFFFFFFFFFFFFFFFFFFFFFFFFFFFFFFF AND DUP2 MSTORE PUSH1 0x20 ADD SWAP1 DUP2 MSTORE PUSH1 0x20 ADD PUSH0 KECCAK256 PUSH0 DUP3 DUP3 SLOAD PUSH2 0xEC1 SWAP2 SWAP1 PUSH2 0x2506 JUMP JUMPDEST SWAP3 POP POP DUP2 SWAP1 SSTORE POP CALLVALUE PUSH1 0xA PUSH0 PUSH1 0x6 PUSH0 SWAP1 SLOAD SWAP1 PUSH2 0x100 EXP SWAP1 DIV PUSH20 0xFFFFFFFFFFFFFFFFFFFFFFFFFFFFFFFFFFFFFFFF AND PUSH20 0xFFFFFFFFFFFFFFFFFFFFFFFFFFFFFFFFFFFFFFFF AND PUSH20 0xFFFFFFFFFFFFFFFFFFFFFFFFFFFFFFFFFFFFFFFF AND DUP2 MSTORE PUSH1 0x20 ADD SWAP1 DUP2 MSTORE PUSH1 0x20 ADD PUSH0 KECCAK256 PUSH0 DUP3 DUP3 SLOAD PUSH2 0xF35 SWAP2 SWAP1 PUSH2 0x2506 JUMP JUMPDEST SWAP3 POP POP DUP2 SWAP1 SSTORE POP CALLER PUSH20 0xFFFFFFFFFFFFFFFFFFFFFFFFFFFFFFFFFFFFFFFF AND PUSH1 0x6 PUSH0 SWAP1 SLOAD SWAP1 PUSH2 0x100 EXP SWAP1 DIV PUSH20 0xFFFFFFFFFFFFFFFFFFFFFFFFFFFFFFFFFFFFFFFF AND PUSH20 0xFFFFFFFFFFFFFFFFFFFFFFFFFFFFFFFFFFFFFFFF AND PUSH32 0xDDF252AD1BE2C89B69C2B068FC378DAA952BA7F163C4A11628F55A4DF523B3EF DUP5 PUSH1 0x40 MLOAD PUSH2 0xFBA SWAP2 SWAP1 PUSH2 0x211B JUMP JUMPDEST PUSH1 0x40 MLOAD DUP1 SWAP2 SUB SWAP1 LOG3 PUSH32 0x668F5B446EB814FE35B3206F43F14BD8567BA04DDAF7A3EE56516929AB22CCB CALLER DUP4 PUSH1 0x40 MLOAD PUSH2 0xFF3 SWAP3 SWAP2 SWAP1 PUSH2 0x274D JUMP JUMPDEST PUSH1 0x40 MLOAD DUP1 SWAP2 SUB SWAP1 LOG1 POP PUSH0 PUSH1 0x6 PUSH1 0x14 PUSH2 0x100 EXP DUP2 SLOAD DUP2 PUSH1 0xFF MUL NOT AND SWAP1 DUP4 ISZERO ISZERO MUL OR SWAP1 SSTORE POP POP JUMP JUMPDEST PUSH0 PUSH1 0x7 PUSH0 DUP4 PUSH20 0xFFFFFFFFFFFFFFFFFFFFFFFFFFFFFFFFFFFFFFFF AND PUSH20 0xFFFFFFFFFFFFFFFFFFFFFFFFFFFFFFFFFFFFFFFF AND DUP2 MSTORE PUSH1 0x20 ADD SWAP1 DUP2 MSTORE PUSH1 0x20 ADD PUSH0 KECCAK256 SLOAD SWAP1 POP SWAP2 SWAP1 POP JUMP JUMPDEST PUSH1 0x6 PUSH1 0x14 SWAP1 SLOAD SWAP1 PUSH2 0x100 EXP SWAP1 DIV PUSH1 0xFF AND ISZERO PUSH2 0x10AF JUMPI PUSH1 0x40 MLOAD PUSH32 0x8C379A000000000000000000000000000000000000000000000000000000000 DUP2 MSTORE PUSH1 0x4 ADD PUSH2 0x10A6 SWAP1 PUSH2 0x2583 JUMP JUMPDEST PUSH1 0x40 MLOAD DUP1 SWAP2 SUB SWAP1 REVERT JUMPDEST PUSH1 0x1 PUSH1 0x6 PUSH1 0x14 PUSH2 0x100 EXP DUP2 SLOAD DUP2 PUSH1 0xFF MUL NOT AND SWAP1 DUP4 ISZERO ISZERO MUL OR SWAP1 SSTORE POP PUSH0 DUP2 GT PUSH2 0x110C JUMPI PUSH1 0x40 MLOAD PUSH32 0x8C379A000000000000000000000000000000000000000000000000000000000 DUP2 MSTORE PUSH1 0x4 ADD PUSH2 0x1103 SWAP1 PUSH2 0x27BE JUMP JUMPDEST PUSH1 0x40 MLOAD DUP1 SWAP2 SUB SWAP1 REVERT JUMPDEST PUSH0 PUSH1 0x7 PUSH0 CALLER PUSH20 0xFFFFFFFFFFFFFFFFFFFFFFFFFFFFFFFFFFFFFFFF AND PUSH20 0xFFFFFFFFFFFFFFFFFFFFFFFFFFFFFFFFFFFFFFFF AND DUP2 MSTORE PUSH1 0x20 ADD SWAP1 DUP2 MSTORE PUSH1 0x20 ADD PUSH0 KECCAK256 SLOAD SWAP1 POP DUP2 DUP2 LT ISZERO PUSH2 0x1190 JUMPI PUSH1 0x40 MLOAD PUSH32 0x8C379A000000000000000000000000000000000000000000000000000000000 DUP2 MSTORE PUSH1 0x4 ADD PUSH2 0x1187 SWAP1 PUSH2 0x284C JUMP JUMPDEST PUSH1 0x40 MLOAD DUP1 SWAP2 SUB SWAP1 REVERT JUMPDEST PUSH0 DUP3 PUSH1 0x2 SLOAD PUSH2 0x119F SWAP2 SWAP1 PUSH2 0x25A1 JUMP JUMPDEST SWAP1 POP DUP1 PUSH1 0xA PUSH0 PUSH1 0x6 PUSH0 SWAP1 SLOAD SWAP1 PUSH2 0x100 EXP SWAP1 DIV PUSH20 0xFFFFFFFFFFFFFFFFFFFFFFFFFFFFFFFFFFFFFFFF AND PUSH20 0xFFFFFFFFFFFFFFFFFFFFFFFFFFFFFFFFFFFFFFFF AND PUSH20 0xFFFFFFFFFFFFFFFFFFFFFFFFFFFFFFFFFFFFFFFF AND DUP2 MSTORE PUSH1 0x20 ADD SWAP1 DUP2 MSTORE PUSH1 0x20 ADD PUSH0 KECCAK256 SLOAD LT ISZERO PUSH2 0x1242 JUMPI PUSH1 0x40 MLOAD PUSH32 0x8C379A000000000000000000000000000000000000000000000000000000000 DUP2 MSTORE PUSH1 0x4 ADD PUSH2 0x1239 SWAP1 PUSH2 0x28DA JUMP JUMPDEST PUSH1 0x40 MLOAD DUP1 SWAP2 SUB SWAP1 REVERT JUMPDEST DUP3 DUP3 PUSH2 0x124E SWAP2 SWAP1 PUSH2 0x271A JUMP JUMPDEST PUSH1 0x7 PUSH0 CALLER PUSH20 0xFFFFFFFFFFFFFFFFFFFFFFFFFFFFFFFFFFFFFFFF AND PUSH20 0xFFFFFFFFFFFFFFFFFFFFFFFFFFFFFFFFFFFFFFFF AND DUP2 MSTORE PUSH1 0x20 ADD SWAP1 DUP2 MSTORE PUSH1 0x20 ADD PUSH0 KECCAK256 DUP2 SWAP1 SSTORE POP DUP3 PUSH1 0x7 PUSH0 PUSH1 0x6 PUSH0 SWAP1 SLOAD SWAP1 PUSH2 0x100 EXP SWAP1 DIV PUSH20 0xFFFFFFFFFFFFFFFFFFFFFFFFFFFFFFFFFFFFFFFF AND PUSH20 0xFFFFFFFFFFFFFFFFFFFFFFFFFFFFFFFFFFFFFFFF AND PUSH20 0xFFFFFFFFFFFFFFFFFFFFFFFFFFFFFFFFFFFFFFFF AND DUP2 MSTORE PUSH1 0x20 ADD SWAP1 DUP2 MSTORE PUSH1 0x20 ADD PUSH0 KECCAK256 PUSH0 DUP3 DUP3 SLOAD PUSH2 0x12FC SWAP2 SWAP1 PUSH2 0x2506 JUMP JUMPDEST SWAP3 POP POP DUP2 SWAP1 SSTORE POP DUP1 PUSH1 0xA PUSH0 PUSH1 0x6 PUSH0 SWAP1 SLOAD SWAP1 PUSH2 0x100 EXP SWAP1 DIV PUSH20 0xFFFFFFFFFFFFFFFFFFFFFFFFFFFFFFFFFFFFFFFF AND PUSH20 0xFFFFFFFFFFFFFFFFFFFFFFFFFFFFFFFFFFFFFFFF AND PUSH20 0xFFFFFFFFFFFFFFFFFFFFFFFFFFFFFFFFFFFFFFFF AND DUP2 MSTORE PUSH1 0x20 ADD SWAP1 DUP2 MSTORE PUSH1 0x20 ADD PUSH0 KECCAK256 PUSH0 DUP3 DUP3 SLOAD PUSH2 0x1370 SWAP2 SWAP1 PUSH2 0x271A JUMP JUMPDEST SWAP3 POP POP DUP2 SWAP1 SSTORE POP PUSH0 CALLER PUSH20 0xFFFFFFFFFFFFFFFFFFFFFFFFFFFFFFFFFFFFFFFF AND DUP3 PUSH1 0x40 MLOAD PUSH2 0x139C SWAP1 PUSH2 0x2925 JUMP JUMPDEST PUSH0 PUSH1 0x40 MLOAD DUP1 DUP4 SUB DUP2 DUP6 DUP8 GAS CALL SWAP3 POP POP POP RETURNDATASIZE DUP1 PUSH0 DUP2 EQ PUSH2 0x13D6 JUMPI PUSH1 0x40 MLOAD SWAP2 POP PUSH1 0x1F NOT PUSH1 0x3F RETURNDATASIZE ADD AND DUP3 ADD PUSH1 0x40 MSTORE RETURNDATASIZE DUP3 MSTORE RETURNDATASIZE PUSH0 PUSH1 0x20 DUP5 ADD RETURNDATACOPY PUSH2 0x13DB JUMP JUMPDEST PUSH1 0x60 SWAP2 POP JUMPDEST POP POP SWAP1 POP DUP1 PUSH2 0x141F JUMPI PUSH1 0x40 MLOAD PUSH32 0x8C379A000000000000000000000000000000000000000000000000000000000 DUP2 MSTORE PUSH1 0x4 ADD PUSH2 0x1416 SWAP1 PUSH2 0x2983 JUMP JUMPDEST PUSH1 0x40 MLOAD DUP1 SWAP2 SUB SWAP1 REVERT JUMPDEST PUSH1 0x6 PUSH0 SWAP1 SLOAD SWAP1 PUSH2 0x100 EXP SWAP1 DIV PUSH20 0xFFFFFFFFFFFFFFFFFFFFFFFFFFFFFFFFFFFFFFFF AND PUSH20 0xFFFFFFFFFFFFFFFFFFFFFFFFFFFFFFFFFFFFFFFF AND CALLER PUSH20 0xFFFFFFFFFFFFFFFFFFFFFFFFFFFFFFFFFFFFFFFF AND PUSH32 0xDDF252AD1BE2C89B69C2B068FC378DAA952BA7F163C4A11628F55A4DF523B3EF DUP7 PUSH1 0x40 MLOAD PUSH2 0x149D SWAP2 SWAP1 PUSH2 0x211B JUMP JUMPDEST PUSH1 0x40 MLOAD DUP1 SWAP2 SUB SWAP1 LOG3 PUSH32 0xD2888DF1F37C007DFB366793B698E4CC1AD930D5790EA0A3E1764D18F366AFCE CALLER DUP6 PUSH1 0x40 MLOAD PUSH2 0x14D6 SWAP3 SWAP2 SWAP1 PUSH2 0x274D JUMP JUMPDEST PUSH1 0x40 MLOAD DUP1 SWAP2 SUB SWAP1 LOG1 POP POP POP PUSH0 PUSH1 0x6 PUSH1 0x14 PUSH2 0x100 EXP DUP2 SLOAD DUP2 PUSH1 0xFF MUL NOT AND SWAP1 DUP4 ISZERO ISZERO MUL OR SWAP1 SSTORE POP POP JUMP JUMPDEST PUSH1 0x5 PUSH0 SWAP1 SLOAD SWAP1 PUSH2 0x100 EXP SWAP1 DIV PUSH20 0xFFFFFFFFFFFFFFFFFFFFFFFFFFFFFFFFFFFFFFFF AND DUP2 JUMP JUMPDEST PUSH1 0x1 DUP1 SLOAD PUSH2 0x1530 SWAP1 PUSH2 0x2309 JUMP JUMPDEST DUP1 PUSH1 0x1F ADD PUSH1 0x20 DUP1 SWAP2 DIV MUL PUSH1 0x20 ADD PUSH1 0x40 MLOAD SWAP1 DUP2 ADD PUSH1 0x40 MSTORE DUP1 SWAP3 SWAP2 SWAP1 DUP2 DUP2 MSTORE PUSH1 0x20 ADD DUP3 DUP1 SLOAD PUSH2 0x155C SWAP1 PUSH2 0x2309 JUMP JUMPDEST DUP1 ISZERO PUSH2 0x15A7 JUMPI DUP1 PUSH1 0x1F LT PUSH2 0x157E JUMPI PUSH2 0x100 DUP1 DUP4 SLOAD DIV MUL DUP4 MSTORE SWAP2 PUSH1 0x20 ADD SWAP2 PUSH2 0x15A7 JUMP JUMPDEST DUP3 ADD SWAP2 SWAP1 PUSH0 MSTORE PUSH1 0x20 PUSH0 KECCAK256 SWAP1 JUMPDEST DUP2 SLOAD DUP2 MSTORE SWAP1 PUSH1 0x1 ADD SWAP1 PUSH1 0x20 ADD DUP1 DUP4 GT PUSH2 0x158A JUMPI DUP3 SWAP1 SUB PUSH1 0x1F AND DUP3 ADD SWAP2 JUMPDEST POP POP POP POP POP DUP2 JUMP JUMPDEST PUSH1 0x5 PUSH0 SWAP1 SLOAD SWAP1 PUSH2 0x100 EXP SWAP1 DIV PUSH20 0xFFFFFFFFFFFFFFFFFFFFFFFFFFFFFFFFFFFFFFFF AND PUSH20 0xFFFFFFFFFFFFFFFFFFFFFFFFFFFFFFFFFFFFFFFF AND CALLER PUSH20 0xFFFFFFFFFFFFFFFFFFFFFFFFFFFFFFFFFFFFFFFF AND EQ PUSH2 0x163E JUMPI PUSH1 0x40 MLOAD PUSH32 0x8C379A000000000000000000000000000000000000000000000000000000000 DUP2 MSTORE PUSH1 0x4 ADD PUSH2 0x1635 SWAP1 PUSH2 0x2383 JUMP JUMPDEST PUSH1 0x40 MLOAD DUP1 SWAP2 SUB SWAP1 REVERT JUMPDEST PUSH0 PUSH20 0xFFFFFFFFFFFFFFFFFFFFFFFFFFFFFFFFFFFFFFFF AND DUP2 PUSH20 0xFFFFFFFFFFFFFFFFFFFFFFFFFFFFFFFFFFFFFFFF AND SUB PUSH2 0x16AC JUMPI PUSH1 0x40 MLOAD PUSH32 0x8C379A000000000000000000000000000000000000000000000000000000000 DUP2 MSTORE PUSH1 0x4 ADD PUSH2 0x16A3 SWAP1 PUSH2 0x29EB JUMP JUMPDEST PUSH1 0x40 MLOAD DUP1 SWAP2 SUB SWAP1 REVERT JUMPDEST PUSH0 PUSH1 0x6 PUSH0 SWAP1 SLOAD SWAP1 PUSH2 0x100 EXP SWAP1 DIV PUSH20 0xFFFFFFFFFFFFFFFFFFFFFFFFFFFFFFFFFFFFFFFF AND SWAP1 POP DUP2 PUSH1 0x6 PUSH0 PUSH2 0x100 EXP DUP2 SLOAD DUP2 PUSH20 0xFFFFFFFFFFFFFFFFFFFFFFFFFFFFFFFFFFFFFFFF MUL NOT AND SWAP1 DUP4 PUSH20 0xFFFFFFFFFFFFFFFFFFFFFFFFFFFFFFFFFFFFFFFF AND MUL OR SWAP1 SSTORE POP PUSH32 0xB53081A400C13F0BAF735171B97C9AF581C4A047B9895726BB1ADFF5A874BA4C DUP2 DUP4 PUSH1 0x40 MLOAD PUSH2 0x1742 SWAP3 SWAP2 SWAP1 PUSH2 0x2A09 JUMP JUMPDEST PUSH1 0x40 MLOAD DUP1 SWAP2 SUB SWAP1 LOG1 POP POP JUMP JUMPDEST PUSH1 0x9 PUSH0 CALLER PUSH20 0xFFFFFFFFFFFFFFFFFFFFFFFFFFFFFFFFFFFFFFFF AND PUSH20 0xFFFFFFFFFFFFFFFFFFFFFFFFFFFFFFFFFFFFFFFF AND DUP2 MSTORE PUSH1 0x20 ADD SWAP1 DUP2 MSTORE PUSH1 0x20 ADD PUSH0 KECCAK256 PUSH0 SWAP1 SLOAD SWAP1 PUSH2 0x100 EXP SWAP1 DIV PUSH1 0xFF AND PUSH2 0x17D7 JUMPI PUSH1 0x40 MLOAD PUSH32 0x8C379A000000000000000000000000000000000000000000000000000000000 DUP2 MSTORE PUSH1 0x4 ADD PUSH2 0x17CE SWAP1 PUSH2 0x2A7A JUMP JUMPDEST PUSH1 0x40 MLOAD DUP1 SWAP2 SUB SWAP1 REVERT JUMPDEST PUSH0 PUSH20 0xFFFFFFFFFFFFFFFFFFFFFFFFFFFFFFFFFFFFFFFF AND DUP3 PUSH20 0xFFFFFFFFFFFFFFFFFFFFFFFFFFFFFFFFFFFFFFFF AND SUB PUSH2 0x1845 JUMPI PUSH1 0x40 MLOAD PUSH32 0x8C379A000000000000000000000000000000000000000000000000000000000 DUP2 MSTORE PUSH1 0x4 ADD PUSH2 0x183C SWAP1 PUSH2 0x2AE2 JUMP JUMPDEST PUSH1 0x40 MLOAD DUP1 SWAP2 SUB SWAP1 REVERT JUMPDEST PUSH0 PUSH1 0x7 PUSH0 DUP5 PUSH20 0xFFFFFFFFFFFFFFFFFFFFFFFFFFFFFFFFFFFFFFFF AND PUSH20 0xFFFFFFFFFFFFFFFFFFFFFFFFFFFFFFFFFFFFFFFF AND DUP2 MSTORE PUSH1 0x20 ADD SWAP1 DUP2 MSTORE PUSH1 0x20 ADD PUSH0 KECCAK256 SLOAD SWAP1 POP DUP2 DUP2 LT ISZERO PUSH2 0x18C9 JUMPI PUSH1 0x40 MLOAD PUSH32 0x8C379A000000000000000000000000000000000000000000000000000000000 DUP2 MSTORE PUSH1 0x4 ADD PUSH2 0x18C0 SWAP1 PUSH2 0x2B4A JUMP JUMPDEST PUSH1 0x40 MLOAD DUP1 SWAP2 SUB SWAP1 REVERT JUMPDEST DUP2 DUP2 SUB PUSH1 0x7 PUSH0 DUP6 PUSH20 0xFFFFFFFFFFFFFFFFFFFFFFFFFFFFFFFFFFFFFFFF AND PUSH20 0xFFFFFFFFFFFFFFFFFFFFFFFFFFFFFFFFFFFFFFFF AND DUP2 MSTORE PUSH1 0x20 ADD SWAP1 DUP2 MSTORE PUSH1 0x20 ADD PUSH0 KECCAK256 DUP2 SWAP1 SSTORE POP DUP2 PUSH1 0x4 PUSH0 DUP3 DUP3 SLOAD SUB SWAP3 POP POP DUP2 SWAP1 SSTORE POP PUSH0 PUSH20 0xFFFFFFFFFFFFFFFFFFFFFFFFFFFFFFFFFFFFFFFF AND DUP4 PUSH20 0xFFFFFFFFFFFFFFFFFFFFFFFFFFFFFFFFFFFFFFFF AND PUSH32 0xDDF252AD1BE2C89B69C2B068FC378DAA952BA7F163C4A11628F55A4DF523B3EF DUP5 PUSH1 0x40 MLOAD PUSH2 0x1979 SWAP2 SWAP1 PUSH2 0x211B JUMP JUMPDEST PUSH1 0x40 MLOAD DUP1 SWAP2 SUB SWAP1 LOG3 POP POP POP JUMP JUMPDEST PUSH1 0xA PUSH1 0x20 MSTORE DUP1 PUSH0 MSTORE PUSH1 0x40 PUSH0 KECCAK256 PUSH0 SWAP2 POP SWAP1 POP SLOAD DUP2 JUMP JUMPDEST PUSH0 DUP1 PUSH1 0x7 PUSH0 CALLER PUSH20 0xFFFFFFFFFFFFFFFFFFFFFFFFFFFFFFFFFFFFFFFF AND PUSH20 0xFFFFFFFFFFFFFFFFFFFFFFFFFFFFFFFFFFFFFFFF AND DUP2 MSTORE PUSH1 0x20 ADD SWAP1 DUP2 MSTORE PUSH1 0x20 ADD PUSH0 KECCAK256 SLOAD SWAP1 POP DUP3 DUP2 LT ISZERO PUSH2 0x1A20 JUMPI PUSH1 0x40 MLOAD PUSH32 0x8C379A000000000000000000000000000000000000000000000000000000000 DUP2 MSTORE PUSH1 0x4 ADD PUSH2 0x1A17 SWAP1 PUSH2 0x23EB JUMP JUMPDEST PUSH1 0x40 MLOAD DUP1 SWAP2 SUB SWAP1 REVERT JUMPDEST DUP3 DUP2 SUB PUSH1 0x7 PUSH0 CALLER PUSH20 0xFFFFFFFFFFFFFFFFFFFFFFFFFFFFFFFFFFFFFFFF AND PUSH20 0xFFFFFFFFFFFFFFFFFFFFFFFFFFFFFFFFFFFFFFFF AND DUP2 MSTORE PUSH1 0x20 ADD SWAP1 DUP2 MSTORE PUSH1 0x20 ADD PUSH0 KECCAK256 DUP2 SWAP1 SSTORE POP DUP3 PUSH1 0x7 PUSH0 DUP7 PUSH20 0xFFFFFFFFFFFFFFFFFFFFFFFFFFFFFFFFFFFFFFFF AND PUSH20 0xFFFFFFFFFFFFFFFFFFFFFFFFFFFFFFFFFFFFFFFF AND DUP2 MSTORE PUSH1 0x20 ADD SWAP1 DUP2 MSTORE PUSH1 0x20 ADD PUSH0 KECCAK256 PUSH0 DUP3 DUP3 SLOAD ADD SWAP3 POP POP DUP2 SWAP1 SSTORE POP DUP4 PUSH20 0xFFFFFFFFFFFFFFFFFFFFFFFFFFFFFFFFFFFFFFFF AND CALLER PUSH20 0xFFFFFFFFFFFFFFFFFFFFFFFFFFFFFFFFFFFFFFFF AND PUSH32 0xDDF252AD1BE2C89B69C2B068FC378DAA952BA7F163C4A11628F55A4DF523B3EF DUP6 PUSH1 0x40 MLOAD PUSH2 0x1B0B SWAP2 SWAP1 PUSH2 0x211B JUMP JUMPDEST PUSH1 0x40 MLOAD DUP1 SWAP2 SUB SWAP1 LOG3 PUSH1 0x1 SWAP2 POP POP SWAP3 SWAP2 POP POP JUMP JUMPDEST PUSH1 0x6 PUSH0 SWAP1 SLOAD SWAP1 PUSH2 0x100 EXP SWAP1 DIV PUSH20 0xFFFFFFFFFFFFFFFFFFFFFFFFFFFFFFFFFFFFFFFF AND PUSH20 0xFFFFFFFFFFFFFFFFFFFFFFFFFFFFFFFFFFFFFFFF AND CALLER PUSH20 0xFFFFFFFFFFFFFFFFFFFFFFFFFFFFFFFFFFFFFFFF AND EQ PUSH2 0x1BAD JUMPI PUSH1 0x40 MLOAD PUSH32 0x8C379A000000000000000000000000000000000000000000000000000000000 DUP2 MSTORE PUSH1 0x4 ADD PUSH2 0x1BA4 SWAP1 PUSH2 0x2BB2 JUMP JUMPDEST PUSH1 0x40 MLOAD DUP1 SWAP2 SUB SWAP1 REVERT JUMPDEST PUSH1 0x6 PUSH1 0x14 SWAP1 SLOAD SWAP1 PUSH2 0x100 EXP SWAP1 DIV PUSH1 0xFF AND ISZERO PUSH2 0x1BFD JUMPI PUSH1 0x40 MLOAD PUSH32 0x8C379A000000000000000000000000000000000000000000000000000000000 DUP2 MSTORE PUSH1 0x4 ADD PUSH2 0x1BF4 SWAP1 PUSH2 0x2583 JUMP JUMPDEST PUSH1 0x40 MLOAD DUP1 SWAP2 SUB SWAP1 REVERT JUMPDEST PUSH1 0x1 PUSH1 0x6 PUSH1 0x14 PUSH2 0x100 EXP DUP2 SLOAD DUP2 PUSH1 0xFF MUL NOT AND SWAP1 DUP4 ISZERO ISZERO MUL OR SWAP1 SSTORE POP PUSH0 PUSH1 0xA PUSH0 CALLER PUSH20 0xFFFFFFFFFFFFFFFFFFFFFFFFFFFFFFFFFFFFFFFF AND PUSH20 0xFFFFFFFFFFFFFFFFFFFFFFFFFFFFFFFFFFFFFFFF AND DUP2 MSTORE PUSH1 0x20 ADD SWAP1 DUP2 MSTORE PUSH1 0x20 ADD PUSH0 KECCAK256 SLOAD SWAP1 POP PUSH0 DUP2 GT PUSH2 0x1C9B JUMPI PUSH1 0x40 MLOAD PUSH32 0x8C379A000000000000000000000000000000000000000000000000000000000 DUP2 MSTORE PUSH1 0x4 ADD PUSH2 0x1C92 SWAP1 PUSH2 0x2C1A JUMP JUMPDEST PUSH1 0x40 MLOAD DUP1 SWAP2 SUB SWAP1 REVERT JUMPDEST PUSH0 PUSH1 0xA PUSH0 CALLER PUSH20 0xFFFFFFFFFFFFFFFFFFFFFFFFFFFFFFFFFFFFFFFF AND PUSH20 0xFFFFFFFFFFFFFFFFFFFFFFFFFFFFFFFFFFFFFFFF AND DUP2 MSTORE PUSH1 0x20 ADD SWAP1 DUP2 MSTORE PUSH1 0x20 ADD PUSH0 KECCAK256 DUP2 SWAP1 SSTORE POP PUSH0 CALLER PUSH20 0xFFFFFFFFFFFFFFFFFFFFFFFFFFFFFFFFFFFFFFFF AND DUP3 PUSH1 0x40 MLOAD PUSH2 0x1D02 SWAP1 PUSH2 0x2925 JUMP JUMPDEST PUSH0 PUSH1 0x40 MLOAD DUP1 DUP4 SUB DUP2 DUP6 DUP8 GAS CALL SWAP3 POP POP POP RETURNDATASIZE DUP1 PUSH0 DUP2 EQ PUSH2 0x1D3C JUMPI PUSH1 0x40 MLOAD SWAP2 POP PUSH1 0x1F NOT PUSH1 0x3F RETURNDATASIZE ADD AND DUP3 ADD PUSH1 0x40 MSTORE RETURNDATASIZE DUP3 MSTORE RETURNDATASIZE PUSH0 PUSH1 0x20 DUP5 ADD RETURNDATACOPY PUSH2 0x1D41 JUMP JUMPDEST PUSH1 0x60 SWAP2 POP JUMPDEST POP POP SWAP1 POP DUP1 PUSH2 0x1D85 JUMPI PUSH1 0x40 MLOAD PUSH32 0x8C379A000000000000000000000000000000000000000000000000000000000 DUP2 MSTORE PUSH1 0x4 ADD PUSH2 0x1D7C SWAP1 PUSH2 0x2C82 JUMP JUMPDEST PUSH1 0x40 MLOAD DUP1 SWAP2 SUB SWAP1 REVERT JUMPDEST POP POP PUSH0 PUSH1 0x6 PUSH1 0x14 PUSH2 0x100 EXP DUP2 SLOAD DUP2 PUSH1 0xFF MUL NOT AND SWAP1 DUP4 ISZERO ISZERO MUL OR SWAP1 SSTORE POP JUMP JUMPDEST PUSH1 0x5 PUSH0 SWAP1 SLOAD SWAP1 PUSH2 0x100 EXP SWAP1 DIV PUSH20 0xFFFFFFFFFFFFFFFFFFFFFFFFFFFFFFFFFFFFFFFF AND PUSH20 0xFFFFFFFFFFFFFFFFFFFFFFFFFFFFFFFFFFFFFFFF AND CALLER PUSH20 0xFFFFFFFFFFFFFFFFFFFFFFFFFFFFFFFFFFFFFFFF AND EQ PUSH2 0x1E32 JUMPI PUSH1 0x40 MLOAD PUSH32 0x8C379A000000000000000000000000000000000000000000000000000000000 DUP2 MSTORE PUSH1 0x4 ADD PUSH2 0x1E29 SWAP1 PUSH2 0x2383 JUMP JUMPDEST PUSH1 0x40 MLOAD DUP1 SWAP2 SUB SWAP1 REVERT JUMPDEST PUSH0 PUSH20 0xFFFFFFFFFFFFFFFFFFFFFFFFFFFFFFFFFFFFFFFF AND DUP3 PUSH20 0xFFFFFFFFFFFFFFFFFFFFFFFFFFFFFFFFFFFFFFFF AND SUB PUSH2 0x1EA0 JUMPI PUSH1 0x40 MLOAD PUSH32 0x8C379A000000000000000000000000000000000000000000000000000000000 DUP2 MSTORE PUSH1 0x4 ADD PUSH2 0x1E97 SWAP1 PUSH2 0x2CEA JUMP JUMPDEST PUSH1 0x40 MLOAD DUP1 SWAP2 SUB SWAP1 REVERT JUMPDEST DUP1 PUSH1 0x9 PUSH0 DUP5 PUSH20 0xFFFFFFFFFFFFFFFFFFFFFFFFFFFFFFFFFFFFFFFF AND PUSH20 0xFFFFFFFFFFFFFFFFFFFFFFFFFFFFFFFFFFFFFFFF AND DUP2 MSTORE PUSH1 0x20 ADD SWAP1 DUP2 MSTORE PUSH1 0x20 ADD PUSH0 KECCAK256 PUSH0 PUSH2 0x100 EXP DUP2 SLOAD DUP2 PUSH1 0xFF MUL NOT AND SWAP1 DUP4 ISZERO ISZERO MUL OR SWAP1 SSTORE POP POP POP JUMP JUMPDEST PUSH0 PUSH1 0x8 PUSH0 DUP5 PUSH20 0xFFFFFFFFFFFFFFFFFFFFFFFFFFFFFFFFFFFFFFFF AND PUSH20 0xFFFFFFFFFFFFFFFFFFFFFFFFFFFFFFFFFFFFFFFF AND DUP2 MSTORE PUSH1 0x20 ADD SWAP1 DUP2 MSTORE PUSH1 0x20 ADD PUSH0 KECCAK256 PUSH0 DUP4 PUSH20 0xFFFFFFFFFFFFFFFFFFFFFFFFFFFFFFFFFFFFFFFF AND PUSH20 0xFFFFFFFFFFFFFFFFFFFFFFFFFFFFFFFFFFFFFFFF AND DUP2 MSTORE PUSH1 0x20 ADD SWAP1 DUP2 MSTORE PUSH1 0x20 ADD PUSH0 KECCAK256 SLOAD SWAP1 POP SWAP3 SWAP2 POP POP JUMP JUMPDEST PUSH0 DUP2 MLOAD SWAP1 POP SWAP2 SWAP1 POP JUMP JUMPDEST PUSH0 DUP3 DUP3 MSTORE PUSH1 0x20 DUP3 ADD SWAP1 POP SWAP3 SWAP2 POP POP JUMP JUMPDEST DUP3 DUP2 DUP4 MCOPY PUSH0 DUP4 DUP4 ADD MSTORE POP POP POP JUMP JUMPDEST PUSH0 PUSH1 0x1F NOT PUSH1 0x1F DUP4 ADD AND SWAP1 POP SWAP2 SWAP1 POP JUMP JUMPDEST PUSH0 PUSH2 0x1FBC DUP3 PUSH2 0x1F7A JUMP JUMPDEST PUSH2 0x1FC6 DUP2 DUP6 PUSH2 0x1F84 JUMP JUMPDEST SWAP4 POP PUSH2 0x1FD6 DUP2 DUP6 PUSH1 0x20 DUP7 ADD PUSH2 0x1F94 JUMP JUMPDEST PUSH2 0x1FDF DUP2 PUSH2 0x1FA2 JUMP JUMPDEST DUP5 ADD SWAP2 POP POP SWAP3 SWAP2 POP POP JUMP JUMPDEST PUSH0 PUSH1 0x20 DUP3 ADD SWAP1 POP DUP2 DUP2 SUB PUSH0 DUP4 ADD MSTORE PUSH2 0x2002 DUP2 DUP5 PUSH2 0x1FB2 JUMP JUMPDEST SWAP1 POP SWAP3 SWAP2 POP POP JUMP JUMPDEST PUSH0 DUP1 REVERT JUMPDEST PUSH0 PUSH20 0xFFFFFFFFFFFFFFFFFFFFFFFFFFFFFFFFFFFFFFFF DUP3 AND SWAP1 POP SWAP2 SWAP1 POP JUMP JUMPDEST PUSH0 PUSH2 0x2037 DUP3 PUSH2 0x200E JUMP JUMPDEST SWAP1 POP SWAP2 SWAP1 POP JUMP JUMPDEST PUSH2 0x2047 DUP2 PUSH2 0x202D JUMP JUMPDEST DUP2 EQ PUSH2 0x2051 JUMPI PUSH0 DUP1 REVERT JUMPDEST POP JUMP JUMPDEST PUSH0 DUP2 CALLDATALOAD SWAP1 POP PUSH2 0x2062 DUP2 PUSH2 0x203E JUMP JUMPDEST SWAP3 SWAP2 POP POP JUMP JUMPDEST PUSH0 DUP2 SWAP1 POP SWAP2 SWAP1 POP JUMP JUMPDEST PUSH2 0x207A DUP2 PUSH2 0x2068 JUMP JUMPDEST DUP2 EQ PUSH2 0x2084 JUMPI PUSH0 DUP1 REVERT JUMPDEST POP JUMP JUMPDEST PUSH0 DUP2 CALLDATALOAD SWAP1 POP PUSH2 0x2095 DUP2 PUSH2 0x2071 JUMP JUMPDEST SWAP3 SWAP2 POP POP JUMP JUMPDEST PUSH0 DUP1 PUSH1 0x40 DUP4 DUP6 SUB SLT ISZERO PUSH2 0x20B1 JUMPI PUSH2 0x20B0 PUSH2 0x200A JUMP JUMPDEST JUMPDEST PUSH0 PUSH2 0x20BE DUP6 DUP3 DUP7 ADD PUSH2 0x2054 JUMP JUMPDEST SWAP3 POP POP PUSH1 0x20 PUSH2 0x20CF DUP6 DUP3 DUP7 ADD PUSH2 0x2087 JUMP JUMPDEST SWAP2 POP POP SWAP3 POP SWAP3 SWAP1 POP JUMP JUMPDEST PUSH0 DUP2 ISZERO ISZERO SWAP1 POP SWAP2 SWAP1 POP JUMP JUMPDEST PUSH2 0x20ED DUP2 PUSH2 0x20D9 JUMP JUMPDEST DUP3 MSTORE POP POP JUMP JUMPDEST PUSH0 PUSH1 0x20 DUP3 ADD SWAP1 POP PUSH2 0x2106 PUSH0 DUP4 ADD DUP5 PUSH2 0x20E4 JUMP JUMPDEST SWAP3 SWAP2 POP POP JUMP JUMPDEST PUSH2 0x2115 DUP2 PUSH2 0x2068 JUMP JUMPDEST DUP3 MSTORE POP POP JUMP JUMPDEST PUSH0 PUSH1 0x20 DUP3 ADD SWAP1 POP PUSH2 0x212E PUSH0 DUP4 ADD DUP5 PUSH2 0x210C JUMP JUMPDEST SWAP3 SWAP2 POP POP JUMP JUMPDEST PUSH2 0x213D DUP2 PUSH2 0x202D JUMP JUMPDEST DUP3 MSTORE POP POP JUMP JUMPDEST PUSH0 PUSH1 0x20 DUP3 ADD SWAP1 POP PUSH2 0x2156 PUSH0 DUP4 ADD DUP5 PUSH2 0x2134 JUMP JUMPDEST SWAP3 SWAP2 POP POP JUMP JUMPDEST PUSH0 PUSH1 0x20 DUP3 DUP5 SUB SLT ISZERO PUSH2 0x2171 JUMPI PUSH2 0x2170 PUSH2 0x200A JUMP JUMPDEST JUMPDEST PUSH0 PUSH2 0x217E DUP5 DUP3 DUP6 ADD PUSH2 0x2087 JUMP JUMPDEST SWAP2 POP POP SWAP3 SWAP2 POP POP JUMP JUMPDEST PUSH0 PUSH1 0x20 DUP3 DUP5 SUB SLT ISZERO PUSH2 0x219C JUMPI PUSH2 0x219B PUSH2 0x200A JUMP JUMPDEST JUMPDEST PUSH0 PUSH2 0x21A9 DUP5 DUP3 DUP6 ADD PUSH2 0x2054 JUMP JUMPDEST SWAP2 POP POP SWAP3 SWAP2 POP POP JUMP JUMPDEST PUSH0 DUP1 PUSH0 PUSH1 0x60 DUP5 DUP7 SUB SLT ISZERO PUSH2 0x21C9 JUMPI PUSH2 0x21C8 PUSH2 0x200A JUMP JUMPDEST JUMPDEST PUSH0 PUSH2 0x21D6 DUP7 DUP3 DUP8 ADD PUSH2 0x2054 JUMP JUMPDEST SWAP4 POP POP PUSH1 0x20 PUSH2 0x21E7 DUP7 DUP3 DUP8 ADD PUSH2 0x2054 JUMP JUMPDEST SWAP3 POP POP PUSH1 0x40 PUSH2 0x21F8 DUP7 DUP3 DUP8 ADD PUSH2 0x2087 JUMP JUMPDEST SWAP2 POP POP SWAP3 POP SWAP3 POP SWAP3 JUMP JUMPDEST PUSH0 PUSH1 0xFF DUP3 AND SWAP1 POP SWAP2 SWAP1 POP JUMP JUMPDEST PUSH2 0x2217 DUP2 PUSH2 0x2202 JUMP JUMPDEST DUP3 MSTORE POP POP JUMP JUMPDEST PUSH0 PUSH1 0x20 DUP3 ADD SWAP1 POP PUSH2 0x2230 PUSH0 DUP4 ADD DUP5 PUSH2 0x220E JUMP JUMPDEST SWAP3 SWAP2 POP POP JUMP JUMPDEST PUSH2 0x223F DUP2 PUSH2 0x20D9 JUMP JUMPDEST DUP2 EQ PUSH2 0x2249 JUMPI PUSH0 DUP1 REVERT JUMPDEST POP JUMP JUMPDEST PUSH0 DUP2 CALLDATALOAD SWAP1 POP PUSH2 0x225A DUP2 PUSH2 0x2236 JUMP JUMPDEST SWAP3 SWAP2 POP POP JUMP JUMPDEST PUSH0 DUP1 PUSH1 0x40 DUP4 DUP6 SUB SLT ISZERO PUSH2 0x2276 JUMPI PUSH2 0x2275 PUSH2 0x200A JUMP JUMPDEST JUMPDEST PUSH0 PUSH2 0x2283 DUP6 DUP3 DUP7 ADD PUSH2 0x2054 JUMP JUMPDEST SWAP3 POP POP PUSH1 0x20 PUSH2 0x2294 DUP6 DUP3 DUP7 ADD PUSH2 0x224C JUMP JUMPDEST SWAP2 POP POP SWAP3 POP SWAP3 SWAP1 POP JUMP JUMPDEST PUSH0 DUP1 PUSH1 0x40 DUP4 DUP6 SUB SLT ISZERO PUSH2 0x22B4 JUMPI PUSH2 0x22B3 PUSH2 0x200A JUMP JUMPDEST JUMPDEST PUSH0 PUSH2 0x22C1 DUP6 DUP3 DUP7 ADD PUSH2 0x2054 JUMP JUMPDEST SWAP3 POP POP PUSH1 0x20 PUSH2 0x22D2 DUP6 DUP3 DUP7 ADD PUSH2 0x2054 JUMP JUMPDEST SWAP2 POP POP SWAP3 POP SWAP3 SWAP1 POP JUMP JUMPDEST PUSH32 0x4E487B7100000000000000000000000000000000000000000000000000000000 PUSH0 MSTORE PUSH1 0x22 PUSH1 0x4 MSTORE PUSH1 0x24 PUSH0 REVERT JUMPDEST PUSH0 PUSH1 0x2 DUP3 DIV SWAP1 POP PUSH1 0x1 DUP3 AND DUP1 PUSH2 0x2320 JUMPI PUSH1 0x7F DUP3 AND SWAP2 POP JUMPDEST PUSH1 0x20 DUP3 LT DUP2 SUB PUSH2 0x2333 JUMPI PUSH2 0x2332 PUSH2 0x22DC JUMP JUMPDEST JUMPDEST POP SWAP2 SWAP1 POP JUMP JUMPDEST PUSH32 0x4E6F74206F776E65720000000000000000000000000000000000000000000000 PUSH0 DUP3 ADD MSTORE POP JUMP JUMPDEST PUSH0 PUSH2 0x236D PUSH1 0x9 DUP4 PUSH2 0x1F84 JUMP JUMPDEST SWAP2 POP PUSH2 0x2378 DUP3 PUSH2 0x2339 JUMP JUMPDEST PUSH1 0x20 DUP3 ADD SWAP1 POP SWAP2 SWAP1 POP JUMP JUMPDEST PUSH0 PUSH1 0x20 DUP3 ADD SWAP1 POP DUP2 DUP2 SUB PUSH0 DUP4 ADD MSTORE PUSH2 0x239A DUP2 PUSH2 0x2361 JUMP JUMPDEST SWAP1 POP SWAP2 SWAP1 POP JUMP JUMPDEST PUSH32 0x4E6F7420656E6F7567682062616C616E63650000000000000000000000000000 PUSH0 DUP3 ADD MSTORE POP JUMP JUMPDEST PUSH0 PUSH2 0x23D5 PUSH1 0x12 DUP4 PUSH2 0x1F84 JUMP JUMPDEST SWAP2 POP PUSH2 0x23E0 DUP3 PUSH2 0x23A1 JUMP JUMPDEST PUSH1 0x20 DUP3 ADD SWAP1 POP SWAP2 SWAP1 POP JUMP JUMPDEST PUSH0 PUSH1 0x20 DUP3 ADD SWAP1 POP DUP2 DUP2 SUB PUSH0 DUP4 ADD MSTORE PUSH2 0x2402 DUP2 PUSH2 0x23C9 JUMP JUMPDEST SWAP1 POP SWAP2 SWAP1 POP JUMP JUMPDEST PUSH32 0x4E6F7420617070726F7665640000000000000000000000000000000000000000 PUSH0 DUP3 ADD MSTORE POP JUMP JUMPDEST PUSH0 PUSH2 0x243D PUSH1 0xC DUP4 PUSH2 0x1F84 JUMP JUMPDEST SWAP2 POP PUSH2 0x2448 DUP3 PUSH2 0x2409 JUMP JUMPDEST PUSH1 0x20 DUP3 ADD SWAP1 POP SWAP2 SWAP1 POP JUMP JUMPDEST PUSH0 PUSH1 0x20 DUP3 ADD SWAP1 POP DUP2 DUP2 SUB PUSH0 DUP4 ADD MSTORE PUSH2 0x246A DUP2 PUSH2 0x2431 JUMP JUMPDEST SWAP1 POP SWAP2 SWAP1 POP JUMP JUMPDEST PUSH32 0x4F6E6C792076656E646F722063616E206D696E74000000000000000000000000 PUSH0 DUP3 ADD MSTORE POP JUMP JUMPDEST PUSH0 PUSH2 0x24A5 PUSH1 0x14 DUP4 PUSH2 0x1F84 JUMP JUMPDEST SWAP2 POP PUSH2 0x24B0 DUP3 PUSH2 0x2471 JUMP JUMPDEST PUSH1 0x20 DUP3 ADD SWAP1 POP SWAP2 SWAP1 POP JUMP JUMPDEST PUSH0 PUSH1 0x20 DUP3 ADD SWAP1 POP DUP2 DUP2 SUB PUSH0 DUP4 ADD MSTORE PUSH2 0x24D2 DUP2 PUSH2 0x2499 JUMP JUMPDEST SWAP1 POP SWAP2 SWAP1 POP JUMP JUMPDEST PUSH32 0x4E487B7100000000000000000000000000000000000000000000000000000000 PUSH0 MSTORE PUSH1 0x11 PUSH1 0x4 MSTORE PUSH1 0x24 PUSH0 REVERT JUMPDEST PUSH0 PUSH2 0x2510 DUP3 PUSH2 0x2068 JUMP JUMPDEST SWAP2 POP PUSH2 0x251B DUP4 PUSH2 0x2068 JUMP JUMPDEST SWAP3 POP DUP3 DUP3 ADD SWAP1 POP DUP1 DUP3 GT ISZERO PUSH2 0x2533 JUMPI PUSH2 0x2532 PUSH2 0x24D9 JUMP JUMPDEST JUMPDEST SWAP3 SWAP2 POP POP JUMP JUMPDEST PUSH32 0x4E6F207265656E7472616E637900000000000000000000000000000000000000 PUSH0 DUP3 ADD MSTORE POP JUMP JUMPDEST PUSH0 PUSH2 0x256D PUSH1 0xD DUP4 PUSH2 0x1F84 JUMP JUMPDEST SWAP2 POP PUSH2 0x2578 DUP3 PUSH2 0x2539 JUMP JUMPDEST PUSH1 0x20 DUP3 ADD SWAP1 POP SWAP2 SWAP1 POP JUMP JUMPDEST PUSH0 PUSH1 0x20 DUP3 ADD SWAP1 POP DUP2 DUP2 SUB PUSH0 DUP4 ADD MSTORE PUSH2 0x259A DUP2 PUSH2 0x2561 JUMP JUMPDEST SWAP1 POP SWAP2 SWAP1 POP JUMP JUMPDEST PUSH0 PUSH2 0x25AB DUP3 PUSH2 0x2068 JUMP JUMPDEST SWAP2 POP PUSH2 0x25B6 DUP4 PUSH2 0x2068 JUMP JUMPDEST SWAP3 POP DUP3 DUP3 MUL PUSH2 0x25C4 DUP2 PUSH2 0x2068 JUMP JUMPDEST SWAP2 POP DUP3 DUP3 DIV DUP5 EQ DUP4 ISZERO OR PUSH2 0x25DB JUMPI PUSH2 0x25DA PUSH2 0x24D9 JUMP JUMPDEST JUMPDEST POP SWAP3 SWAP2 POP POP JUMP JUMPDEST PUSH32 0x416D6F756E74206D7573742062652067726561746572207468616E207A65726F PUSH0 DUP3 ADD MSTORE POP JUMP JUMPDEST PUSH0 PUSH2 0x2616 PUSH1 0x20 DUP4 PUSH2 0x1F84 JUMP JUMPDEST SWAP2 POP PUSH2 0x2621 DUP3 PUSH2 0x25E2 JUMP JUMPDEST PUSH1 0x20 DUP3 ADD SWAP1 POP SWAP2 SWAP1 POP JUMP JUMPDEST PUSH0 PUSH1 0x20 DUP3 ADD SWAP1 POP DUP2 DUP2 SUB PUSH0 DUP4 ADD MSTORE PUSH2 0x2643 DUP2 PUSH2 0x260A JUMP JUMPDEST SWAP1 POP SWAP2 SWAP1 POP JUMP JUMPDEST PUSH32 0x496E636F72726563742045544820616D6F756E74000000000000000000000000 PUSH0 DUP3 ADD MSTORE POP JUMP JUMPDEST PUSH0 PUSH2 0x267E PUSH1 0x14 DUP4 PUSH2 0x1F84 JUMP JUMPDEST SWAP2 POP PUSH2 0x2689 DUP3 PUSH2 0x264A JUMP JUMPDEST PUSH1 0x20 DUP3 ADD SWAP1 POP SWAP2 SWAP1 POP JUMP JUMPDEST PUSH0 PUSH1 0x20 DUP3 ADD SWAP1 POP DUP2 DUP2 SUB PUSH0 DUP4 ADD MSTORE PUSH2 0x26AB DUP2 PUSH2 0x2672 JUMP JUMPDEST SWAP1 POP SWAP2 SWAP1 POP JUMP JUMPDEST PUSH32 0x4E6F7420656E6F756768207469636B6574730000000000000000000000000000 PUSH0 DUP3 ADD MSTORE POP JUMP JUMPDEST PUSH0 PUSH2 0x26E6 PUSH1 0x12 DUP4 PUSH2 0x1F84 JUMP JUMPDEST SWAP2 POP PUSH2 0x26F1 DUP3 PUSH2 0x26B2 JUMP JUMPDEST PUSH1 0x20 DUP3 ADD SWAP1 POP SWAP2 SWAP1 POP JUMP JUMPDEST PUSH0 PUSH1 0x20 DUP3 ADD SWAP1 POP DUP2 DUP2 SUB PUSH0 DUP4 ADD MSTORE PUSH2 0x2713 DUP2 PUSH2 0x26DA JUMP JUMPDEST SWAP1 POP SWAP2 SWAP1 POP JUMP JUMPDEST PUSH0 PUSH2 0x2724 DUP3 PUSH2 0x2068 JUMP JUMPDEST SWAP2 POP PUSH2 0x272F DUP4 PUSH2 0x2068 JUMP JUMPDEST SWAP3 POP DUP3 DUP3 SUB SWAP1 POP DUP2 DUP2 GT ISZERO PUSH2 0x2747 JUMPI PUSH2 0x2746 PUSH2 0x24D9 JUMP JUMPDEST JUMPDEST SWAP3 SWAP2 POP POP JUMP JUMPDEST PUSH0 PUSH1 0x40 DUP3 ADD SWAP1 POP PUSH2 0x2760 PUSH0 DUP4 ADD DUP6 PUSH2 0x2134 JUMP JUMPDEST PUSH2 0x276D PUSH1 0x20 DUP4 ADD DUP5 PUSH2 0x210C JUMP JUMPDEST SWAP4 SWAP3 POP POP POP JUMP JUMPDEST PUSH32 0x4D75737420726566756E64206174206C65617374206F6E65207469636B657400 PUSH0 DUP3 ADD MSTORE POP JUMP JUMPDEST PUSH0 PUSH2 0x27A8 PUSH1 0x1F DUP4 PUSH2 0x1F84 JUMP JUMPDEST SWAP2 POP PUSH2 0x27B3 DUP3 PUSH2 0x2774 JUMP JUMPDEST PUSH1 0x20 DUP3 ADD SWAP1 POP SWAP2 SWAP1 POP JUMP JUMPDEST PUSH0 PUSH1 0x20 DUP3 ADD SWAP1 POP DUP2 DUP2 SUB PUSH0 DUP4 ADD MSTORE PUSH2 0x27D5 DUP2 PUSH2 0x279C JUMP JUMPDEST SWAP1 POP SWAP2 SWAP1 POP JUMP JUMPDEST PUSH32 0x496E73756666696369656E74207469636B65742062616C616E636520666F7220 PUSH0 DUP3 ADD MSTORE PUSH32 0x726566756E640000000000000000000000000000000000000000000000000000 PUSH1 0x20 DUP3 ADD MSTORE POP JUMP JUMPDEST PUSH0 PUSH2 0x2836 PUSH1 0x26 DUP4 PUSH2 0x1F84 JUMP JUMPDEST SWAP2 POP PUSH2 0x2841 DUP3 PUSH2 0x27DC JUMP JUMPDEST PUSH1 0x40 DUP3 ADD SWAP1 POP SWAP2 SWAP1 POP JUMP JUMPDEST PUSH0 PUSH1 0x20 DUP3 ADD SWAP1 POP DUP2 DUP2 SUB PUSH0 DUP4 ADD MSTORE PUSH2 0x2863 DUP2 PUSH2 0x282A JUMP JUMPDEST SWAP1 POP SWAP2 SWAP1 POP JUMP JUMPDEST PUSH32 0x56656E646F722068617320696E73756666696369656E742066756E647320666F PUSH0 DUP3 ADD MSTORE PUSH32 0x7220726566756E64000000000000000000000000000000000000000000000000 PUSH1 0x20 DUP3 ADD MSTORE POP JUMP JUMPDEST PUSH0 PUSH2 0x28C4 PUSH1 0x28 DUP4 PUSH2 0x1F84 JUMP JUMPDEST SWAP2 POP PUSH2 0x28CF DUP3 PUSH2 0x286A JUMP JUMPDEST PUSH1 0x40 DUP3 ADD SWAP1 POP SWAP2 SWAP1 POP JUMP JUMPDEST PUSH0 PUSH1 0x20 DUP3 ADD SWAP1 POP DUP2 DUP2 SUB PUSH0 DUP4 ADD MSTORE PUSH2 0x28F1 DUP2 PUSH2 0x28B8 JUMP JUMPDEST SWAP1 POP SWAP2 SWAP1 POP JUMP JUMPDEST PUSH0 DUP2 SWAP1 POP SWAP3 SWAP2 POP POP JUMP JUMPDEST POP JUMP JUMPDEST PUSH0 PUSH2 0x2910 PUSH0 DUP4 PUSH2 0x28F8 JUMP JUMPDEST SWAP2 POP PUSH2 0x291B DUP3 PUSH2 0x2902 JUMP JUMPDEST PUSH0 DUP3 ADD SWAP1 POP SWAP2 SWAP1 POP JUMP JUMPDEST PUSH0 PUSH2 0x292F DUP3 PUSH2 0x2905 JUMP JUMPDEST SWAP2 POP DUP2 SWAP1 POP SWAP2 SWAP1 POP JUMP JUMPDEST PUSH32 0x526566756E64206661696C656400000000000000000000000000000000000000 PUSH0 DUP3 ADD MSTORE POP JUMP JUMPDEST PUSH0 PUSH2 0x296D PUSH1 0xD DUP4 PUSH2 0x1F84 JUMP JUMPDEST SWAP2 POP PUSH2 0x2978 DUP3 PUSH2 0x2939 JUMP JUMPDEST PUSH1 0x20 DUP3 ADD SWAP1 POP SWAP2 SWAP1 POP JUMP JUMPDEST PUSH0 PUSH1 0x20 DUP3 ADD SWAP1 POP DUP2 DUP2 SUB PUSH0 DUP4 ADD MSTORE PUSH2 0x299A DUP2 PUSH2 0x2961 JUMP JUMPDEST SWAP1 POP SWAP2 SWAP1 POP JUMP JUMPDEST PUSH32 0x56656E646F722063616E6E6F74206265207A65726F2061646472657373000000 PUSH0 DUP3 ADD MSTORE POP JUMP JUMPDEST PUSH0 PUSH2 0x29D5 PUSH1 0x1D DUP4 PUSH2 0x1F84 JUMP JUMPDEST SWAP2 POP PUSH2 0x29E0 DUP3 PUSH2 0x29A1 JUMP JUMPDEST PUSH1 0x20 DUP3 ADD SWAP1 POP SWAP2 SWAP1 POP JUMP JUMPDEST PUSH0 PUSH1 0x20 DUP3 ADD SWAP1 POP DUP2 DUP2 SUB PUSH0 DUP4 ADD MSTORE PUSH2 0x2A02 DUP2 PUSH2 0x29C9 JUMP JUMPDEST SWAP1 POP SWAP2 SWAP1 POP JUMP JUMPDEST PUSH0 PUSH1 0x40 DUP3 ADD SWAP1 POP PUSH2 0x2A1C PUSH0 DUP4 ADD DUP6 PUSH2 0x2134 JUMP JUMPDEST PUSH2 0x2A29 PUSH1 0x20 DUP4 ADD DUP5 PUSH2 0x2134 JUMP JUMPDEST SWAP4 SWAP3 POP POP POP JUMP JUMPDEST PUSH32 0x4E6F7420617574686F72697A65643A204E6F74206120646F6F726D616E000000 PUSH0 DUP3 ADD MSTORE POP JUMP JUMPDEST PUSH0 PUSH2 0x2A64 PUSH1 0x1D DUP4 PUSH2 0x1F84 JUMP JUMPDEST SWAP2 POP PUSH2 0x2A6F DUP3 PUSH2 0x2A30 JUMP JUMPDEST PUSH1 0x20 DUP3 ADD SWAP1 POP SWAP2 SWAP1 POP JUMP JUMPDEST PUSH0 PUSH1 0x20 DUP3 ADD SWAP1 POP DUP2 DUP2 SUB PUSH0 DUP4 ADD MSTORE PUSH2 0x2A91 DUP2 PUSH2 0x2A58 JUMP JUMPDEST SWAP1 POP SWAP2 SWAP1 POP JUMP JUMPDEST PUSH32 0x43616E6E6F74206275726E2066726F6D207A65726F2061646472657373000000 PUSH0 DUP3 ADD MSTORE POP JUMP JUMPDEST PUSH0 PUSH2 0x2ACC PUSH1 0x1D DUP4 PUSH2 0x1F84 JUMP JUMPDEST SWAP2 POP PUSH2 0x2AD7 DUP3 PUSH2 0x2A98 JUMP JUMPDEST PUSH1 0x20 DUP3 ADD SWAP1 POP SWAP2 SWAP1 POP JUMP JUMPDEST PUSH0 PUSH1 0x20 DUP3 ADD SWAP1 POP DUP2 DUP2 SUB PUSH0 DUP4 ADD MSTORE PUSH2 0x2AF9 DUP2 PUSH2 0x2AC0 JUMP JUMPDEST SWAP1 POP SWAP2 SWAP1 POP JUMP JUMPDEST PUSH32 0x496E73756666696369656E742062616C616E636520746F206275726E00000000 PUSH0 DUP3 ADD MSTORE POP JUMP JUMPDEST PUSH0 PUSH2 0x2B34 PUSH1 0x1C DUP4 PUSH2 0x1F84 JUMP JUMPDEST SWAP2 POP PUSH2 0x2B3F DUP3 PUSH2 0x2B00 JUMP JUMPDEST PUSH1 0x20 DUP3 ADD SWAP1 POP SWAP2 SWAP1 POP JUMP JUMPDEST PUSH0 PUSH1 0x20 DUP3 ADD SWAP1 POP DUP2 DUP2 SUB PUSH0 DUP4 ADD MSTORE PUSH2 0x2B61 DUP2 PUSH2 0x2B28 JUMP JUMPDEST SWAP1 POP SWAP2 SWAP1 POP JUMP JUMPDEST PUSH32 0x4E6F742076656E646F7200000000000000000000000000000000000000000000 PUSH0 DUP3 ADD MSTORE POP JUMP JUMPDEST PUSH0 PUSH2 0x2B9C PUSH1 0xA DUP4 PUSH2 0x1F84 JUMP JUMPDEST SWAP2 POP PUSH2 0x2BA7 DUP3 PUSH2 0x2B68 JUMP JUMPDEST PUSH1 0x20 DUP3 ADD SWAP1 POP SWAP2 SWAP1 POP JUMP JUMPDEST PUSH0 PUSH1 0x20 DUP3 ADD SWAP1 POP DUP2 DUP2 SUB PUSH0 DUP4 ADD MSTORE PUSH2 0x2BC9 DUP2 PUSH2 0x2B90 JUMP JUMPDEST SWAP1 POP SWAP2 SWAP1 POP JUMP JUMPDEST PUSH32 0x4E6F2066756E647320746F207769746864726177000000000000000000000000 PUSH0 DUP3 ADD MSTORE POP JUMP JUMPDEST PUSH0 PUSH2 0x2C04 PUSH1 0x14 DUP4 PUSH2 0x1F84 JUMP JUMPDEST SWAP2 POP PUSH2 0x2C0F DUP3 PUSH2 0x2BD0 JUMP JUMPDEST PUSH1 0x20 DUP3 ADD SWAP1 POP SWAP2 SWAP1 POP JUMP JUMPDEST PUSH0 PUSH1 0x20 DUP3 ADD SWAP1 POP DUP2 DUP2 SUB PUSH0 DUP4 ADD MSTORE PUSH2 0x2C31 DUP2 PUSH2 0x2BF8 JUMP JUMPDEST SWAP1 POP SWAP2 SWAP1 POP JUMP JUMPDEST PUSH32 0x5769746864726177616C206661696C6564000000000000000000000000000000 PUSH0 DUP3 ADD MSTORE POP JUMP JUMPDEST PUSH0 PUSH2 0x2C6C PUSH1 0x11 DUP4 PUSH2 0x1F84 JUMP JUMPDEST SWAP2 POP PUSH2 0x2C77 DUP3 PUSH2 0x2C38 JUMP JUMPDEST PUSH1 0x20 DUP3 ADD SWAP1 POP SWAP2 SWAP1 POP JUMP JUMPDEST PUSH0 PUSH1 0x20 DUP3 ADD SWAP1 POP DUP2 DUP2 SUB PUSH0 DUP4 ADD MSTORE PUSH2 0x2C99 DUP2 PUSH2 0x2C60 JUMP JUMPDEST SWAP1 POP SWAP2 SWAP1 POP JUMP JUMPDEST PUSH32 0x496E76616C696420616464726573730000000000000000000000000000000000 PUSH0 DUP3 ADD MSTORE POP JUMP JUMPDEST PUSH0 PUSH2 0x2CD4 PUSH1 0xF DUP4 PUSH2 0x1F84 JUMP JUMPDEST SWAP2 POP PUSH2 0x2CDF DUP3 PUSH2 0x2CA0 JUMP JUMPDEST PUSH1 0x20 DUP3 ADD SWAP1 POP SWAP2 SWAP1 POP JUMP JUMPDEST PUSH0 PUSH1 0x20 DUP3 ADD SWAP1 POP DUP2 DUP2 SUB PUSH0 DUP4 ADD MSTORE PUSH2 0x2D01 DUP2 PUSH2 0x2CC8 JUMP JUMPDEST SWAP1 POP SWAP2 SWAP1 POP JUMP INVALID LOG2 PUSH5 0x6970667358 0x22 SLT KECCAK256 MSTORE PUSH26 0x12B7E316CB589583E1F3ACA80AC2E22576B7F6FF1D2275E59911 SWAP1 SAR 0x21 POP PUSH5 0x736F6C6343 STOP ADDMOD BYTE STOP CALLER "
				},
				"gasEstimates": {
					"creation": {
						"codeDepositCost": "2316400",
						"executionCost": "infinite",
						"totalCost": "infinite"
					},
					"external": {
						"allowance(address,address)": "infinite",
						"approve(address,uint256)": "infinite",
						"balanceOf(address)": "2874",
						"burn(address,uint256)": "infinite",
						"buyTicket(uint256)": "infinite",
						"decimals()": "2555",
						"doormen(address)": "2878",
						"mint(address,uint256)": "infinite",
						"name()": "infinite",
						"owner()": "2597",
						"refundTicket(uint256)": "infinite",
						"setDoorman(address,bool)": "27293",
						"setTicketPrice(uint256)": "24796",
						"setVendor(address)": "infinite",
						"symbol()": "infinite",
						"ticketPrice()": "2493",
						"totalSupply()": "2448",
						"transfer(address,uint256)": "infinite",
						"transferFrom(address,address,uint256)": "infinite",
						"vendor()": "2598",
						"vendorBalances(address)": "2846",
						"withdraw()": "infinite",
						"withdrawEarnings()": "infinite"
					}
				},
				"methodIdentifiers": {
					"allowance(address,address)": "dd62ed3e",
					"approve(address,uint256)": "095ea7b3",
					"balanceOf(address)": "70a08231",
					"burn(address,uint256)": "9dc29fac",
					"buyTicket(uint256)": "67dd74ca",
					"decimals()": "313ce567",
					"doormen(address)": "1920d329",
					"mint(address,uint256)": "40c10f19",
					"name()": "06fdde03",
					"owner()": "8da5cb5b",
					"refundTicket(uint256)": "75774100",
					"setDoorman(address,bool)": "c04620ed",
					"setTicketPrice(uint256)": "15981650",
					"setVendor(address)": "97d93935",
					"symbol()": "95d89b41",
					"ticketPrice()": "1209b1f6",
					"totalSupply()": "18160ddd",
					"transfer(address,uint256)": "a9059cbb",
					"transferFrom(address,address,uint256)": "23b872dd",
					"vendor()": "1385a6f2",
					"vendorBalances(address)": "a76f7561",
					"withdraw()": "3ccfd60b",
					"withdrawEarnings()": "b73c6ce9"
				}
			},
			"storageLayout": {
				"storage": [
					{
						"astId": 75,
						"contract": "contracts/TicketToken.sol:TicketToken",
						"label": "name",
						"offset": 0,
						"slot": "0",
						"type": "t_string_storage"
					},
					{
						"astId": 77,
						"contract": "contracts/TicketToken.sol:TicketToken",
						"label": "symbol",
						"offset": 0,
						"slot": "1",
						"type": "t_string_storage"
					},
					{
						"astId": 79,
						"contract": "contracts/TicketToken.sol:TicketToken",
						"label": "ticketPrice",
						"offset": 0,
						"slot": "2",
						"type": "t_uint256"
					},
					{
						"astId": 81,
						"contract": "contracts/TicketToken.sol:TicketToken",
						"label": "decimals",
						"offset": 0,
						"slot": "3",
						"type": "t_uint8"
					},
					{
						"astId": 83,
						"contract": "contracts/TicketToken.sol:TicketToken",
						"label": "totalSupply",
						"offset": 0,
						"slot": "4",
						"type": "t_uint256"
					},
					{
						"astId": 85,
						"contract": "contracts/TicketToken.sol:TicketToken",
						"label": "owner",
						"offset": 0,
						"slot": "5",
						"type": "t_address"
					},
					{
						"astId": 87,
						"contract": "contracts/TicketToken.sol:TicketToken",
						"label": "vendor",
						"offset": 0,
						"slot": "6",
						"type": "t_address"
					},
					{
						"astId": 89,
						"contract": "contracts/TicketToken.sol:TicketToken",
						"label": "locked",
						"offset": 20,
						"slot": "6",
						"type": "t_bool"
					},
					{
						"astId": 93,
						"contract": "contracts/TicketToken.sol:TicketToken",
						"label": "balances",
						"offset": 0,
						"slot": "7",
						"type": "t_mapping(t_address,t_uint256)"
					},
					{
						"astId": 99,
						"contract": "contracts/TicketToken.sol:TicketToken",
						"label": "allowances",
						"offset": 0,
						"slot": "8",
						"type": "t_mapping(t_address,t_mapping(t_address,t_uint256))"
					},
					{
						"astId": 103,
						"contract": "contracts/TicketToken.sol:TicketToken",
						"label": "doormen",
						"offset": 0,
						"slot": "9",
						"type": "t_mapping(t_address,t_bool)"
					},
					{
						"astId": 107,
						"contract": "contracts/TicketToken.sol:TicketToken",
						"label": "vendorBalances",
						"offset": 0,
						"slot": "10",
						"type": "t_mapping(t_address,t_uint256)"
					}
				],
				"types": {
					"t_address": {
						"encoding": "inplace",
						"label": "address",
						"numberOfBytes": "20"
					},
					"t_bool": {
						"encoding": "inplace",
						"label": "bool",
						"numberOfBytes": "1"
					},
					"t_mapping(t_address,t_bool)": {
						"encoding": "mapping",
						"key": "t_address",
						"label": "mapping(address => bool)",
						"numberOfBytes": "32",
						"value": "t_bool"
					},
					"t_mapping(t_address,t_mapping(t_address,t_uint256))": {
						"encoding": "mapping",
						"key": "t_address",
						"label": "mapping(address => mapping(address => uint256))",
						"numberOfBytes": "32",
						"value": "t_mapping(t_address,t_uint256)"
					},
					"t_mapping(t_address,t_uint256)": {
						"encoding": "mapping",
						"key": "t_address",
						"label": "mapping(address => uint256)",
						"numberOfBytes": "32",
						"value": "t_uint256"
					},
					"t_string_storage": {
						"encoding": "bytes",
						"label": "string",
						"numberOfBytes": "32"
					},
					"t_uint256": {
						"encoding": "inplace",
						"label": "uint256",
						"numberOfBytes": "32"
					},
					"t_uint8": {
						"encoding": "inplace",
						"label": "uint8",
						"numberOfBytes": "1"
					}
				}
			},
			"userdoc": {
				"kind": "user",
				"methods": {},
				"version": 1
			}
		}
	}
}